:100000004D424E014D3448500302040001002200CD
:100010006000000000C000000000000000000000C0
:100020000000EEEE000000000000000000000000F4
:1000300001000302000000000000000000000000BA
:100040000200190100002B000000000000AC0000BD
:10005000030019012B00300000AC00000014000068
:1000600000380020ED020000000000000000000049
:100070000000000000000000000000000000000080
:100080000000000000000000000000000000000070
:10009000000000000000000000000000B5010000AA
:1000A000E1010000FD010000B9010000CD010000E8
:1000B00000000000002934D00123002210B488423F
:1000C0002CD301242407A14204D2814202D2090187
:1000D0001B01F8E7E400A14204D2814202D24900A8
:1000E0005B00F8E7884201D3401A1A434C08A0424B
:1000F00002D3001B5C0822438C08A04202D3001BE1
:100100009C082243CC08A04202D3001BDC082243F7
:10011000002803D01B0901D00909E3E7101C10BC1B
:100120007047002801D00020C04307B4024802A154
:100130004018029003BDC046D90000000029F0D04D
:1001400003B5FFF7B9FF0EBC4243891A1847C046F2
:10015000002941D010B4041C4C40A44601230022C5
:10016000002900D54942002800D5404288422CD3BE
:1001700001242407A14204D2814202D209011B01B9
:10018000F8E7E400A14204D2814202D249005B00B8
:10019000F8E7884201D3401A1A434C08A04202D320
:1001A000001B5C0822438C08A04202D3001B9C0861
:1001B0002243CC08A04202D3001BDC0822430028C3
:1001C00003D01B0901D00909E3E7101C6446002C89
:1001D00000D5404210BC7047002806D003DB002049
:1001E000C043400801E08020000607B4024802A195
:1001F0004018029003BDC046190000000029EBD052
:1002000003B5FFF7A7FF0EBC4243891A1847C04643
:100210007047C046FEE70000034B01225A70A0233E
:100220000022DB051A707047C0110020034B012229
:100230009A70A0230022DB059A707047C01100203D
:1002400008B5044B01221A70034B0022DA7700F044
:100250006BFD08BDC01100200800005038B5802596
:10026000ED052B79DBB2002B0CD130490B604B60D4
:100270002B89081C9BB28B608A680C30103107F008
:10028000B9F847E0012B0DD1284BD968002941D09E
:100290005A68186982423DDA5A68501C58602B7AB5
:1002A0008B5437E0022B30D1204CE368002B2AD04E
:1002B000226821698A420CDA22689B5C1BBAEB60D7
:1002C000A3682068C01880B207F0F0F823680133F3
:1002D00017E0A2682368201C211CD2180C301031B2
:1002E00007F088F8E368002B0DD0A16822688A180F
:1002F000A2601B781BBAEB60A06880B207F0D6F84A
:100300000123236006E0EB6004E0032B02D1074BDE
:1003100000225A60C0468023DB0501221A70C046C5
:1003200002221A7000221A7038BDC046EC0200206A
:1003300080230222DB05FF321A600421024AFF31CA
:10034000118000221A70704706000040F8B5A02303
:10035000DB059B684A4A1F21DBB21160D12B0BD011
:10036000D02B01D80133DBB2A022D2059168FF2047
:10037000814319439160F1E70023424A42499A18A8
:100380008A4204D24149C95804331160F5E7404B11
:10039000404A191D043B934203D200221A600B1CF1
:1003A000F6E7EFF308823C4B191D043B9A4203D950
:1003B0003A4818600B1CF7E7FFF7BAFF384939488D
:1003C000053989B280B204F023FB374C374D012345
:1003D0005B4223716371A371E3712B1C3C331A7868
:1003E0002B1C3D331B781B02134398423FD106F070
:1003F000E9FF2F4B2F4918882F4A88420BD06E7D7A
:1004000018882B7D36023343984204D113889BB25F
:1004100023711B0A637113888B421BD0EE7DA87D6C
:10042000138836023043834214D100200423013B59
:10043000DBB2FF2B07D0214EEF18F65C3F79B742B5
:10044000F5D10120F3E7002804D013889BB2A371F3
:100450001B0AE371637922791B0213438B4206D096
:10046000E279A37912021A43124B9A4204D1144B37
:1004700002221A6062B6FEE700F08AF8F7E7C0468B
:100480002800005000000020EC0200207C9E0000AC
:10049000F0020020BC1100200C120020CDCDCDCDEB
:1004A00000C0000000000000C4110020C0BF000018
:1004B000FEAB0000FFFF0000BEBF000000AC00006C
:1004C00000E100E0014B18607047C046D0110020E9
:1004D000014B18687047C046D0110020014B1860CE
:1004E0007047C046D4110020014B18687047C046C1
:1004F000D4110020014B18687047C046000000204E
:1005000038B5144C256804F059FEE862256804F0FB
:1005100059FE2863256804F059FEA861256804F097
:1005200059FEE861256804F06DFE0B4A0B4912681C
:10053000096828621078497C236841435961191C75
:10054000EC3112320A6002225A67D43303221A6055
:1005500038BDC04600000020D4110020D01100207A
:1005600008B502F073FE021E05D10749A9230B71DD
:1005700006F0D0FEFEE7054B1B6803CB04F0C0FA83
:10058000FFF7BEFF08BDC0460B060020D8020020C2
:1005900037B506F051FD6C460734207009F0A8FA13
:1005A00009F010FB02F0F4FDFFF7DAFF06F044FD5E
:1005B000051C0E2800D90E25E8B2034B8200D35843
:1005C000211C98472570F1E7040000200F4B002202
:1005D0001B683220191DDA67043188676420C867F8
:1005E000803102204860012088600A60181C0121C7
:1005F000983049420160826001618261AC33043805
:100600000160826001611A607047C04600000020EE
:10061000F7B500AF3960786005F0A4F883000A33BD
:10062000DB08DB006946C91A8D46041C684605F0E4
:10063000A1F863000833DB086D46DB00EA1A954633
:10064000684605F0B5F800226E46111C013C06D341
:10065000A300EB58C9186300F35AD218F6E72C4CE4
:10066000022025682B1C90331C1C0C3C266801388A
:10067000632E0ADD002626600126B44676429E607F
:1006800000261E6166464640EE67266801362660F3
:100690001C698C4200D219619E688E4200D9996013
:1006A0001C68012C09DD1B4E00241C609E611C622D
:1006B00001262C1C8834464026601C681E6A0134C2
:1006C0001C60964200D21A629C69944200D99A61D9
:1006D000043B0028C8D10E4E7C6833683E68D96F51
:1006E000BD468A009A18111C9C3194320968126820
:1006F0008A1A22801A1C8832126892009B181A1CCF
:10070000AC32A43312681B68D31A3380F7BDC046DD
:1007100000000020FFFF0000F0B585B01F1C0AABF1
:100720001B78151C01910393041C04F0EBF81E4B7D
:10073000281C1B680021DA68920009F0E3FA019E88
:10074000002E0CD0201C04F075FE184B281C1B68D2
:10075000391C9A69002307F047F8013EF0E7002CA6
:100760000FD1124B1B689F691B6A029304F014FDA2
:10077000061C04F01BFD0299031C321C381C06F0F9
:100780001BFF281C0021019A07F082F8039B012B14
:1007900008D1002C06D1054B201C1D6804F07CFFFD
:1007A000F035286005B0F0BDD80200200000002020
:1007B000F0B589B0059106920793049006F0DEFE2D
:1007C000234B80791B6802905A699B6905985A43AC
:1007D0000021920009F096FA029F013F7A1C2BD06B
:1007E000049804F027FE1A4B1E6872690192019B5F
:1007F000013B0393F1D3B469164B059AE518039BAB
:100800006343ED18AD005519013C13D3B368019A49
:100810005343E3180133069A9B0098582B68181825
:100820002860002F04D10299FFF744FC00042860DF
:10083000043DE9E7039AD9E7079B012B06D1064B54
:1008400004981C6804F028FFF434206009B0F0BD5F
:10085000D8020020FFFFFF3F0000002030B5224DEE
:1008600085B02B681A1CD2321178663A002904D15F
:10087000191CB4310978002901D0002111701478B5
:10088000002C1FD0196F00200191DA6B17490292DA
:100890005B6B01AA039303234B707C235B42CB70F9
:1008A00010230B7106F036FD2B6800241A6F596F68
:1008B0008A4202DC01321A6712E01C670C4B1C7082
:1008C00001240DE0DA6B5B6B0A4901920293092067
:1008D000642301AA0B71039406F01CFD2B681C67AE
:1008E000201C05B030BDC046000000208C00002058
:1008F000CC11002093000020F0B593B004AF3A6112
:10090000F86006F047FE6C4E69463368B8601C68B4
:10091000796004346400221C0832D208D200881A9C
:100920005A68854604325200131C0833DB08DB008A
:10093000C01A04AD854604A97961081C002109F09C
:10094000E1F9221C281C002109F0DCF95B4CF86855
:1009500023689A69191C1B6A0090281D0190786908
:10096000343104300290386903F094FB3368386006
:100970009A6891001A68236801324A4398690021F5
:1009800009F0C0F92068836D6830036008F0A2F8B0
:10099000BA682368127B9869019500927A69191CDC
:1009A000029260313A69343303F0E2FC7B689D4681
:1009B00006F0FCFD051C07F005F92B7B002B0CD085
:1009C00074300378002B08D122683823FF33D35CBE
:1009D000012B02D0012004F0AFF9336838495A687E
:1009E00018684A709A68CB787F250870AB4302205C
:1009F0008024034364422343CB7053238A700B71DA
:100A000001323B6952009A18012006F083FC381C21
:100A100000212022183009F075F9336818685968E8
:100A20009A6838767976BA760533DB7F3969FB7652
:100A30007B7F0220AB430132034352008A181C43E0
:100A40007C77391C0092002201201831131C06F01B
:100A500027FC02F0A3FB02F0C9FBFFF7FFFE002812
:100A600026D1164C2368986904F08CFD2568281C53
:100A7000291C6031343003F05DFC23686866586ED1
:100A800004F0DEFC04F042FB3A68002A07D1236838
:100A9000F8681A1C34321B68396906F0F5FD02202B
:100AA00004F078F92068683008F014F8052000E0B8
:100AB0000420BD460FB0F0BDD80200200000002089
:100AC00004060020F0B59400231C0A3385B0DB082F
:100AD000DB006946C91A02AF8D4602AA061C7A607D
:100AE000101C0021221C09F00DF9231C0833DB081F
:100AF000DB006946C91A8D4602AD281C221C002164
:100B000009F000F90C4C301C2368196BDA6A603369
:100B100000910193291C7B6807F0FEFF301C02F056
:100B2000C7FB2368301CDA6A1B6B291C00937B68A7
:100B300007F04CFABD46F7BD0000002070B50C1C54
:100B4000151C1E1C07F09EFC0B4B201C1B68D96A51
:100B50001A6B07F09BFD201C08F090F9201C07F091
:100B60008FFE291C321C201C07F040FF291C201C72
:100B700003F0FAF970BDC0460000002038B508F057
:100B800063FF051C012008F073FF041C281C03F000
:100B9000A1FE201C03F0AAFE38BD38B509F04CF8C0
:100BA00008F05AFF051C002008F062FF041C281CF6
:100BB00003F090FE002004F08FFC201C03F096FE52
:100BC00004F09CF838BD10B5A4B08C22041C0021A0
:100BD00001A809F097F801A8211C07F047FF07F0CA
:100BE00071FF01A8211C02F0D3FB24B010BD00004E
:100BF000F7B506F0E7FF06F0E5FF061C06F0D6FCA9
:100C0000444B74361C68327825791E1C6BB2071C65
:100C10000093002A04D00025E560FF34657025E0CC
:100C2000E3683D4A934202DCE3680133E360E36832
:100C30003A4A01933A4B12681B6810781B7C0321D7
:100C40005843FFF785FA019A824200D10225009BA2
:100C5000032B04D0E3686269934200DB0325E36859
:100C60002D4A934202DDFF3401236370009A6BB278
:100C7000934209D02B4900202B1C0E33021C0B7110
:100C800006F048FB33681D7133681A79002A02D1D7
:100C9000224A12680EE052B2022A0DD11F4A12688F
:100CA00051781960191CEA310978002914D1397B6F
:100CB000002911D012780EE0032A0DD1174A1268CC
:100CC00091781960191CEA310978002904D1397B1F
:100CD000002901D052781A60186804F0A9FD336821
:100CE000041CF033186804F0C7FD241A002C0BDD37
:100CF0003368186804F09CFD3368041CF0331868EE
:100D000004F0BAFD201A00E0012004F015F804F008
:100D100035F8F7BD000000202F750000D411002029
:100D2000D01100200B06002008B5054B1A683823A7
:100D3000FF33D35C002B02D1022004F053FB08BD2B
:100D400000000020F0B587B006F030FC071C06F06C
:100D500039FF031DDA6FA64B002A07D188300468DB
:100D6000621E9441E4B2002C05D000E001241A6810
:100D70000021BC3205E01A68BC321168FE2901DC92
:100D8000013111601B6800211A1CD03215881180B6
:100D9000183A029511708C4204D096490968497D31
:100DA000002958D0181CB7300178C9B2002908D0E2
:100DB00003785BB2022B00D0012313700023037071
:100DC00011E11E1CB4363578002D09D001251570AF
:100DD0001A1CB532C033017031701170196003E113
:100DE000002C38D1191CC0310D68002D08DD013DE3
:100DF000012D01D00D602EE003230C601370F3E091
:100E00001A1CEC32126811887B4A914223D01A1CBA
:100E1000CC321188794A1268528A8A421BD8754DA1
:100E20002868827C181CBC300068904213DB05AA3D
:100E30001180CE331B887249538002234B70CB70D4
:100E4000201C15230B7106F065FA694B2A681B6894
:100E5000D27CC0331A60674E3368187D002800D0FA
:100E6000C1E0634D002C24D12A680133C832DB7FF6
:100E700012689A4215DB63491223201C221C0B7155
:100E800006F048FA2A683068131CC4331968023027
:100E900001311960C07F814203DB1C60B83202233C
:100EA00013702A680023111CB631C8320B7013600E
:100EB0003EE02B681A1CC03210602A321278002AD9
:100EC00036D0191CCC31098805AA1180CE331B8875
:100ED0004B49538002234B70CB7019230B7106F0E2
:100EE00019FA2B683268191CCC310D88D08B163951
:100EF000854215D2181CCE300588508D85420FD200
:100F0000D08D029D85420BDA0978002910D1C833B3
:100F100001321968D27F91420ADA0131196007E083
:100F200001220A70191C0022C831C4330A601A60F9
:100F30002F4E3268131CEA331B78002B53D13B7BB6
:100F4000002B4ED0131CB4331D78002D4BD1294FEC
:100F5000506B3B683A68DB8A518B9C463B68928BAE
:100F60001B8B0093634606F0C3FA3B680390DB8C4F
:100F700032689C463B68506B1B8D3A68518C928C52
:100F80000093634606F0B4FA33681A1CCC32118819
:100F9000039ACE33914207DA1A88824204DA3A6819
:100FA0000298928D904210DB05AA11801B8814498B
:100FB000538002234B70CB70002017230B7106F077
:100FC000A9F933680122B5331A7033681A1CB53297
:100FD0001278002A07D0002C05D0B43301221A70F1
:100FE00002E0B53213700125281C07B0F0BDC046E1
:100FF00000000020D0110020FFFF0000D4110020CD
:101000008C0000200B060020F0B58FB000AF786395
:1010100003F05AFC061C03F06FFC386103F060FC1F
:101020009F4B78601B686846DC68231C0E33DB0826
:10103000DB00C01A85466D463D637279A218131C09
:101040000E33DB085500DB00C01A2B1C0E33DB0807
:10105000DB00F8628546C01AC11A85468D46786263
:10106000684678610021F86A08F04CFE0121494287
:101070002A1C786A08F046FE8A492A1C786908F01A
:1010800041FE221C386B396908F0FAFD7C6B002C9C
:1010900011D1854CB379082023707379211C6370BA
:1010A000A3707F235B42E3703A6BD223237106F077
:1010B00031F9B379CBE040250024BD61FC6100210A
:1010C0000122386B04F01AFE032004F0B3F9744BCC
:1010D00075491B681D6858689A680423CB705123B2
:1010E0000B71724B8A701B6801329B6992004870C9
:1010F0009A1802200D7006F00DF9B479BC62BC6A32
:10110000013C3C6200D291E07379013B7B637C6BD4
:10111000013400D187E03D6A73797C6B6B437D6954
:10112000E3185B005A5B624B9A4278D003F0CCFB29
:101130005E4BBC6A1A685A4B7D6B1B6892699B6850
:101140006343EB1801339B003C6AD25A43797869B8
:101150006343EB185D00AC46011C61440C883C60A5
:10116000944204D87D6A101B6446285323E07D6AAC
:101170002C1C6444251CFC6000242C5F013415D019
:10118000FD6AEC18257868B2B860013001DA0135E3
:1011900003E0B868002809DD013D02235B420B80B3
:1011A000FB69257001339BB2FB612CE0FD6AEC18F2
:1011B0002578002D01D10A800CE06DB2681C05D1A4
:1011C0003968FD688A1A2A80002202E0012D01D1C7
:1011D000FF222270FC6AE1180A7850B2002806DC6F
:1011E0007D6A6446285F013007D0002A05D13C6B38
:1011F0000132E3563E2B05DD05E03D6BEB56002B3F
:1012000001DD013A0A7073793C6A7D6B6343FC6AC5
:10121000EB183D69E15CEA5C3C6B8A18E2547D6B3B
:10122000013D7D6373E73D6ABD6268E71C4BFD6964
:101230001B68DA681B69D3189D4200DB29E7BB698C
:10124000013BDBB2BB61002B00D038E721E7013B5B
:101250000FD37279013AFAD371793D6B59438918EA
:1012600069187D68E8185F300D78007828180870D4
:10127000F0E7386B0021012204F040FDB37908202B
:1012800023707379211C6370A3707F235B42E3702A
:101290003A6B1D23237106F03DF8BD460FB0F0BD3B
:1012A000D8020020FFFF00000406002000000020FC
:1012B000FEFF000010B5041C03F012FB5430007850
:1012C000434258412040FFF79FFE10BDF0B5434C0C
:1012D0008DB000AF2668B960051C05F0C3FE382349
:1012E000FF332168F054CA5C3D4C002A10D12368BA
:1012F0000A209862F8312820D8620A7008F0F8FBBA
:1013000008F060FCFFF72CF904F052F9482216E0CF
:1013100006F040F90026067008F01EFC236803CB97
:1013200003F0EEFBFFF7ECF8236802221A620A22B0
:101330009A622822DA621E611A685B685A43920038
:10134000131C0A33DB08DB006846C01A85466B466F
:10135000FB602368186859689C6A414389000A3118
:10136000E600C908C9006846331C401AA4000833C7
:10137000C11A231C0833DB08DB0085468D467860E4
:10138000C91A684678618D463961F868002108F00D
:10139000B9FC321C7869002108F0B4FC221C3869C1
:1013A000002108F0AFFC00237B627B697868F96854
:1013B000BB620A4BF861386939621B683821F862F0
:1013C000FF315A5C074B9100CC583B1C281CB96874
:1013D0001C33A047BD460DB0F0BDC0460000002044
:1013E000D80200204000002010B5041C05F0B6FE15
:1013F00005F022FEA042FBD008F054FBFFF7B0F846
:1014000005F0D0FC10BD000070B5051CFFF7B6FB61
:10141000FFF76AF8224B041C1B685E8A05F0D2FDB8
:10142000002004F059F804F01FF81E4B1B683333FA
:101430001B78002B04D000206082291C00F000FBE8
:1014400003F088FEC0B205F0B1FFFFF759F80120A4
:10145000FFF730FF05F082FE05F08AFE052815D063
:1014600004D8002814D003280AD806E006280AD099
:10147000021C113AD2B2022A0AD801F0FDFB07E0A1
:1014800004F0B2FE04E003F039FC01E003F024FCB8
:1014900005F0D2FDA842DFD0FFF77FFB668270BD6A
:1014A000D4110020D011002010B5041C05F056FE08
:1014B0000120FFF7FFFE05F0BFFDA042FBD010BDED
:1014C00010B5041C05F04AFE01F0D4FB05F0B4FD94
:1014D000A042FBD010BD10B5041C05F03FFE04F087
:1014E000EFF805F0A9FDA042FBD010BD10B5041C1B
:1014F00005F034FE0220211C00F0A2FA05F09CFD4C
:10150000A042FBD010BD10B5041C05F027FE012041
:10151000211C00F095FA05F08FFDA042FBD010BD14
:1015200010B5041C05F01AFE002003F083FF03F041
:10153000E1FF05F081FDA042FBD010BD10B5041CF9
:1015400005F00CFE002003F0CDFA002003F072FF3E
:1015500003F0D0FF05F070FDA042FBD0012003F0A6
:10156000C1FA10BDF0B5A3B002AF386105F0F6FDC9
:10157000002008F05BFB08F025FB002003F0ACFF27
:101580005C4C694623685D6818681B694543EB1825
:101590000733DB08DB00C91A8D4602AAFA6103F0A3
:1015A00093F903F0A9F903F09BF9FB695D19181C85
:1015B000291C7D6104F016F923686C465A681B6982
:1015C000D3189B000A33DB08DB00E41AA54602AC03
:1015D000BC6105F0C3FD381C00212022203008F03A
:1015E00091FB444C20202368012519681A79C155C4
:1015F00021202221C255CA550533DB7F2520232215
:10160000D355C35D7F229343FA692B43C1190B70F5
:1016100000920022131C0420053905F041FE79696F
:101620002A1CF86904F06AFB002003F003FF256818
:10163000B8696E682B69B4009B199C462E4B04193F
:101640001968BC60002363450CDA9A00B34203DAE0
:101650000C6AB869A45802E08C6AB868A45884502F
:101660000133F0E73C1C4034201C0021202208F00C
:1016700049FB2968AB6821706670A3700535EA7F65
:101680007F26E27062790425B2432A4362711A4AC6
:10169000013312689B009269211CD3180022203468
:1016A00000930220131C05F0FBFD201C00212022CA
:1016B00008F028FB012323700E4B211C1B6810200F
:1016C0001A7905336270A270DB7FBA69E3706379BF
:1016D000B3431D43657100920022131C05F0E0FD29
:1016E00005F0AAFC3C69A04200D174E7BD4621B0D8
:1016F000F0BDC046D80200200000002010B5041C38
:1017000005F02CFD05F098FCA042FBD010BD0000B8
:10171000F0B58BB000AFB86103F0D6F805F02EFF3E
:10172000584C6E4623689D68DB687D625A00111C28
:101730000E319B00C9080E33C900DB08DB00761AA6
:10174000B546F61A6D4600216846B5467D61FE60D5
:1017500008F0D8FA002003F06DFE7E6A4A4A20683D
:101760001568B20052420368BA60321C5A439100B5
:10177000F961B107711A79609107891A3A62013BE0
:1017800023D344683E6A3219261C5E437618B4009F
:10179000FE68920034193C61FC69A2420BD03C699E
:1017A0000426A418A446AC697642A458B4446646FC
:1017B0003460043AF0E7BE683A6AA419FC617C6AB6
:1017C0007E68121B3A628919D9E7BC690B2C55D186
:1017D000002003F02FFE2B4B19682B4B08681C6868
:1017E0007B6AB86143439A003A629A07D21A3A6117
:1017F000FB61844666464A68013EB4462ED3654680
:101800005543FE692148B318121852197E69386988
:101810005200B2182D18FE68AD0075199B003D608E
:101820003E6AB3420ED03D68E818A56904380668E0
:10183000E858301A0025565F864200DA1080043BD3
:10184000023AEDE7BD6876193E627D6AFE69761B55
:10185000FE617D683E6976193E61CBE70C49B86947
:101860007E23D2B25B4208704A708A70CB7001202E
:1018700052237A690B7105F04DFDA9E7BD460BB007
:10188000F0BDC046D802002000000020FFFFFF7F0F
:101890000406002010B5041C05F060FC201CFFF7B6
:1018A00037FF05F0C9FBA042F8D010BDF0B50378B2
:1018B00087B0041C012B35D103F006F81B4E071C22
:1018C0006468356805F0DCFBFF35687304AD281CDF
:1018D00005F010FC684605F0D9FBFE37201C694670
:1018E0000F2208F0CDF9BB89002B03D01A0A23710F
:1018F00062716B8033680E21FF315A182178FF33F3
:101900001170587B049A6B6804F0A6FE3368FF33AD
:101910009C7B6408201C04F0E5FE201C05F02AF8DE
:1019200003F046FE012007B0F0BDC04600000020D5
:1019300008B5416803780A4A0A4812680068EC3220
:1019400012301060002B03D0C9B2002000F078F8EC
:1019500003F000FCC0B205F029FD022008BDC0461E
:1019600000000020D4110020007908B5002804D11F
:101970000120FFF79FFC032004E00138434243416C
:101980000520C01A08BD000070B5047A06784568C5
:1019900005F000FE002C06D00123012C06D103F037
:1019A00007FE002302E00123042400E00524044A8A
:1019B00070B21268291CD269FEF7FAFE201C70BDB5
:1019C00000000020F0B5037A85B00568067902931F
:1019D000077B05F0DFFD05240390012F02D103F002
:1019E000E7FD0324039B2A685978AB68029D70B217
:1019F0000095FEF791FE201C05B0F0BD031C10B54C
:101A00009A680C1C00785968DB6800F0A9FC20700B
:101A100010BDF0B5846887B00778466865680591A1
:101A20000F22C168684608F02BF9231C381C311CB2
:101A30002A1C01F055F8059B187007B0F0BD000096
:101A4000F0B5D04C9DB000AFB86320687960407DA0
:101A500043000133FB65CC4B78641A683823FF33AD
:101A6000D35C012B03D105210222F9657A6403F0CE
:101A700061FB236878665B7DFF22D31A984200DD04
:101A80007B66786E7C6C041B3C636C4603F05AFBEF
:101A9000BC65FC6D684665002B1C0833DB08BB4C3D
:101AA000DB00C01A012363707C235B423A1C85462D
:101AB000E370211CB1230020643223716E4605F0CF
:101AC00029FC0023211C3C6B5A001819FC6D0133C2
:101AD000B052A342F7DB0223CB70321CE4B2632383
:101AE00000204C700B713C6405F014FC2B1CBC6D89
:101AF0000833A546DB08DB006846C01A8546C01AD5
:101B00006C468546BC65F86303F02CFEF861012045
:101B100003F0A2F900212A1CF86B08F0F3F8B86D65
:101B200000212A1C08F0EEF8FC6D6846A400231C76
:101B30000A33DB08DB00C01A8546C01AFC627862F3
:101B40006C468546C01A8546BC626C46BC61FC6921
:101B5000A400BC600024FC640021FA6AB86A08F0A2
:101B6000D1F8786AFF21FA6A08F0CCF80024854B96
:101B7000BC641B68BC6C1B7D9C4251DA3C6B00262C
:101B8000E4B2201C7C6103F0EAFA03F0B3FA03F03C
:101B900059F9BC697D6A3C62BC6AF86D0136F2177E
:101BA000C30F86425341DBB23B61002B06D17969FA
:101BB0008819C0B203F0D3FA03F09CFA6B46FB60BD
:101BC000BB686A460A33DB08DB00D01A85466A46E2
:101BD0007A6503F0CFFD0020031CFA69934205DA11
:101BE000796D9A008A5801338018F6E72368984285
:101BF00000D920602968884200D2286003F016F9D5
:101C00003A6A043501C23A62FB6838699D46043479
:101C1000002802D103F016F9BFE7BC6C0134A6E737
:101C200000255B4E2C1CB96A7A6AA300C858D358A9
:101C3000C01A864204DD3B6B061CE3187B633C65DF
:101C4000854200DA051C03F0F1F8B96DFA6D630006
:101C50000134C8529442E6DB281C03F0E7F8494BF4
:101C60001B685B8A984206DABC6B012C03D07C6E41
:101C70007C637C6C3C65FEF7A9FCBC6B012C21D11C
:101C8000FA6B0023BC6D5900615A1088884200D25B
:101C90001180FC6D01330232A342F3DB3C6D630023
:101CA000FC6B1A5BFC6C131CA24200D2231C37494C
:101CB0009BB23C6CFB64002002234C70CB7008711B
:101CC000FA6B19E0B86B314C022808D1396C042347
:101CD00000206170E3702071211CBA6927E0281C84
:101CE00003F0A4F83A6C80B2F8646270022300201A
:101CF000BA6DE3702071211C05F00CFB3C6D68236C
:101D0000DC537C6B6A20C4533C6D6E216300BC6D58
:101D10006C201B5BFC6CC353CC531C4904234B70DD
:101D20000223CB703A1CB2230B710020683205F0FD
:101D3000F1FA154E3C6D32686300111CEC31BC6D3C
:101D400009681B5B09888B4226D9002924D007F03B
:101D500073FF041C07F09CFEC379051C002B06D002
:101D6000012005F017FB3368EC331D6026E0002CE2
:101D700024D1084B1B681B7D002B1FD1012005F0CF
:101D8000FDFA1BE0D4110020000000208C00002090
:101D9000FFFFFF7FD0110020EB321278002A0DD018
:101DA0000E4C2068428A9A4208D9002005F0F2FAC7
:101DB0000B4B22681B681232EC331A60BC6B002C90
:101DC00006D17C6BE0B203F0CAF9BD461DB0F0BD90
:101DD0007B68063B012B00D8BEE6F2E7D411002059
:101DE00000000020F0B585B000920391029007F04A
:101DF00023FF061C05F092F9071C05F097F9724DB8
:101E000001902B681A1CE8321278BA4220D0002FB9
:101E100008D06E4900203B23021C0B71022605F0FE
:101E200079FA10E00199052400290DD167493C2376
:101E3000381C3A1C0B7105F06DFA2B68EA331E78DA
:101E4000731E9E41F6B201242B68E8331F701DE01B
:101E50001A1CE932127801998A4216D0002906D15B
:101E6000EA331E78731E9E41F6B23A2301E039230D
:101E7000022656490020021C0B7105F04BFA2B6814
:101E8000019AE9331A70012400E0052405F0DCF81A
:101E9000071C05F03BF9009B032B02D0002F03D158
:101EA00007E00124002F36D0002005F0D5F80124EA
:101EB00031E02B68E8331F88002F2CD100990129CD
:101EC00002D0022904D00EE0009805F057FA0AE08B
:101ED000381C05F053FA2B68EB331B78002B02D02B
:101EE000381C05F057FA05F043FA2B68071CEA3353
:101EF0001B7883420FD0002802D01123012601E075
:101F00001223061C31490020021C0B7105F002FA55
:101F10002B68EA331F7007F08FFEB04238D007F00D
:101F20008BFE07F099FD071C301C07F095FD009013
:101F300007F082FE301C07F079FE07F043FE244BC9
:101F40001B685B7D002B0FD0012C0DD0009B3A1C31
:101F5000563256330298039905F06AFC002003F0CC
:101F600069FAFEF733FB06E02B680020D2331870C5
:101F700003F0B2FA0124002005F00CFA2B680021CE
:101F80001A1CEB321170134AEC33126812321A60C9
:101F900007F052FE07F07CFDC379002B08D005F056
:101FA000F3F92B68EB331A78824201D018700124C0
:101FB00005F0C4F8051C05F005FE0379AB4200D01E
:101FC0000571201C05B0F0BD000000200B060020AC
:101FD000D0110020D4110020F0B51D1C9BB00423AB
:101FE0006F460E936B680024061C073701203C7077
:101FF0000294039404940594069007960894099417
:102000000A940B940C940D940F93109411941295C0
:102010001394149015921696179118951993A2007F
:1020200002AB240118190C4B391CD35898470B4BA1
:10203000041C1A689C235B00D15C012902D1002199
:10204000D15403E004F0F8FFB042E8D0E868FEF7AE
:10205000BAFD1BB0F0BDC0464C00002000000020BF
:10206000F7B5434C151C236801911A1CB532127840
:10207000061C002A23D01A1CEA321278002A1ED12C
:102080001A1CD2321178002919D1B4331B78002BD5
:1020900015D10123137002F023FC071C02F014FC7D
:1020A0003A1C031C56325333301C019905F0C0FB17
:1020B00003F08CF9022003F095F9FEF787FA236804
:1020C0001A1CD2321278002A4FD01A1C294F002035
:1020D000B43210703A680190126A011C013A0ED3B2
:1020E0000E265643B446AC446646B688002EF5D05C
:1020F00036B20131B042F1DA301C0192EEE71A1C1F
:10210000EA321278002A13D1012911DD05F05AFDB7
:1021100001230430C3673B681B6A013B0AD3019E5D
:10212000B342FAD00E225A430021AA189180F4E754
:10213000002904D023680022D8331A6008E01A1C52
:10214000D832D43311681B68994201DC0131116027
:102150002368191C1A1CD831D432096812689142BC
:1021600005DDB43301221A7001E0D8331A60F7BDDF
:1021700000000020D8020020F0B5764D99B02A6802
:1021800002AF1368926839605200991C51430133C1
:102190005208396153430831C90804686E4EC900BA
:1021A0006846401A85460133306802A95B00CB18A7
:1021B00079612C2200213430BB6007F0A3FD00219F
:1021C0003A69786907F09EFD381C002120221830FA
:1021D00007F098FD2B687F211A6858683A769A684C
:1021E0007876BA760533DB7F0132FB767B7F92000F
:1021F0008B4304210B437B773368391C9B69022096
:102200009A1800920022131C183105F049F8206832
:10221000A1687A69BB68FEF76FFBB860052800D03B
:1022200086E02E686A46F36A7A601A01131C083346
:102230006946C81A854602A97961081C002107F081
:1022400061FDF26A7869E168FEF73CFC2B6868463C
:102250009A6A0E235A43131C0833DB08DB00C01AAA
:10226000854602AD0021281C07F04CFD23697869E2
:10227000291CE268FEF762FCFEF764FD374B1B6821
:102280005B7D002B04D12068A1682A1CFFF7E8FEC3
:10229000E168281C01F07CF806F062FF8300073338
:1022A000DB08DB006946C91A2A4B8D461C6802AA66
:1022B000A36AFA607B610E22013B5343ED18061CB2
:1022C000043538617B69013B7B610FD300202B5EB5
:1022D000002B09DD3969FA68013988003961101865
:1022E000291D042207F0CCFC0E3DEBE73D1C3835E0
:1022F00000212022281C07F005FD61682068A368E2
:10230000697015492870AB7009680534E27F096B64
:102310000133EA705B007E22CB1852426A7100934F
:10232000F2B20320291CFB6804F0BAFF7A689546D4
:1023300002F02CFF03F04AF802F056FD012003F0F2
:1023400079F802F0A9FEB8683B68BD46187017B06E
:10235000F0BDC046D802002000000020D0110020AF
:10236000F0B5584F8FB001933B68151C1A1C002420
:10237000FF321C71D4741C61061C009105F028FC0E
:10238000514B01991B680794089409940B910C9484
:102390000D9406950A951A8A9878FA215043890077
:1023A000FDF7D6FE009A3C681378FE346082B34293
:1023B00003D004F0D3FE009B1E703B6800229A609D
:1023C00004F0EEFF041C02F0C5FEA04206D0201C63
:1023D00002F0C5FE03226B46DA7250E03B49002052
:1023E000A623021C0B7104F095FF0198FEF700FC78
:1023F00039686C46081CCC30CE31FEF709F9344BF5
:1024000034491B6802205B680B344B700423CB708B
:102410005B230B713B681A6A04F07CFF3B682E4912
:102420001A1CCC3212880C2003921A1CCE3212884D
:10243000D03304921B8803AA059301230B7104F087
:1024400069FF06A8211CFFF797FE3B68B8229A5641
:102450002868A968FFF7C6FC052800D020701F4B2C
:102460001A681F4B9A4202D003F02AF9FEE73B6834
:102470001C4A9968914202D09A6801329A606C466F
:102480000B342378052B0CD004F0ECFD3B6838218D
:10249000FF315A5C824212D001219C228A40995419
:1024A0000DE004F0DFFD3A683821FF31535C8342D0
:1024B000EAD104F0C1FDB04200D181E7E4E7207821
:1024C0000FB0F0BD00000020D41100200B0600204A
:1024D000D80200208C000020930000200812002069
:1024E000CDCDCDCDFFFFFF7FF0B5A1B0019205228C
:1024F00014925A6800241592019A0125061C6F4611
:1025000004A81D911B490F37089509900C9511954A
:102510001695189306251B921E931F903F23201C8F
:10252000221C3C700A940B940D960E940F941094F8
:1025300012941394179419951A941C960B7104F025
:10254000E9FEA20008AB240118190B4B391CD35823
:102550009847041C04F086FD084B1A683823FF33A3
:10256000D35C834203D104F067FDB042E9D021B0CF
:10257000F0BDC0460B0600206C00002000000020CB
:10258000174BF0B51B6885B01E689B68B41C5B00D8
:102590005C4300AF221C5B08FB600832114BD20881
:1025A000B86079601868D2006946891A8D462C2275
:1025B0000021343007F0A6FB221C6846002107F0FA
:1025C000A1FBFA68731C534301336D465B006A46F6
:1025D000EB18B8687968FEF78FF9BD4605B0F0BD15
:1025E000D802002000000020F0B595B002AFF861DD
:1025F0003B1C786E6C331B7805780E1CBA617B60CF
:10260000B74C002D00D0EBE01378082B18D102F066
:10261000CFFF23680520DA69F9692B1CFEF7C8F89B
:1026200002F0C6FF3268B368012106200095FEF76C
:1026300073F802F0BDFFB96905220D707A6141E2BD
:102640006846B860052002F0F5FEA64B68461B6898
:102650009A6951005A6901324A43131C0833DB0856
:10266000DB00C01A854602A9F960081C291C07F086
:1026700049FB2368FA69D969F86805F063F9051C14
:10268000386104F093FF984B42681B6899688A424E
:1026900003DBDA6883689A4206DA23680122191C90
:1026A0007831FF330A701A7423681A1CFC32FE3327
:1026B000598A9068FDF7A2FD796105F069FA012D4C
:1026C00011D12268E030131CFF33DC7B007800213D
:1026D000A04201D8D97302E00134DC733961783249
:1026E000012313700EE023680022FF33DA731B7C92
:1026F000934207D17D4BF8691B68F96835331A7826
:1027000005F0DCF9764A3869136800241A1CFF3298
:102710001474734D012815D102F04AFF062002F00F
:1027200089FE3A69796EBB696D480A701C7003684E
:102730006F4978331C70201CA323221C0B7104F0FA
:10274000E9FD48E0684A191C1268FE311279498A8D
:102750007869891A814201DD90421ADC191CFC312A
:102760008968914215DD7969914215D178331C78D9
:10277000002C0DD102F01CFFB368326806200094D3
:102780000121FDF7C9FF2B68FC339C6002F010FFAC
:102790002B68783300221A702B685649FC339A68EC
:1027A0008A4201D001329A6004F0BCFA04F058FA6F
:1027B0004E4B1B683533187802F0CAFA002002F03D
:1027C000E9FA786802F0CBFC04F06EFA02F09AF8AD
:1027D000BA6EC4300260BB6805209D46786171E125
:1027E000424B1B68998F363379601B78FB60FA681F
:1027F0002368101C1A6002F0ABFA062002F0F2FD0A
:102800003068B168FFF7BCFE7861052800D059E157
:10281000344C684625683860E96A0A01131C08339D
:10282000C01A854602A9B960081C002107F06AFA9F
:10283000EA6AB868F168FEF745F9236868469A6A5B
:102840000E235A43131C0833DB08DB00C01A8546ED
:1028500002A9F961081C002107F054FAB868F96967
:10286000F2683369FEF76AF9FC6900251D4B1B68A5
:102870009B6A9D4211DAF268EB00D3182288A11CF2
:102880001A806288201C5A80E2880135DA80A2888A
:102890000E349A8006F09EFBE8E7BB69396E1A7821
:1028A000F86906F089FCB969421ED2B208700C4B77
:1028B000012A03D81A680021FC32D160032809D00C
:1028C000072819D0012800D0FAE01B680022FC3349
:1028D000DA60F5E0386E06F06BFF041E1AD00CE0EB
:1028E00000000020D8020020D4110020D0110020C8
:1028F0000B060020FFFFFF7F182404F0BBFB734B87
:102900001B681B6C18400123A3401840431E9841CC
:10291000404204407A68F868FA2150438900FDF784
:1029200017FC6B4E051C33681A1CFF32527B022ABF
:1029300007D1FC33DB68834203DDB86908230370E9
:10294000002405F025F9396E381C0B6824301A88EC
:10295000BA845B88FB8406F06BFB3368FF335A7BD9
:10296000022A2AD19B7B5A071FD5182C1DD1381C4F
:10297000283004F0BFFBB98D24203B5EFA8D9942CC
:102980001DDA388D0918994219DD26217B5E9A429D
:1029900015DA798D52189A4211DD012004F09CFB62
:1029A000B88CF98C04F08CFB7AE09A0705D51A2CC8
:1029B00003D1012004F076FB72E0002C70D1444B6F
:1029C0001B681A1CFF32517B0122022905D1191CF8
:1029D000FC31C968A94200DC0022B86901780829E5
:1029E00052D1D2B2002A4FD004F0B0FB002830D030
:1029F0000224381C221C3749203007F041F9381CCA
:102A0000211C203004F016FC052004F043FC381C87
:102A100000212022283007F075F9396E28220B7B1F
:102A20002D21D3552923DC55CB5D7F2293432A20CA
:102A3000C4551C4380235B421C433B6ECA191B6870
:102A40001470391C0022009305202831131C04F057
:102A500027FC02F0BBFC012002F06EF9786E002426
:102A60001B4B04701B68201CFC33DC609C6004F072
:102A700019FB201C04F030FB1749A223201C221C48
:102A80000B7104F047FC18E0FC33DA6813498A4202
:102A900001D00132DA6002F099FC02F077FB0CE021
:102AA000282202212923D019D155DC5504F0C2FB7C
:102AB00002F08CFC012002F03FF93868854601E005
:102AC000002427E77869BD4613B0F0BDD01100207F
:102AD00000000020409D00000B060020FFFFFF7F4C
:102AE000F0B5EBB0099370AB1B7808929A075B07BF
:102AF000DB0F06936B46D20F2E3300240F1C079278
:102B00001C70051C01F0E0FE01F0FCFE031CC43348
:102B10001B68061C059305F05BF86B462F331822E3
:102B200014A8211C1C7007F0EDF81AAB14934D4B40
:102B30001A68FF32537B022B10D1927B1A420DD0C0
:102B4000494BFA201B6880005B8F584302F094FECB
:102B500002F0F2F802F012F902F018FB43490020EB
:102B6000A223021C0B7104F0D5FB3B78AB4202D0D0
:102B700004F0F4FA3D703C4A3A4B12681B68353257
:102B800011781A1CFE324900518200229A6004F02A
:102B900007FC041C02F0DEFAA04204D0201C02F064
:102BA000DEFA042435E0059914AB00936A46213B14
:102BB0002E32019302910023099903900898FFF7A0
:102BC00013FD0CAF041C381C04F060FA079A70ABBC
:102BD00050001A7802218A43069902430420890092
:102BE00082430A43049139781A7006231A400B4035
:102BF0009A420ED010AF381C04F048FA194B1A68EC
:102C00003B78FF3293735A079B07D20FDB0F069274
:102C10000793144F164A3B689968914202D09A680C
:102C200001329A60052C0CD104F01CFA3A68382362
:102C3000FF33D35C834206D104F0FEF9A842A6D04C
:102C400001E0042C04D0059AC436326002F00CFC7A
:102C50006B462F331B78002B01D002F0B7FB201CF2
:102C60006BB0F0BD00000020D01100200B0600204A
:102C7000FFFFFF7F70470000F0B5A7B000AFF8641A
:102C800001F022FED74B69461C68B863656822686C
:102C900068006A43521953000833DB089200DB00D6
:102CA000C91A131C0A33DB088D46DB00C91AB86445
:102CB0006846F8638D463963081C002107F022F846
:102CC000636822689E005A43D3189A00131C0A3383
:102CD000DB08DB006846C01A85466B46FF217B6235
:102CE00007F010F86068236838625843396A6A460A
:102CF00043180733DB08DB00D21AF96C954678617C
:102D0000013968460022AD00F862F9617A6416293B
:102D100010D80123B44A8B40134206D1B34A134260
:102D200008D0B34B1B68303302E0B14B1B68323321
:102D30001B787B64BB6C786CAD085B08B608013807
:102D4000BD613B61FE6078637A6B013200D189E03E
:102D5000F969022903D9FB6C113B012B7ED80020B5
:102D600002F068FB9F4BA34A1E6815683368BC6D70
:102D70007B65BB62BB6A013BBB646CD37468013C7E
:102D8000611C65D0BA6AB368A9695343E31801337B
:102D9000FA6C9B005858032A2AD004DC012A06D07A
:102DA000022A0BD0EBE7FB6C113B012BE7D8296A19
:102DB000A3005B58C01AC343DB171840BA6CBB6949
:102DC000396B5343E3189B0059583A6B401898509D
:102DD0007B6B002BD3D1B96C3B694B43E3185B0091
:102DE000796C3B64FDF766F93A6CFB6BD052C6E731
:102DF000B96CBB694B43396BE218920052583A6484
:102E0000824200D23864396C3A6BE3189B009950C7
:102E1000BB6CFA68796A5A43A3189B007A605A58C7
:102E20009446824200D984467B68786AE11889001A
:102E300062460A50386C7F21831AFD2B01D85B084B
:102E4000D9B2FB6AB86C1A193B6A4343D15496E76E
:102E5000BA6CBA628EE7B86CBC657865796B01397B
:102E6000796371E7FB6B00217B635E4B1A221B6861
:102E700018691E6878645D680533DB7F381C5C3038
:102E8000BB6206F03FFFBA6B05235C21CB5553793B
:102E90005D20C35593795E21CB53537AB86B602282
:102EA000D353837AFA6C6221CB53032A00D18AE090
:102EB00004DC012A14D0022A15D09DE0FB6C112BF2
:102EC00000DA99E0122B18DD132B00D094E07A6918
:102ED000F86A8118002202F011FF0023BB6272E041
:102EE000F86B00F0ADF9F86B00F0ABF9381C00217D
:102EF0001A225C3006F006FF7EE0F86C11280AD139
:102F0000691E3C1C00220123B9643962BE63583437
:102F10007A62FB6209E0701E3C1C01210022B8634A
:102F20003862BD6454347962FA627E657B6D591EE5
:102F300079647965002B33D0BD65BA6D531EBB65CE
:102F4000002AF3D0786C796A3E694218B869424326
:102F5000F86AC1188A18396B92005058796CBA69AE
:102F60004E434A4384469A18386B9200125821689F
:102F7000386A9E19760081420EDA6146FA208B1A71
:102F80008000891858434910002900DC0121FDF711
:102F9000DFF8FA6BB052D0E7F86B00233352CCE77E
:102FA000FA6CF86B112A02D100F04DF901E000F043
:102FB0004BF9381C5C3000211A2206F0A3FE0023D6
:102FC000BE6B7B6419E0F86A00217863381C5C30C2
:102FD0001A2206F097FEF96C032910D1786B00F0E5
:102FE00031F90CE0D8020020040040000300030087
:102FF000D011002000000020BD64022301E0BD6468
:103000000123BA6C3C1C7834796C6270627921714E
:103010007F21B86A8A4313438022E0705242381CF1
:10302000391C13435C311A227E3063712670A570FF
:1030300006F026FE201C796B04F0A2F8BD4627B0EE
:10304000F0BDC046F0B54F4B85B01B6800AF9A6924
:10305000396001684568796051005A6901324A4314
:10306000131C0833DB08DB006946C91A8D46F9607A
:10307000081C002106F046FE434CF86823682A1C11
:10308000D96904F05FFC414EB860012822D101F0FB
:1030900053FE2568BA682B1CFF33DA74336828693D
:1030A0001B79BB602B1CFE335B8A191CFB60FDF790
:1030B000A5F8BA688A4209DCFB6828699B1AF96896
:1030C000BB60FDF79BF8BA688A420DDC78350123B6
:1030D0002B7009E03368281C9A78F96804F0EEFC3C
:1030E00023680022FF33DA74FDF72CFE2368FF33D8
:1030F000DB7C002B07D002F049F802F067F90020D2
:1031000002F098F937E002F041F802F05FF901F0BF
:103110006BFE012002F08EF901F0BEFF25682B1C2A
:10312000FE33598A2869FDF769F8F960002907D14B
:103130002B69002B04DD01F057FEF86802F07AF9E4
:1031400025682B1CFE33598A2869FDF757F8336828
:103150001B7999420FD12B698B420CDD2B1C7833E4
:103160001E78002E07D179680868A96904F0E0FA92
:10317000236878331E703A680523BD46137005B086
:10318000F0BDC046D802002000000020D41100206D
:1031900008B501F09BFA03F0A3FE08BD08B504F0E2
:1031A00011FD0F4B1B685A6B002A03DDD86BC2421E
:1031B0000AD510E0002A07D10A4A12681620115ECB
:1031C000D86B0122884207DB074A0421127891421A
:1031D0009241524200E001226C331A7008BDC04691
:1031E00000000020D4110020CC11002010B504F004
:1031F000CFFC124B1B68596B1A1CF832002915DDE5
:10320000041C84342488A14210DA6424823061438F
:103210000088DC6B6043C14208D5191CEA3109788B
:10322000002901D1012100E0002111701278002A4B
:1032300002D06C3300221A7010BDC046000000207E
:1032400070477047704770477047000008B502F03C
:103250000BF901F083FC01F033FC01F0E7FB0F4BAD
:103260001B681A7A0E4B1B68FC33002A01D002221D
:1032700000E003220B49DA6100230B700A49A02207
:103280000B700A49D2050B709363D36B9B0E9B06A0
:10329000D36362B602F0CCFD08BDC046E011002049
:1032A0008400002029000050280000502A0000500F
:1032B00038B5041CFDF71EF9051C04F069FC291C37
:1032C000F8310B78002B24D0124B00221B68DB6AEC
:1032D000013B07D3180120180825405F0028F7D1CB
:1032E0000122F5E70C4B1B68586B002811D1DD6BF0
:1032F000002D0ED1FC33002A0AD01A68FE2A01DC08
:1033000001321A601B68052B03DD00230B7000E0FF
:103310001A6038BDD80200200000002070B5051CDE
:103320000C1C161C03F04EFF002802D001280AD006
:103330002DE00E225643AD19EA88FF23FE2A00D85D
:10334000D3B2637123E00E227243AA18D188FF23FF
:10335000FE2900D8CBB263710B250A23D3565557EB
:103360000926ED1A08239657D356F61AB54207DDFB
:10337000281C0521FCF7ECFE4519A571E67106E055
:10338000301C0521FCF7E4FE8619A671E57170BDBD
:10339000F0B5B44B8FB01B6804909E689F6905968A
:1033A000DE68079101961E6903965E69069603F032
:1033B0000FFFAD4B01261B68E9331B780296002BEB
:1033C0005AD00026079D049C02960096A74B009EAB
:1033D0001B681B6A9E424FDA2B880AA803806B8801
:1033E000438005F025FE0420235E002B3EDD23886C
:1033F00009AE33806388301C738005F019FE00210C
:10340000735E059A9A420ADA0198984207DD022112
:10341000725E039E964202DA069E964224DC0420E7
:103420002A5E002A1DDD924A009E1268942092199D
:1034300080001218127952B2012A12DD059EF21B89
:103440009A420EDA019EF2199A420ADD09AB039EF6
:1034500002201B5EF21B9A4203DA069EF2199A4280
:1034600002DC0023A38001E001260296009E0835BD
:10347000013600960E34A9E70126049C079D0196AB
:103480007A4B019E1B68013E1B6A00969E4200DB40
:10349000D9E02B880AAE33806B88301C738005F02E
:1034A000C7FD0420235E002B00DC90E0238809AFD9
:1034B0003B806388381C7B8005F0BAFD32886C4BFA
:1034C000039270881B68009E39889B1968338C466C
:1034D00019787A88674B002902D11B68493311E0BB
:1034E00061490968EA310978002909D0E18844393D
:1034F0000B2905D81B684A331B781E33DBB202E068
:103500001B684A331B780426A95F002912DD00B22C
:1035100011B2091AC8170918414099420ADA6646D9
:1035200031B2039E30B2091AC817091841409942B6
:1035300000DA80E0029E002E00D17CE00BAE3378F2
:1035400080277F421F43DF200740207B012340214B
:1035500018400F4310239F43000101990F23384364
:103560009843194001433170614608B277780012E0
:1035700018409F4311B20912384303400901F27009
:10358000A28819436346B370131C12B27170FF2AEC
:1035900000DDFF23311C009A04983371FFF7BEFE53
:1035A000301C03F01FFE324B0426AA5F1B68009EEE
:1035B0009B196833002A01DD012200E000221A7005
:1035C00023882B8063886B80E388EB8033E00420C2
:1035D0002B5E002B2FDD0BAF00210C22381C06F0D8
:1035E00091FB019A0F231A4040210A433A700122AD
:1035F000B2560320305694463188728866460001E0
:1036000033400343381C7B70FA70B97003F0EAFD55
:1036100023882B8063886B80E388EB80124B1B68C8
:10362000FF339A78002A06D000229A70114B0222AA
:103630001B6840331A70019EA3880136AB80019647
:103640000E3408351CE70A4B91221B6892009A58E9
:10365000191C743108330A70DA6703F0D7FD0FB014
:10366000F0BDC046FC11002000000020D802002060
:10367000E0020020F8110020F0B5CC4B99B01A6898
:1036800038230A901291FF33D35C0E93C84B0E9CE3
:103690001B680693C74B1B681B6A0393012C03D15D
:1036A000C54B1B68E13302E0C44B1B6840331B78F9
:1036B000039D10930E235D430A9F00247F19039AF4
:1036C0000F950C973B1C04940D940E3B013A0BD3C1
:1036D000D988049D8D4200DA04910427D95F0D9C9E
:1036E0008C42F2DA0D91F0E7B44B01211B681A1CF1
:1036F0005632127891401A1C573212785833891A70
:103700001A788B1ADBB2159304F056FAA74B119076
:103710001B68FF335A78031C4033012A19D1042255
:103720001A700F9B0A9F039D0E3BFB18013D1C1C4A
:103730000593039B09959027069DBF000933EA195D
:103740009B00099DD318002704340B930795149709
:103750001CE00222E4E70A9D129F0022AA5E0023D9
:10376000FB5ED31ADF17DD19231F00201B5E7D408F
:103770001495FF2B0EDD0022A35E002B17D1079FAF
:103780000B9D013F043D07970E3C0B95079F0137AA
:10379000E1D1CAE00021635E002BECDD834B1A68A7
:1037A0000123FF329370119A40321370E3E7834B89
:1037B0000E9F1B681A1C4B321578002F04D11A1C5F
:1037C000608802CA18330BE00E9F012F0BD17A4B91
:1037D00060881B681A1CF83211331168FF330432F9
:1037E00003F097FE061CFCF785FEF8300278734B59
:1037F000002A05D01A6831321278964200DA161C77
:103800001A68131C4C331B78002B01D1642349E048
:103810002B1C6B4F069DEF191397787B1690002891
:1038200020D10021675E64217943CF2080008C463F
:1038300029181D1C7543AC4512DDB74210DC8D689C
:10384000AC460125AC4467468F605B4F3F688037CC
:103850003F78BC4506D113984573169D8D6001E0F5
:1038600000208860069F56483D18697B002913D0C8
:103870000027E15FCF20069F8C4680003918B445B1
:1038800008DD8868109F01308860B84204D10020AC
:10389000687300E000208860069D494FE919497B64
:1038A0000029B3D0069D9027BF00E919079D48194C
:1038B000057D0027E05F002D03D0109F6DB2BD4253
:1038C00021DC64214143734399420FDB131C4833CD
:1038D0001B78049D61886B439B11994206DB536CF6
:1038E0000D9F7B439B11984200DB48E70B9D069F91
:1038F000902000238000638023802B603B185A684F
:10390000013A5A603BE7303212782E4D72436843D9
:103910005343984200DB32E70B9D002363802380F2
:103920002B604B68013B4B6029E7069C9025AD005E
:10393000099E63190022039F5A609A191432129C3F
:103940000F9E07920A9DFA00A2180492AA19099FD5
:103950000C3A03920C227A4390208000069C1218A5
:10396000A21808923A1C6C3252009A1804320E9235
:103970003A1C743252009B1808330F93099F013789
:1039800000D1E7E20C9D079F0A3D0026AB5F0B9537
:10399000002B00D184E23B78109A0133DBB259B29C
:1039A0000632914210DC3B7012E0C046000000205D
:1039B000E0020020D8020020FC110020F8110020B5
:1039C0003F03000010270000109B079C0433237066
:1039D000079D0023EB56012B0FD1059E049B3288D7
:1039E000083B039F1A80049B3A88063B1A800C9B75
:1039F000083B1A88049B023B1A80079C00256557E8
:103A0000012D00DC31E2A81C0321FCF7F7FB049C2C
:103A10000D91083C022D45D19D4B0025625F186831
:103A20009C4B06681968B4464E690969049D4910A3
:103A3000511A063D40680027EB5FCF170138C919BE
:103A400000027940401A7F280ADD76109E1BF0178D
:103A50006746013F36183F024640BF1B7F2F11DCEF
:103A6000059E039F0020305E0021795E801AC91AEE
:103A700004F0D8FC0B2805D92388059C23802B88CB
:103A8000039D2B800323013B1DD3089F059E5A00F5
:103A9000BA183088111C5A31039C08802188603282
:103AA0001180F0E7099D06236B430D9E069FF318D6
:103AB0002188794A5B00FB189952049A063A1188CA
:103AC000A82292009952079C00256557032D00DC1F
:103AD0008AE1099E062777430D9C069EE3196E48EE
:103AE0005B00F3181C5A0D98032104300A93FCF76D
:103AF00085FBC9194900684AA8230A9871189B00D8
:103B00008A5AC65ACB5A11921293042D16D1049B8D
:103B1000059D083B0020285E00215B5E039DC31AC3
:103B2000DA179B185340049A0020285E063A0021B9
:103B3000525E801AC2178018504013E0059D002085
:103B4000285E0E9D0023EB5E039DC31AD8171B1839
:103B500043400020285E0F9D0022AA5E801AC117F4
:103B600040184840059D18182B880E9D4B4A2B8005
:103B7000039D2B880F9D2B80494B069D19688C4611
:103B800009996B189B181978464A002906D01168C4
:103B90005E310988884208DC002105E01168603147
:103BA0000988884201DB0121197025B21B7816951E
:103BB00035B21795002B00D07AE0059E169F348809
:103BC000039E21B2C91BCD17491969403588179E3C
:103BD0002FB2BF1BFE171268BF19131C7740963C0B
:103BE000314E5A33A4B21B88B44202D9B94200DD27
:103BF0008023963D2D4CADB2A54202D9B94200DAE0
:103C000080236146EA310978002911D00C990839DE
:103C100009880C1C423C0D2C02D92D39142907D8D7
:103C2000C8235B0000938021A0234A009B0004E08E
:103C30005C321288802100924A0003F059FC164E33
:103C4000059F0A9D0021795E041CA85F039F0B1A43
:103C5000DE179B19734000257D5FA8260A9FB600DA
:103C6000BA5FAD1AEA17AD1855405D19221C2B1C1E
:103C700005F080FA059F221C38800A9F2B1CB85F34
:103C8000039E0021715E05F075FA039F388085E080
:103C9000D8020020E00200209A0200001203000077
:103CA00000000020F81100201A1D0000361000004E
:103CB0001198A4B2231A1BB2DA0F1299D318B6B214
:103CC0005B101193731A1BB2DD0FEB18059D5B108F
:103CD00000202D5E12930A95039D00202D5E139502
:103CE000119D63190A9C1BB2E31ADD17129C5B1924
:103CF0006B403619139D36B2AE1BF017361846408E
:103D00009B190024802B01DD1C1C803C0D98032195
:103D10000530FCF773FA904BC9191F68069D3B1CD0
:103D2000573349001E78691816985D788B4A159BA1
:103D30004343885E704318180A9B6B43C0183B1CB2
:103D400056331A78593710410D903B781798159FC4
:103D50004743A8208000095E4E43BE19139F129965
:103D60007D437519119E594373430D9F11411341B2
:103D700015418022F8186D18231C0A99D20005F00D
:103D8000F9F9059E039F30808022231C0021795E73
:103D9000281CD20005F0EEF9039C2080049B0B9EAA
:103DA000043B0025585F6C4D0021715E2B68043385
:103DB0003E27DA5F431ADC171B19634005F0DAF976
:103DC0000B9E049B0C9C3080023B1888083C2B689F
:103DD000218804333E27DA5F431ADD175B196B40F5
:103DE00005F0C8F9208040E05D4B1B68FF339A78EE
:103DF000049B083B002A24D0149EC82E21DDC82233
:103E00005200964208DD1B88059F039C3B80049B63
:103E1000063B1B88238028E0059D00269B5F00222F
:103E2000AA5E059FD3185B103B80049B039C063B56
:103E30000022A25E00255B5F039ED3185B103380D7
:103E400013E0059F00201B5E0022BA5E059CD3187C
:103E50005B102380049B039D063B0022AA5E002684
:103E60009B5F039FD3185B103B80079C0023E356A6
:103E7000109DAB4204DC01230B9E5B42338006E0C5
:103E8000069F902080003B185A6801325A60069CB9
:103E90009025AD00099E63199B1900229A773DE099
:103EA0000022BA56109CA24230DD04990439002544
:103EB0004A5F002A32D0069E9027BF00099DF21962
:103EC0005419A07F0130C0B2A077234C40B22468BF
:103ED00041342478A04202DD079E33701EE0049B2B
:103EE000059F083B1B88039C3B80049B0B9D063B66
:103EF0001B8823800B882B80049B023B19880C9B1A
:103F0000083B198053680133536007E0069F099C02
:103F1000144D079E3A19521933701370099E079F6A
:103F2000013E049C059D09960C9E013F083C0E3DF8
:103F30000E3E07970494039F089C05950C960E9DD2
:103F40000F9E0E3F0C3C023D023E039708940E95D7
:103F50000F9613E519B0F0BDF81100209A02000089
:103F6000000000201203000038B5041C0D1C00F0F6
:103F7000AFFB201C291CFFF77FFB0C4B1B681A6A48
:103F80000023013A08D30E21514361188988013971
:103F90005829F5D80133F4E7054A012B02DD1378DF
:103FA000013300E00023137038BDC046D802002062
:103FB000CC110020F0B58DB0061C05910892099334
:103FC0000024334B1B68DB6A9C425EDA2301F31842
:103FD00008215B5E002B56D0059AA300D31803215D
:103FE000595606919B780F1C5BB20793013F069BC5
:103FF00001339F4247DC079A013A0492079B0499D8
:10400000013399423DDC224B1A687B1C91684B437B
:10401000049901335B180899CD5C013D2DD3D26A18
:1040200095422ADAAC4228D00599A200525E129934
:104030005B005B5A9A4220DCA54202DB2B1C251C4C
:104040001C1C2101711804220A310BA805F018FE6E
:10405000290171180A310BA803F044FE0BAA089B32
:1040600009990092129A019302910392231C301C29
:1040700005992A1C03F054FE2C1C049B0233049364
:10408000BCE70237B3E701349BE70DB0F0BDC04693
:10409000D8020020F0B593B00D920C1C1190FCF7E3
:1040A00017FAFCF721FA9B4A9B4B12681B68F832FF
:1040B0001278002A01D0994B1B681E7A984D0796FA
:1040C0000A201F5E2B6897491A6806970A709A683B
:1040D0000D9F8A7001325E6892000423CB70BA187B
:1040E000512302204E700B7103F014F90023A21D1E
:1040F000D3770232D3777F26631DDE77E31DDE7729
:10410000844B1B680893E9331B78002B09D129687D
:104110000A930A684968013A0139C9B2D2B20991D1
:1041200004E00E200121099010220A917A4B00260A
:104130001B682D6804937C4B52B21B6805960B9349
:104140007A4B00961B680F930A9843B29A4200DAA2
:10415000A7E0099F500079B20C90002900DA9EE098
:10416000AB68571C5F43049B01377F18BE00019763
:104170001B780D9FF059002B16D03823089EFF3373
:10418000F65C012E05D12E680B9F4E43BF18BE5D15
:1041900004E06E680B9B56435B189E5D331C4343E3
:1041A0000F9E3669734318136B68189F5343CB18DF
:1041B0009B00DE59330C1B1A0198119E4700BB531C
:1041C000049F002B57DB0E26BE57B34213DB20683B
:1041D0009E1B861926606669381C013666610F26AB
:1041E000BE570E27C7576068B34201DCDF1B00E0F3
:1041F000F71BC7196760E768BB4204DDCEB2D7B2D0
:1042000010960E97E360052B1BDD261C08361F2732
:10421000F7578F4200DAF177E61D1F27F7578F42D5
:1042200000DDF177A61D1F27F757974200DAF277D6
:10423000661D1F27F757974200DDF277059E01366E
:1042400005961A9E4F00F65B98B20197B4468444D7
:1042500002901A9F019866463E520C98199F199E2B
:104260003F5A0298BC4684440C9F6046F053009E1F
:10427000F618009611E01026BE57B34206DCA0687F
:104280009E1B8619A660A6690136A6612669B342FF
:1042900000DA2361009FFF1A009701395DE7013AB8
:1042A00052E71F4B00981B680125D968FBF750FFA8
:1042B0001F497C235B42221CCB70E06176231C32B9
:1042C000281C0B714D7003F025F8059EA21D266277
:1042D0001F21631D51561F229A56144B1B68914291
:1042E00001DB1D7301E000221A73109F0E9E231C38
:1042F00028335E701F70E768079E0120B74205DA19
:104300002369069FD80FFA179F425041C0B213B0DD
:10431000F0BDC04600000020EC110020F411002088
:10432000D802002004060020F0110020DC0200204A
:104330008C0000200B4B09681A683823FF33D35CCC
:10434000094A1268507B48438011002B01D1137B2E
:1043500004E0012B05D1054B1B68DB79984200DA9C
:10436000181C704700000020EC110020F411002000
:10437000F0B5A9B004AF1D1C3B1CC74EA8331B7879
:10438000BA633268386379643B6103215156202057
:10439000411A022010564900091A4910BF4CC9B2EF
:1043A00039642368907A19781B790090D27A019247
:1043B000386CAC220290D0596A6805F06FFA306808
:1043C00023686A68057A19791B780095407AB026C7
:1043D00001903D6C0295F05905F060FA381C0021FF
:1043E0002422483005F08EFC7D6C786C2E7A6D7A34
:1043F0007F237D637D6C2422AD7A3D627D6CED7AF6
:104400000372BD61002583724572C572381C291C78
:104410006C3005F077FC24686846626823685100B8
:104420005A435200131C0833DB08DB00C01A8546D0
:10443000F96104A93964081C291C05F063FC72B2F7
:104440007D627D6B6BB29A426CDCAC26F6593D6A9C
:10445000510071186BB27961BE69551C71B28B4203
:104460005EDCA168BE6B6943591801314900885F61
:10447000B026F6595900711809897E69411A3089A8
:104480003E69091AB14217DD7E6C0B203056984206
:1044900000DAF3727E6C0A203056984200DDB37267
:1044A0007E6C09203056904200DA72727E6C0820D1
:1044B0003056904200DD3272881F082806D8482600
:1044C000F619F05C48260130F619F054A0686C2605
:1044D0004543F619F65C0135ED18B446BE6BFD6335
:1044E0006D00FD62755FB862654500DA65466C2057
:1044F000C019C55400290CDD502905DD00218A4270
:1045000002D0112A00D0CDE07D6A8D4202DA7962B4
:1045100000E00021FE6B3D6BB000415101339BE791
:104520002A1C8EE7FD6966686D08FD62BE63351C56
:10453000013D7AD348267619F35D062BF8D93B1C4A
:104540006C33EB5C132BF3D82668BE62BB6A6E003B
:104550003E625E1EFE63EBD3A1683E6B4B4358196F
:10456000021C013292008446905903224243FE6AA3
:10457000F86B92B24643386CAE1976003252F86B43
:1045800000280ED05B1A5B19386B9B00C0581218BC
:10459000386BC31858689B6882189A183B6CF252A3
:1045A00003E03E6C386A0632325262463E6B90003F
:1045B0003658FB6ABE60FE6B73433E6CEB185B00C3
:1045C0009A5BBE68B2183E6B301880683E6C8218E9
:1045D00092B2B86A9A53FE6B013886420ED0301CF4
:1045E000023041433E6B49198900765892193E6B5F
:1045F00071184868896882188A1800E006323E6C93
:10460000F86B9A53FE6A396C4643AE197600705ABD
:104610001421FBF74FFD3A6CFB6BB05299E7482031
:10462000BD6BC0192B5C062B04D8BE6B013EBE636C
:10463000F5D217E03B1C6C33EB5C132BF5D82368E9
:104640005A1EF2D3F96AA66851437343BD6B3E6CA0
:104650006918EB1849000133895B3D6B9B00595188
:10466000131CEDE70E4962687D6A7E6C2068356038
:104670004A70A2683D6B8A707C2301325B429200D3
:104680000870CB70AA18832305200B7102F042FE3C
:10469000BD4625B0F0BDC04600120020D802002063
:1046A00004060020B96AB86A951C6843514318187B
:1046B00059180131BE6B0130BD6B49004000405FAD
:1046C000895F0918C80F411849101DE7704700009D
:1046D000F0B58BB0051CFBF70DFF041C03F058FA76
:1046E00003F070FA231CB4331B78002B03D1EA3497
:1046F0002378002B76D03C4B0E201B68196A8C4621
:10470000013948430901281800916346013B9C4642
:1047100068D30423C25E354B002A5BD0C288282AA6
:1047200058D9009C1B191A68022A01DC01321A6050
:10473000DA881A819A89DA819A88DA805A899A8184
:1047400002889A8042885A811A68032A45D1013A20
:104750000ED355005D1994000427EE5F211C102430
:1047600064186F46E6510A242E5F07AD4E51EEE7FE
:1047700000231C1C01340294002510266F46F618F5
:10478000F65904AFDA1952195168039601918E4215
:1047900005DD1026F6186F46F1510399516007AAFE
:1047A0009E5801969E187619776801990397B94229
:1047B00001DD9F507160029E0435012E02D1022757
:1047C0000297DAE70433022CD4D1059B03805368A7
:1047D000438002E0009900225A50009A0E38103AA5
:1047E000009292E70BB0F0BDD80200203C040020FC
:1047F000F0B5304F85B0019038680A1C031CFF33B8
:1048000002905E7B0B1C143303930023022E2AD1EB
:10481000029CFF34A47B344225D01478012C07D1AC
:104820000D7D651BE8172D184540072D0DD108E0BB
:10483000052C12D10D7D641BE01724184440012C77
:1048400007D1541A0E2C12DD13E05578002D06D036
:104850000DE05478002C0CD009E0022C07D0033C6A
:10486000012C06D803E010780C7DA04201D0013362
:10487000DBB2039D0132AA42C8D10022022B15D817
:104880000198012303700B7D591EC9B2062901D876
:10489000094A525C3868FF30417B022906D1807B8F
:1048A000084203D0063B022B00D81A22101C05B088
:1048B000F0BDC04600000020429D0000014B186082
:1048C0007047C046E0110020014B18687047C04691
:1048D000E0110020014B18607047C046DC11002039
:1048E000014B18687047C046DC110020014B18606E
:1048F0007047C046D8110020014B18687047C04669
:10490000D8110020014B18687047C0468400002071
:10491000F7B50E4B19688B795F1E15D34A79013AAA
:1049200010D34D79561CAC1C019401242540019CE8
:1049300065195D437419064DA40064192568C540C6
:104940002560ECE73B1CE7E7F7BDC046E01100201F
:10495000004000508D23013B002B01D0C046FAE7F8
:10496000044B10221B78DBB21807C00F134018430A
:104970007047C0462B0000500F4BF7B518261E702D
:104980000E4BA0271E70FFF7E5FFFF050B4B01AC98
:1049900000252C3760701D703E70FFF7DBFF064B63
:1049A00020703D701D7023786278181C50404000C4
:1049B00013400343D8B2FEBD2A0000502D00005022
:1049C00010B50D4B00201B78AA2B12D10B4B1C7875
:1049D0000B4B64B218780B4B40B219780A4B201875
:1049E0001A780A4B49B21B7840188018C01A434203
:1049F0005841C0B210BDC046500002005100020034
:104A00005200020053000200540002005500020050
:104A10008023DB020022188059809A80C046024B16
:104A2000188880B27047C04606000400154BC022AB
:104A3000920098581449014099509958FF20814399
:104A400040200143995098581049014080200004AB
:104A500001439950985880210002000A0906014339
:104A6000995002221A6001221A60082104221A6059
:104A70001960FC3300215960054B19690A431A611A
:104A80007047C04600E100E0FF00FFFFFFFF00FFAE
:104A900000ED00E013B5094A042413780021DBB2CD
:104AA0001C4301910198F421FF31884205DC137009
:104AB000C046147001990131F3E713BD0D00005099
:104AC00082B00022019201AB55221A703922524263
:104AD0009A700122DA70019AA023DB059A6102B074
:104AE000704700000122A023DB05104002060349A5
:104AF00098690840104398617047C046FFFFFFFE69
:104B000082B00022019201220A40891801303F221E
:104B100001AB1040C9B21870481C02310240890034
:104B2000D9705A70019AA023DB05DA61196A024A2A
:104B30000A401A6202B07047FFCFFFFF0002064B27
:104B4000000A0138002258609A6005221A60C046A7
:104B50001A68D103FCD5704710E000E0F0B5534F60
:104B600085B03B681A1C503215780232196D1278E4
:104B700053331E780F231407994312092D0701920E
:104B80002D0F0B1C80222B4352001343484A0395E0
:104B9000484D1340484A2B4048491340240F0B40CE
:104BA0000199220413430A0545493607360F0B4085
:104BB000009613433206434E029433401343424A55
:104BC000A024E4051340E360FFF764FF3B68E2685C
:104BD00051331B781540DB069B0FDB021D43E5605C
:104BE000E26880239B001343E360E26880239B011B
:104BF0001343E360029C039DFFF7E2FE002813D0FD
:104C0000324F882039781E34C9B2FBF7A1FA3978BF
:104C10004443C9B28820FBF79BFA0F3545431E3C3D
:104C200000230F3D9C4203DB231E0F2B00DD0F23CF
:104C30000F22954200DD151CA024E4051F491A40EF
:104C4000E36812040B401343E360EB43E268DB17B5
:104C50001D400F239A431D401543E560E368F02291
:104C6000934380221343E360E368154A18481340D6
:104C7000E360E3683340E360FFF760FFE2688023AE
:104C80005B051343E3600099E2680B0616401E4380
:104C9000E6601048FFF752FF019B09491A05E368D7
:104CA0000B401343E36005B0F0BDC046DC110020AB
:104CB000FFF9FFFFFFE7FFFFFFDFFFFFFFFFF0FF51
:104CC000FFFF0FFFFFFFFFF0FFFFFFEF54000200A9
:104CD000FF0F0000FF6F0000064A074B126801201B
:104CE000FC32D26919789040021C0A43D2B21A7081
:104CF0007047C04684000020290000500549064B3B
:104D000009681A78FC31C9690120884082431A7009
:104D10007047C0468400002029000050044B1878DA
:104D2000044B1B68FC33DB691841012318407047B2
:104D30002900005084000020044B82B0019001AA99
:104D4000188092789A7002B07047C04624000050D4
:104D500007B500F06DFD064B019001AA188092780E
:104D60009A70044B00221A70034B0122DA7707BDB8
:104D700024000050C011002008000050034B002206
:104D80001A70034B0122DA777047C046C011002029
:104D90000800005072B6084B1B5C002B03D1C046C4
:104DA00062B630BFF6E762B6A023DB059968034A16
:104DB0000A409A607047C046C0110020FFFFF9FF0B
:104DC00072B6074B1B5C002B02D1C04662B6F7E7F8
:104DD00062B6A023DB059968024A0A409A607047D0
:104DE000C0110020FFFFF9FFA023DB055A68012155
:104DF000120E58689143034A090602400A435A605A
:104E00007047C046FFFFFFFE08B5074B1B681A1C22
:104E10005732127858331B78520001325043994070
:104E2000FBF796F908BDC046DC11002008B5044B1D
:104E30001B685A33197849000131FFF7E5FF08BDB7
:104E4000DC11002008B5A0230120DB055870FFF716
:104E5000A1FFFFF7C9FF08BDF7B5A026041CF605A2
:104E6000042808D005280ED15A4B1B681A1CE432BE
:104E70001768E83305E0574B1B681A1CEC321768BB
:104E8000F0331B6821E0544B1B685F6C9B6C7361B3
:104E9000FBF730FBEB300378002B17D004F0CCFE8F
:104EA00004F0F6FD81787F22114089040191716937
:104EB0000B1C4A490B40019919437161C178474B5A
:104EC0000A40716992040B4013437361A023DB0510
:104ED0001F611E691F231E40FFF772FD00280AD0C4
:104EE0003F4B882019780436C9B2FBF731F94643A5
:104EF0000023043E03D4331E1F2B00DD1F23A022FA
:104F0000D205108A1F210B40884303431382032CD0
:104F100034D005DC012C2DD013DC002C11D030E076
:104F2000052C0AD005DB062C2BD12A4B1D68FA353F
:104F300027E0284B1D68F43523E0264B1D68F73524
:104F40001FE0FBF7D7FA031CD2331B78002B03D0EA
:104F5000204B1D68533514E0EB300378002B05D04F
:104F600004F06AFE04F094FD051D0AE01A4B1D686A
:104F7000563506E0184B1D68593502E0164B1D6882
:104F80005C35A023DB05596928783F221040914306
:104F90000143596168781F215D6908401149C002C9
:104FA0002940014359611049640009680C19211C0A
:104FB0009A310878596810409143014359609B34F5
:104FC000217858680A401102084A02400A435A6090
:104FD000F7BDC046E0110020DC110020FFFF03FEFA
:104FE00054000200FF07FFFF84000020FFC0FFFF06
:104FF000244BF7B51A68244B1B6859331B785B06A2
:105000009B0E0193131C4933197800238D00551909
:10501000581E5B18002B27D053181B184A331B78D7
:105020008024D3185E78A023DB055F68E4033C434B
:105030005C60019CB606240400945F68B60EBC4612
:10504000124F64462740009C27435F60C0462436C9
:1050500076008400F65A2C19C83426605E680C4C21
:1050600034405C60031CD3E7131C493309491B78A7
:10507000C8324B700423CB700F20B0230B7102F0A9
:1050800049F9F7BD84000020DC110020FFFFC0FFBC
:10509000FFFFBFFF8C000020F7B5FFF7A9FF134B00
:1050A00000241D682B1C49331E78731C9B005B4237
:1050B0000093B300EB180193009B043C9C4208D082
:1050C000019B01211F19C8373868FFF79DFE386022
:1050D000F2E707492A1C0423CB70C832B0230F2003
:1050E0004E700B7102F016F9F7BDC0468400002027
:1050F0008C000020044B00225A70A023DB055A705C
:1051000001221A707047C046C0110020A023DB05A1
:105110009968064A0A40802189020A439A60044A33
:105120000021917001229A707047C046FFFFF9FF7D
:10513000C0110020024B1B68C03318687047C0467E
:1051400084000020024B1B68C03318607047C046C3
:1051500084000020A023DB059868C0B2704730B5FA
:10516000A023DB059B68DBB283420ED001DA01335A
:1051700000E0013BA022D2059568FF211C1C8D4355
:105180000C40291C21439160EEE730BD08B500209A
:10519000FFF700FE08BD0000034B1B68573318786B
:1051A000400001307047C046DC110020024B1B68F4
:1051B000583318787047C046DC110020004870470B
:1051C0000010005000487047002000500048704711
:1051D00000400050084B01201B685B799A1C03407B
:1051E000D318064A12689532107801385843044B98
:1051F0008000C0187047C046E011002084000020E5
:1052000000400050074B01201B685B799A1C03404B
:10521000D318054A1268913210785843034B800026
:10522000C0187047E01100208400002004400050A6
:10523000F0B585B000AFFBF75DF95F4B1988031C33
:10524000D0331A888A181A805C4B1B681A78BB60A6
:1052500053B2042B27D15A4B1C68231CF6331B78FE
:10526000FB60FFF7B7FF0222561EB44600D2A0E053
:105270006379013B15D365790121AE1C0D4071198D
:1052800051430131CD18AD007D60BD68EE185E362A
:1052900036787D68891989000958FE68F1402950DF
:1052A000E7E76246E0E7052B21D1454B1C68231C4C
:1052B000F9331B78BB60FFF78DFF0423591EF9609B
:1052C00077D36279013A10D36179551C7D6001254D
:1052D0008E1C2940711859437D68BE686D18AD0059
:1052E00045192968F1402960ECE7FB68E6E7002AE8
:1052F00045D0022B0BD1D2300378002B03D0304B9A
:105300001B68553338E02F4B1B68583334E0032BB0
:1053100003D12C4B1B685E332EE0012B27D16D4649
:105320007D60FFF76FFF264B69461B68061C5C79A2
:10533000A5002B1C0A33DB08DB00C91A8D466B461F
:10534000FB60013C0BD3B9680B195E331B789B00E3
:105350009859FFF76BFDFA68A300D050F1E72A1CBB
:10536000301CF96804F08CFC7D68AD4607E0062B24
:1053700005D1134B1B68FC331878FFF7C9FA114BA2
:105380001B6855331B78002B13D00D4B1A685379CB
:10539000013B0ED3517901258C1C29406118947969
:1053A000581C6143084E401880008019002101609C
:1053B000EEE7BD4605B0F0BD70000050840000204F
:1053C000E0110020DC1100200040005008B5A023AF
:1053D0000120DB055870FFF7DDFCFFF705FDFFF747
:1053E00027FF08BD70B5041C104E114D11D10120CE
:1053F000FFF732FD336801221A70A023DB056C70C1
:105400005C701A70FFF7E2FFFFF7EEFCFFF744FE57
:105410000224201CFFF720FD336800221C70A0230B
:10542000DB056A705A7001221A7070BD840000207A
:10543000C011002008B5FFF7D5FFFFF7C7FF08BD73
:1054400010B5A023DB051C6A0005064A000D010407
:1054500022400A431A621A6A120B1203104318629E
:1054600010BDC046FFFF00F073B5174BA0221B68AC
:10547000D2059168D96C4C3391601C78FFF7A0FA83
:10548000124D002812D0124B124A1B7812782E6847
:1054900052B25BB20092201C1021D12202F028F8F7
:1054A0002B68C4363060C4331B68E418002C01DA62
:1054B000002402E0FF2C00DDFF242B68E0B2C033A3
:1054C0001C60FFF74CFE73BDDC110020840000203F
:1054D000530002005200020008B5002801D0012844
:1054E00001D100F0A5FCFFF7BFFFFFF737FBFFF787
:1054F000E7FA08BD70B51F4B13211B68A0B0DA7A1C
:105500000023133AD2B291425B410221C91AA0236F
:10551000DB0558693F2210405C688022D203224399
:105520005A60421EA023D2B2DB05FF2A11D05E686A
:105530003F25114C15402D0434402C435C60C0467F
:105540000C1C243464001C5B6D465300EC52013A81
:10555000E8E75968094A0A4009495A600223487035
:10556000CB700320B3236A460B7101F0D3FE20B049
:1055700070BDC046E0110020FFFFC0FFFFFFBFFF6E
:105580008C000020084B0948196810B504680868A9
:105590008B6801309A004343A0699B00C01800212A
:1055A00004F0B0FB10BDC046D8020020000000206F
:1055B00038B50C4D0C4C2B68201C9A6891001A6869
:1055C00002324A43002104F09DFBFFF70DFC2B68DB
:1055D000201C9A6891001A6802324A43002104F0A4
:1055E00091FB38BDD802002000400050044B054913
:1055F00000221A6059609A6005221A607047C046FE
:1056000010E000E0FFFFFF0010B5A023DB059C6861
:1056100099680C4BC9B21B68E403C4331B68E40FE0
:10562000591AFF31E62359430134074BA040C918EA
:10563000041C0648FAF78CFDC1B2201CFAF788FD5D
:1056400010BDC046840000205C5D000040420F0099
:10565000014B00221A60704710E000E013B50B4CBC
:105660000B48A368C01A0193FFF7CEFF0949012335
:105670004B7004230190CB7000206F2301AA0B71A3
:1056800001F048FE00230198236016BD10E000E001
:10569000FFFFFF008C00002010B5041CFFF7A6FFE1
:1056A000201CFFF79FFEA023DB0501205870FFF7A9
:1056B00087FBFFF799FBFFF7BBFDFFF7CFFF10BD9F
:1056C000F7B5234800F0D8F8FFF738FA214F002546
:1056D000214E224CB7421FD28036F31B2026832B4B
:1056E00000DC9E100123667000203A1C211CB610BD
:1056F000E370207101F00EFE3B1C321C013A08D30E
:10570000002D04D116491868884200D01D1C0433AE
:10571000F4E7B600BF19DBE70E4904226B1A012734
:105720000193E270A723211C01AA00206770237156
:10573000843601F0EFFD0423751BE3700020A823DD
:10574000211C01AA01956770237101F0E3FDF7BDEB
:10575000801A060008120020803700208C000020EC
:10576000CDCDCDCD024B1B68493318787047C0466C
:105770008400002070B5051CFFF744FD0B4B1C682E
:10578000231C49331B789A00AD180022511ED218F1
:10579000002A09D0E21852184A321278920016589C
:1057A0008A00AE500A1CF1E770BDC046840000209C
:1057B0000B4B30B51B681A1C4932127894001C1927
:1057C0005300C01800230133D11A013107D09D00C6
:1057D000651BC83559002D6849424552F3E730BD75
:1057E0008400002070B5041CFFF786F80E49086895
:1057F0008379013B11D30D686A79013AF9D30D68B9
:1058000068790A4D58432D688018ED1820185835CE
:105810000678ED7975190570EFE7201C002101224B
:1058200000F06CFA70BDC046E0110020DC110020D1
:1058300038B5A023DB0599689D680C4B041C1B68D8
:105840000B48C4331B68ED03C91AC943E623C9B228
:105850005943084BED0FC918FAF77AFC044B013590
:105860005843211C2841FAF773FC38BD84000020FE
:1058700040420F005C5D000038B5A023DB0599684D
:105880009C680A4B051C1B680948C4331B68E40369
:10589000C91AC943E623C9B25943064BE40FC918D4
:1058A000FAF756FC68430134204138BD84000020DB
:1058B00040420F005C5D0000002802D00B1C133B2F
:1058C00005E0122902DD262901DD12394B10181CD2
:1058D00070470000F0B5A74B00261D68041CEB7A4A
:1058E0001322133BDBB2301C9A427041A24BB1B081
:1058F000C7B21B68059702273F1A206801938A33B5
:105900001870019B61688D3319708822311C0EA8B4
:1059100004F0F8F9311C142209A804F0F3F9974BAC
:105920000EA81968442204F0ABF9022F04D11FA875
:105930000EA9442204F0A4F900272E1C0497771B1B
:1059400003976B7901369F423EDAB77A0598391C86
:10595000FFF7B2FF09A9095C0EAB0291029A44213C
:10596000514309185918721B0A717911069109A936
:105970000A5C11214A43069952181F210F40063232
:1059800001219200B9400F1CD1580F43D750039901
:10599000019F3F237A185178071C99438C4602993E
:1059A0001F4089010691614603970F431F40069BE4
:1059B0001F43029B5770013309AFDBB23B54049F76
:1059C0009F42BCDA0493BAE7019B049D8C33002606
:1059D0001D700296674B029E19688F79BE4200DBEC
:1059E000BEE0029D49190B1C2833DA79634B1E680F
:1059F000331C55331B78B446039303980023984215
:105A000004D0781E854201DA2931CB790120011CAE
:105A100091400591111C2039051C8D40A9011D1CC8
:105A2000203D061CA840049D9E40890906960790CB
:105A30000195019D002D38D0019E4425013E7543FE
:105A4000019666680EA82E544519281C00262030A1
:105A50002E624668B60EB606009646601F2A02DC25
:105A60000598286204E08D01009EAD092E43466032
:105A7000039D002DDDD0029E781E8642D9DA019E5C
:105A8000442575430EA845191F2B04DC2E6A069881
:105A900030432862CDE7686A079E0643B601800E50
:105AA000B609800630436862C3E7029E6046331C35
:105AB000457863448033AD06DF78AD0EFEF780FF96
:105AC000002813D02E4E882031780137C9B2FAF75A
:105AD0003FFB31784743C9B28820FAF739FB0235DA
