:10000000011004001A000000202C0000FF00000076
:1000100002101F121B6F22FFFFFFFF0223F375AABE
:100020003B75BA0843BA2043B92053B9BFE4F5B3CE
:1000300075B27575B13075BBFF75A960F5AB75AC60
:100040000375ADC075AEC022FFFFFF021D4EAB07AA
:10005000AA06D3EB9DEA9C4007EB9DFFEA9CFE229B
:10006000C3ED9BFFEC9AFE22FFFFFF0219E5BB01E7
:100070000689828A83E0225002E722BBFE02E32245
:1000800089828A83E49322EF8DF0A4A8F0CF8CF0CC
:10009000A428CE8DF0A42EFE22BC000BBE0029EFBA
:1000A0008DF084FFADF022E4CCF875F008EF2FFF5F
:1000B000EE33FEEC33FCEE9DEC984005FCEE9DFE2D
:1000C0000FD5F0E9E4CEFD22EDF8F5F0EE8420D274
:1000D0001CFEADF075F008EF2FFFED33FD400798E3
:1000E0005006D5F0F222C398FD0FD5F0EA22C5F0F4
:1000F000F8A3E028F0C5F0F8E582158270021583B8
:10010000E038F022EF2BFFEE3AFEED39FDEC38FC43
:1001100022C3EF9BFFEE9AFEED99FDEC98FC22E8DE
:100120008FF0A4CC8BF0A42CFCE98EF0A42CFC8ADC
:10013000F0EDA42CFCEA8EF0A4CDA8F08BF0A42D59
:10014000CC3825F0FDE98FF0A42CCD35F0FCEB8EFA
:10015000F0A4FEA9F0EB8FF0A4CFC5F02ECD39FEB0
:10016000E43CFCEAA42DCE35F0FDE43CFC2275F025
:1001700008758200EF2FFFEE33FECD33CDCC33CCAC
:10018000C58233C5829BED9AEC99E58298400CF5C7
:1001900082EE9BFEED9AFDEC99FC0FD5F0D6E4CEF5
:1001A000FBE4CDFAE4CCF9A88222B800C1B9005929
:1001B000BA002DEC8BF084CFCECDFCE5F0CBF978F6
:1001C00018EF2FFFEE33FEED33FDEC33FCEB33FB8A
:1001D00010D703994004EB99FB0FD8E5E4F9FA2214
:1001E0007818EF2FFFEE33FEED33FDEC33FCC9330F
:1001F000C910D7059BE99A4007EC9BFCE99AF90FD7
:10020000D8E0E4C9FAE4CCFB2275F010EF2FFFEE42
:1002100033FEED33FDCC33CCC833C810D7079BEC8D
:100220009AE899400AED9BFDEC9AFCE899F80FD505
:10023000F0DAE4CDFBE4CCFAE4C8F922EB9FF5F068
:10024000EA9E42F0E99D42F0EC6480C864809845E3
:10025000F022EB9FF5F0EA9E42F0E99D42F0E89C27
:1002600045F022E8600FECC313FCED13FDEE13FE26
:10027000EF13FFD8F122E8600FEFC333FFEE33FE38
:10028000ED33FDEC33FCD8F122E6FC08E6FD08E690
:10029000FE08E6FF22E0FCA3E0FDA3E0FEA3E0FFF2
:1002A00022E2FC08E2FD08E2FE08E2FF22E0F8A3F9
:1002B000E0F9A3E0FAA3E0FB22E2FB08E2F908E29E
:1002C000FA08E2CBF822ECF0A3EDF0A3EEF0A3EFF6
:1002D000F022ECF208EDF208EEF208EFF222A8822A
:1002E0008583F0D083D0821202E51202E51202E586
:1002F0001202E5E473E493A3C583C5F0C583C8C5C2
:1003000082C8F0A3C583C5F0C583C8C582C822D002
:1003100083D082E493F208740193F208740293F29A
:1003200008740393F2740473A42582F582E5F03512
:1003300083F58322FAE6FB0808E6F925F0F618E6CD
:10034000CA3AF622E493FB740193FA740293F922F9
:10035000D083D082F8E4937012740193700DA3A33C
:1003600093F8740193F5828883E473740293686050
:10037000EFA3A3A380DFE4900130F0122A91E4FB05
:100380007D017F01122591E490012FF090012FE073
:10039000FFC394025017EF25E025E0244CF8120229
:1003A000FF0000000090012FE004F080DF122A25FA
:1003B000E490012FF090012FE0FFC394025047EF2B
:1003C00025E025E0244CF8C000120291C004C005CD
:1003D000C006C00790012FE024D5F582E43400F573
:1003E00083E0FF12232EA804A905AA06AB07D007B5
:1003F000D006D005D0041200F4D0001202C2900141
:100400002FE004F080AF900130E004F0E0C39405E9
:10041000409BE490012FF0900130E0FFE4FCFDFEF2
:10042000C004C005C006C00790012FE025E025E00C
:10043000244CF8120291D003D002D001D000120156
:100440009AC004A905AA06AB0790012FE0242AF858
:10045000E6FFE4FCFDFED00012010F780712025304
:1004600090012FE0FB25E025E024FDF582E4340037
:10047000F5831202B6EB25E025E024FDF582E43495
:1004800000F583120285E47B107A27F9F8C3120283
:1004900042504890012FE0FB25E025E024FDF58245
:1004A000E43400F583120285EF24F0FFEE34D8FE29
:1004B000ED34FFFDEC34FFFCEB25E025E024DDF519
:1004C00082E43400F5831202B690012FE025E02487
:1004D00000F87427F2087410F2803890012FE0FBC6
:1004E00025E025E024DDF582E43400F5831202CE18
:1004F00000000000EB25E025E024FDF582E4340057
:10050000F58312028590012FE025E02400F8EEF239
:1005100008EFF290012FE0FB25E025E0244CF812D3
:1005200002FF00000000EB25E02464F8E4F208F28A
:1005300090012FE0FF25E02400F8E2FC08E2FDEF47
:1005400025E02408F8ECF208EDF2E0FF25E02410A5
:10055000F8E4F208F2EF25E025E02418F81202FF93
:100560000000000090012FE004F0E064026003024C
:10057000040722E490012FF0A3F0A3F0FCA3F020E5
:10058000CA030207507866E67003020750E4900140
:100590002FF090012FE0FE2466F8E6FD743B2EF567
:1005A00082E43401F583EDF0E4F690012FE004F0ED
:1005B000E0B40ADE90013BE0FE54F0FCEE540F90F4
:1005C0000132F0AF04EF12034005D55005DF60059E
:1005D000E97005F3800667900718A00698B0074DEC
:1005E000C0000007507827E64401F6122A4B227813
:1005F00027E654FEF6122A4B22E4FF122B917829AB
:10060000A6072290013CE07F00FE900130F0A3EFAE
:10061000F090013DE0FDEEEDFF900130EEF0A3EF34
:10062000F0D3940AEE94004003020750900132E0A8
:10063000FFB40F2DE490012FF090012FE0FEC39442
:10064000044003020750A3E0FCA3E0FDEE75F008B0
:10065000A42434F8A60408A60590012FE004F08035
:10066000D8900130E0FCA3E0FDEF75F008A424343D
:10067000F8A60408A60522900132E0FF7011782741
:10068000E6FE20E10302075054FDF6751C0222EF3E
:10069000640160030207507827E6FF30E103020798
:1006A000504402F6751C0222900132E0FF703A7845
:1006B00027E654DFF6E490012FF090012FE0FE25AD
:1006C000E024E6F582E43425F583E493FC74019399
:1006D000FDEE75F008A42434F8A60408A6059001E0
:1006E0002FE004F0E0B402D222EF640170727827A8
:1006F000E64420F6E490012FF090012FE0FF25E082
:100700002416F582E43426F583E493FC740193FD0A
:10071000EF75F008A42434F8A60408A60590012F6C
:10072000E004F0E0B402D222900132E0FD701578CE
:1007300027E6FE30E22A54FBF69000C5E04408F0BC
:10074000751C0222EDB401187827E6FF20E211445F
:1007500004F69000C5E04404F0751C0222122A4BF6
:100760002290012FEEF0A3EFF0E4900132F0A3F01D
:10077000A3F09000C6E0FFA3E0900133CFF0A3EF19
:10078000F0E4900131F0900131E0FBC394024003AA
:1007900002088D900145E070169000AFE0B4030FA1
:1007A000D39000BAE094009000B9E094004020900B
:1007B0000131E0FF25E02464F8E4F208F2EF25E0DF
:1007C00025E0244CF81202FF00000000020884EB30
:1007D00025E02465F9E3700219E3701C900131E013
:1007E000FF25E02400F8E2FC08E2FDEF25E0245CB0
:1007F000F8ECF208EDF2805E900131E0FD25E02496
:100800005CF8E2FE08E2FFED25E02400F8E2FC08D7
:10081000E2FD12003EC3900134E09F900133E09E60
:100820005034900131E0FF25E02400F8E2FC08E2BA
:10083000FDEF25E0245CF8ECF208EDF2E0FF25E0A6
:100840002464F8E4F208F2EF25E025E0244CF812E5
:1008500002FF00000000900131E0FF25E02400F8D5
:10086000E2FC08E2FDEF25E025E0244CF8C0001290
:1008700002A9AE04AF05E4FCFD1200F4D0001202A0
:10088000C2900131E025E02464F808E22401F21866
:10089000E23400F2900131E004F0020776E49001C6
:1008A00031F0900131E0FFC394025024EF25E024A1
:1008B00065F990012FE0FEA3E0FFC3E39F19E39EDB
:1008C0004006900132E004F0900131E004F080D263
:1008D000900132E06402706F900131F0900131E0DC
:1008E000FFC394025061EF25E02464F8E2FE08E2C1
:1008F000FF4E6053E4FCFDC004C005C006C007E025
:1009000025E025E0244CF8120291D003D002D0015A
:10091000D00012019A900131E0FD25E02408F8EEA4
:10092000F208EFF2ED25E02464F8E4F208F2ED2598
:10093000E025E0244CF81202FF00000000C21890ED
:100940000131E004F0809522122A91E4FB7D017FC1
:1009500001122591900135E5BAF053BA0F43BA1050
:10096000E490012FF090012FE0FFC39402501DEF9F
:1009700025E025E024EDF582E43400F5831202CE73
:100980000000000090012FE004F080D99000F512E3
:1009900002CE0000000090012F7405F075ABFF122D
:1009A0002A25E4900130F0900130E0FFC39402501A
:1009B0003DEF25E025E024EDF582E43400F583C029
:1009C00083C08212029DC000900130E024D5F582E0
:1009D000E43400F583E0FF12232ED0001200F4D09F
:1009E00082D0831202B6900130E004F080B990000A
:1009F000F512029DC0009000D7E0FF12232ED00018
:100A00001200F49000F51202B6E4F5AB122A25E4C8
:100A1000900130F0900130E0FFC394025051EF2577
:100A2000E025E024EDF582E43400F583C083C08244
:100A3000120285C004C005C006C007900130E02442
:100A4000D5F582E43400F583E0FF12232EA804A933
:100A500005AA06AB07D007D006D005D004120101C5
:100A6000D082D0831202B6900130E004F080A590CD
:100A700000F5120285C004C005C006C0079000D76B
:100A8000E0FF12232EA804A905AA06AB07D007D0C1
:100A900006D005D0041201019000F51202B69001B3
:100AA0002FE014F0E0600302098CE4900130F09034
:100AB0000130E0FBC394025030A31202CE001D4C63
:100AC00000EB25E025E024EDF582E43400F5831207
:100AD000029D90013112028512019A900130E024AA
:100AE0002AF8A607E004F080C69001311202CE0079
:100AF0001D4C009000F512029D90013112028512EA
:100B0000019A782CA607900135E0F5BA9000D7E05D
:100B10009025DD93F5AB22E4FD301426ED25E0248D
:100B2000F6F582E43425F583E493FE740193FFED3A
:100B300025E0242FF582E43401F583EEF0A3EFF0F5
:100B4000804D301526ED25E02416F582E43426F597
:100B500083E493FE740193FFED25E0242FF582E4F6
:100B60003401F583EEF0A3EFF08024ED25E024E6D8
:100B7000F582E43425F583E493FE740193FFED25BB
:100B8000E0242FF582E43401F583EEF0A3EFF00DBD
:100B9000ED64027084E4FDED25E02438F8E2FE08FF
:100BA000E2FFED25E02429F9D3E39F19E39E4016E7
:100BB000ED25E02428F8E2FE08E2FFED25E02438E8
:100BC000F8EEF208EFF2ED25E0242FF582E434018F
:100BD000F583E0C313FEA3E013FFED25E02429F91C
:100BE000D3E39F19E39E5047ED25E0242FF582E4DF
:100BF0003401F583E0FEA3E0FFED75F008A4243492
:100C0000F8A60608A607ED25E0242FF582E43401B6
:100C1000F583A3E025E0FF0582D5820215831582C6
:100C2000E033F8ED25E02438C8F208EFF2803CED1F
:100C300025E02406F582E43426F583E493FE74016E
:100C400093FFED25E02429F9D3E39F19E39E401B90
:100C5000ED25E02438F9E3C313FE09E313FFED7536
:100C6000F008A42434F8A60608A6070DED64026077
:100C700003020B872290012F7407F0A3F0A3120246
:100C8000CE00000000122A91E4FB7D017F011225B5
:100C90009190012FE0FF602074017E00A80708807A
:100CA00005C333CE33CED8F9FFADACE4EF5D7008A9
:100CB00090012FE014F080D9900130E0FF602074A3
:100CC000017E00A807088005C333CE33CED8F9FFD4
:100CD000ADAEE4EF5D7008900130E014F080D99083
:100CE000012FE0FF7401A807088002C333D8FCF588
:100CF000AC900130E0FF7401A807088002C333D82C
:100D0000FCFFF5AD8FAE53AACF900139E5BAF05391
:100D1000BA0F43BA10122A25E490012FF090012F48
:100D2000E0FFC39403503B74D52FF582E43400F503
:100D300083E0FF12232E9001351202B69001351286
:100D4000028590013112029DC3120242500C9001A3
:100D5000351202859001311202B690012FE004F0A5
:100D600080BB90013112029DC000900131120285BA
:100D70007804120253D0001200F49001311202B62E
:100D80009001311202859000CB1202B6900131120F
:100D9000028578101202538FB390013112028578C8
:100DA000081202538FB29001311202858FB143AA0B
:100DB00030900139E0F5BA75AC0375ADC075AEC0C1
:100DC00022AB07E4900133F0A31202CE0000000032
:100DD000EB7003020E60122A917B01E4FDFF1225E5
:100DE0009178581202FF00000000122A257858124C
:100DF00002A9C0009000D8E0FF12232ED0001200FC
:100E0000F478581202C2900133E004F0E0FFC3947A
:100E10000540D7E4FCFDFEC004C005C006C007784D
:100E200058120291D003D002D001D00012019AC012
:100E300004A905AA06AB07782DE6FFE4FCFDFED069
:100E40000012010F78071202539001341202B6907B
:100E500001341202859001091202B6E47F05FEFDFD
:100E6000FC90010912029D12010F9000801202B63F
:100E700090009B120285AB07AA06A905A804900062
:100E800080120285120101C374309FFF74759EFEAB
:100E9000E49DFDE49CFC9000E91202B6900084748D
:100EA00075F0A37430F0A31202CE000075307806FE
:100EB0007475F2087430F2780E7475F2087430F2BA
:100EC00078581202FF00000000E4786AF208F27815
:100ED00016F208F278241202FF00000000E49000ED
:100EE000D3F0A3F0FB900109120285EB25E025E089
:100EF000246CF582E43400F5831202B60BEBB405E2
:100F0000E4229001301202CE00000000300076E4AE
:100F100090012FF090012FE0FB242AF8E6FFE4FC7B
:100F2000FDFEEB25E025E024EDF582E43400F583B9
:100F300012029D12010F780712025390012FE0FB5D
:100F400025E025E024FDF582E43400F5831202B6A5
:100F5000EB25E025E024DDF582E43400F583120280
:100F600085EB25E025E024FDF582E43400F58312CD
:100F7000029DC312024250037F022290012FE0041F
:100F8000F0E0B4028F782CE6FFE4FCFDFE9000F563
:100F900012029D12010F78071202539001051202EE
:100FA000B6782DE6FFE4FCFDFE9000F912029D12DA
:100FB000010F9001301202B69001301202857807BD
:100FC0001202539001301202B6200023200120208B
:100FD000061D900130120285C3EF941EFFEE9400AF
:100FE000FEED9400FDEC9400FC9001301202B690EE
:100FF00001301202859001091202B6E490012FF02F
:1010000090012FE0FFC394045022EF25E025E02457
:10101000FDF582E43400F583120285EC4D4E4F70ED
:10102000037F022290012FE004F080D47F05224349
:101030009F04E453C6DFE5C600B5C6F375830075AB
:10104000820775FD0DE4E5FEF4FF758300758206E9
:1010500075FD0DE4E5FEB50704F59E8003759E0061
:1010600078100000D8FC53C6E043C60843C680751C
:10107000960775970575830075820475FD0DE5FD6E
:101080000404F58F75830075820375FD0DE4E5FE9C
:10109000F4FF75830075820275FD0DE4E5FEB5076A
:1010A00004F595800375958375BE0E5392FE9001ED
:1010B000007F007E02E4F0A3DFFCDEFA78007F0010
:1010C000E4F208DFFC78FFE4F6D8FD7581740210C5
:1010D000FF020000021C19E493A3F8E493A3400369
:1010E000F68001F208DFF48029E493A3F854072482
:1010F0000CC8C333C4540F4420C8834004F4568042
:101100000146F6DFE4800B010204081020408090C5
:10111000266CE47E019360BCA3FF543F30E5095484
:101120001FFEE493A360010ECF54C025E060A840E9
:10113000B8E493A3FAE493A3F8E493A3C8C582C8E0
:10114000CAC583CAF0A3C8C582C8CAC583CADFE9B5
:10115000DEE780BE90012F7407F0A3F0A31202CE49
:1011600000000000E4F5B375B27575B130122A9134
:101170007B01E4FDFF12259190012FE0FF602074B8
:10118000017E00A807088005C333CE33CED8F9FF0F
:10119000ADACE4EF5D700890012FE014F080D990C1
:1011A0000130E0FF602074017E00A807088005C3BD
:1011B00033CE33CED8F9FFADAEE4EF5D70089001C9
:1011C00030E014F080D990012FE0FF7401A80708E7
:1011D0008002C333D8FCF5AC900130E0FF7401A865
:1011E00007088002C333D8FCFFF5AD8FAE53AACFFA
:1011F000900139E5BAF053BA0F43BA10122A25907C
:1012000000D8E0FF12232E9001351202B69001356E
:1012100012028590013112029DC3120242500C90BD
:1012200001351202859001311202B690013112028D
:101230009DC0009001311202857804120253D00043
:101240001200F49001311202B69001311202859021
:1012500000CF1202B643AA30900139E0F5BA75AC5E
:101260000375ADC075AEC022E490012FF090012F40
:10127000E0FE75F008A4243AFBEE25E025E024FD0D
:10128000F582E43400F5831202857804120253AD2E
:1012900007AC06AF03122BCB90012FE0FE75F008D0
:1012A000A42438FFEE25E02410F8E2FC08E2FD1249
:1012B0002BCB90012FE0FE75F008A42436FFEE251D
:1012C000E02428F8E2FC08E2FD122BCB90012FE08D
:1012D00004F0E0C3940240957F467804E2FC08E203
:1012E000FD122BCB7F52C00790010D120285AD0776
:1012F000AC06D007122BCB7F4EC007900111120213
:1013000085AD07AC06D007122BCB7F549025ECE4BB
:1013100093FC740193FD122BCB7F569025EC740146
:101320009324CEFDE49334FFFC122BCB7F587D64D5
:101330007C00122BCB7F5E7806E2FC08E2FD122BCC
:10134000CB7F5C7816E2FC08E2FD122BCB7F5A784B
:101350002EE2FC08E2FD122BCB7F60780EE2FC0847
:10136000E2FD122BCB900080120285780A12025304
:101370007862A6077827E6F522229001301202CE85
:1013800000000000E4900134F07404F0900134E0B7
:10139000FBD39400402AEB25E025E02468F582E4A5
:1013A0003400F583120285EB25E025E0246CF582FC
:1013B000E43400F5831202B6900134E014F080CCDE
:1013C00090010912028590006C1202B6E49001347B
:1013D000F0900134E0FFC3940550289001301202D0
:1013E0009DEF25E025E0246CF582E43400F58312BE
:1013F00002851200F49001301202B6900134E0042C
:10140000F080CE9001301202859000801202B690DA
:10141000009B120285AB07AA06A905A804900080CC
:101420001202851201019000E912029D1200F4904F
:1014300001351202B6E4FFFEFDFC90013512029D5B
:10144000C312022C50037F0222E47FFF7EFFFDFCCB
:1014500090013512029DD312022C400A90013512E0
:1014600002CE0000FFFF900135120285900084EE4D
:10147000F0A3EFF012200B9000861202857806EEA2
:10148000F208EFF27F0622E4900133F0A3F0EF7050
:1014900003021539122A91E4FB7D017F0112259187
:1014A00078541202FF00000000122A25785412021C
:1014B000A9C0009000D7E0FF12232ED0001200F444
:1014C00078541202C2900133E004F0E0FFC39405A7
:1014D00040D7E4FCFDFEC004C005C006C007785438
:1014E000120291D003D002D001D00012019AC004A0
:1014F000A905AA06AB07782CE6FFE4FCFDFED000A8
:1015000012010F78071202539001051202B6E47F10
:1015100005FEFDFC90010512029D12010F90008E48
:101520001202B6E47F46FEFDFC90008E12029D1270
:10153000010F78041202539000931202B6900093A8
:1015400012028590009B1202B690008A1202CE0011
:10155000000000E4900092F090009B120285EF24BE
:10156000D0FFEE348AFEED34FFFDEC34FFFC90003A
:10157000E51202B678047475F2087430F2900097A0
:101580001202CE0000753022E490012FF090012F5E
:10159000E0FFC394024003021673EF25E025E02428
:1015A000DDF582E43400F583120285E47B107A27AE
:1015B000F9F8C312022C506090012FE0FB25E025C2
:1015C000E024FDF582E43400F583120285EF24F077
:1015D000FFEE34D8FEED34FFFDEC34FFFCEB25E0EC
:1015E00025E024DDF582E43400F5831202B6900193
:1015F0002FE0FF25E02400F87427F2087410F2EFC2
:1016000025E02410F8E4F208F2EF25E02408F8744D
:1016100027F2087410F2806290012FE0FB25E0258C
:10162000E024DDF582E43400F5831202CE000000F0
:1016300000EB25E025E024FDF582E43400F583127B
:10164000028590012FE0FD25E02400F8EEF208EF7E
:10165000F2ED25E02410F8E4F208F2ED25E025E0B3
:1016600024FDF582E43400F58312028590012FE019
:1016700025E02408F8EEF208EFF290012FE004F0E4
:1016800002157D22E4900130F0900130E0FF25E06A
:101690002408F8E2FC08E2FDEF25E02400F8E2FE71
:1016A00008E2FFD39DEE9C401BE025E02408F8E211
:1016B000FC08E2FDC3EF9DFFEE9CFEE4FCFDA312DF
:1016C00002B6800A9001311202CE000000009001A3
:1016D0003112028578071202669001311202B6902B
:1016E00000A6E070347F03FEFDFC90013112029DE4
:1016F00012010F900130E025E025E02418F81202D5
:10170000A91200F47802120253900130E025E0257E
:10171000E02418F81202C2802A900130E025E0256A
:10172000E02418F812029190013112029D1200F487
:101730007801120253900130E025E025E02418F8EA
:101740001202C2900130E0FB25E025E02418F812D7
:1017500002917807120253EB25E02410F8EEF2080C
:10176000EFF2900130E004F0E064026003021679C9
:101770007F0622900131EEF0A3EFF090014AE07075
:10178000199000B0E0B40512201A2BD39000BCE0F1
:1017900094009000BBE09400401CE4786AF208F2E8
:1017A00078581202FF0000000090009B1202859002
:1017B00000971202B62278581202A9C0007806E2F9
:1017C000FE08E2FFE4FCFDD0001200F4785812029B
:1017D000C2786BE22401F218E23400F2900131E0A9
:1017E000FEA3E0FFC308E29F18E29E5024900097FA
:1017F0001202859001371202B690009B12028512E8
:101800002866E47BC8FAF9F8C31202424003301A92
:1018100046786AE2FE08E2FFE4FCFDC004C005C0B1
:1018200006C0077858120291D003D002D001D00030
:1018300012019A780EEEF208EFF2E4786AF208F2FA
:1018400078581202FF0000000090009B1202859061
:1018500000971202B6C21A22121F8612217E122B84
:101860002F9000A5EFF01229A5EF70030219187F41
:10187000011227B6AD07AC06D39000B8E0940090F3
:1018800000B7E094004010ECC4F854F0C868FCEDD8
:10189000C4540F48FD802F301811EDAE047803CEEC
:1018A000C313CE13D8F9FDAC06801BC37841E29474
:1018B0001E18E29400500FEDAE047802CEC313CE92
:1018C00013D8F9FDAC06AE04AF051207519000A67F
:1018D000E060287F061227B6D39000B6E09F900004
:1018E000B5E09E400AE49000A5F0A3F012157890B0
:1018F00000B5E475F0011200DE8007E49000B5F059
:10190000A3F09000A6E0FFA3E06F601C121E72908F
:1019100000A6E0A3F0A3E054F0600D7F071227B605
:101920009000B9EEF0A3EFF0229001341202CE0045
:10193000000000E4900138F0A3F0A3F090008A12B8
:10194000028590010512029D1200F490008A120295
:10195000B6900092E004F0E06405705990008A129D
:10196000028590008E1202B690008A1202CE00000C
:101970000000E4900092F090008E120285900130F9
:101980001202B6900130120285E47B46FAF9F81291
:10199000010F9001301202B69001301202857804D6
:1019A0001202539001301202B6900130120285905B
:1019B00000931202B6E47F0FFEFDFC90009B120222
:1019C0009D12010F90009312029D1200F4780412F0
:1019D000025390009B1202B69000E5120285AB07FD
:1019E000AA0690009B120285C3EF9B7805F2EE9A3F
:1019F00018F27F0622C0E0C0F0C083C082C0D0755C
:101A0000D008C2CFD20730CD03021AA330CB3A2080
:101A1000CC377870A6CEE6FFC39480402375F003E0
:101A2000EF901C621203181203348B198A1A891B57
:101A30007819E475F00112032412005EF5CE8009D6
:101A40007870E62518F8E6F5CE30CC247870E6C339
:101A5000948040107819E475F00112032412005E9E
:101A6000F5CE804D787006E62518F8E6F5CE804173
:101A700020CB3E85CE1D7870E6FF7024E51DB410A6
:101A80000990014BE0F452808027E51DB4200890B6
:101A9000014BE04280801A7866A61D78700680119E
:101AA000EFC3940A50087870E62466F8A61D787093
:101AB00006D205D0D0D082D083D0F0D0E032122B25
:101AC000F89000AAEFF01226F49000AAE0FF122985
:101AD00073EF7003021B6E2000033001257F051297
:101AE00027B6D39000D4E09F9000D3E09E4004D26C
:101AF0001A80327F021227B690012FEEF0A3EFF08A
:101B000080237F051227B6D39000D4E09F9000D3A6
:101B1000E09E4004D21A800D7F041227B690012F58
:101B2000EEF0A3EFF0D39000B8E094009000B7E09F
:101B30009400401290012FE0C4F854F0C868F0A35C
:101B4000E0C4540F48F090012FE0FEA3E0FF12170D
:101B5000639000ABE0FFA3E06F60231224F69000D7
:101B6000ABE0A3F0A3E054F060147F081227B6EEB8
:101B7000C313FEEF13FF9000BBEEF0A3EFF022E4DF
:101B800090012FF09000C5E054036032C2057F0A37
:101B90001227B69000C1EEF0A3EFF09000C5E0541C
:101BA000FCF0C29278647600087696786408E616AF
:101BB0001886067001164E60030080EFD2929000E6
:101BC000C5E0FF30E2149000ADE0540F60227824AD
:101BD000760490012F7401F08016EF30E31290002C
:101BE000ADE0540F600A7824764090012F7401F024
:101BF0009000C5E054F3F090012FE0602BC2057F08
:101C00000A1227B69000C1EEF0A3EFF078647600D8
:101C1000087696C292786408E61618860670011651
:101C20004E60030080EFD29222122B11122BB912B8
:101C30002BEB121CB7122A6F12289E12290B122AA4
:101C4000D2D2AF751C01E51C24FE601C24FE602D61
:101C500014604A14605424057061122BDB122BA50A
:101C6000122B657F02122736D2D81222619000C84B
:101C7000E070FA7F01122391751C048041D2D89044
:101C800000C8E060034387019000C8E070FA120EBC
:101C9000F28F1C12208E7F0112239180211222C903
:101CA0008F1C121258121F018014300003121848A2
:101CB000121AAE122777751C048003751C011200DE
:101CC00003120563808022E490012FF07824F6FF50
:101CD000122B9190012FEFF0BFFF0678257604803C
:101CE00004782576FF7826761AE408F6782976FFB8
:101CF000FFEF25E024E6F582E43425F583E493FC48
:101D0000740193FDEF75F008A42434F8A60408A626
:101D100005EF75F008A42436F8E4F608F6EF75F040
:101D200008A42438F8E4F608F6EF75F008A4243A7D
:101D3000F8E4F608F60FEFB402B7E47854F608F6C4
:101D400008F608F608F608F608F608F608F608F6A3
:101D500008F608F608F608F608F675182422C0E01A
:101D6000C0F0C083C082C0D075D01053B9FD9000C0
:101D7000C8E0FB64017059FA74D52AF582E4340096
:101D8000F583E0FF12232EEA25E025E024EDF5821D
:101D9000E43400F5831202B60AEAB402DB9000D7FD
:101DA000E0FF12232E9000F51202B69000D8E090CA
:101DB00025DD93F5B49000D0E0F5B3A3E0F5B2A330
:101DC000E0F5B143B901D2D89000C87402F0801791
:101DD000EBB402139000D8E0FF12232E9000F9120A
:101DE00002B69000C8E4F0D0D0D082D083D0F0D03A
:101DF000E032FE0000FE0008FE0008FE0010FE00BB
:101E000010FE0018FE0028FE0030FE0030FE0038F4
:101E10000100ED0100F50100FD0101050101450191
:101E200001460101470100A50100AA0100A6010029
:101E3000AB0100A70100ACFE0018FE00380100B5A0
:101E40000100B10100B30100B70100BF0100C101F1
:101E500000B90100DD0100E50100C90100CA01006F
:101E6000CB0100CF01010D0101150100FD010105AC
:101E70000100800100930100800100840100A8019D
:101E800000AD90012FEFF09000C5E06003021F004D
:101E9000F9FFFE7401A806088002C333D8FCFD9048
:101EA000012FE05DFC9000A7E05D6C60079000C52D
:101EB000E04401F09000A7E05DB50513EE2404FCBA
:101EC0007401A804088002C333D8FC49F9800D745A
:101ED00001A806088002C333D8FC49F990012FE01D
:101EE0005DB5050F7401A806088002C333D8FC4F06
:101EF000FF8011EE2404FD7401A805088002C3339D
:101F0000D8FC4FFF0EEE64027089E95F9000A8F0E4
:101F100022D39000B8E094009000B7E0940040070E
:101F200074FFF5F01200DED39000BAE09400900048
:101F3000B9E09400400774FFF5F01200DED3900082
:101F4000C2E094009000C1E09400401374FFF5F0EB
:101F50001200DE9000C1E07002A3E07002D2059092
:101F600000B1E475F0011200DED39000BCE09400F3
:101F70009000BBE09400400774FFF5F01200DED340
:101F80009000C0E094009000BFE09400400774FF10
:101F9000F5F01200DE227830E2FE08E2FF90012F19
:101FA000EEF0A3EFF0A3EEF0A3EFF07F01EF25E05A
:101FB0002430F8E2FC08E2FDD3900130E09D90016E
:101FC0002FE09C400FEF25E02430F8E2FD08E2CD41
:101FD000F0A3EDF0EF25E02430F8E2FC08E2FDC3C9
:101FE000900132E09D900131E09C500FEF25E024FC
:101FF00030F8E2FD08E2CDF0A3EDF00FEFB402AD52
:1020000090012FE0FFA3E07842CFF208EFF2A3E0C7
:10201000FFA3E07840CFF208EFF222D37817E294E2
:10202000F418E294014010900084E0FEA3E0FFE485
:10203000FCFDA31202B62220003520013220062F1B
:10204000E47F03FEFDFC90008612029D12010FA8A2
:1020500004A905AA06AB07900084E0FEA3E0FFE414
:10206000FCFD1200F47802120253A31202B622E41D
:102070007F1FFEFDFC90008612029D12010FA80436
:10208000A905AA06AB07900084E0FEA3E0FFE4FCEC
:10209000FD1200F47805120253A31202B622E49056
:1020A000012FF0A3F07827E6FF20E10330E203C21E
:1020B000062230071A9000B3E4F0A37478F07F0C86
:1020C0001227B69000BFEEF0A3EFF0C207801F907A
:1020D00000BFE07002A3E070159000B3E07004A3AD
:1020E000E0640460099000B3E4F0A37404F090008D
:1020F000B7E07002A3E070119000BFE07002A3E0AF
:102100007007300504C2068002D206200608E4FFEC
:1021100012293F1229D522E4900130F0900130E0DD
:10212000FFC394025065EF25E025E024DDF582E44D
:102130003400F583120285AB07AA06A905A804900E
:102140000130E025E025E024FDF582E43400F5834C
:102150001202851201019001311202B6E47FFF7E66
:10216000FFFDFC90013112029DC312024240037F29
:102170000222900131120285900130E025E0240016
:10218000F8EEF208EFF2E004F080917F0622E4908E
:10219000012FF090012FE0FF25E02408F8E2FC0871
:1021A000E2FDEF25E02400F8E2FE08E2FFC39DEE29
:1021B0009C5044E025E02409F8C3E29FFF18E29E0A
:1021C000FEE4FCFD7B64FAF9F812010FC006C007BB
:1021D00090012FE025E02444F8E2FE08E2FFFBAA8C
:1021E00006E4F9F8D007D00612019AD3EF940AEE6C
:1021F00094004003D2182290012FE004F0E0B402D2
:102200009222E4900130F0900130E0FFC39402503C
:102210005FEF25E02410F8E2FE08E2FFE4FCFD7B1E
:1022200064FAF9F812010FC006C007900130E025EA
:10223000E02444F8E2FE08E2FFFBAA06E4F9F8D045
:1022400007D00612019A900130E0FD25E02428F81D
:10225000EEF208EFF2ED25E02428F8E2FE08E2FFB6
:10226000ED25E02430F8EEF208EFF2E004F080977C
:10227000227827E6FF30E104D2008002C200EF306E
:10228000E204D2018002C20120000330010B900061
:10229000B3E4F0A37478F080099000B3E4F0A37481
:1022A00004F0A202300001B35012A20092021224E4
:1022B00054300005120366800312157830080512A9
:1022C0000366C208A203300101B35004A2019203C5
:1022D000300905122A4BC2092290012F7406F030F2
:1022E000002312210790012FEFF0BF0205D208E072
:1022F000FF2212167490012FEFF0BF0205D208E002
:10230000FF221221F212191990012FEFF0BF0205DE
:10231000D208E0FF2212136A90012FEFF0BF0205EE
:10232000D209E0FF2212262690012FEFF0BF02050E
:10233000D209E0FF2212282D90012FE0FF22EFC3E7
:102340009404500553B9EF800343B910EF6003B410
:10235000040C7872A6B708A6B608A6B5803DEF644F
:10236000016004EFB4050C7872A6EB08A6EA08A693
:10237000E98028EF64026004EFB4060C7872A6F3DB
:1023800008A6F208A6F18013EF64036004EFB40717
:102390000A7872A6FB08A6FA08A6F97871120279E3
:1023A0002290012FEFF0E09000C8F064017025301A
:1023B000000AFB7D017F011225918008E4FB7D016D
:1023C000FF1225919000CCE0F5B3A3E0F5B2A3E0B5
:1023D000F5B1801D90012FE0B402167B01E4FDFFF2
:1023E0001225919000D0E0F5B3A3E0F5B2A3E0F59B
:1023F000B175BF0F43B92053B9FD43BA0143B901C9
:10240000D2D822C0E0C0F0C083C082C0D075D00056
:10241000C000C007C28D758C32758AEB90011DE437
:1024200075F0011200DEC390011EE0941490011DAE
:10243000E09400402020000330010D9000B1E0FF47
:10244000A3E0A3CFF0A3EFF09000B1E4F0A3F090ED
:10245000011DF0A3F0D007D000D0D0D082D083D01F
:10246000F0D0E032E4FF9000A6F0A3F09000AFF0CF
:102470009000B5F0A3F09000B9F0A3F09000A8F0A0
:10248000A3F0F523EF25E02444F8E2FC08E2FD90F8
:1024900000C6EC8DF01200DE0FEFB402E79000C62C
:1024A000E0FEA3E0FF7C007D0A1200899000C6EEEA
:1024B000F0A3EFF022A907E4FF7E0474D52EF58285
:1024C000E43400F583E09025DD934FFF0EEEB40673
:1024D000EAE96005EF42D48004EFF452D4EFF4FE51
:1024E00052F4EF42E4ED6005EF42EC8003EE52EC73
:1024F000EFF4FE52DCEB6005EF42808003EE528089
:1025000090014BEFF022AA079000C5E0F97044FC5F
:10251000FF7E04EA540FFD9000ACE0540F6D600A9A
:10252000300107E944029000C5F09000ACE0540F80
:102530006008EEC454F04CFC8003EC4EFCEA540FEF
:102540006005EF4EFF8006EEC454F04FFFEC5F9045
:1025500000ADF02290012F1202CE00000000E490A6
:102560000133F090012F12029DC000900133E0244E
:102570002AF8E6FFE4FCFDFED0001200F490012FE3
:102580001202B6900133E004F0E0B402D6E47B021C
:10259000FAF9F890012F12028512019A782DA607F8
:1025A00022A905E4FEFDEF6018E4FF74D52FF58243
:1025B000E43400F583E09025DD934EFE0FEFB40286
:1025C000EAE9600A9000D7E09025DD934EFEEB60CB
:1025D0000A9000D8E09025DD934DFD9000C9EEF003
:1025E000AF05A3EFF09000C9E04FF5B4220102045B
:1025F000081020408039003C003C003C01F4003CC5
:10260000003C003C003C003C003C003C003C003CEA
:10261000003C003C003C00780078003C003C003C62
:10262000003C003C003C03E803E8003C003C003C6C
:10263000003C003C003C780EE2FE08E2FF7806E237
:10264000FC08E2FDD39FEC9E4018780EE2FE08E203
:10265000FFED9FFFEC9EFEE4FCFD9001301202B600
:10266000800A9001301202CE00000000900130126A
:1026700002857816EEF208EFF27F0622603000A5A0
:10268000000000000000000000000000000000004A
:10269000000000000000000000000000000000003A
:1026A000000000000000000000000000000000002A
:1026B0004800D5030400060102FFFF04710000007A
:1026C0000000E4FF9000ABE070189025EC93FC74E0
:1026D0000193FDC37837E29D18E29C40217404FF0A
:1026E000801C9025EC74019324CEFDE49334FFFC10
:1026F000C37837E29D18E29C4004EF4404FF900148
:102700004AEFF022780EE2FE08E2FF7806E2FC08CB
:10271000E2FDC39FEC9E5026C3780FE29DFF18E2B6
:102720009CFED3EF9464EE9400400B9000D3E475CC
:10273000F0011200DE22E49000D3F0A3F022E49036
:1027400000D3F0A3F0227827A607EFB40208D20244
:10275000D200C203C201EFB40408C202C200D20315
:10276000D201EFB40608D202D200D203D201900007
:10277000B3E4F0A37478F07F0B1227B69000B7EEA5
:10278000F0A3EFF0D20622E4FFFE3000109000A983
:10279000E0FD9000A8E0FC6D6003ECFF0E3001123C
:1027A0009000AEE0FD9000ADE0FC6D6005EC4FFFE9
:1027B0007E01EE60047824A6079000A8E0A3F090C4
:1027C00000ADE0A3F0229001317401F0A3741FF07A
:1027D0007B017A00EFB40F057F017E00229001316A
:1027E000E0FCA3E02FF582E43CF583E07A00FB9067
:1027F00000B3E0FCA3E0FDAF037E00120077AA0661
:10280000AB0722E4FFFEEE75F008A42435F8E624B9
:10281000FDFD18E634FFFCEE25E02429F9C3E39D15
:1028200019E39C400D7401A806088002C333D8FC4C
:102830004FFF0EEEB402CF900147EFF0227816E280
:10284000FE08E2FFE4FCFD7B64FAF9F812010FC018
:1028500006C007784AE2FE08E2FFFBAA06E4F9F8A0
:10286000D007D00612019A782EEEF208EFF27836F1
:10287000EEF208EFF2229001331202B69001371205
:10288000028590013312029DD31202424010900142
:102890003712029D9001331202851201012290012C
:1028A0003312029D900137120285120101227E012E
:1028B0007F1FE4FDED25E024B2F582E4342AF583A0
:1028C000E493640F601EED25E024B3F582E4342A1E
:1028D000F583E493FCEF2DF582E43EF583ECF00DF7
:1028E000EDB410D022E4FFFEEE75F008A42434F815
:1028F000E6FC08E6FDEE25E02431F9C3E39D19E38B
:102900009C400D7401A806088002C333D8FC4FFF19
:102910000EEEB402D3900145EFF02243F80875CDD6
:102920004053CC7F43CC4043CC2043CC1043CC0419
:1029300053CCFD43CB0243CB0153CBBF43E80853F9
:10294000E5FC43E30243F50343900343ED0322E434
:102950009000C8F053B9FD43CC02C2D9439F105335
:102960009FFD438760759262C28DEF700675BD0D45
:1029700075BC01122B7C75BE0CD28C438703000002
:102980000000227E059000ABE06F6009D207EFF0F7
:10299000E49000B0F09000ABE070027E02AF0690D1
:1029A00000B0E004F0C39F50037F00229000B07499
:1029B00005F07F01227E039000A6E06F6007EFF034
:1029C000E49000AFF09000A6E070027E01AF0690A8
:1029D00000AFE004F0C39F50037F00229000AF746B
:1029E00003F07F0122E4FF75BE0E439F100FEFB48A
:1029F000FFFB439F02539FEFE4FF0FEFB4FFFB7514
:102A0000BC02759276E4F5BFD2D953CCFD22E4FF27
:102A1000FE74D52EF582E43400F583E09025DD9335
:102A20004FFF0EEEB404EAEF42D4EF42F4EF42E47B
:102A3000EFF452DC2275BF0F000000000000000020
:102A400000000000000000000000D2D853B9FD4390
:102A5000B901E5B930E1FBE4F5BF229000C8E070B0
:102A6000FAE4FF120DB1E4FF121477E49000ABF02A
:102A70009000B0F09000BBF0A3F09000ADF02243C6
:102A80008901C28DD2A953B8FDE490011DF0A3F0D5
:102A90009000B1F0A3F0758C32758AEBD28CD2AF76
:102AA0002253BAFEE5B920E0069000C8E06005E5D3
:102AB000B930E1FBE4F5BF53B9FD53B9FE9000C84E
:102AC000F0220002010102080301040805010606C4
:102AD0000701080109020A010B030C010D0A0E048B
:102AE0000F0178447402F208742DF2087402F2089F
:102AF000747AF208E4F2087464F208E4F208746488
:102B0000F222EF600543D504800353D5FB53F5FB58
:102B100053E5FB43E30443ED04E49000C5F0D29297
:102B200022E4F5E3439F10439F02FF0FEFB4FFFB46
:102B3000539FEF75BE0EE4F5BFF5B975927622127C
:102B40000B071228D51227F39000A6E0700790011A
:102B500045E0FB8005900147E0FBAF0322E49000D5
:102B6000ABF0A3F09000B0F09000BBF0A3F09000A9
:102B7000ADF0A3F022E49000C1F0A3F07F0C122787
:102B8000B69000BFEEF0A3EFF0D20522438901C258
:102B90008CC28FE490011DF0A3F0758CFB758AED5B
:102BA00022E4FFF582F5837440FEE493F42FFFA343
:102BB000EEB583F6227F01121477122544121144D8
:102BC0007F01120DB1122B4D221229FE7B017D01D6
:102BD000E4FF1224A57F01122AF22220C90CC2AF01
:102BE000A807A60408A605D2AF222212000E1209D9
:102BF00038120C6512036612245422C2DA53D80F1D
:102C000043D8D0D2D8D2D9221226B290014AE0FFBE
:102C100022FFFFFFFFFFFFFFFFFFFFFFFFFFFFFFA1
:102C2000FFFFFFFFFFFFFFFFFFFFFFFFFFFFFFFFB4
:00000001FF
