:1000000040090020B198010851710108657101088B
:10001000797101088D710108A171010800000000CB
:10002000000000000000000000000000B5710108A1
:10003000C971010800000000B5920008D5980108B8
:10004000D9980108DD980108E198010825410108C7
:10005000E5980108E178010841740108E998010870
:100060002B7601080D770108ED980108F198010839
:10007000F5980108F9980108FD980108019901080F
:1000800005990108099901080D990108000000006F
:1000900000000000000000000000000011990108AD
:1000A00015990108199901081D990108219901085C
:1000B0000000000000000000000000002599010879
:1000C000299901082D9901083199010835990108EC
:1000D000399901083D990108419901080000000083
:1000E00045990108E97701080000000000000000C0
:1000F0000000000000000000000000004999010815
:1001000000000000000000004D9901080000000000
:1001100000000000000000005199010800000000EC
:1001200055990108599901085D99010861990108DB
:1001300065990108000000000000000000000000B8
:1001400000000000000000000000000000000000AF
:10015000699901086D99010871990108759901085B
:10016000000000000000000000000000000000008F
:10017000000000000000000000000000000000007F
:10018000799901087D990108000000000000000035
:10019000000000008199010800000000000000003C
:1001A000000000000000000000000000000000004F
:1001B0000000000000000000000000008599010818
:1001C000899901088D990108521C884204D192FB3B
:1001D000F1F001FB102008E0101A90FBF1F201FB96
:1001E000120000B2002848BF401800B2704700005B
:1001F0002DE9F8432DED048B8EB080468946F0EE54
:10020000408AB0EE608A1646002702AC334602AA46
:10021000B0EE680A4946404600F0A0F800289FED7D
:10022000D29A4ED0002009EB800191ED000A04EB38
:100230008001D1ED000A09EB8001401C30EE200A5C
:10024000042881ED000AEEDB002504EB850090ED2B
:10025000000AF0EEC00AF4EE490AF1EE10FA58BFB7
:10026000B0EEC09A6D1C032DEFDBE068DFEDBF0A36
:1002700020F00040B4EE609A00EE100AF1EE10FAA1
:1002800042BFDFEDBB0AB4EE600AF1EE10FA01D511
:10029000022F03DA7F1CFFB2052FB7DBDFEDB50AB3
:1002A000B4EE609AF1EE10FABEBFDFEDB30AB4EE21
:1002B000600AF1EE10FA04DA99ED030A02F068FB25
:1002C00007D58DED018A89ED068ADFF8500A306086
:1002D0003FE0242104A802F057FC002509EB85002B
:1002E00090ED000A80EE280A02F051FCBDEEC00A33
:1002F00002A910EE100A21F815000C2104A8694388
:10030000084400EB850099ED030A6D1C88EE000A95
:10031000032D80ED000AE1DB01A8009009F118032C
:10032000F0EE480AB0EE680A04AA02A9404601F0BD
:10033000DBF896ED000ADDED010A20EE200A86EDDD
:10034000000AF0EE000A9DED010A20EE200A8DED74
:10035000010A9DED010A0EB001F0E4B92DE9F84F54
:100360002DED028BACB0044688461646994608A887
:10037000102102F009FC0020C9F8000002F0EBFB9C
:100380001CA802F001FC40210CA802F0FDFBB0EE1D
:10039000408ADFED7A8A98ED030A103E00F0C2FF32
:1003A00000F1928000F0B2FF0090002504AF0DF143
:1003B000040A0DF1200B09E007EB800302F0D8FBE3
:1003C0000428F9DB491C042953DB6D1C2178E8B2B1
:1003D00088425FD200986178D8ED000A50FA85F023
:1003E00001F02CF9B0F9221002F0AEFB30EE600AF9
:1003F0008DED010AB0F92410D8ED010ADDED011AE6
:1004000002F0A2FB70EE600ACAED010AB0F9260004
:1004100098ED021A02F0A5FB30EE411A9DED010A9B
:100420008AED021A20EE210A00EEA00A01EE010A6E
:1004300002F0CCFBDFED520A01F07FF9C5D4F7EEF4
:10044000000AC0EE800A00200AEB800191ED001A3C
:1004500007EB8001401C21EE601A032881ED001A91
:10046000F2DBDFF80C0EF8600021D8ED030A70EE25
:10047000C00A07EB81001CAA90ED000A0BEB81007B
:1004800002EB011290ED001A00EE201A80ED001A26
:10049000084695E70024611C08460AE01CAD05EB00
:1004A00004151CAA02EB8402030155F82050D55014
:1004B000401C0428F2DB0C46042CECDB04220CA9C3
:1004C0001CA802F06BFC08B9002048E0042308AA2D
:1004D00031460CA802F0CDFCC9ED008A002408A822
:1004E0000021002200238C46A0E80E104FF07E5021
:1004F0004BF82400042308AA04A90CA802F0B9FCB4
:1005000004A800EB840090ED008AB5EE408AF1EE7D
:1005100010FA0FDDB0EE480A02F058FBD9ED000AE0
:1005200001F00BF908D4B0EE480A02F04FFBF0EEF0
:10053000400A01E0F2EE040A641C032CC9ED000A33
:10054000CDDB98ED030AFEEE000A20EE200AD6ED80
:10055000030A02F019F948BF86ED030A01202CB006
:10056000BDEC028BBDE8F28F000000009A99993E25
:100570006666663F01002040CECC0C40CDCCCC3D21
:1005800017B7D1382DE9F8432DED028B92B0044610
:10059000884691461F4606A8202102F0F5FA03A8D6
:1005A0000021002200230EC0396094F902206178F6
:1005B0002078B0EE408AF0EE608AFFF705FE002159
:1005C00003AD21E06378DDED030A00F0C9F930EEF8
:1005D000200A8DED030AC9B2B2F92430D5ED010A23
:1005E00000EE103AB8EEC00A30EE200A85ED010A9E
:1005F000B2F92620D5ED020A00EE102AB8EEC00AA4
:1006000030EE200A85ED020A22789142DADB0021E1
:10061000227800EE102A05EB8102B8EE400AD2EDF6
:10062000000A491C80EE800A032982ED000AEFDBF4
:10063000002106AE3DE06378DDED030A95ED011A79
:10064000D5ED021A00F08CF9B2F92430B2F9262067
:1006500030EE600A00F02FFE70EEC10A01EE102AA3
:10066000B8EEC11A31EE611ADDED061A40EE001A3D
:10067000CDED061AC9B2D6ED011A40EE201AC6ED2C
:10068000011AD6ED021A40EE011A96ED030AC6EDE4
:10069000021A00EEA00A86ED030A96ED040A00EEA7
:1006A000810A86ED040A96ED050A01EE010A86ED3F
:1006B000050A22789142BEDB694606A802F094FA48
:1006C000009820F0004000EE100A6846D0ED010AC4
:1006D000B0EEE01AB4EE410AF1EE10FA90ED021A13
:1006E000009858BFB0EEE00AF0EEC11AB4EE610A0D
:1006F00020F00040F1EE10FAF0EEE01A02EE100ADF
:1007000058BFB0EEC10AF4EE421AF1EE10FA43BF40
:10071000009820F0004000EE900AF0EEE00AF0EEC3
:10072000C11AF4EE601AF1EE10FA58BFF0EEC10AE9
:10073000B3EE091A20EE011AB4EE601AF1EE10FAC7
:1007400000F1E780B3EE041A20EE010A00F0F5FF95
:1007500003D520782328C0F2DC80202106A802F0EF
:1007600013FABDF97400B0EE080A28EE000A00EE94
:10077000900A80EE280AF8EEE00A02F005F85CBF65
:10078000BDEEC00A10EE100A00B200EE900A88EE2C
:10079000280A00F0D0FF5CBFBDEEC00A10EE100AC0
:1007A00000B200F007FB60EEA80AB6EE000AC0EE49
:1007B000880A60EE800A9FED621A00F0BFFA0BDB38
:1007C000B0EE001A00F0BAFA06D5B7EE001A70EED5
:1007D000810A20EE800A01E0B7EE000A002005EB56
:1007E0008001D1ED000A06EB8001401C60EEA80AF2
:1007F0000328C1ED000AF2DB20EE080A86ED030AA9
:1008000086ED060AF0EE480A1C9AB0EE680A06A9C0
:100810002046FFF7EDFC87ED000A2421404602F058
:10082000B3F900210EAD06EB810090ED000A05EB57
:10083000810080EE280A80ED000A0C2048434044E5
:1008400000EB810096ED030A491C88EE000A03299B
:1008500080ED000AE7DB96ED060AD7ED000AB5EE5B
:10086000400AF1EE10FA5CBFF5EE400AF1EE10FA24
:100870004FBF9FED340A80EE800AF7EE000A30EE9B
:10088000C00A87ED000AFFEE000A98ED000A30EE7C
:10089000200AB0EEC00ADFED2C0AB4EE600A98ED33
:1008A000000ADFED2A0A30EE200AF1EE10FAB0EE6F
:1008B000C00ADFED270A4CBF0120002000F03DFFF9
:1008C00008D598ED000ADFED230A00F036FFA8BF37
:1008D000012100DA0021084306D097ED000ADFED80
:1008E0001E0A00F02AFF16D5DFED1C0A2078C0EEA4
:1008F000A80AFDEEE00A0200B0EE080A10EE901A17
:100900001CBF401E207080EE280A89B2204600F0ED
:100910009DFA00200EE0002405EB840090ED000A13
:1009200002F035F901F018FA29F81400641C032CC0
:10093000F2DB012012B0BDEC028BBDE8F2830000B7
:10094000CECC4C3E000000003333B33ECDCC8CBF48
:100950006666263F6766E63E9A99193F00003D436A
:100960000A1892FBF3FC03FB1C22D2B204EBC20276
:10097000491CB2F9223000EE103AB8EEC00A7047B6
:100980002DE9F54F1D4681B00C462DED048B86B048
:1009900003A8179FD2ED020A0FF29032B0EE408A00
:1009A000D2E90036C0E900360FF2883201A8D2E958
:1009B0000036B7EE000A80EE200AC0E900360020BB
:1009C00078703870B870F87038717871F1EE040A88
:1009D000DDF8588060EE208ADFEDCD0A0021002688
:1009E000C8F8000020EE209A0DF104090DF10C0A60
:1009F00066E00B9A9268009212F83020002A5DD0CF
:100A0000491C0023009A3AF913E002EBC00202EB02
:100A1000430CBCF902C0E645B8BF2AF813C039F947
:100A200013B0DC45B8BF29F813C000EE10CA05EBBF
:100A3000830CB8EEC00ADCED010A4FF00C0C0CFB85
:100A400003FCAC440CEB830C30EE600ADCED040AD2
:100A500020EE200AD8ED000A5B1C40EE000A032BB2
:100A6000C8ED000ACEDB042828DB4FF0000E00237F
:100A700002EB430BABF11E0C00EE10EABBF902E0F7
:100A8000BCF900B0AEEB0B0EBCF918B0BCF908C055
:100A90000BEB4E0EAEEB0C0C00EE90CAF8EEE00A3B
:100AA000B8EE400A00F002FC5B1CBCEEC00A032B4F
:100AB00010EE10EADCDBB64528BF7646401C40B29B
:100AC0000B9A9288904294DB48B2002862D00023AF
:100AD0003AF91300B0F5804F42DA39F9130010F5F6
:100AE000804F3DDB5B1C032BF2DB49B200F0F1FCD5
:100AF000D8ED000A80EE800A02F068F80C98D0ED7C
:100B0000020A20EE200A88ED000ABDF90C00BDF9AA
:100B10000410B9F90220B9F90430401ABAF90210E8
:100B2000891ABAF90420D21A0B468142B8BF03468B
:100B30009A42A8BF134600F0BEFBB4EE609AF1EEF5
:100B400010FA0DD40C9BD3ED021A01EE106AB8EE28
:100B5000411A21EE211ADFED6F1A01F0F8F801DBDE
:100B60000220CFE0F4EE680AF1EE10FA13D501206E
:100B70003870207800EB40001E2808DB38EE400A71
:100B8000B0EEC00AF3EE0E0A00F0D7FD02D42878CA
:100B900000282ED1B7E0B1EE000A28EE800A00F05E
:100BA000CCFD18D5B0EE000A00EE900A28EE800ABF
:100BB00000F0C1FD41BF00EE901AF8EEE00AB4EE7D
:100BC000600AF1EE10FA06D500EE902A00F0B3FDAF
:100BD00044BF01237B70B7F906309A42BCBF0122A3
:100BE000BA709942BCBF0121F9709842BCBF012084
:100BF00038712878010018BF0128CBD0207800EB8D
:100C000040001E2809DB98ED000A78EE400AF0EE5D
:100C1000E00A9FED411A00F091F874DBDFED3F0A26
:100C200068EE200A6378257800200021FDEEE00AB6
:100C300010EE902A9D4212B208D194F903506D1C17
:100C400095FBF3F603FB1653DBB200E0002394F8A8
:100C500001C000250BE0EE1896FBFCFE0CFB1E66A7
:100C6000F6B204EB46066D1C368980196DB2267803
:100C7000B542F0DBB0FBF6F000EE900AF8EE600A49
:100C80009FED271A94F9033060EE810AFCEEE00A2A
:100C9000DBB2002066781D1A95FBF6FC06FB1C559E
:100CA0006DB2002D44BF75196DB204EB45052D8959
:100CB000AE1A4CBF551BAD1A40F6B936ADB2B542AF
:100CC00028BF491C401C0A28E4DBF8EE600A30EE1D
:100CD000C81AB0EEC11ADFED131A01F038F80DD5BD
:100CE00030EEC00AB0EEC00ADFED0F0A00F025FDBD
:100CF00004DB01207871002038707870C9B20429B3
:100D000001DB0020787106B0BDEC048BBDE8F78FE5
:100D10000000024301007A440100F0410000C84293
:100D20000AD7233C0000704201007042008000801E
:100D300000800000FF7FFF7FFF7F0000F4EE410A8C
:100D4000F1EE10FA704730EE600AB0EEC00AF1EE34
:100D5000000AB4EE600AF1EE10FA44BFB4EE601A75
:100D6000F1EE10FA01D503207047F2EE000AB4EE5E
:100D7000600AF1EE10FA42BFB2EE000AB4EE401A79
:100D8000F1EE10FA4CBF02200120704790FBF1F207
:100D900001FB120000B2002848BF081800B280B55D
:100DA00000F008F880EE800A01F0F1FE00F0D4FFB8
:100DB000C0B202BD00EE900AF8EEE00A704710B52E
:100DC00000230124202A05DBA2F1200104FA01F10D
:100DD000084002E004FA02F0084000B1012318467E
:100DE00010BD10B50BB14FF0FF330124202A08DBF2
:100DF0000168203A4B4004FA02F21A405140016067
:100E000010BD0868434004FA02F21A4050400860DE
:100E100010BD70B5154604461E460A46012304F16E
:100E20000C0104F10800FFF7DCFF01232A4604F15E
:100E3000140104F11000FFF7D4FF324604F1180149
:100E400004F11C00BDE870400123CAE72DE9F0471A
:100E5000044600200D462DED028BA060E06020616D
:100E60006061E061A06100F036F80646207810B9B4
:100E70004FF0FF30A070002721E0617856FA87F02C
:100E800090FBF1F201FB1200C0B204EBC008B0EE1F
:100E9000480AB8F922002946FFF778FF8146B8F9D9
:100EA000240000F014F88246B8F9260000F00FF88C
:100EB0000346524649462046FFF7ABFF7F1C217888
:100EC000F8B28842D9D3BDEC028BBDE8F087B0EE12
:100ED000480A29465AE794F9022061782078B0EE52
:100EE000408AFFF771B900002DE9F44F2DED048B16
:100EF00082B0B7EE000AD2ED020A069AC0EE209A3E
:100F0000B0EE080A29EE808A28EE080ADFEDD60A3C
:100F100060EE208AB7EE080A28EE009A9FEDD30A09
:100F200028EE000A044600F017FF0D46ADF8000059
:100F30000027A9882868B2F90420491E02FB010095
:100F4000616801F51C5110318142984631D2DFF8B9
:100F5000D01D94F9022001EB000A61782078FFF798
:100F600033F92178B94600261AE06378321892FBEB
:100F7000F3FC03FB1C22D2B204EBC2026368B2F89A
:100F800020C06344A3EB0A0313841BB2002B06D5D5
:100F9000227813004FF001091CBF521E2270761CEC
:100FA0008E42E2DBB9F1000F01D000F089F9C4F8FC
:100FB00004A02078C0B194F90210606804EBC1016C
:100FC000B1F92010401800F59850296888308842FF
:100FD0000AD227704FF0FF30A070B0EE480ABDF87B
:100FE00000102046FFF732FFB8F1000F05D120783E
:100FF0000B28B8BF0020C0F23581B6EE000A0026EB
:1010000069EE809A33E0207094F90200617800F074
:1010100065FAA070069A2968928894F9020002FB8A
:101020000611626804EBC000891A00F032F9828868
:1010300004EBC1018A8400F023F94188A4F8181355
:101040002244818851804FF44671C08821448880B1
:1010500020786178884201D100F032F953464A463F
:1010600041462046FFF7D5FE0127761C36B2A888F8
:10107000864280F2F680A86800EBC600017800295D
:10108000F3D0B0F9021000F036F909D5B0F9041028
:1010900000F031F904D5B0F9061000F02CF9E4D4D1
:1010A0002178002939D101202070B0EE480A0020B3
:1010B000A07006992868B1F9041011FB0600606061
:1010C000002194F9020004EBC00000F0E2F804EB08
:1010D000C101498CA4F8181394F90210828804EB1A
:1010E000C1018A844FF4467200F0C4F8898C5180A3
:1010F00000F0C6F800F0BEF8C98C9180B0F902008B
:10110000BDF80010FFF742FE074600F0EAF800F0D5
:10111000DDF803464A463946A3E74FF446712144B9
:10112000B0F90620B1F90410B0F90430B0F90200AA
:10113000891A4FF446722244B2F90220D21AB4F945
:1011400018331B1A524303FB032201FB012100F059
:10115000C0F900F0E7F888D4BDF80010B0EE480AF6
:10116000FFF714FE804600F0BCF800F0AFF88246AE
:10117000E168A0684246FFF722FEB0F1010B616909
:1011800020696BEB0B0B4A46FFF719FE401E8041AE
:10119000C00F8DF803005246A169E069FFF70FFE0A
:1011A0009DF803109DF80320401E804141EADB7149
:1011B00041EAD0718DF8021002EADB729DF802104C
:1011C00002EAD07080F0010211423ED000F09EF899
:1011D000AA68002102EBC60232E094F801C050FA7E
:1011E00081F393FBFCFE0CFB1E33DBB204EBC30369
:1011F000B2F902C0B3F922E0ACEB0E0CB3F924E073
:10120000B3F9263000EE10CAB2F904C0ACEB0E0CF4
:1012100000EE90CAB8EEC00AF8EEE00AB2F906C0D5
:10122000B0EEC00A00F042F8ACEB030300F043F864
:1012300000F03CF8B4EE490AF1EE10FA8BD4491CE8
:1012400094F800C0CBB26345C7D39DF802000028D4
:101250003FF40BAF217860784A1C824200DA481CC8
:10126000D1E6384602B0DFE16666663F00007C42A8
:10127000000080BF94F9021004EBC10122447047C2
:1012800094F90210C28804EBC101CA844FF446727B
:1012900070470184A86894F9021000EBC60004EBC3
:1012A000C10142884A8494F902107047F0EEE00AC6
:1012B00030EE200A704700EE903AF8EEE00A7047F0
:1012C000BDF80010B0EE480A2046BFE58146A86888
:1012D000BDF8001000EBC600B0EE480AB0F90600F9
:1012E00054E5A868BDF8001000EBC600B0EE480A4F
:1012F000B0F904004AE500EE101AB8EEC00AB0EEEC
:10130000C00AB4EE690AF1EE10FA704794F90220AF
:1013100061782078FEF758BF00EE102AB8EEC00AB8
:10132000B0EEC00AB4EE680AF1EE10FA70472DE98B
:10133000FB4F2DED028B82B0B7EE000AD2ED020A10
:10134000019380EE200AF0EE080A4FF0000960EEEB
:10135000200AC84620EEA08AC346F6EE000A0446DC
:101360000027DA4660EE208A13E020714FF0010971
:1013700094F90600617900F0B1F8A07194F90600C3
:1013800004EB8000458100F09EF80AF101000FFA9D
:1013900080FA05988088824580F28580059880686B
:1013A00000EBCA000278002AEFD0B0F90220FFF764
:1013B000B3FF09D5B0F90420FFF7AEFF04D5B0F9AB
:1013C0000620FFF7A9FFE0D49DF8182032B9B0F944
:1013D0000250B0F90460B0F9061010E0019A012A39
:1013E00006D1B0F90250B0F90660B0F9041006E079
:1013F000022A04D1B0F90450B0F90660815E207968
:101400007F1C02000BFA81FB0BD1012020714FF0F1
:1014100001080020A0716581C14600F054F82181C7
:10142000B3E794F9062004EB8201B1F90C30B1F96D
:101430000A109B1B491B5B4301FB013100F049F87B
:10144000B4EE480AF1EE10FA9FD46179FEF7BCFEC3
:1014500000211BE000FA81F393FBF2FC02FB1C323B
:10146000D2B204EB8202B2F90C30B2F90A209B1B13
:10147000521B5B4302FB023200EE102AB8EEC00A98
:10148000B4EE480AF1EE10FADED4491C62798DF808
:1014900000200FFA81FC23799C45DBDB581C90422D
:1014A000A8BF104661E73FB2012FA8BF9BFBF7FB27
:1014B000484610EA080F18BFA4F808B002B0BDEC07
:1014C000028BBDE8FE8F94F9060004EB8000868154
:1014D000704700EE101AB8EEC00A7047401C90FB2F
:1014E000F1F201FB120070472DE9F84F99460026F2
:1014F0002DED048B04460E9F3E600D469046F0EEA7
:10150000408AC9F80060B7EE000A94F902206178B9
:101510002078B0EE608A80EE289AFEF755FE28EE1D
:10152000098AB3EE0E0A824629EE009AB3464AE0D3
:1015300061786B88D8ED000A5AFA8BF000F07EF8DB
:101540002A88418C891A828CC08CD21AAB8812B23C
:1015500009B2C01A00EE101A00B2B8EEC00A20EEAE
:10156000200AD8ED040A01F01EF920EE200ABDEE93
:10157000C00AD8ED080A00F094FD01F02CF900F043
:1015800065F800F090FDD9ED000A70EE200A30EE0B
:10159000480AB0EEC00A00F059F80146FFF799FF7B
:1015A000B4EE409AF1EE10FA48BF761C4043C9ED04
:1015B000000A00F078FDD7ED000A30EE200A87ED32
:1015C000000A0BF1010B20785FFA8BF18142AFD357
:1015D00000EE100A97ED008A00F02AF820EE280AA3
:1015E000DFED060A00F0A9F80ADB207800EE100A09
:1015F00000F01EF820EE280A08E000BF9B99593F32
:101600009FED010A02E000BF9A99593F87ED000A59
:10161000207899ED000A00EE900A20EE280A00F0EA
:1016200085F889ED000AF0B2BDEC048BBDE8F28FBD
:10163000B8EE400A88EE000A01F0C8BA90FBF1F259
:1016400001FB1200C0B204EBC0007047BDEEC00A3F
:1016500010EE100A00B270472DE9F843044699468F
:10166000164600200D462DED048BC9F800003060B1
:1016700000F0FCFCFFF733FC4FFA80F8002722E073
:10168000617958FA87F001F057FA2A8841898089F0
:10169000891A6A88801A00B209B2404311FB01001E
:1016A00000EE100AF8EEC08AB0EE680A01F08EFA79
:1016B00039EE000A86ED000A7F1C99ED000A30EE33
:1016C000280A89ED000AF9B2207996ED009A814244
:1016D000D6D300EE900A29EE090A00F027F8D9EDDA
:1016E000000A70EEC08AC9ED008A00F02BF820EEE7
:1016F000080ADFEDAB0A00F020F804DB00F022F866
:1017000020EE080A01E09FEDA70A89ED000A207982
:1017100096ED000A00EE900A20EE080A00F006F8A6
:1017200086ED000ABDEC048BBDE8F183F8EE600A9B
:1017300080EE200A7047F8EEE00AB4EE600AF1EE9F
:1017400010FA7047207900EE100AB8EE400A88EED1
:10175000800A01F03BBA2DE9F04704462DED028BDB
:10176000FFF7B9FB00250026002740B2012126E043
:101770001B8C128C9A1A12B2012A1EDB0FFA8EFEF3
:101780000EFA8CF303FA88F34FF47A7C0CFB03F324
:1017900000EE103AB8EEC00A00EE902A20EE080AD9
:1017A000F8EEE00A80EE200ABDEEC00A10EE102A24
:1017B0006D1C12B2972AA8BF761C491CC9B22278A8
:1017C000914237DA0B1894F801C05A1E92FBFCFEC6
:1017D0000CFB1E2252B293FBFCFE0CFB1E33002AB4
:1017E0005BB244BF624452B204EBC20204EBC303D7
:1017F000B2F922C0B3F922E0BEEB0C084CBFACEB4F
:101800000E0CAEEB0C0CB2F924E0B3F92480B8EB6B
:101810000E094CBFAEEB080EA8EB0E0EB2F92690E7
:10182000B3F92680B8EB090A4CBFA9EB0808A8EB6E
:1018300009089DE7F6B2EDB206EB46008542B8BF57
:101840000127BDEC028B3846BDE8F0872DE9F84F43
:101850002DED068B804608EE101AF0EE408A914678
:1018600096B0B7EE000A1421484680EE289A4FF051
:10187000000A01F089F9F0EE499A002400250026BB
:10188000D34608F1B407F968B8685A46FFF797FAE3
:1018900079695A4604193869FFF791FAB9695A46C5
:1018A0000BF1010B4519F869FFF789FA8619BBF1AD
:1018B000400FE4B2EDB2F6B2E5DB062CA4BF062D74
:1018C000062EC0F2C18197F9022079783878FEF7A8
:1018D0007BFC08EBC00101F1D6021188ADF81410B1
:1018E00005A9B2F902304B80B2F904408C80BDF8F2
:1018F0001420ADF8082002AA53809480002334E01D
:101900007D7803EB000C9CFBF5F405FB14CC5FFA2F
:101910008CF408EBC40505F1D604BDF91450B4F9F4
:1019200000E07545B8BFADF814E0B4F90250B1F964
:101930000260AE42B8BF4D80B4F90440B1F9046012
:10194000A642B8BF8C80BDF90860B645B8BFADF8F7
:1019500008E0B2F90260B542B8BF5580B2F9045050
:10196000AC42B8BF94805B1CDBB23C78A342C7DBBF
:101970009FEDB60A29EE800A002631F8160032F8EB
:101980001630C01A21F81600761C032EF5DB08F17C
:101990006804207840B9237E581E8041C00F04E0BF
:1019A0009B99D93E9A99D93E0020F0EE080ABDF9DC
:1019B000143020EE201A00EE903AF8EEE01A00F013
:1019C000C6F908F1040513D4B1F9023000EE903ADB
:1019D000B8EEE02AB4EE421AF1EE10FA08D4B1F9EA
:1019E0000430FFF768FCB4EE601AF1EE10FA15D57A
:1019F00097F902207868A96808EBC202B2F9D420EE
:101A00008218914209D2A8604FF47A7269685143F2
:101A10006431814228BF0846A86015E1002331F8EF
:101A2000136022F813605B1C032BF8DB002331F9F1
:101A300013E0BDF90860B645A8BF7646ADF808606A
:101A4000B2F904607645B8BFB6465B1C032BA2F81A
:101A500004E0ECDB93885380002631F91630BDF9A1
:101A600008B0B2F904C05B45BCBF9C455380761CEE
:101A7000032EF2DB0028B7EE021A44D0F4EE401A2F
:101A8000F1EE10FA5FBFB4EE402AF1EE10FAF4EE78
:101A9000400AF1EE10FA01D54FF0010A5846DFED89
:101AA000A12A03EE100A60EE222A00F049F918DBA1
:101AB000B2F9020003EE100A60EE012A00F040F9CC
:101AC0000FDBBBEB4C0F0CDA02EE90CAF8EEE22A09
:101AD000B7EE043A62EE832AB4EE620AF1EE10FA2F
:101AE00045D461EE811AF4EE401AF1EE10FA5EBFB1
:101AF00062EE011AF4EE401AF1EE10FA02D400F090
:101B000041FE34D5A0E0D4ED0A2A94ED0E3A72EEEF
:101B1000832A94ED123A72EE832AB0EE083AC2EEAE
:101B2000832AF4EE412AF1EE10FA58BFF0EE412A72
:101B300008D59FED7D1AF4EE412AF1EE10FAB8BFF8
:101B4000F7EE002A21EEA21AB4EE401AF1EE10FAD6
:101B50005EBF22EE221AB4EE401AF1EE10FA5EBF1A
:101B600060EEA20AF4EE400AF1EE10FA6CD4B0EE88
:101B7000680A3846FFF7EFFD002865D09DF8700031
:101B800000289FED6AAA0DF1240B40D1207E032886
:101B900018BF02283BD1002608EB860090ED210AF1
:101BA00000F0F5FF00F0D8F82BF81600761C032E95
:101BB000F2DB00F0DDF808F1900209A900F0DFFD8A
:101BC0009DED040ADFED5A0AFFF7B7FD1BD5D0B92A
:101BD000207848B1607A00EE100AB8EE400AB4EE00
:101BE000490AF1EE10FA0ED503202076B8EE480A25
:101BF000DFED500A20EE200A00F0C9FFBCEEC00A5B
:101C000085ED000A20E0062109A800F0BDFFBDF91E
:101C1000080001900BAB07A8009009AA0CA9F0EEF0
:101C2000680AB0EE4A0A3846FEF7ACFCB8EE480A3D
:101C3000DFED400A064620EE200A00F0A8FFBCEEC9
:101C4000C00A85ED000A1EB9002064E0000034429D
:101C500000F08EF80CAA09A900F091FD1E2100EEFB
:101C6000100A38784843FFF7A5F89FED331AB8EE0D
:101C7000400A00F087FD4FF0010808D49DED040AEA
:101C8000DFED2E0AFFF759FD03DB207808B14FF096
:101C900000082868C9F8000000269DED040ADDED63
:101CA0000B0A20EE290A80EE200A00F070FF00F0F7
:101CB00058F89DED070A20EE290A00F068FF00F0B1
:101CC0004BF889F8050009EB46003BF81610C18077
:101CD0000C220CA97243114401EB8601DFEDDB0AF3
:101CE00091ED000A20EE200ABDEEC00A761C10EE2F
:101CF000101A032E8181E6DBBAF1000F0AD0B1EE93
:101D00000E0A29EE800A00F042FF00F02AF8FF20B8
:101D100089F80400404616B0BDEC068BBDE8F28F92
:101D2000D8DCFFFFCDCCAC3F0100803F00003C423F
:101D3000CDCCF43F6F12833A0AD7233C01002041F7
:101D4000B8EEC33AB4EE623AF1EE10FA7047B4EE70
:101D5000611AF1EE10FA7047BDEEC00A10EE100ADB
:101D60007047BDEEC00A10EE100A89F804007047F3
:101D700004A8009008ABF0EE4A0AB0EE680A70477B
:101D80002DE9F84F2DED048B04460D4688B09246A0
:101D90001F461421284600F0F7FEB0EE408AB7EE49
:101DA000000A00F063F9C0EE088AFEF70DFA04EBB2
:101DB00080020023B2F90A10B2F90C20ADF8061027
:101DC000ADF804204FF0000E984627E094F80590F7
:101DD000BDF906B008EB000C9CFBF9F609FB16CC2C
:101DE0005FFA8CF604EB860CBCF90A90BCF90C6027
:101DF0004945B8BF4946B242B8BF3246D945B8BFD7
:101E0000ADF80690BDF904B05E45B8BFADF804600A
:101E10009B1908F10106CE445FFA86F894F804C0D5
:101E2000E045D3DB0FFA8EF090FBFCF6BDF8060020
:101E3000081ABDF804101BB293FBFCFB511A0AB23E
:101E400003B29A42B9BF02460B4603460A469FEDCB
:101E5000800A00B228EE800AF0EE080A01EE100AAD
:101E600060EE200AB8EEC11AFEF768FF09D409B285
:101E700001EE901AF8EEE11AF4EE610AF1EE10FAB2
:101E800002D50020207149E012B200EE902AB8EE8F
:101E9000E09A1BB2F6EE080A02EE103A69EE200A4A
:101EA000B8EEC22AB4EE602AF1EE10FA5FBFB4EECB
:101EB000401AF1EE10FAF4EE401AF1EE10FA2DD4B9
:101EC000401A00F0F0F8F1EE040AB0EEC00A68EE35
:101ED000A00A00F059FC21D4FFB2380006D19AEDD7
:101EE000010A00F0D7F89AED020A0CE0012F08BFB2
:101EF0009AED010A03D0022F07D19AED020A00F0F1
:101F0000C9F89AED030A00F0BEF800F0B4F89DEDB0
:101F1000020ADFED500AFFF710FC01D5002092E025
:101F2000F6EE008A29EE080A60EE289AB3EE040A5B
:101F3000F4EE409AF1EE10FA9FED479A04D4F4EED5
:101F4000499AF1EE10FA01DBF3EE0E9A36B200EE8A
:101F5000106AB8EEC00A20EE080A8DED040A0FFAE6
:101F60008BFB00EE10BA04AEB8EEC00A20EE080AF1
:101F700086ED010AC6ED029AB0EE480AB068F0603C
:101F800004A9204600F098FC8346BBF1010F56D10E
:101F90009DED040A80EE080AFFF7DEFE96ED010AC9
:101FA000ADF8000080EE080A00F06DF800F063F86C
:101FB0009DED020ADFED290AFFF7BFFBBEBF96EDDC
:101FC000020AB4EE490AF1EE10FA14DAF3EE020A4C
:101FD000FFF7B3FB5EBF69EEA80AB4EE600AF1EE4C
:101FE00010FA5FBFF0EE000A69EEA00AF4EE400AB4
:101FF000F1EE10FA01D54FF0000B47B900F030F8C0
:1020000028819AED030AFFF7A7FE688117E0012FE8
:1020100008D100F025F868819AED020AFFF79CFECE
:1020200028810CE0022F0AD1BDF800002881BDF8FC
:10203000020068819AED010AFFF78EFEE8802079A0
:10204000401E2071584608B0FFF7EEBA00007A44EF
:10205000000020429A99593F01005C420100004073
:10206000BDF80000E880BDF80200704794F9062032
:1020700061792079704702AB03AAB0EE480A69463D
:102080002046FFF7E9BABDEEC00A10EE100AADF81F
:1020900002007047BDEEC00A10EE100AADF8000055
:1020A000704710EE102A00EE100AB8EEC00A704712
:1020B0002DE9F84F2DED048BADF5986D044618A869
:1020C0000E908A468C20ADF834008C220CA9504624
:1020D00000F0D5FFBDF83400BAF90420411E514389
:1020E0000C9A04F154068A180028F26000F0288344
:1020F0000C98081803904FF47A72DFF8301A081819
:102100004FF475716518A168514304F1B407884212
:1021100024BF796888420AD20020387000F01FFB83
:10212000A06800B10120A06060600020E0604FF076
:10213000FF38387838B9B860F86038617861F8618C
:10214000B86187F8028095ED000ADAED020A80EEA8
:10215000200A00F01CFDFFF7FFFDADF82E0004F192
:1021600080090AA801909FED8B8A02A80090B0EE2A
:10217000480A4B46524604F110010CA8FEF700FC39
:10218000DFED858A9DED020A20EE280ADFED830A45
:10219000FFF7D3FA4CBF8DED020ACDED020A0622FD
:1021A000314604F1560000F0C1FF9DED020A00F037
:1021B000EEFCFFF7D1FD3080A07C401CA074C0B2C3
:1021C0000428A8BF0420A0749DF82D00022816D072
:1021D00094F91300002848BF002002D4617CFFF767
:1021E0007DF9E074217C607C4A1C8242B8BF481CA7
:1021F000207494F91300318804EB400001839DF8AA
:102200002D00C8B10398E06087F802800020387084
:102210006069401C6061002000F0A1FA60690F282D
:1022200009D3002089F80000207484F813803075E9
:102230006069401E606183E2E06820B1039900F5A7
:1022400096608142F7D3002060619DF82800012844
:10225000F1D00025B6EE009A4FF4C470684304EB49
:10226000000B99F80000022837DB0AA84019807893
:10227000012832D14FF47570EBB252460CA9584484
:10228000FFF755F801282BD19BF8D8031B2827DB33
:102290004FF47570EBB24A4605A99AED020A58440C
:1022A000FFF76EFD01281BD1BDF91A0099ED010A57
:1022B00000F06FFA89ED010ABDF91C0099ED020AE0
:1022C00000F067FA89ED020ABDF91E0099ED030AD4
:1022D00000F05FFA89ED030A02E000208BF8D803D2
:1022E0006D1C032DB8DB99F8000003289FED2C9A94
:1022F00022D1D4ED030A94ED010AF8EE600AB8EE9B
:10230000400A60EE890A00F03FFA15D5A06898B13E
:102310009DED030A0A30B8EE400A00EE900A20EE66
:10232000090AF8EE600A00F02FFA42BFB4EE600A24
:10233000F1EE10FA012000D40020317DA1B3002875
:102340001CBF307FFF2824D19DF8293052460CA9AC
:102350003846FEF7C9FD21780843207019D0387837
:102360001A2816DBA1689DF8290000291CBF6268A5
:10237000002A1CD09DED030AB8EE400A00EE902A18
:1023800000F0E6F9DFED070AFFF7D7F90FD50200F5
:102390000DD1D5E100003C420000C84200FF7F475C
:1023A0006F12833A0100C03F0028CDD0C8E1012858
:1023B0000ED19DED030AB8EE400A00EE901A00F02F
:1023C000C7F9F7EE080AFFF7B8F948BF012300D4B0
:1023D000002303999AED020A05AA2046FFF736FA70
:1023E000002100282170E1D0307D00289FEDD79A90
:1023F00000F0F98024210FA800F0C6FB00250C2175
:102400000FA86943084400EB850B05A800EB4500C5
:102410004FF47A71808900F0D7F96D1C20EE090A1B
:10242000032D8BED000AEADB01A8009002ABF0EE71
:10243000480A9AED020A04F1900204F1720100F0D8
:102440009EF900F0B9F90FAA00F097F900F08DF9A4
:102450009DED010AF7EE080A20EE200ADDED040AE0
:1024600000F092F9A2D599F8001088429ED39DED14
:10247000040AF0EE080A20EE200ADDED010A00F061
:1024800083F90CD49DED010AF1EE000AFFF755F92E
:1024900049D5307F9DF81810884280F0A480B6F9A5
:1024A0002000BDF91C10BDF91C30BDF91AC0421A3C
:1024B000009204F15402B2F92020D21A48BF5242CD
:1024C000B6F91E30B3EB0C0548BF6D42AA42A3EB30
:1024D0000C0E07DABEF1000F54BFA3EB0C00ACEBFF
:1024E000030004E0009A002A4CBF081A401AB6F90B
:1024F0002210BDF91E208B1AB1EB020C48BFCCF1A3
:10250000000C00B2844503DB002B4CBF501A881A24
:1025100000B2FFF7C8FDDAED020A20EE200AF1EE64
:10252000040AFFF70AF95ED59DED010ADDED040A04
:1025300030EE200ADDED010A80EE800A8DED010A01
:10254000002505A800EB4500B7EE000ADDED010A05
:10255000B0F9062004EB450130EE600A00EE902A47
:10256000F8EEE00A9DED011AB1F9722060EE810AE1
:1025700001EE102AB8EEC11A40EE010AFDEEE00AA3
:1025800010EE902AC2806D1C82899DED011AB1F86F
:10259000781000EE902AF8EE600A60EE810A01EEF3
:1025A000101AB8EE411A40EE010AFDEEE00A10EEF4
:1025B000901A032D8181C4DB9DF818009DED011A4E
:1025C00000EE900AF8EE600A307F60EE810A01EEBC
:1025D000100AB8EE411A40EE010ABDEEE00A10EE14
:1025E000100A8DF8180001203075142205A904F195
:1025F0006C0000F0E7FD012089F80100002605A825
:1026000000EB4600B0F9061000EE101A04EB86014C
:10261000B8EEC00A81ED210A0C217143214401EB7F
:10262000860580894FF47A7100F0CEF8761C20EE92
:10263000090A032E85ED240AE1DB0598A06084F8E1
:1026400013800020207480464FF6FF7608E094F94E
:10265000131004EB4101088308F101000FFA80F820
:102660003978607C884542DA94F91310491C91FB53
:10267000F0F200FB1210E074D9ED010A787898FBB3
:10268000F0F100FB1180C0B204EBC00030F9D61F9E
:10269000B0F90220B0F90400FEF71BFF30EE600A2B
:1026A000D9ED040A20EE200AD9ED020A00F07BF8E9
:1026B00030EE600AD9ED080A20EE200AD9ED030AAF
:1026C000BDEEC00AFFF7EDFC30EE600AD9ED0C0A52
:1026D00000F081F8DAED020A20EE200A20EE280A46
:1026E000FFF73AFB80B2B04208BF3046AFE7814205
:1026F00088BF0146217400F05FF804F1900200F0F9
:102700003CF800F032F889F800009DF81800C9285C
:10271000A4BF022089F800009DED020A20EE280ADD
:102720008DED020A00259DED020ABDEEC00A04EB04
:1027300045016D1C10EE100A042DA1F85400F2DBC7
:102740000DF5986DBDEC048BBDE8F18FBD37863576
:1027500020EE090AF8EE600A30EE600A7047287130
:1027600084F8600584F8E80670479DED041A9DED35
:10277000020AF0EE480AFEF7E6BA0DF11A013846F1
:10278000FEF7B2BE60EE810AF4EE400AF1EE10FAF6
:10279000704700EE900A20EE090AF8EEE00A00EE1B
:1027A000890A00F0F4B9BDEEC00A10EE101A00EE6E
:1027B000102AB8EEC00A704704A8009002ABF0EEF1
:1027C000480A9AED020A7047484300EE100AB8EE34
:1027D000C00A00F0DCB920EE200A12B2BDEEC00A39
:1027E00009B210EE100A524300B211FB012110FB96
:1027F000001000EE100AB8EEC00A00F0E7B90B4670
:1028000000F180013422184600F0DCBCF8B5044623
:1028100004F168060027307E002500289FEDBA0AE3
:1028200048D0A07C042845DB002004EB4001C04BCD
:10283000B1F85410C829B8BF7F1C5A184EBF514276
:1028400041F25C22891A89B201FB01F200EE902A62
:10285000F8EEE00A032830EE800A04DA2B460D4633
:102860009D4238BF1D46401C0428DEDBF1EE000A05
:1028700080EE200A00F0AAF9ADB243F69920854215
:10288000BCBFFFB2022FBEBFDFEDA00AB4EE600AEC
:10289000F1EE10FA0EDB00203076002104F1B400D6
:1028A00001704FF0FF3181700020307084F8D80340
:1028B000FFF756FFF1BD0000F8B52DED028B84B097
:1028C00004460D46B0EE408A00266F466A46B0EEDA
:1028D000480A2946204600F063F80028DFED8A8A7E
:1028E0004ED0002005EB800191ED000A07EB80013E
:1028F000D1ED000A05EB8001401C30EE200A0328D0
:1029000081ED000AEEDB002007EB800191ED000A6B
:10291000F0EEC00AF4EE680AF1EE10FA58BFF0EEDD
:10292000C08A401C0228EFDBB868DFED790A20F08E
:102930000040F4EE608A00EE100AF1EE10FA42BF99
:10294000DFED740AB4EE600AF1EE10FA01D5022E42
:1029500003DA761CF6B2052EB8DBDFED6F0AF4EE73
:10296000608AF1EE10FABEBFDFED6C0AB4EE600AC9
:10297000F1EE10FA04DA95ED020A00F009F801D53B
:10298000002000E0012004B0BDEC028BF2BD00008D
:10299000DFED630AB4EE600AF1EE10FA7047000052
:1029A0002DE9F0472DED048BA8B004468846164665
:1029B00003A8102100F0E8F8002000F0CCF817A8D8
:1029C00000F0E2F8402107A800F0DEF8B0EE408AFF
:1029D00098ED020ADFED530A103EFEF7AEFE78D402
:1029E000FFF744FBFDF7F0FB07460025E9460DF134
:1029F0000C0A09E009EB800300F0BAF80328F9DBC0
:102A0000491C032936DB6D1C2179E8B2884246D285
:102A10006179D8ED000A57FA85F000F08DF8B0F929
:102A20000A10B0F90C0000F08FF870EE608A00F028
:102A300098F8D8ED010A30EE609A28EEA80A09EE5F
:102A4000090A00F0C3F8F0EE400A9FED370AFFF7DD
:102A50009BFED8D4B7EE000A80EE200A28EEC01AFA
:102A600029EE400A33488DED001A89ED010AC9F8B4
:102A70000800002109EB810098ED021A90ED000A90
:102A80000AEB810031EE601AD0ED001A41EE001A17
:102A9000C0ED001A17AA084602EB0112AEE70021AA
:102AA0004A1C10460AE017AF07EB011717AB03EB00
:102AB0008103040157F820701F51401C0328F2DBEA
:102AC00011460329ECDB032207A917A800F066F9D9
:102AD00008B9002013E0032303AA314607A800F039
:102AE000C8F998ED020AFEEE000A20EE200AD6EDA3
:102AF000020AFFF749FE48BF86ED020A012028B00E
:102B0000BDEC048BBDE8F0870000000001606A4660
:102B10009A99993E6666663F01002040CECC0C40F3
:102B2000CECCCC3DCDCCCC3D17B7D138E093040012
:102B3000A4EDFFFF000080BF90FBF1F201FB12004B
:102B4000C0B204EB8000704700EE101AB8EEC00A65
:102B500020EE080A70470021002200230FC6402102
:102B6000704700EE100AB8EEC00A20EE080A70475F
:102B700093ED001A02EB8003401CD3ED001A40EEE7
:102B8000011AC3ED001A7047002200F057BB00B5D0
:102B90002DED010A012100A800F069FB401E01286B
:102BA00011D9002100A800F062FB60B100989DEDF2
:102BB000000A00284CBFFFEE000AF7EE000A30EED4
:102BC000200A8DED000A9DED000A01BDB5EEC00A98
:102BD000F1EE10FA02D4B1EEC00A70476FF0004C6B
:102BE00000EE10CA00F070BB70B52DED048B0546E9
:102BF0008AB095ED011AD5ED020A95ED040A21EE91
:102C0000011A00EEA01A00EE001AB5EE401AF1EE1D
:102C100010FA0C4606D128682060E8686060686990
:102C2000A060B6E0D5ED030AD5ED001A95ED050AD2
:102C300031EEA02A32EE002AF0EE082A82EE228A35
:102C400071EEC81A70EEC80A61EEA11A30EE480A99
:102C500040EEA01AF0EE008A40EE001A41EE281A6B
:102C6000B1EE080A81EE800AFFF7B0FFB0EE409A9D
:102C700000200C2200214243814205DB431C00EB73
:102C8000400643438E1904E04B1C01EB41064B43C5
:102C9000861903EBD373A6EB6303DBB205EB830367
:102CA000884293ED000A0DEB020308BF30EE480A9C
:102CB00003EB8103491C80EE090A032983ED000A16
:102CC000DADB401C0328D4DB6846D0ED060A90ED21
:102CD000082AD0ED042A90ED030A90ED071AD0EDF2
:102CE000051ADDED003A22EE823A01EEC13A61EEBC
:102CF000A01A40EE421A20EE010A23EE233A90ED8C
:102D0000012A02EEE00A01EE823AD0ED020A00EE5C
:102D1000203AB6EE000A23EE000ADFED4E0A00F07C
:102D2000A3F848BFDFED4C9A0DD4F7EE000A00F08F
:102D30009BF8A8BFDFED499A05DA00F0CBFAF0EE78
:102D4000080AC0EE209A0120B0EE690A00F0F4FAF9
:102D500069EE288AF0EE480A48EE800A9FED400AA4
:102D6000C4ED000A012039EE800A00F0E5FA28EEF1
:102D7000800A30EE080A84ED020AF0EE080A68EED6
:102D8000200A94ED001A70EEC10A30EEC00A84EDFC
:102D9000010A0AB0BDEC048B70BD00002DE9F84FAC
:102DA00004468846934640214046FFF7EDFE002743
:102DB00000E037465F454ADA002504EB071908EBC7
:102DC000071A7E1C11E009EB850100EB8500D1EDAF
:102DD000000A30EEC00AD0ED000A80EE200A0AEBAD
:102DE00085006D1C80ED000A6DB2B542E1DA9FED01
:102DF0001B0A002108EB05100AE00AEB8102D2ED64
:102E0000000A00EB8102491C92ED001A00EE810AD3
:102E1000A942F2DBAF420BD109EB8700D0ED000AEB
:102E200000F022F811D530EEC00AFFF7CFFED6E74A
:102E300000EB85019FED0B1AD1ED000AF0EEE00AE0
:102E4000F4EE410AF1EE10FABDD5002000E00120B9
:102E5000BDE8F28FFEFF7FBF920A863F00000000B0
:102E6000920A0640BD378635B4EE600AF1EE10FADC
:102E70007047FFB500261C466D461FE00CEB870E21
:102E8000DEED000A05EB870E7F1C9EED001A05EBB8
:102E9000860E00EEC10A8EED000A05EB860EB742E3
:102EA0009EED000AEADB0CEB8607D7ED000A05EB86
:102EB000860780EE200A87ED000A761CA64207DA14
:102EC00052F8267045F8267000EB061C0027E4E750
:102ED0005A1E23E000EB820303EB0713D3ED000A35
:102EE00001EB87037F1C93ED001A01EB820300EED8
:102EF000C10A83ED000A01EB8203A74293ED000AA9
:102F0000E8DB00EB021303EB8203D3ED000A01EBD5
:102F1000820380EE200A83ED000A521E52B2002A7C
:102F200006D455F8223041F82230571C7FB2E2E730
:102F3000FFBD50F8041B61B150F8042BD30744BF08
:102F4000A9F101039A180023091F42F8043BFAD1A2
:102F5000EFE7704710B5044600F005F88C20E081DB
:102F60001B48606110BD002181810161704730B54F
:102F7000027842B38A89CC89A24226D0130007D0B6
:102F8000B1F904500B695B195B1C13F1010F00D1FF
:102F90000023104C4568E418AC4238BF43600489F4
:102FA0004068001983420ED30020150007D0B1F904
:102FB00004500969521E6A438D1A18BF881A181ADC
:102FC00000B2A04201DA002030BD012030BD000077
:102FD0003C540020E09304004B7803B97047F0B5EF
:102FE00043881C002FD00488A34228BF23460380B7
:102FF00000231CE0048001268468058804EBC505D5
:1030000005F8086D01EBC3065B1CB7886F80DBB267
:103010000788F58804EBC70727F8045C078835891B
:1030200004EBC70424F8025C7488141944604C78DB
:10303000A34208DA0488641C0480A6B24588AE4224
:1030400028BF2C46D6E7F0BDF8B50D4604462E68DD
:10305000002710E0A22010FB07F02844817901F03E
:103060000701032905D1811D324604F10C00FFF749
:10307000B3FF7F1CFFB228798742EBDBF1BD2DE95E
:10308000F04185890023AA4204D28A8083899B1A51
:10309000DBB200E08D8086890569B0F90470761E88
:1030A00007FB16550D60002717E045698C6815F879
:1030B000376004F83760002605EBC70808EB4608C0
:1030C00004EBC70E0EEB460EB8F80280AEF8028095
:1030D000761C032EF0DB7F1CFFB28D88AF42E4DB51
:1030E00081898A4234BF891A00218181002119E037
:1030F00045698C1815F8346005F83160002605EB39
:10310000C40C0CEB460C05EBC10707EB4607BCF8FB
:1031100002C0A7F802C0761C032EF0DB002605F8DB
:103120003460491C9942E3DBBDE8F08181423ABF3B
:103130005318984200F036B88018990707D0521EED
:1031400024BF13F8011D00F8011DF6D87047810750
:103150001CD1103A07D330B433E93210103A20E9C9
:103160003210F9D230BC1032121F24BF53F8041DA4
:1031700040F8041DF8D838BF121D521E24BF13F8A2
:10318000011D00F8011DF8D8704700BF083A07D3A9
:1031900033E90210083A40F804CD40F8041DF7D294
:1031A0000832EAE762B38B0708D0521E11F8013BE0
:1031B00000F8013B00F024808B07F6D1830740F034
:1031C000208000BF103A07D330B4B1E83810103A6D
:1031D000A0E83810F9D230BC530724BFB1E808107A
:1031E000A0E8081044BF51F8043B40F8043BD20764
:1031F00024BF31F8022B20F8022B44BF0B78037058
:103200007047083A07D3B1E80810083A40F8043B81
:1032100040F804CBF7D25307E4E78268521C82607F
:10322000426832B10268531C036011704168491E44
:103230004160704762F30F2262F31F4200B500BF86
:10324000130096469446103928BFA0E80C50FAD8CF
:103250005FEA417C28BF0CC048BF40F8042BC90777
:1032600028BF20F8022B48BF00F8012B00BD0268E0
:10327000C2F3C752FF2A06D10068400201D10120E3
:1032800070470220704703685B0016D0C2F19602B7
:10329000521A012A11DB182A04DB016801F00041EF
:1032A000016007E0012191400268491E11404A4037
:1032B000026011B14FF0FF30704700207047026884
:1032C000531C0360117070471FB500F0EBF821210B
:1032D00001601FBD10EE101A04204FF07E5C01EE5D
:1032E00090CA49004FEA510100EE101A88BF082029
:1032F000B1F17E5F13D871EEC00ADFF838C031EE4D
:10330000801A61EE200AF1EEE00A614586BF80F086
:10331000040080EE800A80EE200A00F0C9B849005F
:1033200011F1807F9CBF6FF0004100EE101A7FF614
:10333000CBAF7047F404353FDFED4A0A60EE200A58
:1033400010B5B0EEE01ADFED481AB4EE611AF1EEF6
:1033500010FA82B0044629D5F5EE400AF1EE10FAD3
:10336000ACBFB6EE001ABEEE001A70EE810AFDEE9A
:10337000E00A10EE900AA8B1FAEEC90A9FED3B1AD6
:1033800000EEC10A9FED3A1A00EEC10A9FED391A0C
:1033900000EEC10A9FED381A00EEC10A9FED371A00
:1033A00000EEC10A00F00300041921E08DED000ACF
:1033B0000098C0F3C750FF2808D088B90098400291
:1033C0000ED1002C4CD0B7EE000A13BD009840027D
:1033D00046D100F067F8212101609FED290A13BD55
:1033E0008DED000A00A800F0B5F804199DED000A63
:1033F000DFED240AB4EE600AF1EE10FA0BDBDFED2C
:10340000220AB4EE600AF1EE10FA04D5E00723D5E3
:10341000B7EE000A20E0E00760EE000A0ED59FED4F
:103420001B0A9FED1B1A00EE801ADFED1A1A41EEFF
:10343000201AB7EE000A01EEA00A0DE0DFED161A21
:103440009FED162A00EEA12ADFED151A20EE201AB4
:1034500042EE201A01EE210AA00748BFB1EE400A51
:1034600013BD000083F9223F0000004F0000C94651
:1034700000A0FD400020A23A000034330030C22EEC
:10348000FFFFFF7FFEFF7FB9000080399349B2BA8A
:1034900036A02A3DDFFFFFBE6E8C4CB94283083C4C
:1034A000A1AA2ABE014800F0CBB80000000000200D
:1034B0001AA210EE101ADFF860C0F2EC060A61459D
:1034C00009DB00EE803A70EE800A83EE200A40F0BD
:1034D000020010EE101A21F0004CDCF1665C0BD8F3
:1034E00060EE000A20EE203A03EE010A01EEA02A67
:1034F00042EE202A80EE220A400810F0020F18BF88
:10350000B1EE400A02EB8002D2ED000A30EE200A52
:1035100028BFB1EE400A7047A430893ED7B3DD3FE3
:103520006AD5033F2B94A93DB82A593F0000803F3C
:10353000000080BF00000000920A063FDB0FC93F79
:10354000920A863FDB0FC93F920A0640DB0F4940D3
:10355000368D274010B52DED028B044682B094EDD8
:10356000008A9FED2D0A28EE000AB5EE400AF1EE22
:1035700010FA8DED000AACBFF6EE000AFEEE000A6E
:1035800030EE200A8DED000A002100A8FFF76FFE43
:103590009DED000AB5EE400AF1EE10FA17D0DFED0E
:1035A0001F0A20EE200ADFED1E0A00EE608ADFED22
:1035B0001D0A00EE608ADFED1C0A00EE608ADFED76
:1035C0001B0A00EE608ADFED1A0A00EE608A84EDC5
:1035D000008ADFED180A9DED000AB4EE600AF1EEF4
:1035E00010FA06D4DFED140AB4EE600AF1EE10FA18
:1035F00005DBDFED120A00F031F88DED000A9DEDDC
:10360000000A02B0BDEEC00A10EE100ABDEC028B3B
:1036100000F0030010BD000083F9223F0000803855
:103620000000C94600A0FD400020A23A000034334B
:103630000030C22E000000CF0100004F0000004FFC
:1036400004490968002900D10349034A801A411836
:10365000080070476C7000200000002010EE100A77
:1036600010EE901AA4464FF0FF034FEA410103EA1F
:10367000D0540A0E1CBF94EA030F92EA030F55D0F0
:10368000B1EB400F2ED24FEAC11141F0004100F0E2
:1036900000434FEA002040F000404FEA90008908C4
:1036A00064EB0204401A38BF01EB400018BF54F12C
:1036B000000407D0D1EB400038BF081818BFB4F1A0
:1036C0000104F7D140002CD0B0FA80F100FA01F0EB
:1036D000521A0EDB43EA102000EBC25000EE100A33
:1036E0006446704708BF00F0004000EE100A6446D0
:1036F000704743EA102000EE100A02F17F024FEA01
:10370000C25100EE901AF1EE100A20F4F851E1EEE9
:10371000101A20EE200AE1EE100A10EE100A64469C
:103720007047184600EE100A6446704709421CBFF5
:1037300094EA030F92EA030F1CD04FF0984201EE77
:10374000102A60EE810AB1EB400FCBD2244208BFB1
:1037500020EE010A10EE901A03EAD152A2F11902EA
:103760004FEA012191D110EE100A03EAD054A4F1DE
:1037700019048CE74FF0807212EB400F2CBF6FF0F2
:10378000004011F1807F644618BF6FF0004000EEEA
:10379000100AFFF499AD7047F8B5002240F67801A1
:1037A000DFF8B00BFFF746FDDFF8AC4B002210212D
:1037B00004F13400FFF73EFDDFF8BC5C0020E86157
:1037C000286268626064A064DFF8B06C7061A8620F
:1037D000E0642065E862286368630120A863002034
:1037E0006065A0654FF0FF30E863286400206864DE
:1037F000E065B0612066A066E0662067A084E08492
:1038000002462021201DFFF715FD00202081608148
:10381000606002460C213046FFF70CFDDFF8640CB7
:103820007060DFF8640C3060FF2030720020207080
:10383000A864288068802085F0656067B081306664
:103840006085A085A067E86404F184072022211D1B
:103850003846FFF7B7FC2F6500206865A865F0665D
:10386000306770672866E865686601202867E86643
:10387000A8660020E867A86768670620E085002042
:103880002086C4F88000E067DFF8EC037066002053
:10389000B066062060860C207082002060660246BA
:1038A000402106F11C00FFF7C5FC00221821281D4D
:1038B000BDE8F840FFF7BEBC10B584B0DFF8BC4BE4
:1038C0000C22214600A8FFF77DFCFFF765FF0C22C4
:1038D00000A92046FFF776FC1FBD00002DE9F04748
:1038E0002DED0A8B00242546DFF8906B96ED1D0A1E
:1038F000D6ED060AC6ED1D0ADFF85C7A97ED178A49
:1039000086ED068ADFF8708B98ED111AB8EE411A31
:10391000DFEDD91AC1EE818AC7ED178AD8F83C10BD
:10392000D8F82C90A9EB0100FA30FA22B0FBF2F2A1
:10393000FA2303FB120080B24C2803DAD8F83820AF
:10394000012A05D120467885B8850220F08152E110
:10395000D7F858A0BAF1040F22D3F4EE480AF1EEDA
:1039600010FA1DD5B4EE688AF1EE10FA18D59FED65
:10397000CC1A20EE811AB4EE681AF1EE10FA0FD5C7
:103980009FEDC81AF4EE418AF1EE10FA08DB87EDDC
:10399000178AC6ED060A86ED1D0A0320F0813FE175
:1039A00097ED119A87ED129AD7ED139AC7ED149AF5
:1039B000024600EE102AB8EE400AD8ED090AC0EE21
:1039C000800A98ED0A1A81EE001A22467A64FA6497
:1039D0001FE0491C89B2FA2900D12146DFF8743969
:1039E00003EB8103D3ED0E1A71EEE01AD3F8203405
:1039F00002EE103A32EE412AD7ED112A41EEA12A09
:103A0000C7ED112AD7ED131A42EE021AC7ED131AA9
:103A1000521C92B28242DCDBD7ED110A80EE80AA02
:103A200087ED11AAD7ED130A80EE80BA87ED13BA9D
:103A3000D6ED1CAA98ED150AD8ED160A70EE60BAFC
:103A4000C6ED1CBA00F08AFC012803D12046788517
:103A5000B885D0E0BAF1000F05D1788D052802DBDA
:103A6000054620467885BAF1000F05D1B88D0528A6
:103A700002DB45192046B8851AFA85F0002826D1C0
:103A8000B6EE00CA3BEE290A20EE0C0ADFED860AEC
:103A9000B4EE600AF1EE10FA11D43AEE090A20EE03
:103AA0000C0ADFED820AB4EE600AF1EE10FA06D4D9
:103AB000B3EE040AF4EE40BAF1EE10FA07D5788DB1
:103AC000401C7885C8F840900620F08193E0788DFE
:103AD000002802D04519204678851AFA85F000287A
:103AE00019D1B7EE000AF4EE408AF1EE10FA02D5D1
:103AF0000720F0817FE09FED6E0AF4EE408AF1EE40
:103B000010FA05DBB88D401CB8850820F08172E002
:103B10002046B88503E0B88D45192046B88528466B
:103B200080B200F0B9FC012808D187ED178AC7EDF3
:103B3000139AC6ED1CAA87ED119A5CE09FED5D0A11
:103B4000F4EE408AF1EE10FA02DBDFF8280CF8659B
:103B500020467885BAF1000F08D1F86D386686EDF9
:103B600005AAC6ED1BBA00F09DFB36E0B6EE00CA12
:103B700000F098FB012816D197ED170AF0EE000A25
:103B800020EE200A87ED170A6AEE0C0AC7ED110A2B
:103B90002BEE0C1A87ED131AC7ED120A87ED141AD3
:103BA00086ED060A6D1C97ED170AD6ED060A30EE73
:103BB000200A20EE0C0A87ED180A97ED110AD7EDBE
:103BC000120A30EE200A20EE0C0A86ED050A3AEEC3
:103BD000AB0A20EE0C0A86ED1B0A97ED180A284660
:103BE00080B200F069F800F020F8C8F84090012495
:103BF0002046C8F84C00C8F83C900020C8F84400A3
:103C0000C8F82400C8F82800C8F838000246102177
:103C100007F1340001F044FA174870660020B066DE
:103C20002046BDEC0A8BBDE8F08738B50025DFF8EB
:103C300028470120C4F8800000F0D6FC6060A06D29
:103C4000E18D884215D3606DE060606E2061A08CCC
:103C50002081E08C60810120E067206F6061A06FAF
:103C60002062A06EA061E06EE0612846C4F880008A
:103C70000125284632BD000000007A44DFF8D8064E
:103C8000C168416500218165018141818184C184D0
:103C9000C169C166016A81670021C0F88010704760
:103CA0006666E63F01004040000016430000A04267
:103CB000666616400100A0402DE9F84F2DED048BFB
:103CC00082B00446DFF89056AE6D06F10F0000F0AA
:103CD0000F0100200246F31D03F007030093034683
:103CE000DFF8987707EB810C8CED070A002C1AD0CF
:103CF000844616E0A1F1010EAEEB0C0E0EF1100E93
:103D00004FEAEE080EEB18784FEA2818BEEB081EB3
:103D100003D407EB8E0E8EED070A0CF1010C0FFA9F
:103D20008CFCA445E6DB102E02D2314609B200E03D
:103D30000F219FEDA48ADFEDA30A9FEDA31A84460D
:103D40001CE007EB810EDEED071AF5EE401AF1EEEE
:103D500010FA11DD38EE218AF4EE610AF1EE10FA64
:103D600001D5F0EE610AF4EE411AF1EE10FA01D538
:103D7000B0EE611A0CF1010C491E09B20029E0D520
:103D80000FFA8CFC614603290BDB78EE600A70EEBB
:103D9000C10A891E01EE101AB8EEC11A80EE818A9E
:103DA00007E0012905DB00EE90CAF8EEE00A88EE94
:103DB000208AB5EE408AF1EE10FA02D0BCF1000F75
:103DC00001D1B0EE408A85ED198A9FED800AB4EEEC
:103DD000408AF1EE10FA02D5B0EE408A08E09FED7D
:103DE0007C0AB4EE408AF1EE10FA01DBB1EE028AF1
:103DF000B0EE040AB4EE408AF1EE10FA08D495ED64
:103E00001D0AF0EE080AB4EE600AF1EE10FA02D5CF
:103E10000321A98401E00421A984D5F8548008F085
:103E2000070ADFF830950AEB090CA98C8CF86418A6
:103E3000002C0BD0A8F1010E0EF0070ECE4408F0B6
:103E4000070BCB449BF864B88EF864B84FF0080EAB
:103E500010E0BBF1040F00D15B1CAAF1010A0FFABC
:103E60008AFABAF1000F01D50AF1080AAEF1010E83
:103E70000FFA8EFEBEF1010F16DB0FFA8AFA0AEB7B
:103E8000090B9BF964B8BBF1030F01D1521C03E08D
:103E9000BBF1040F00D1401CBEF1060FDDDBBBF10E
:103EA000030FD6D15B1ED8E780B292B200EB020EB0
:103EB000BEEB420F08DBBEEB400F02DA0420E884C1
:103EC0000DE01BB2002B02D50320E88407E0012B94
:103ED00002DB0420E88402E09CF96408E88449B22B
:103EE000B0EE480A384600F01FF9DFED8E0AB4EE56
:103EF000600AF1EE10FA01D5B0EE600A85ED1A0AFB
:103F0000204600F1010A00EE90AAF8EEE08AD5ED15
:103F10001B0A48EE800AC5ED1B0A9FEDBF9A20EEF2
:103F2000080A20EE090A009909EB810101F608014F
:103F300081ED000A002C1AD04FF0000E15E0009918
:103F4000491EA1EB0E0108318A1001EB5272D2100A
:103F5000B1EBC20105D409EB810101F6080181ED45
:103F6000000A0EF1010E0FFA8EFE8645E7DB082EE1
:103F700002D2304600B203E0072001E0401E00B24A
:103F80000028FBD585ED1C0AE98C49B2384600F0C3
:103F900045F968EE090AB7EE001AC1EE200A20EED4
:103FA000800AD5ED1E0A48EE800AC5ED1E0A0AEB0E
:103FB000080068650AEB0600A86502B0BDEC048B3A
:103FC000BDE8F18F000000000000C8426666A63F11
:103FD0000100904049B2032944D1DFEDA40AB4EEB8
:103FE000600AF1EE10FA01DBB0EE600A9FEDA01A54
:103FF000DFEDA00A40EE010A90ED011A9FED9E0A46
:10400000B4EE401AF1EE10FA43DADFED9C1AB4EE8A
:10401000611AF1EE10FA74DBB4EE401AF1EE10FA08
:104020006FD59FED970A31EE000ADFED961A60EE2C
:10403000211A9FED950A9FED952A01EE002A22EEA6
:10404000200A20EE210A9FED922ADFED922A41EE0E
:10405000022A62EEA00AB7EE001A31EE611A00EEF3
:10406000810A56E0DFED8C0A60EE200A60EE800ADD
:104070009FED8A1A40EE410A9FED890A70EE800A90
:1040800090ED011A9FED7C0AB4EE401AF1EE10FAA1
:104090000ADB90ED010A9FED7C1ADFED7C1A40EE01
:1040A000011A21EEA00A34E0DFED741AB4EE611AB1
:1040B000F1EE10FA25DBB4EE401AF1EE10FA20D53D
:1040C0009FED6F0A31EE000ADFED6E1A60EE211AE5
:1040D0009FED6D0A9FED6D2A01EE002A22EE200A67
:1040E00020EE210A9FED6A2ADFED6A2A41EE022ABC
:1040F00062EEA00AB7EE001A31EE611A00EE810AF4
:1041000007E090ED010A20EE800ADFED8D0A20EE37
:10411000200A007A022803D1DFED8A0A20EE200A65
:1041200070470000CDCC4C3E10B52DED028BB0EEAB
:10413000408A0C46DFED848A49B2FFF74BFF64B238
:10414000042C31D1DFED810AB4EE608AF1EE10FA71
:1041500016DBB1EE021AB4EE418AF1EE10FA0FD579
:10416000DFED7B0A78EE200AB1EE041A60EE810AD8
:10417000FCEEE00A10EE900AC01D08EE900A3DE049
:10418000B4EE608AF1EE10FA03D5072008EE900A2B
:1041900034E0F1EE020AB4EE608AF1EE10FA2DDBA3
:1041A000122008EE900A29E0F7EE080AB4EE608AC1
:1041B000F1EE10FA11DBDFEDAD0AB4EE608AF1EE3C
:1041C00010FA0AD5FFEE080A78EE200AB1EE041ABA
:1041D00060EE810AFCEEE08A10E0F7EE080AB4EE29
:1041E000608AF1EE10FA09D4DFEDA00AB4EE608A1D
:1041F000F1EE10FA02DB062008EE900ADFF8340D2B
:1042000018EE901A00EB8100D0ED000A20EE200A93
:10421000BDEC028B10BD00000000704270B5064678
:10422000F0EE0C0A49B2042904D19FED911A40EE38
:10423000010A03E09FED8F1A40EE010A10EE900A8A
:1042400000F062FFDFF8042BDFF8083D00F084FF88
:1042500004460D46306800F057FF22462B4600F01A
:104260007BFF01F04BF800EE100A70BD9A991940DF
:104270006ADEF13D8638163F00002A4300001643EF
:10428000000016C3CDCC4C3D4260E53A6666263F41
:1042900052491D3BB81E053F2575C23E7593E83F48
:1042A0002497534000202C4991ED170AD1ED180AAC
:1042B0009FED731A60EE810AB4EE600AF1EE10FA17
:1042C00004D50A8D022A01DB012017E0DFED6F0A19
:1042D000B4EE600AF1EE10FA10D5D1ED100A9FEDA0
:1042E0006C1AF4EE410AF1EE10FA07DB9FED691A41
:1042F000F4EE410AF1EE10FA00D5012001281ED19A
:10430000D1ED1D0AB0EE001AF4EE410AF1EE10FAFA
:104310000AD5DFEDB40AB4EE600AF1EE10FA03DB61
:10432000098D022900DB0020544991ED190ADFEDC7
:10433000BB0AB4EE600AF1EE10FA00D50020704717
:10434000C1C0C03B3333733F0000000066660640C7
:10435000666606C0203F0020041B00200021DFF815
:10436000502CD38C032B1EDA92ED170ADFED9D0A39
:10437000B4EE600AF1EE10FA15DB92ED110AF2EEDE
:10438000040AB4EE600AF1EE10FA0CD592ED130AAD
:10439000DFEDA30AB4EE600AF1EE10FA03D50421B2
:1043A000364BD981012192ED130AF6EE000A92ED07
:1043B000141A30EE011A21EE201AF3EE0E1AB4EEA2
:1043C000611AF1EE10FA1CD492ED111AD2ED121A04
:1043D00071EE211A61EEA01AB2EE042AF4EE421A2E
:1043E000F1EE10FA0DD4F3EE041AB4EE610AF1EE18
:1043F00010FA06D4B1EE040AB4EE401AF1EE10FA47
:1044000003D505211D4BD981012192ED170A9FED9E
:10441000A71AB4EE410AF1EE10FA24DB92ED0F0A6E
:1044200092ED101A80EE010A9FEDA11AB4EE410A36
:10443000F1EE10FA17DB00EE100AB8EE400A20EE9B
:10444000200AD2ED0D0AF4EE400AF1EE10FA0AD578
:10445000D2ED0E0AF4EE400AF1EE10FA03D5152063
:104460000649C88101210846704700009A993940E1
:10447000CDCC4C3ECDCCCC3D106D0020BC1C0020E2
:104480003333333F00003543000090429A99993FFF
:10449000010020420000C8420021DFF8142B936D78
:1044A00013FA80F3DFF8A40B022B18D392ED170A4E
:1044B000DFEDA70AB4EE600AF1EE10FA0FDB92ED21
:1044C000140AD2ED130A80EE200ADFEDA20AB4EE40
:1044D000600AF1EE10FA02DB0921C1810121022BF1
:1044E0001AD39FED9D0AD2ED140A92ED131AC0EE75
:1044F000810AF4EE400AF1EE10FA0DDBD2ED120A59
:1045000092ED111AC0EE810AF4EE400AF1EE10FAB3
:1045100002DB0A21C1810121002B0FD090ED1B0A83
:10452000DFED8E0A20EE200AD0ED1C0AF4EE400AE0
:10453000F1EE10FA02D50B21C181012192ED170A8B
:10454000DFED870AB4EE600AF1EE10FA08DA92EDB8
:10455000180ADFED840AB4EE600AF1EE10FA1ADBF5
:1045600092ED130ADFED800AB4EE600AF1EE10FA64
:104570000BD492ED110ADFED7D0AB4EE600AF1EE84
:1045800010FA02D4138D022B05DBD38C032B02DB34
:104590000C21C181012190ED050ADFED730AB4EE13
:1045A000600AF1EE10FA08D492ED1D0AF1EE040A49
:1045B000B4EE600AF1EE10FA12D5DFF8942AD36D4A
:1045C000126ED21800EE102ABAEEEF0ADFED680A7A
:1045D000B4EE600AF1EE10FA02DB0D21C181012177
:1045E00008467047010000400020DFF8C4194A6DFA
:1045F00012F10A0F0FD29FED600AD1ED1B0AF4EE03
:10460000400AF1EE10FA06DAD1ED1E0AF4EE400A85
:10461000F1EE10FA00DB012070470000CDCC4C3FDA
:104620000000204210B401460020DFF8242ADFF801
:10463000283AD3F86C4800EE104AD1ED000AB4EEE7
:10464000600AF1EE10FA03D15468641C546001E072
:104650000446546003F66C0393ED010AD1ED010AA0
:10466000B4EE600AF1EE10FA03D19468641C946011
:1046700001E00446946093ED020AD1ED020AB4EE23
:10468000600AF1EE10FA03D1D168491CD16001E053
:104690000146D1605168322905D29168322902D28F
:1046A000D168322900D3012010BC7047010040407E
:1046B0003433333F0146002091ED000AB5EE400A45
:1046C000F1EE10FA01DCB1EE400ADFF88429DFEDEB
:1046D0002B0AB4EE600AF1EE10FA03DB13695B1CDF
:1046E000136101E00346136191ED010AB5EE400A42
:1046F000F1EE10FA01DCB1EE400AB4EE600AF1EE20
:1047000010FA03DB53695B1C536101E003465361FC
:1047100091ED020AB5EE400AF1EE10FA01DCB1EEBD
:10472000400AB4EE600AF1EE10FA03DB9169491C0D
:10473000916101E0014691611169322905D2516907
:10474000322902D29169322900D30120704700003A
:10475000010060400100A040010070419A99993E1B
:1047600001009040010080400000C8430000164353
:1047700001005C420000A0408096184B35336B412D
:104780002DE9F24F0446002500F0B6FB2046FFF766
:1047900049FF82462046FFF78DFF8346DFF8B06869
:1047A0002846F0647065B065DFF8A078F881B06ED7
:1047B000DFF8A488D8F86C1800EE101AD4ED000ABF
:1047C00070EEC00A01EE100AB8EEC11A60EE810A5E
:1047D000F5EE400AF1EE10FA18D5D6ED1D0A30EECE
:1047E000601AB5EE401AF1EE10FA01DC30EEC01A94
:1047F000DFED5A0AB4EE601AF1EE10FA02DB716EC8
:10480000491C716686ED1D0A4042B06608F66C00D0
:1048100090ED010AF16ED4ED010A70EEC00A01EECE
:10482000101AB8EEC11A60EE810AF5EE400AF1EEF8
:1048300010FA18D5D6ED1E0A30EE601AB5EE401A01
:10484000F1EE10FA01DC30EEC01ADFED440AB4EEEE
:10485000601AF1EE10FA02DB726E521C726686ED7F
:104860001E0A4942F16690ED020A306FD4ED020A49
:1048700070EEC00A01EE100AB8EEC11A60EE810AAD
:10488000F5EE400AF1EE10FA18D5D6ED1F0A30EE1B
:10489000601AB5EE401AF1EE10FA01DC30EEC01AE3
:1048A000DFED2E0AB4EE601AF1EE10FA02DB716E43
:1048B000491C716686ED1F0A40423067DFF8949705
:1048C00099F80000052806D10120B063284689F830
:1048D000000030807080706C009908187064F06A75
:1048E000F16B884201D10120B0630099204600F0AD
:1048F00065F9BAF1010F02D0BBF1010F30D19FED84
:10490000AE0AD4ED000A94ED001A60EE810A94ED2F
:10491000011AD4ED011A21EE211AD4ED021A94EDF8
:10492000022A61EE821A7068322804D23069322875
:1049300001D230EE800AB068322804D27069322881
:1049400001D230EE010AF068322804D2B069322870
:1049500001D230EE210A00F087FB15E0CECC4C3EB0
:1049600094ED000AD4ED000A20EE200AD4ED010AED
:1049700094ED011A00EE810AD4ED020A94ED021AB8
:1049800000EE810A00F070FB706B002810D1284601
:1049900004E008EB810181ED000A401C80B2014671
:1049A0000729F6DBF1EE0C0A60EE200AC6ED070AD5
:1049B000316B08EB8100D0ED000A70EE600A96EDD5
:1049C000071A70EE810AC6ED070A80ED000AF06A48
:1049D00008EB8000C0ED0E0A96ED090A30EE200AC1
:1049E00086ED090A08EB810191ED070A30EEC00A55
:1049F00000F2204282ED000AC1ED070A96ED0A0A94
:104A0000D0F8201400EE901A30EE200A86ED0A0A43
:104A100008F66C0194EC030A81EC030AB16C491CA2
:104A2000B16499F80020012A01D0032A39D1022962
:104A30002CD2B9F82620042A28DAD9F858100029EF
:104A400060D196ED080ADFEDC00AB4EE600AF1EE1F
:104A500010FA08D5D0F8201401EE101AB4EE601A3E
:104A6000F1EE10FA0FDAF9EE0C0AB4EE600AF1EE8C
:104A700010FA47DBD0F8200400EE100AB4EE600A0A
:104A8000F1EE10FA3ED50120B0633BE0272908D3B0
:104A90003288002A03D011FA82F14B2901D3012177
:104AA000B163D0F8200400EE900A96ED080A00F0F9
:104AB0004FF999F80000012824D13088002821D02E
:104AC000718800291ED0032211FA80F03D2801DBF5
:104AD0000120B063B9F82600042800DB0222B9F8EF
:104AE0002800824201D20120B063F06D3066706E02
:104AF000F06528467066FEF7F1FE054600207080DE
:104B0000A9F82800F06A316C401AFA30FA24398A80
:104B100001292146B0FBF1F104FB110002D19628D6
:104B200006D101E0642803D100F016FA0120F064F8
:104B3000F06A316C401AFA302146B0FBF1F104FB07
:104B40001100642803D100F035FA0120F064B9F8AF
:104B50000A00002802D00120F06405E0B9F808003E
:104B6000002801D00120F064F06A08EB8001D1F840
:104B700020143162401CF062FA2801D10020F0625A
:104B8000306B401C3063072801D100203063706B0C
:104B9000401C7063F06C00280BD009F104003065F4
:104BA00009F18404202209F104012046FEF70AFBE2
:104BB00034652846BDE8F28F0000000030B4DFF80D
:104BC000982490ED000AD2F86C3800EE903A30EE5E
:104BD000600A02F66C03D0ED010A93ED011A70EE43
:104BE000C10A90ED021AD3ED021A31EE611AB5EE48
:104BF000400AF1EE10FA02DDF0EE401A01E0F1EEAB
:104C0000401AF5EE400AF1EE10FA02DDB0EE602A2D
:104C100001E0B1EE602AB5EE401AF1EE10FA02DDC5
:104C2000F0EE412A01E0F1EE412A71EE821A71EEB6
:104C3000A21AB5EE400AF1EE10FA01DCB1EE400A1C
:104C4000DFF86C3393ED0D2A32EE000A83ED0D0A86
:104C5000F5EE400AF1EE10FA01DCF1EE600A93ED98
:104C60000E0A30EE200A83ED0E0AB5EE401AF1EE80
:104C700010FA01DCB1EE411A93ED0F0A30EE010A91
:104C800083ED0F0A93ED100A30EE210A83ED100A2E
:104C9000DFF8B803DFF8B843646B002C12D10024AE
:104CA00006E002EB850505F62805C5ED001A641C33
:104CB000A4B225460F2DF4DBB2EE0E0A21EE800AD7
:104CC00080ED170A848902EB8402D2F8285800EE9E
:104CD000105A31EEC00AD0ED170A30EE200A80EDEE
:104CE000170A02F62802C2ED001AF2EE0E0A80EE52
:104CF000200A83ED1D0AD0ED190AB4EE600AF1EE28
:104D000010FA01D580ED190AD0ED1A0AF4EE400A26
:104D1000F1EE10FA01D580ED1A0ADFEDB40AB4EE17
:104D2000600AF1EE10FA03D5026E8918016601E0FF
:104D300000210166611C818189B20F2901D1002106
:104D40008181006E30BC70470100E0407B14AE47AB
:104D50009FEDA71A9648C18C042901DBB0EE001A1A
:104D6000B5EE400AF1EE10FA07DBF5EE400AF1EE7F
:104D700010FA02D5018D491C01850178002905D062
:104D800002295FD02DD3032976D0B3E0F1EE0C1ABF
:104D900031EE211AB4EE401AF1EE10FA0CDBB4EE4B
:104DA000601AF1EE10FA07D5A9498A6C102AC0F0F2
:104DB0008F8000228A648BE0A549CA6AA64901EB6C
:104DC0008202D2F8201401EE901AA44A92ED010A50
:104DD000F4EE401AF1EE10FA40F18C80C2ED011AA7
:104DE00088E09B49CA6A9C4B03EB8202D2F82024DC
:104DF00001EE902A994A92ED002AB4EE612AF1EE72
:104E000010FA01D5C2ED001AF7EE001AB4EE610AED
:104E1000F1EE10FA6EDBB7EE000AF4EE400AF1EEA6
:104E200010FA67D58A6C0A8000228A64B9EE0C0AEF
:104E300030EE410AF4EE400AF1EE10FA10D40221ED
:104E4000017057E0F9EE0C1A31EEC11AB4EE410AC6
:104E5000F1EE10FA4EDBF4EE410AF1EE10FA49D50C
:104E6000032101707C497A4AD26A01EB8201D1F8B0
:104E700020147A4A51603DE07549CA6A764B03EBCB
:104E80008202D2F8202401EE902A744A92ED012A7F
:104E9000F4EE421AF1EE10FA01D5C2ED011ADFED7F
:104EA0006A1AB4EE610AF1EE10FA23D5F4EE610A43
:104EB000F1EE10FA1EDB8A6C4A8000228A64B1EEA1
:104EC0000C0A31EE000AB4EE600AF1EE10FA0FD5CA
:104ED00001210170614A5E4913684B6553688B6517
:104EE0005D4BC96A03EB8101D1F82014116001E028
:104EF00011460170007870475648007870470028C6
:104F000004D05349096D2022FEF75CB9704780B583
:104F100000204F49486300F04DF800F01DF84D485F
:104F2000052101702022011D8430BDE80840FEF7F4
:104F300049B900000C1E0020002806D043494268F1
:104F40004A6002680A60007A087270473F48006E43
:104F500070470000E17A743F10B5154C0020A06541
:104F6000606120612081A0846085A08520666066E4
:104F7000024640213A48FEF75DF9D4F88000012846
:104F800001D1FEF77BFE208E002808D0618E814281
:104F900001D2E08500E0E18500202086E067E06F37
:104FA000012801D1608EE0850020E06710BD00007F
:104FB000041B002010B5274C0020606120610246D0
:104FC00008212848FEF736F90020E084608120613E
:104FD0006085A085D4F88000012801D1FEF74EFE3F
:104FE000E06F012801D1608EE08510BDEC51383EA4
:104FF0000000000038B50446144D1648012C04D1B9
:10500000062141860C21698203E0072141860F2198
:105010006982298AA14209D0C18D082903DA408E0C
:1050200000F006F802E0688A00F002F82C8231BD38
:1050300008498A6DCB8D9A4203D2C8850020C86783
:105040007047088670470000FEFF7FBFBC1C002031
:10505000106D0020041B0020203F00200C70002059
:10506000D81C00208447002081B08DED000A0098F4
:10507000401000F1FE500090DDED000AC0EE200A65
:105080009DED001A70EE810ACDED000AB5EE001A12
:10509000DDED001A80EE210A00EE810A01B07047B2
:1050A00062F30F2262F31F42401810F0030308D08E
:1050B000C91A1FD3DB0748BF00F8012D28BF20F80D
:1050C000022D130030B414461546103928BF20E9CC
:1050D0003C00FAD8490728BF20E90C0048BF40F837
:1050E000042D890028BF20F8022D48BF00F8012DAB
:1050F00030BC7047C91818BF00F8012DCB0728BF76
:1051000000F8012D704700005FF0FF0C1CEAD05141
:1051100014BF614506E0C110400721F0E04101F1F4
:105120006051704779B900F0004100020AD0B0FA2E
:1051300080FC00FA0CF001F16051A1EB0C5101EB85
:10514000D0214005704741020CBF40F4E0016FF0F0
:105150000001002070470000B0B581EA030C0CF09C
:10516000004C40F2FF7515EA11541DBF15EA1357A4
:10517000AC42AF4239E0E41923EA455343F48013CB
:10518000C90241F0004141EA505EC7021100A7FB8D
:10519000020200284FF00000EEFB01204FF000015A
:1051A000E3FB072118BF42F00102401800214941EA
:1051B000E3FB0E01A4F580640F0302D252004041CC
:1051C000494154F101046CDD470872F1004250F18D
:1051D000000051EB0451A1F580115CBF41EA0C01C4
:1051E000B0BD4CEA05510020B0BD05EA1357AC42F2
:1051F00014BFAF4241E050EA410E1CBF52EA430ED9
:1052000002E061460020B0BD24423C441BD15FEA6D
:10521000070EF6D0090302BF01460020AEF1140EBE
:10522000B1FA81F7AEEB070401FA07FE0C37C7F1BC
:10523000200100FA07F7C8404EEA000E23EA455362
:1052400043F48013A2E733F00043B3FA83F704BFBB
:10525000B2FA82FE77440B3FE41BB7F1200E2FBF5A
:1052600002FA0EF3BB40C7F1200E22FA0EFE38BF41
:1052700043EA0E03BA40641C82E750EA410E14BFB1
:1052800052EA430E6FF000014FF4001717EB430F83
:105290008ABF194617EB410FB5E74CEA05510020CC
:1052A000B0BDD4F10104B4F120070FDAC4F1200736
:1052B000520828BF42F0010210FA07F501FA07F779
:1052C000E1BF2A43E0403843E1400FE0352C98DC51
:1052D000C7F1200452EA400220FA07F218BF42F058
:1052E000010231FA07F0A1400A43002172F10042A5
:1052F00050F1000051EB0C01B0BD00004FEAF17C11
:10530000BCF1E04C2CBFBCF5001F11E05FEA4C0C77
:1053100034BFBCF17F5F2EE05FEA9C0C4FEA0C1CAF
:105320004FEA3C0CC10071F100414CEB50707047EA
:10533000C90241EA5051C00218BF41F0010141F0D9
:1053400000414FEA6C50C0F10900212810D240EA18
:10535000CC7CCCF1200C11FA0CF070F10040CCF1B7
:10536000200C21FA0CF00CF0004C40EB0C007047C4
:105370004FEACC707047490011F5001F04D84FEA7E
:10538000CC10FF30C0057047C81770470FB410B578
:10539000DFF8FC4C0020A073012020720020607216
:1053A0004FF0FF3020700F20E07214202073002097
:1053B0006073208720656074E065206602462421C2
:1053C00004F11400FDF736FF01F005FB60640322D1
:1053D0000121002001F0CEFD022801D102201FE0B2
:1053E0000FF2440001F0E7FF002060732087206582
:1053F0009DF80C209DF80B109DF80A0002F07FF933
:1054000000223C21DFF8580DFDF714FF00206066F4
:105410002074A073E063A066A4F84000A07401208B
:1054200010BC5DF814FB000050443A2053746172C4
:10543000745065646F2D30383233000080B503221C
:105440000121084601F096FD032801D1032002BD89
:10545000012002BD70B52DED028B9CB005A801F0B6
:10546000EEFDDFF82C5C686CDFF8604C6178427A06
:10547000914205D0407A02F042FC686C407A60703C
:10548000686C2178027B914205D0007B02F034FCED
:10549000686C007B20700621032001F004FE0028C8
:1054A00016D1DFF8C00C0D900020E863B5F840007D
:1054B000401CA5F8400080B240F2EF2188424ADB50
:1054C0000FF2EC0001F077FF0020A5F8400042E069
:1054D0009DED0D8A95F90800022835D195ED1A0A3F
:1054E000B4EE408AF1EE10FA03D1A88F401CA887D1
:1054F00001E00020A8879FED8B0AB4EE408AF1EE10
:1055000010FA06D49FED880AB4EE408AF1EE10FA44
:1055100003DBE88F401CE88701E00020E887EE8F7E
:10552000AC8F972C01DA972E10DB18EE100AFFF7DC
:10553000EBFDCDE90001324621460FF28C0001F06F
:105540003AFF0020E86301E00020E8630020A5F8AE
:10555000400085ED1A8AA86CC068446802F01EF904
:10556000287295F90800022806D13C2C04D1142198
:10557000032001F066FD07E0012805D1142C03D1BA
:105580003C21032001F05DFD0598029006980390F0
:105590000798049021469DED0D0A02A801F0F5FF41
:1055A000E86C2018E86401201CB0BDEC028B70BDD3
:1055B00050443A204261726F44697361626C656461
:1055C000203038323300000050443A204241524FDC
:1055D00020256420256420256600000010B5DFF832
:1055E000B04A94F9000000283AD494F90A0094F9DA
:1055F0000110814228D1217B0818A07240B23D28B9
:1056000001DB3C38A07294F90A100FF2700001F02F
:10561000D2FE0020E064DFF8E00B90F9010010F109
:10562000010F01D1012010BD94F90110081A02F0F8
:105630006BFB21F0004102F07FFB40B2012801DB4F
:10564000012010BD002010BDDFF8B00B90F9012043
:10565000914203D0D4E90023C0E90023002010BD0B
:10566000E06CDFF89C1B884205DB0FF21C0001F0A8
:10567000A2FE012010BD002010BD000050443A20C1
:105680004E5420256400000050443A204E6F546967
:105690006D6500002DE9F8430026DFF8F44901E0CC
:1056A0007819A07294F90A50002E1BD46078461B1A
:1056B00076B294F90C70002EF2D5304602F024FB3D
:1056C00021F0004102460B4690469946384602F0CA
:1056D0001BFB42464B4602F05BFBE3D2E81BA07289
:1056E0000026DFE73C2D02DBA5F13C00A072BDE8FF
:1056F000F18338B5DFF898394FF46164C1EB0115D7
:10570000AD0014FB005414194FF47A756C43DC613E
:105710001B7C009313460A4601460FF2100001F06D
:105720004AFE31BD0000FA430180BB4450443A2098
:10573000425420256420256420256420256400002F
:10574000F8B52DED028B9CB0DFF8146A314684B0B9
:1057500068463C22FDF736FD0FBC00F005FD10EE5B
:10576000100AFFF7D1FC41EC100B9FED848BDFF8A2
:105770002049256A53EC102B51EC180BFFF7ECFC79
:1057800002F0DAFA15FA80F020624FF6FF75A842AF
:1057900000D32562314684B068463C22FDF712FDF5
:1057A0000FBC00F095FC10EE100AFFF7ADFC41ECC9
:1057B000100B676A53EC102B51EC180BFFF7CCFC65
:1057C00002F0BAFA17FA80F06062A84200D365626C
:1057D00000200C9002200B90314684B068463C2299
:1057E000FDF7F0FC0FBC00F00DFBE18A4018E082F1
:1057F00080B2FF2801DBFF20E08200200C90032014
:105800000B90314684B068463C22FDF7DBFC0FBCB0
:1058100000F0F8FAA16A4018A062A84200D3A5627D
:1058200000200C9006200B90314684B068463C2244
:10583000FDF7C8FC0FBC00F0E5FA218B401820836F
:1058400080B2FF2801DBFF20208300200C9007207E
:105850000B90314684B068463C22FDF7B3FC0FBC88
:1058600000F0D0FA618B4018608380B2FF2801DB22
:10587000FF20608300200C9008200B90314684B0FC
:1058800068463C22FDF79EFC0FBC00F0BBFAE16AC3
:105890004018E062A84200D3E56200200C90092085
:1058A0000B90314684B068463C22FDF78BFC0FBC60
:1058B00000F0A8FA216B40182063A84200D32563AA
:1058C0000DA801F0EAFEE76D1A98FFF71DFC002213
:1058D000DFF83439FFF740FC02F02EFA57FA80F077
:1058E000E065216E491C2166B0FBF1F020750020B7
:1058F0000C9001200B90314684B068463C22FDF7A5
:1059000061FC0FBC00F07EFA616B40186063A84236
:1059100000D36563E27B616B0FF2140001F04BFD75
:10592000E07B00F052FB1CB0BDEC028BF1BD00002F
:10593000504420425420737465702025642C202527
:1059400064000000DFF84807C18A002914D1816A89
:10595000002911D1018B00290ED1418B00290BD1D7
:10596000C16A002908D1016B002905D1406B401E96
:105970008041C043C00F7047012070470000000005
:10598000000059402DE9F04F9DB006460025B14674
:10599000DFF8FC46A07B3146884210D0B9F1010FF8
:1059A00040F09D80284602F0A5F9A06C002806D0A2
:1059B000C068027841780FF2383001F0FCFC0DA885
:1059C00001F06BFEDFF898A728460C9001200B90A1
:1059D000514684B068463C22FDF7F4FB0FBC00F052
:1059E00011FA07469DED1A0ADAED0D0A30EE600A4B
:1059F00010EE100AFFF788FB2A46DFF80C38FFF795
:105A0000ABFB02F099F980461FFA88F8BDF8360022
:105A1000BAF80210A0EB010B5FFA8BFBA06C816C53
:105A20004A78002A02D10978002905D0A16D0F9A81
:105A30005118626E891AA165C06C4178002902D1A3
:105A40000278002A05D0626D0F9B9A18636ED21AF5
:105A50006265626C927A002A18D1626D002A07D0C2
:105A6000002902D10078002802D0012002F018FAA3
:105A7000A06D00280AD0A06C806C4178002902D16A
:105A80000078002802D0012002F0C3FA002E36D19F
:105A9000002F02D15BEA080000D001250020E0645D
:105AA0004FF0FF302070D4E90001DFF85027C2E941
:105AB0000001DFF8682DC2E90001DFF83C27C2E9E8
:105AC0000001E07AA072A07B002850D00020A073D3
:105AD000207C00284BD001206074054647E0002E52
