:1000000040090020D59F0108757D0108897D010800
:100010009D7D0108B17D0108C57D0108000000003B
:10002000000000000000000000000000D97D010871
:10003000ED7D010800000000558C0008F99F0108C3
:10004000FD9F010801A0010805A00108ED0B0108B2
:1000500009A00108F7840108578001080DA00108D4
:10006000418201082383010811A0010815A001089D
:1000700019A001081DA0010821A0010825A0010860
:1000800029A001082DA0010831A0010800000000EE
:1000900000000000000000000000000035A0010882
:1000A00039A001083DA0010841A0010845A00108B0
:1000B00000000000000000000000000049A001084E
:1000C0004DA0010851A0010855A0010859A0010840
:1000D0005DA0010861A0010865A001080000000002
:1000E00069A00108FF830108000000000000000073
:1000F0000000000000000000000000006DA00108EA
:10010000000000000000000071A0010800000000D5
:10011000000000000000000075A0010800000000C1
:1001200079A001087DA0010881A0010885A001082F
:1001300089A001080000000000000000000000008D
:1001400000000000000000000000000000000000AF
:100150008DA0010891A0010895A0010899A00108AF
:10016000000000000000000000000000000000008F
:10017000000000000000000000000000000000007F
:100180009DA00108A1A001080000000000000000DF
:1001900000000000A5A00108000000000000000011
:1001A000000000000000000000000000000000004F
:1001B000000000000000000000000000A9A00108ED
:1001C000ADA00108B1A00108521C884204D192FBE5
:1001D000F1F001FB102008E0101A90FBF1F201FB96
:1001E000120000B2002848BF401800B2704700005B
:1001F0002DE9F8432DED048B8EB080468946F0EE54
:10020000408AB0EE608A1646002702AC334602AA46
:10021000B0EE680A4946404600F0A0F800289FED7D
:10022000D29A4ED0002009EB800191ED000A04EB38
:100230008001D1ED000A09EB8001401C30EE200A5C
:10024000042881ED000AEEDB002504EB850090ED2B
:10025000000AF0EEC00AF4EE490AF1EE10FA58BFB7
:10026000B0EEC09A6D1C032DEFDBE068DFEDBF0A36
:1002700020F00040B4EE609A00EE100AF1EE10FAA1
:1002800042BFDFEDBB0AB4EE600AF1EE10FA01D511
:10029000022F03DA7F1CFFB2052FB7DBDFEDB50AB3
:1002A000B4EE609AF1EE10FABEBFDFEDB30AB4EE21
:1002B000600AF1EE10FA04DA99ED030A02F068FB25
:1002C00007D58DED018A89ED068ADFF8500A306086
:1002D0003FE0242104A802F057FC002509EB85002B
:1002E00090ED000A80EE280A02F051FCBDEEC00A33
:1002F00002A910EE100A21F815000C2104A8694388
:10030000084400EB850099ED030A6D1C88EE000A95
:10031000032D80ED000AE1DB01A8009009F118032C
:10032000F0EE480AB0EE680A04AA02A9404601F0BD
:10033000DBF896ED000ADDED010A20EE200A86EDDD
:10034000000AF0EE000A9DED010A20EE200A8DED74
:10035000010A9DED010A0EB001F0E4B92DE9F84F54
:100360002DED028BACB0044688461646994608A887
:10037000102102F009FC0020C9F8000002F0EBFB9C
:100380001CA802F001FC40210CA802F0FDFBB0EE1D
:10039000408ADFED7A8A98ED030A103E00F0C2FF32
:1003A00000F1928000F0B2FF0090002504AF0DF143
:1003B000040A0DF1200B09E007EB800302F0D8FBE3
:1003C0000428F9DB491C042953DB6D1C2178E8B2B1
:1003D00088425FD200986178D8ED000A50FA85F023
:1003E00001F02CF9B0F9221002F0AEFB30EE600AF9
:1003F0008DED010AB0F92410D8ED010ADDED011AE6
:1004000002F0A2FB70EE600ACAED010AB0F9260004
:1004100098ED021A02F0A5FB30EE411A9DED010A9B
:100420008AED021A20EE210A00EEA00A01EE010A6E
:1004300002F0CCFBDFED520A01F07FF9C5D4F7EEF4
:10044000000AC0EE800A00200AEB800191ED001A3C
:1004500007EB8001401C21EE601A032881ED001A91
:10046000F2DBDFF80C0EF8600021D8ED030A70EE25
:10047000C00A07EB81001CAA90ED000A0BEB81007B
:1004800002EB011290ED001A00EE201A80ED001A26
:10049000084695E70024611C08460AE01CAD05EB00
:1004A00004151CAA02EB8402030155F82050D55014
:1004B000401C0428F2DB0C46042CECDB04220CA9C3
:1004C0001CA802F06BFC08B9002048E0042308AA2D
:1004D00031460CA802F0CDFCC9ED008A002408A822
:1004E0000021002200238C46A0E80E104FF07E5021
:1004F0004BF82400042308AA04A90CA802F0B9FCB4
:1005000004A800EB840090ED008AB5EE408AF1EE7D
:1005100010FA0FDDB0EE480A02F058FBD9ED000AE0
:1005200001F00BF908D4B0EE480A02F04FFBF0EEF0
:10053000400A01E0F2EE040A641C032CC9ED000A33
:10054000CDDB98ED030AFEEE000A20EE200AD6ED80
:10055000030A02F019F948BF86ED030A01202CB006
:10056000BDEC028BBDE8F28F000000009A99993E25
:100570006666663F01002040CECC0C40CDCCCC3D21
:1005800017B7D1382DE9F8432DED028B92B0044610
:10059000884691461F4606A8202102F0F5FA03A8D6
:1005A0000021002200230EC0396094F902206178F6
:1005B0002078B0EE408AF0EE608AFFF705FE002159
:1005C00003AD21E06378DDED030A00F0C9F930EEF8
:1005D000200A8DED030AC9B2B2F92430D5ED010A23
:1005E00000EE103AB8EEC00A30EE200A85ED010A9E
:1005F000B2F92620D5ED020A00EE102AB8EEC00AA4
:1006000030EE200A85ED020A22789142DADB0021E1
:10061000227800EE102A05EB8102B8EE400AD2EDF6
:10062000000A491C80EE800A032982ED000AEFDBF4
:10063000002106AE3DE06378DDED030A95ED011A79
:10064000D5ED021A00F08CF9B2F92430B2F9262067
:1006500030EE600A00F02FFE70EEC10A01EE102AA3
:10066000B8EEC11A31EE611ADDED061A40EE001A3D
:10067000CDED061AC9B2D6ED011A40EE201AC6ED2C
:10068000011AD6ED021A40EE011A96ED030AC6EDE4
:10069000021A00EEA00A86ED030A96ED040A00EEA7
:1006A000810A86ED040A96ED050A01EE010A86ED3F
:1006B000050A22789142BEDB694606A802F094FA48
:1006C000009820F0004000EE100A6846D0ED010AC4
:1006D000B0EEE01AB4EE410AF1EE10FA90ED021A13
:1006E000009858BFB0EEE00AF0EEC11AB4EE610A0D
:1006F00020F00040F1EE10FAF0EEE01A02EE100ADF
:1007000058BFB0EEC10AF4EE421AF1EE10FA43BF40
:10071000009820F0004000EE900AF0EEE00AF0EEC3
:10072000C11AF4EE601AF1EE10FA58BFF0EEC10AE9
:10073000B3EE091A20EE011AB4EE601AF1EE10FAC7
:1007400000F1E780B3EE041A20EE010A00F0F5FF95
:1007500003D520782328C0F2DC80202106A802F0EF
:1007600013FABDF97400B0EE080A28EE000A00EE94
:10077000900A80EE280AF8EEE00A02F005F85CBF65
:10078000BDEEC00A10EE100A00B200EE900A88EE2C
:10079000280A00F0D0FF5CBFBDEEC00A10EE100AC0
:1007A00000B200F007FB60EEA80AB6EE000AC0EE49
:1007B000880A60EE800A9FED621A00F0BFFA0BDB38
:1007C000B0EE001A00F0BAFA06D5B7EE001A70EED5
:1007D000810A20EE800A01E0B7EE000A002005EB56
:1007E0008001D1ED000A06EB8001401C60EEA80AF2
:1007F0000328C1ED000AF2DB20EE080A86ED030AA9
:1008000086ED060AF0EE480A1C9AB0EE680A06A9C0
:100810002046FFF7EDFC87ED000A2421404602F058
:10082000B3F900210EAD06EB810090ED000A05EB57
:10083000810080EE280A80ED000A0C2048434044E5
:1008400000EB810096ED030A491C88EE000A03299B
:1008500080ED000AE7DB96ED060AD7ED000AB5EE5B
:10086000400AF1EE10FA5CBFF5EE400AF1EE10FA24
:100870004FBF9FED340A80EE800AF7EE000A30EE9B
:10088000C00A87ED000AFFEE000A98ED000A30EE7C
:10089000200AB0EEC00ADFED2C0AB4EE600A98ED33
:1008A000000ADFED2A0A30EE200AF1EE10FAB0EE6F
:1008B000C00ADFED270A4CBF0120002000F03DFFF9
:1008C00008D598ED000ADFED230A00F036FFA8BF37
:1008D000012100DA0021084306D097ED000ADFED80
:1008E0001E0A00F02AFF16D5DFED1C0A2078C0EEA4
:1008F000A80AFDEEE00A0200B0EE080A10EE901A17
:100900001CBF401E207080EE280A89B2204600F0ED
:100910009DFA00200EE0002405EB840090ED000A13
:1009200002F035F901F018FA29F81400641C032CC0
:10093000F2DB012012B0BDEC028BBDE8F2830000B7
:10094000CECC4C3E000000003333B33ECDCC8CBF48
:100950006666263F6766E63E9A99193F00003D436A
:100960000A1892FBF3FC03FB1C22D2B204EBC20276
:10097000491CB2F9223000EE103AB8EEC00A7047B6
:100980002DE9F54F1D4681B00C462DED048B86B048
:1009900003A8179FD2ED020A0FF29032B0EE408A00
:1009A000D2E90036C0E900360FF2883201A8D2E958
:1009B0000036B7EE000A80EE200AC0E900360020BB
:1009C00078703870B870F87038717871F1EE040A88
:1009D000DDF8588060EE208ADFEDCD0A0021002688
:1009E000C8F8000020EE209A0DF104090DF10C0A60
:1009F00066E00B9A9268009212F83020002A5DD0CF
:100A0000491C0023009A3AF913E002EBC00202EB02
:100A1000430CBCF902C0E645B8BF2AF813C039F947
:100A200013B0DC45B8BF29F813C000EE10CA05EBBF
:100A3000830CB8EEC00ADCED010A4FF00C0C0CFB85
:100A400003FCAC440CEB830C30EE600ADCED040AD2
:100A500020EE200AD8ED000A5B1C40EE000A032BB2
:100A6000C8ED000ACEDB042828DB4FF0000E00237F
:100A700002EB430BABF11E0C00EE10EABBF902E0F7
:100A8000BCF900B0AEEB0B0EBCF918B0BCF908C055
:100A90000BEB4E0EAEEB0C0C00EE90CAF8EEE00A3B
:100AA000B8EE400A00F002FC5B1CBCEEC00A032B4F
:100AB00010EE10EADCDBB64528BF7646401C40B29B
:100AC0000B9A9288904294DB48B2002862D00023AF
:100AD0003AF91300B0F5804F42DA39F9130010F5F6
:100AE000804F3DDB5B1C032BF2DB49B200F0F1FCD5
:100AF000D8ED000A80EE800A02F068F80C98D0ED7C
:100B0000020A20EE200A88ED000ABDF90C00BDF9AA
:100B10000410B9F90220B9F90430401ABAF90210E8
:100B2000891ABAF90420D21A0B468142B8BF03468B
:100B30009A42A8BF134600F0BEFBB4EE609AF1EEF5
:100B400010FA0DD40C9BD3ED021A01EE106AB8EE28
:100B5000411A21EE211ADFED6F1A01F0F8F801DBDE
:100B60000220CFE0F4EE680AF1EE10FA13D501206E
:100B70003870207800EB40001E2808DB38EE400A71
:100B8000B0EEC00AF3EE0E0A00F0D7FD02D42878CA
:100B900000282ED1B7E0B1EE000A28EE800A00F05E
:100BA000CCFD18D5B0EE000A00EE900A28EE800ABF
:100BB00000F0C1FD41BF00EE901AF8EEE00AB4EE7D
:100BC000600AF1EE10FA06D500EE902A00F0B3FDAF
:100BD00044BF01237B70B7F906309A42BCBF0122A3
:100BE000BA709942BCBF0121F9709842BCBF012084
:100BF00038712878010018BF0128CBD0207800EB8D
:100C000040001E2809DB98ED000A78EE400AF0EE5D
:100C1000E00A9FED411A00F091F874DBDFED3F0A26
:100C200068EE200A6378257800200021FDEEE00AB6
:100C300010EE902A9D4212B208D194F903506D1C17
:100C400095FBF3F603FB1653DBB200E0002394F8A8
:100C500001C000250BE0EE1896FBFCFE0CFB1E66A7
:100C6000F6B204EB46066D1C368980196DB2267803
:100C7000B542F0DBB0FBF6F000EE900AF8EE600A49
:100C80009FED271A94F9033060EE810AFCEEE00A2A
:100C9000DBB2002066781D1A95FBF6FC06FB1C559E
:100CA0006DB2002D44BF75196DB204EB45052D8959
:100CB000AE1A4CBF551BAD1A40F6B936ADB2B542AF
:100CC00028BF491C401C0A28E4DBF8EE600A30EE1D
:100CD000C81AB0EEC11ADFED131A01F038F80DD5BD
:100CE00030EEC00AB0EEC00ADFED0F0A00F025FDBD
:100CF00004DB01207871002038707870C9B20429B3
:100D000001DB0020787106B0BDEC048BBDE8F78FE5
:100D10000000024301007A440100F0410000C84293
:100D20000AD7233C0000704201007042008000801E
:100D300000800000FF7FFF7FFF7F0000F4EE410A8C
:100D4000F1EE10FA704730EE600AB0EEC00AF1EE34
:100D5000000AB4EE600AF1EE10FA44BFB4EE601A75
:100D6000F1EE10FA01D503207047F2EE000AB4EE5E
:100D7000600AF1EE10FA42BFB2EE000AB4EE401A79
:100D8000F1EE10FA4CBF02200120704790FBF1F207
:100D900001FB120000B2002848BF081800B280B55D
:100DA00000F008F880EE800A01F0F1FE00F0D4FFB8
:100DB000C0B202BD00EE900AF8EEE00A704710B52E
:100DC00000230124202A05DBA2F1200104FA01F10D
:100DD000084002E004FA02F0084000B1012318467E
:100DE00010BD10B50BB14FF0FF330124202A08DBF2
:100DF0000168203A4B4004FA02F21A405140016067
:100E000010BD0868434004FA02F21A4050400860DE
:100E100010BD70B5154604461E460A46012304F16E
:100E20000C0104F10800FFF7DCFF01232A4604F15E
:100E3000140104F11000FFF7D4FF324604F1180149
:100E400004F11C00BDE870400123CAE72DE9F0471A
:100E5000044600200D462DED028BA060E06020616D
:100E60006061E061A06100F036F80646207810B9B4
:100E70004FF0FF30A070002721E0617856FA87F02C
:100E800090FBF1F201FB1200C0B204EBC008B0EE1F
:100E9000480AB8F922002946FFF778FF8146B8F9D9
:100EA000240000F014F88246B8F9260000F00FF88C
:100EB0000346524649462046FFF7ABFF7F1C217888
:100EC000F8B28842D9D3BDEC028BBDE8F087B0EE12
:100ED000480A29465AE794F9022061782078B0EE52
:100EE000408AFFF771B900002DE9F44F2DED048B16
:100EF00082B0B7EE000AD2ED020A069AC0EE209A3E
:100F0000B0EE080A29EE808A28EE080ADFEDD60A3C
:100F100060EE208AB7EE080A28EE009A9FEDD30A09
:100F200028EE000A044600F017FF0D46ADF8000059
:100F30000027A9882868B2F90420491E02FB010095
:100F4000616801F51C5110318142984631D2DFF8B9
:100F5000D01D94F9022001EB000A61782078FFF798
:100F600033F92178B94600261AE06378321892FBEB
:100F7000F3FC03FB1C22D2B204EBC2026368B2F89A
:100F800020C06344A3EB0A0313841BB2002B06D5D5
:100F9000227813004FF001091CBF521E2270761CEC
:100FA0008E42E2DBB9F1000F01D000F089F9C4F8FC
:100FB00004A02078C0B194F90210606804EBC1016C
:100FC000B1F92010401800F59850296888308842FF
:100FD0000AD227704FF0FF30A070B0EE480ABDF87B
:100FE00000102046FFF732FFB8F1000F05D120783E
:100FF0000B28B8BF0020C0F23581B6EE000A0026EB
:1010000069EE809A33E0207094F90200617800F074
:1010100065FAA070069A2968928894F9020002FB8A
:101020000611626804EBC000891A00F032F9828868
:1010300004EBC1018A8400F023F94188A4F8181355
:101040002244818851804FF44671C08821448880B1
:1010500020786178884201D100F032F953464A463F
:1010600041462046FFF7D5FE0127761C36B2A888F8
:10107000864280F2F680A86800EBC600017800295D
:10108000F3D0B0F9021000F036F909D5B0F9041028
:1010900000F031F904D5B0F9061000F02CF9E4D4D1
:1010A0002178002939D101202070B0EE480A0020B3
:1010B000A07006992868B1F9041011FB0600606061
:1010C000002194F9020004EBC00000F0E2F804EB08
:1010D000C101498CA4F8181394F90210828804EB1A
:1010E000C1018A844FF4467200F0C4F8898C5180A3
:1010F00000F0C6F800F0BEF8C98C9180B0F902008B
:10110000BDF80010FFF742FE074600F0EAF800F0D5
:10111000DDF803464A463946A3E74FF446712144B9
:10112000B0F90620B1F90410B0F90430B0F90200AA
:10113000891A4FF446722244B2F90220D21AB4F945
:1011400018331B1A524303FB032201FB012100F059
:10115000C0F900F0E7F888D4BDF80010B0EE480AF6
:10116000FFF714FE804600F0BCF800F0AFF88246AE
:10117000E168A0684246FFF722FEB0F1010B616909
:1011800020696BEB0B0B4A46FFF719FE401E8041AE
:10119000C00F8DF803005246A169E069FFF70FFE0A
:1011A0009DF803109DF80320401E804141EADB7149
:1011B00041EAD0718DF8021002EADB729DF802104C
:1011C00002EAD07080F0010211423ED000F09EF899
:1011D000AA68002102EBC60232E094F801C050FA7E
:1011E00081F393FBFCFE0CFB1E33DBB204EBC30369
:1011F000B2F902C0B3F922E0ACEB0E0CB3F924E073
:10120000B3F9263000EE10CAB2F904C0ACEB0E0CF4
:1012100000EE90CAB8EEC00AF8EEE00AB2F906C0D5
:10122000B0EEC00A00F042F8ACEB030300F043F864
:1012300000F03CF8B4EE490AF1EE10FA8BD4491CE8
:1012400094F800C0CBB26345C7D39DF802000028D4
:101250003FF40BAF217860784A1C824200DA481CC8
:10126000D1E6384602B0DFE16666663F00007C42A8
:10127000000080BF94F9021004EBC10122447047C2
:1012800094F90210C28804EBC101CA844FF446727B
:1012900070470184A86894F9021000EBC60004EBC3
:1012A000C10142884A8494F902107047F0EEE00AC6
:1012B00030EE200A704700EE903AF8EEE00A7047F0
:1012C000BDF80010B0EE480A2046BFE58146A86888
:1012D000BDF8001000EBC600B0EE480AB0F90600F9
:1012E00054E5A868BDF8001000EBC600B0EE480A4F
:1012F000B0F904004AE500EE101AB8EEC00AB0EEEC
:10130000C00AB4EE690AF1EE10FA704794F90220AF
:1013100061782078FEF758BF00EE102AB8EEC00AB8
:10132000B0EEC00AB4EE680AF1EE10FA70472DE98B
:10133000FB4F2DED028B82B0B7EE000AD2ED020A10
:10134000019380EE200AF0EE080A4FF0000960EEEB
:10135000200AC84620EEA08AC346F6EE000A0446DC
:101360000027DA4660EE208A13E020714FF0010971
:1013700094F90600617900F0B1F8A07194F90600C3
:1013800004EB8000458100F09EF80AF101000FFA9D
:1013900080FA05988088824580F28580059880686B
:1013A00000EBCA000278002AEFD0B0F90220FFF764
:1013B000B3FF09D5B0F90420FFF7AEFF04D5B0F9AB
:1013C0000620FFF7A9FFE0D49DF8182032B9B0F944
:1013D0000250B0F90460B0F9061010E0019A012A39
:1013E00006D1B0F90250B0F90660B0F9041006E079
:1013F000022A04D1B0F90450B0F90660815E207968
:101400007F1C02000BFA81FB0BD1012020714FF0F1
:1014100001080020A0716581C14600F054F82181C7
:10142000B3E794F9062004EB8201B1F90C30B1F96D
:101430000A109B1B491B5B4301FB013100F049F87B
:10144000B4EE480AF1EE10FA9FD46179FEF7BCFEC3
:1014500000211BE000FA81F393FBF2FC02FB1C323B
:10146000D2B204EB8202B2F90C30B2F90A209B1B13
:10147000521B5B4302FB023200EE102AB8EEC00A98
:10148000B4EE480AF1EE10FADED4491C62798DF808
:1014900000200FFA81FC23799C45DBDB581C90422D
:1014A000A8BF104661E73FB2012FA8BF9BFBF7FB27
:1014B000484610EA080F18BFA4F808B002B0BDEC07
:1014C000028BBDE8FE8F94F9060004EB8000868154
:1014D000704700EE101AB8EEC00A7047401C90FB2F
:1014E000F1F201FB120070472DE9F84F99460026F2
:1014F0002DED048B04460E9F3E600D469046F0EEA7
:10150000408AC9F80060B7EE000A94F902206178B9
:101510002078B0EE608A80EE289AFEF755FE28EE1D
:10152000098AB3EE0E0A824629EE009AB3464AE0D3
:1015300061786B88D8ED000A5AFA8BF000F07EF8DB
:101540002A88418C891A828CC08CD21AAB8812B23C
:1015500009B2C01A00EE101A00B2B8EEC00A20EEAE
:10156000200AD8ED040A01F01EF920EE200ABDEE93
:10157000C00AD8ED080A00F094FD01F02CF900F043
:1015800065F800F090FDD9ED000A70EE200A30EE0B
:10159000480AB0EEC00A00F059F80146FFF799FF7B
:1015A000B4EE409AF1EE10FA48BF761C4043C9ED04
:1015B000000A00F078FDD7ED000A30EE200A87ED32
:1015C000000A0BF1010B20785FFA8BF18142AFD357
:1015D00000EE100A97ED008A00F02AF820EE280AA3
:1015E000DFED060A00F0A9F80ADB207800EE100A09
:1015F00000F01EF820EE280A08E000BF9B99593F32
:101600009FED010A02E000BF9A99593F87ED000A59
:10161000207899ED000A00EE900A20EE280A00F0EA
:1016200085F889ED000AF0B2BDEC048BBDE8F28FBD
:10163000B8EE400A88EE000A01F0C8BA90FBF1F259
:1016400001FB1200C0B204EBC0007047BDEEC00A3F
:1016500010EE100A00B270472DE9F843044699468F
:10166000164600200D462DED048BC9F800003060B1
:1016700000F0FCFCFFF733FC4FFA80F8002722E073
:10168000617958FA87F001F057FA2A8841898089F0
:10169000891A6A88801A00B209B2404311FB01001E
:1016A00000EE100AF8EEC08AB0EE680A01F08EFA79
:1016B00039EE000A86ED000A7F1C99ED000A30EE33
:1016C000280A89ED000AF9B2207996ED009A814244
:1016D000D6D300EE900A29EE090A00F027F8D9EDDA
:1016E000000A70EEC08AC9ED008A00F02BF820EEE7
:1016F000080ADFEDAB0A00F020F804DB00F022F866
:1017000020EE080A01E09FEDA70A89ED000A207982
:1017100096ED000A00EE900A20EE080A00F006F8A6
:1017200086ED000ABDEC048BBDE8F183F8EE600A9B
:1017300080EE200A7047F8EEE00AB4EE600AF1EE9F
:1017400010FA7047207900EE100AB8EE400A88EED1
:10175000800A01F03BBA2DE9F04704462DED028BDB
:10176000FFF7B9FB00250026002740B2012126E043
:101770001B8C128C9A1A12B2012A1EDB0FFA8EFEF3
:101780000EFA8CF303FA88F34FF47A7C0CFB03F324
:1017900000EE103AB8EEC00A00EE902A20EE080AD9
:1017A000F8EEE00A80EE200ABDEEC00A10EE102A24
:1017B0006D1C12B2972AA8BF761C491CC9B22278A8
:1017C000914237DA0B1894F801C05A1E92FBFCFEC6
:1017D0000CFB1E2252B293FBFCFE0CFB1E33002AB4
:1017E0005BB244BF624452B204EBC20204EBC303D7
:1017F000B2F922C0B3F922E0BEEB0C084CBFACEB4F
:101800000E0CAEEB0C0CB2F924E0B3F92480B8EB6B
:101810000E094CBFAEEB080EA8EB0E0EB2F92690E7
:10182000B3F92680B8EB090A4CBFA9EB0808A8EB6E
:1018300009089DE7F6B2EDB206EB46008542B8BF57
:101840000127BDEC028B3846BDE8F0872DE9F84F43
:101850002DED068B804608EE101AF0EE408A914678
:1018600096B0B7EE000A1421484680EE289A4FF051
:10187000000A01F089F9F0EE499A002400250026BB
:10188000D34608F1B407F968B8685A46FFF797FAE3
:1018900079695A4604193869FFF791FAB9695A46C5
:1018A0000BF1010B4519F869FFF789FA8619BBF1AD
:1018B000400FE4B2EDB2F6B2E5DB062CA4BF062D74
:1018C000062EC0F2C18197F9022079783878FEF7A8
:1018D0007BFC08EBC00101F1D6021188ADF81410B1
:1018E00005A9B2F902304B80B2F904408C80BDF8F2
:1018F0001420ADF8082002AA53809480002334E01D
:101900007D7803EB000C9CFBF5F405FB14CC5FFA2F
:101910008CF408EBC40505F1D604BDF91450B4F9F4
:1019200000E07545B8BFADF814E0B4F90250B1F964
:101930000260AE42B8BF4D80B4F90440B1F9046012
:10194000A642B8BF8C80BDF90860B645B8BFADF8F7
:1019500008E0B2F90260B542B8BF5580B2F9045050
:10196000AC42B8BF94805B1CDBB23C78A342C7DBBF
:101970009FEDB60A29EE800A002631F8160032F8EB
:101980001630C01A21F81600761C032EF5DB08F17C
:101990006804207840B9237E581E8041C00F04E0BF
:1019A0009B99D93E9A99D93E0020F0EE080ABDF9DC
:1019B000143020EE201A00EE903AF8EEE01A00F013
:1019C000C6F908F1040513D4B1F9023000EE903ADB
:1019D000B8EEE02AB4EE421AF1EE10FA08D4B1F9EA
:1019E0000430FFF768FCB4EE601AF1EE10FA15D57A
:1019F00097F902207868A96808EBC202B2F9D420EE
:101A00008218914209D2A8604FF47A7269685143F2
:101A10006431814228BF0846A86015E1002331F8EF
:101A2000136022F813605B1C032BF8DB002331F9F1
:101A300013E0BDF90860B645A8BF7646ADF808606A
:101A4000B2F904607645B8BFB6465B1C032BA2F81A
:101A500004E0ECDB93885380002631F91630BDF9A1
:101A600008B0B2F904C05B45BCBF9C455380761CEE
:101A7000032EF2DB0028B7EE021A44D0F4EE401A2F
:101A8000F1EE10FA5FBFB4EE402AF1EE10FAF4EE78
:101A9000400AF1EE10FA01D54FF0010A5846DFED89
:101AA000A12A03EE100A60EE222A00F049F918DBA1
:101AB000B2F9020003EE100A60EE012A00F040F9CC
:101AC0000FDBBBEB4C0F0CDA02EE90CAF8EEE22A09
:101AD000B7EE043A62EE832AB4EE620AF1EE10FA2F
:101AE00045D461EE811AF4EE401AF1EE10FA5EBFB1
:101AF00062EE011AF4EE401AF1EE10FA02D400F090
:101B000041FE34D5A0E0D4ED0A2A94ED0E3A72EEEF
:101B1000832A94ED123A72EE832AB0EE083AC2EEAE
:101B2000832AF4EE412AF1EE10FA58BFF0EE412A72
:101B300008D59FED7D1AF4EE412AF1EE10FAB8BFF8
:101B4000F7EE002A21EEA21AB4EE401AF1EE10FAD6
:101B50005EBF22EE221AB4EE401AF1EE10FA5EBF1A
:101B600060EEA20AF4EE400AF1EE10FA6CD4B0EE88
:101B7000680A3846FFF7EFFD002865D09DF8700031
:101B800000289FED6AAA0DF1240B40D1207E032886
:101B900018BF02283BD1002608EB860090ED210AF1
:101BA00000F0F5FF00F0D8F82BF81600761C032E95
:101BB000F2DB00F0DDF808F1900209A900F0DFFD8A
:101BC0009DED040ADFED5A0AFFF7B7FD1BD5D0B92A
:101BD000207848B1607A00EE100AB8EE400AB4EE00
:101BE000490AF1EE10FA0ED503202076B8EE480A25
:101BF000DFED500A20EE200A00F0C9FFBCEEC00A5B
:101C000085ED000A20E0062109A800F0BDFFBDF91E
:101C1000080001900BAB07A8009009AA0CA9F0EEF0
:101C2000680AB0EE4A0A3846FEF7ACFCB8EE480A3D
:101C3000DFED400A064620EE200A00F0A8FFBCEEC9
:101C4000C00A85ED000A1EB9002064E0000034429D
:101C500000F08EF80CAA09A900F091FD1E2100EEFB
:101C6000100A38784843FFF7A5F89FED331AB8EE0D
:101C7000400A00F087FD4FF0010808D49DED040AEA
:101C8000DFED2E0AFFF759FD03DB207808B14FF096
:101C900000082868C9F8000000269DED040ADDED63
:101CA0000B0A20EE290A80EE200A00F070FF00F0F7
:101CB00058F89DED070A20EE290A00F068FF00F0B1
:101CC0004BF889F8050009EB46003BF81610C18077
:101CD0000C220CA97243114401EB8601DFEDDB0AF3
:101CE00091ED000A20EE200ABDEEC00A761C10EE2F
:101CF000101A032E8181E6DBBAF1000F0AD0B1EE93
:101D00000E0A29EE800A00F042FF00F02AF8FF20B8
:101D100089F80400404616B0BDEC068BBDE8F28F92
:101D2000D8DCFFFFCDCCAC3F0100803F00003C423F
:101D3000CDCCF43F6F12833A0AD7233C01002041F7
:101D4000B8EEC33AB4EE623AF1EE10FA7047B4EE70
:101D5000611AF1EE10FA7047BDEEC00A10EE100ADB
:101D60007047BDEEC00A10EE100A89F804007047F3
:101D700004A8009008ABF0EE4A0AB0EE680A70477B
:101D80002DE9F84F2DED048B04460D4688B09246A0
:101D90001F461421284600F0F7FEB0EE408AB7EE49
:101DA000000A00F063F9C0EE088AFEF70DFA04EBB2
:101DB00080020023B2F90A10B2F90C20ADF8061027
:101DC000ADF804204FF0000E984627E094F80590F7
:101DD000BDF906B008EB000C9CFBF9F609FB16CC2C
:101DE0005FFA8CF604EB860CBCF90A90BCF90C6027
:101DF0004945B8BF4946B242B8BF3246D945B8BFD7
:101E0000ADF80690BDF904B05E45B8BFADF804600A
:101E10009B1908F10106CE445FFA86F894F804C0D5
:101E2000E045D3DB0FFA8EF090FBFCF6BDF8060020
:101E3000081ABDF804101BB293FBFCFB511A0AB23E
:101E400003B29A42B9BF02460B4603460A469FEDCB
:101E5000800A00B228EE800AF0EE080A01EE100AAD
:101E600060EE200AB8EEC11AFEF768FF09D409B285
:101E700001EE901AF8EEE11AF4EE610AF1EE10FAB2
:101E800002D50020207149E012B200EE902AB8EE8F
:101E9000E09A1BB2F6EE080A02EE103A69EE200A4A
:101EA000B8EEC22AB4EE602AF1EE10FA5FBFB4EECB
:101EB000401AF1EE10FAF4EE401AF1EE10FA2DD4B9
:101EC000401A00F0F0F8F1EE040AB0EEC00A68EE35
:101ED000A00A00F059FC21D4FFB2380006D19AEDD7
:101EE000010A00F0D7F89AED020A0CE0012F08BFB2
:101EF0009AED010A03D0022F07D19AED020A00F0F1
:101F0000C9F89AED030A00F0BEF800F0B4F89DEDB0
:101F1000020ADFED500AFFF710FC01D5002092E025
:101F2000F6EE008A29EE080A60EE289AB3EE040A5B
:101F3000F4EE409AF1EE10FA9FED479A04D4F4EED5
:101F4000499AF1EE10FA01DBF3EE0E9A36B200EE8A
:101F5000106AB8EEC00A20EE080A8DED040A0FFAE6
:101F60008BFB00EE10BA04AEB8EEC00A20EE080AF1
:101F700086ED010AC6ED029AB0EE480AB068F0603C
:101F800004A9204600F098FC8346BBF1010F56D10E
:101F90009DED040A80EE080AFFF7DEFE96ED010AC9
:101FA000ADF8000080EE080A00F06DF800F063F86C
:101FB0009DED020ADFED290AFFF7BFFBBEBF96EDDC
:101FC000020AB4EE490AF1EE10FA14DAF3EE020A4C
:101FD000FFF7B3FB5EBF69EEA80AB4EE600AF1EE4C
:101FE00010FA5FBFF0EE000A69EEA00AF4EE400AB4
:101FF000F1EE10FA01D54FF0000B47B900F030F8C0
:1020000028819AED030AFFF7A7FE688117E0012FE8
:1020100008D100F025F868819AED020AFFF79CFECE
:1020200028810CE0022F0AD1BDF800002881BDF8FC
:10203000020068819AED010AFFF78EFEE8802079A0
:10204000401E2071584608B0FFF7EEBA00007A44EF
:10205000000020429A99593F01005C420100004073
:10206000BDF80000E880BDF80200704794F9062032
:1020700061792079704702AB03AAB0EE480A69463D
:102080002046FFF7E9BABDEEC00A10EE100AADF81F
:1020900002007047BDEEC00A10EE100AADF8000055
:1020A000704710EE102A00EE100AB8EEC00A704712
:1020B0002DE9F84F2DED048BADF5986D044618A869
:1020C0000E908A468C20ADF834008C220CA9504624
:1020D00000F0D5FFBDF83400BAF90420411E514389
:1020E0000C9A04F154068A180028F26000F0288344
:1020F0000C98081803904FF47A72DFF8301A081819
:102100004FF475716518A168514304F1B407884212
:1021100024BF796888420AD20020387000F01FFB83
:10212000A06800B10120A06060600020E0604FF076
:10213000FF38387838B9B860F86038617861F8618C
:10214000B86187F8028095ED000ADAED020A80EEA8
:10215000200A00F01CFDFFF7FFFDADF82E0004F192
:1021600080090AA801909FED8B8A02A80090B0EE2A
:10217000480A4B46524604F110010CA8FEF700FC39
:10218000DFED858A9DED020A20EE280ADFED830A45
:10219000FFF7D3FA4CBF8DED020ACDED020A0622FD
:1021A000314604F1560000F0C1FF9DED020A00F037
:1021B000EEFCFFF7D1FD3080A07C401CA074C0B2C3
:1021C0000428A8BF0420A0749DF82D00022816D072
:1021D00094F91300002848BF002002D4617CFFF767
:1021E0007DF9E074217C607C4A1C8242B8BF481CA7
:1021F000207494F91300318804EB400001839DF8AA
:102200002D00C8B10398E06087F802800020387084
:102210006069401C6061002000F0A1FA60690F282D
:1022200009D3002089F80000207484F813803075E9
:102230006069401E606183E2E06820B1039900F5A7
:1022400096608142F7D3002060619DF82800012844
:10225000F1D00025B6EE009A4FF4C470684304EB49
:10226000000B99F80000022837DB0AA84019807893
:10227000012832D14FF47570EBB252460CA9584484
:10228000FFF755F801282BD19BF8D8031B2827DB33
:102290004FF47570EBB24A4605A99AED020A58440C
:1022A000FFF76EFD01281BD1BDF91A0099ED010A57
:1022B00000F06FFA89ED010ABDF91C0099ED020AE0
:1022C00000F067FA89ED020ABDF91E0099ED030AD4
:1022D00000F05FFA89ED030A02E000208BF8D803D2
:1022E0006D1C032DB8DB99F8000003289FED2C9A94
:1022F00022D1D4ED030A94ED010AF8EE600AB8EE9B
:10230000400A60EE890A00F03FFA15D5A06898B13E
:102310009DED030A0A30B8EE400A00EE900A20EE66
:10232000090AF8EE600A00F02FFA42BFB4EE600A24
:10233000F1EE10FA012000D40020317DA1B3002875
:102340001CBF307FFF2824D19DF8293052460CA9AC
:102350003846FEF7C9FD21780843207019D0387837
:102360001A2816DBA1689DF8290000291CBF6268A5
:10237000002A1CD09DED030AB8EE400A00EE902A18
:1023800000F0E6F9DFED070AFFF7D7F90FD50200F5
:102390000DD1D5E100003C420000C84200FF7F475C
:1023A0006F12833A0100C03F0028CDD0C8E1012858
:1023B0000ED19DED030AB8EE400A00EE901A00F02F
:1023C000C7F9F7EE080AFFF7B8F948BF012300D4B0
:1023D000002303999AED020A05AA2046FFF736FA70
:1023E000002100282170E1D0307D00289FEDD79A90
:1023F00000F0F98024210FA800F0C6FB00250C2175
:102400000FA86943084400EB850B05A800EB4500C5
:102410004FF47A71808900F0D7F96D1C20EE090A1B
:10242000032D8BED000AEADB01A8009002ABF0EE71
:10243000480A9AED020A04F1900204F1720100F0D8
:102440009EF900F0B9F90FAA00F097F900F08DF9A4
:102450009DED010AF7EE080A20EE200ADDED040AE0
:1024600000F092F9A2D599F8001088429ED39DED14
:10247000040AF0EE080A20EE200ADDED010A00F061
:1024800083F90CD49DED010AF1EE000AFFF755F92E
:1024900049D5307F9DF81810884280F0A480B6F9A5
:1024A0002000BDF91C10BDF91C30BDF91AC0421A3C
:1024B000009204F15402B2F92020D21A48BF5242CD
:1024C000B6F91E30B3EB0C0548BF6D42AA42A3EB30
:1024D0000C0E07DABEF1000F54BFA3EB0C00ACEBFF
:1024E000030004E0009A002A4CBF081A401AB6F90B
:1024F0002210BDF91E208B1AB1EB020C48BFCCF1A3
:10250000000C00B2844503DB002B4CBF501A881A24
:1025100000B2FFF7C8FDDAED020A20EE200AF1EE64
:10252000040AFFF70AF95ED59DED010ADDED040A04
:1025300030EE200ADDED010A80EE800A8DED010A01
:10254000002505A800EB4500B7EE000ADDED010A05
:10255000B0F9062004EB450130EE600A00EE902A47
:10256000F8EEE00A9DED011AB1F9722060EE810AE1
:1025700001EE102AB8EEC11A40EE010AFDEEE00AA3
:1025800010EE902AC2806D1C82899DED011AB1F86F
:10259000781000EE902AF8EE600A60EE810A01EEF3
:1025A000101AB8EE411A40EE010AFDEEE00A10EEF4
:1025B000901A032D8181C4DB9DF818009DED011A4E
:1025C00000EE900AF8EE600A307F60EE810A01EEBC
:1025D000100AB8EE411A40EE010ABDEEE00A10EE14
:1025E000100A8DF8180001203075142205A904F195
:1025F0006C0000F0E7FD012089F80100002605A825
:1026000000EB4600B0F9061000EE101A04EB86014C
:10261000B8EEC00A81ED210A0C217143214401EB7F
:10262000860580894FF47A7100F0CEF8761C20EE92
:10263000090A032E85ED240AE1DB0598A06084F8E1
:1026400013800020207480464FF6FF7608E094F94E
:10265000131004EB4101088308F101000FFA80F820
:102660003978607C884542DA94F91310491C91FB53
:10267000F0F200FB1210E074D9ED010A787898FBB3
:10268000F0F100FB1180C0B204EBC00030F9D61F9E
:10269000B0F90220B0F90400FEF71BFF30EE600A2B
:1026A000D9ED040A20EE200AD9ED020A00F07BF8E9
:1026B00030EE600AD9ED080A20EE200AD9ED030AAF
:1026C000BDEEC00AFFF7EDFC30EE600AD9ED0C0A52
:1026D00000F081F8DAED020A20EE200A20EE280A46
:1026E000FFF73AFB80B2B04208BF3046AFE7814205
:1026F00088BF0146217400F05FF804F1900200F0F9
:102700003CF800F032F889F800009DF81800C9285C
:10271000A4BF022089F800009DED020A20EE280ADD
:102720008DED020A00259DED020ABDEEC00A04EB04
:1027300045016D1C10EE100A042DA1F85400F2DBC7
:102740000DF5986DBDEC048BBDE8F18FBD37863576
:1027500020EE090AF8EE600A30EE600A7047287130
:1027600084F8600584F8E80670479DED041A9DED35
:10277000020AF0EE480AFEF7E6BA0DF11A013846F1
:10278000FEF7B2BE60EE810AF4EE400AF1EE10FAF6
:10279000704700EE900A20EE090AF8EEE00A00EE1B
:1027A000890A00F0F4B9BDEEC00A10EE101A00EE6E
:1027B000102AB8EEC00A704704A8009002ABF0EEF1
:1027C000480A9AED020A7047484300EE100AB8EE34
:1027D000C00A00F0DCB920EE200A12B2BDEEC00A39
:1027E00009B210EE100A524300B211FB012110FB96
:1027F000001000EE100AB8EEC00A00F0E7B90B4670
:1028000000F180013422184600F0DCBCF8B5044623
:1028100004F168060027307E002500289FEDBA0AE3
:1028200048D0A07C042845DB002004EB4001C04BCD
:10283000B1F85410C829B8BF7F1C5A184EBF514276
:1028400041F25C22891A89B201FB01F200EE902A62
:10285000F8EEE00A032830EE800A04DA2B460D4633
:102860009D4238BF1D46401C0428DEDBF1EE000A05
:1028700080EE200A00F0AAF9ADB243F69920854215
:10288000BCBFFFB2022FBEBFDFEDA00AB4EE600AEC
:10289000F1EE10FA0EDB00203076002104F1B400D6
:1028A00001704FF0FF3181700020307084F8D80340
:1028B000FFF756FFF1BD0000F8B52DED028B84B097
:1028C00004460D46B0EE408A00266F466A46B0EEDA
:1028D000480A2946204600F063F80028DFED8A8A7E
:1028E0004ED0002005EB800191ED000A07EB80013E
:1028F000D1ED000A05EB8001401C30EE200A0328D0
:1029000081ED000AEEDB002007EB800191ED000A6B
:10291000F0EEC00AF4EE680AF1EE10FA58BFF0EEDD
:10292000C08A401C0228EFDBB868DFED790A20F08E
:102930000040F4EE608A00EE100AF1EE10FA42BF99
:10294000DFED740AB4EE600AF1EE10FA01D5022E42
:1029500003DA761CF6B2052EB8DBDFED6F0AF4EE73
:10296000608AF1EE10FABEBFDFED6C0AB4EE600AC9
:10297000F1EE10FA04DA95ED020A00F009F801D53B
:10298000002000E0012004B0BDEC028BF2BD00008D
:10299000DFED630AB4EE600AF1EE10FA7047000052
:1029A0002DE9F0472DED048BA8B004468846164665
:1029B00003A8102100F0E8F8002000F0CCF817A8D8
:1029C00000F0E2F8402107A800F0DEF8B0EE408AFF
:1029D00098ED020ADFED530A103EFEF7AEFE78D402
:1029E000FFF744FBFDF7F0FB07460025E9460DF134
:1029F0000C0A09E009EB800300F0BAF80328F9DBC0
:102A0000491C032936DB6D1C2179E8B2884246D285
:102A10006179D8ED000A57FA85F000F08DF8B0F929
:102A20000A10B0F90C0000F08FF870EE608A00F028
:102A300098F8D8ED010A30EE609A28EEA80A09EE5F
:102A4000090A00F0C3F8F0EE400A9FED370AFFF7DD
:102A50009BFED8D4B7EE000A80EE200A28EEC01AFA
:102A600029EE400A33488DED001A89ED010AC9F8B4
:102A70000800002109EB810098ED021A90ED000A90
:102A80000AEB810031EE601AD0ED001A41EE001A17
:102A9000C0ED001A17AA084602EB0112AEE70021AA
:102AA0004A1C10460AE017AF07EB011717AB03EB00
:102AB0008103040157F820701F51401C0328F2DBEA
:102AC00011460329ECDB032207A917A800F066F9D9
:102AD00008B9002013E0032303AA314607A800F039
:102AE000C8F998ED020AFEEE000A20EE200AD6EDA3
:102AF000020AFFF749FE48BF86ED020A012028B00E
:102B0000BDEC048BBDE8F0870000000001606A4660
:102B10009A99993E6666663F01002040CECC0C40F3
:102B2000CECCCC3DCDCCCC3D17B7D138E093040012
:102B3000A4EDFFFF000080BF90FBF1F201FB12004B
:102B4000C0B204EB8000704700EE101AB8EEC00A65
:102B500020EE080A70470021002200230FC6402102
:102B6000704700EE100AB8EEC00A20EE080A70475F
:102B700093ED001A02EB8003401CD3ED001A40EEE7
:102B8000011AC3ED001A7047002200F057BB00B5D0
:102B90002DED010A012100A800F069FB401E01286B
:102BA00011D9002100A800F062FB60B100989DEDF2
:102BB000000A00284CBFFFEE000AF7EE000A30EED4
:102BC000200A8DED000A9DED000A01BDB5EEC00A98
:102BD000F1EE10FA02D4B1EEC00A70476FF0004C6B
:102BE00000EE10CA00F070BB70B52DED048B0546E9
:102BF0008AB095ED011AD5ED020A95ED040A21EE91
:102C0000011A00EEA01A00EE001AB5EE401AF1EE1D
:102C100010FA0C4606D128682060E8686060686990
:102C2000A060B6E0D5ED030AD5ED001A95ED050AD2
:102C300031EEA02A32EE002AF0EE082A82EE228A35
:102C400071EEC81A70EEC80A61EEA11A30EE480A99
:102C500040EEA01AF0EE008A40EE001A41EE281A6B
:102C6000B1EE080A81EE800AFFF7B0FFB0EE409A9D
:102C700000200C2200214243814205DB431C00EB73
:102C8000400643438E1904E04B1C01EB41064B43C5
:102C9000861903EBD373A6EB6303DBB205EB830367
:102CA000884293ED000A0DEB020308BF30EE480A9C
:102CB00003EB8103491C80EE090A032983ED000A16
:102CC000DADB401C0328D4DB6846D0ED060A90ED21
:102CD000082AD0ED042A90ED030A90ED071AD0EDF2
:102CE000051ADDED003A22EE823A01EEC13A61EEBC
:102CF000A01A40EE421A20EE010A23EE233A90ED8C
:102D0000012A02EEE00A01EE823AD0ED020A00EE5C
:102D1000203AB6EE000A23EE000ADFED4E0A00F07C
:102D2000A3F848BFDFED4C9A0DD4F7EE000A00F08F
:102D30009BF8A8BFDFED499A05DA00F0CBFAF0EE78
:102D4000080AC0EE209A0120B0EE690A00F0F4FAF9
:102D500069EE288AF0EE480A48EE800A9FED400AA4
:102D6000C4ED000A012039EE800A00F0E5FA28EEF1
:102D7000800A30EE080A84ED020AF0EE080A68EED6
:102D8000200A94ED001A70EEC10A30EEC00A84EDFC
:102D9000010A0AB0BDEC048B70BD00002DE9F84FAC
:102DA00004468846934640214046FFF7EDFE002743
:102DB00000E037465F454ADA002504EB071908EBC7
:102DC000071A7E1C11E009EB850100EB8500D1EDAF
:102DD000000A30EEC00AD0ED000A80EE200A0AEBAD
:102DE00085006D1C80ED000A6DB2B542E1DA9FED01
:102DF0001B0A002108EB05100AE00AEB8102D2ED64
:102E0000000A00EB8102491C92ED001A00EE810AD3
:102E1000A942F2DBAF420BD109EB8700D0ED000AEB
:102E200000F022F811D530EEC00AFFF7CFFED6E74A
:102E300000EB85019FED0B1AD1ED000AF0EEE00AE0
:102E4000F4EE410AF1EE10FABDD5002000E00120B9
:102E5000BDE8F28FFEFF7FBF920A863F00000000B0
:102E6000920A0640BD378635B4EE600AF1EE10FADC
:102E70007047FFB500261C466D461FE00CEB870E21
:102E8000DEED000A05EB870E7F1C9EED001A05EBB8
:102E9000860E00EEC10A8EED000A05EB860EB742E3
:102EA0009EED000AEADB0CEB8607D7ED000A05EB86
:102EB000860780EE200A87ED000A761CA64207DA14
:102EC00052F8267045F8267000EB061C0027E4E750
:102ED0005A1E23E000EB820303EB0713D3ED000A35
:102EE00001EB87037F1C93ED001A01EB820300EED8
:102EF000C10A83ED000A01EB8203A74293ED000AA9
:102F0000E8DB00EB021303EB8203D3ED000A01EBD5
:102F1000820380EE200A83ED000A521E52B2002A7C
:102F200006D455F8223041F82230571C7FB2E2E730
:102F3000FFBD50F8041B61B150F8042BD30744BF08
:102F4000A9F101039A180023091F42F8043BFAD1A2
:102F5000EFE7704710B5044600F005F88C20E081DB
:102F60001B48606110BD002181810161704730B54F
:102F7000027842B38A89CC89A24226D0130007D0B6
:102F8000B1F904500B695B195B1C13F1010F00D1FF
:102F90000023104C4568E418AC4238BF43600489F4
:102FA0004068001983420ED30020150007D0B1F904
:102FB00004500969521E6A438D1A18BF881A181ADC
:102FC00000B2A04201DA002030BD012030BD000077
:102FD000F05D0020E09304004B7803B97047F0B532
:102FE00043881C002FD00488A34228BF23460380B7
:102FF00000231CE0048001268468058804EBC505D5
:1030000005F8086D01EBC3065B1CB7886F80DBB267
:103010000788F58804EBC70727F8045C078835891B
:1030200004EBC70424F8025C7488141944604C78DB
:10303000A34208DA0488641C0480A6B24588AE4224
:1030400028BF2C46D6E7F0BDF8B50D4604462E68DD
:10305000002710E0A22010FB07F02844817901F03E
:103060000701032905D1811D324604F10C00FFF749
:10307000B3FF7F1CFFB228798742EBDBF1BD2DE95E
:10308000F04185890023AA4204D28A8083899B1A51
:10309000DBB200E08D8086890569B0F90470761E88
:1030A00007FB16550D60002717E045698C6815F879
:1030B000376004F83760002605EBC70808EB4608C0
:1030C00004EBC70E0EEB460EB8F80280AEF8028095
:1030D000761C032EF0DB7F1CFFB28D88AF42E4DB51
:1030E00081898A4234BF891A00218181002119E037
:1030F00045698C1815F8346005F83160002605EB39
:10310000C40C0CEB460C05EBC10707EB4607BCF8FB
:1031100002C0A7F802C0761C032EF0DB002605F8DB
:103120003460491C9942E3DBBDE8F08181423ABF3B
:103130005318984200F036B88018990707D0521EED
:1031400024BF13F8011D00F8011DF6D87047810750
:103150001CD1103A07D330B433E93210103A20E9C9
:103160003210F9D230BC1032121F24BF53F8041DA4
:1031700040F8041DF8D838BF121D521E24BF13F8A2
:10318000011D00F8011DF8D8704700BF083A07D3A9
:1031900033E90210083A40F804CD40F8041DF7D294
:1031A0000832EAE762B38B0708D0521E11F8013BE0
:1031B00000F8013B00F024808B07F6D1830740F034
:1031C000208000BF103A07D330B4B1E83810103A6D
:1031D000A0E83810F9D230BC530724BFB1E808107A
:1031E000A0E8081044BF51F8043B40F8043BD20764
:1031F00024BF31F8022B20F8022B44BF0B78037058
:103200007047083A07D3B1E80810083A40F8043B81
:1032100040F804CBF7D25307E4E78268521C82607F
:10322000426832B10268531C036011704168491E44
:103230004160704762F30F2262F31F4200B500BF86
:10324000130096469446103928BFA0E80C50FAD8CF
:103250005FEA417C28BF0CC048BF40F8042BC90777
:1032600028BF20F8022B48BF00F8012B00BD0268E0
:10327000C2F3C752FF2A06D10068400201D10120E3
:1032800070470220704703685B0016D0C2F19602B7
:10329000521A012A11DB182A04DB016801F00041EF
:1032A000016007E0012191400268491E11404A4037
:1032B000026011B14FF0FF30704700207047026884
:1032C000531C0360117070471FB500F0EBF821210B
:1032D00001601FBD10EE101A04204FF07E5C01EE5D
:1032E00090CA49004FEA510100EE101A88BF082029
:1032F000B1F17E5F13D871EEC00ADFF838C031EE4D
:10330000801A61EE200AF1EEE00A614586BF80F086
:10331000040080EE800A80EE200A00F0C9B849005F
:1033200011F1807F9CBF6FF0004100EE101A7FF614
:10333000CBAF7047F404353FDFED4A0A60EE200A58
:1033400010B5B0EEE01ADFED481AB4EE611AF1EEF6
:1033500010FA82B0044629D5F5EE400AF1EE10FAD3
:10336000ACBFB6EE001ABEEE001A70EE810AFDEE9A
:10337000E00A10EE900AA8B1FAEEC90A9FED3B1AD6
:1033800000EEC10A9FED3A1A00EEC10A9FED391A0C
:1033900000EEC10A9FED381A00EEC10A9FED371A00
:1033A00000EEC10A00F00300041921E08DED000ACF
:1033B0000098C0F3C750FF2808D088B90098400291
:1033C0000ED1002C4CD0B7EE000A13BD009840027D
:1033D00046D100F067F8212101609FED290A13BD55
:1033E0008DED000A00A800F0B5F804199DED000A63
:1033F000DFED240AB4EE600AF1EE10FA0BDBDFED2C
:10340000220AB4EE600AF1EE10FA04D5E00723D5E3
:10341000B7EE000A20E0E00760EE000A0ED59FED4F
:103420001B0A9FED1B1A00EE801ADFED1A1A41EEFF
:10343000201AB7EE000A01EEA00A0DE0DFED161A21
:103440009FED162A00EEA12ADFED151A20EE201AB4
:1034500042EE201A01EE210AA00748BFB1EE400A51
:1034600013BD000083F9223F0000004F0000C94651
:1034700000A0FD400020A23A000034330030C22EEC
:10348000FFFFFF7FFEFF7FB9000080399349B2BA8A
:1034900036A02A3DDFFFFFBE6E8C4CB94283083C4C
:1034A000A1AA2ABE014800F0CBB80000000000200D
:1034B0001AA210EE101ADFF860C0F2EC060A61459D
:1034C00009DB00EE803A70EE800A83EE200A40F0BD
:1034D000020010EE101A21F0004CDCF1665C0BD8F3
:1034E00060EE000A20EE203A03EE010A01EEA02A67
:1034F00042EE202A80EE220A400810F0020F18BF88
:10350000B1EE400A02EB8002D2ED000A30EE200A52
:1035100028BFB1EE400A7047A430893ED7B3DD3FE3
:103520006AD5033F2B94A93DB82A593F0000803F3C
:10353000000080BF00000000920A063FDB0FC93F79
:10354000920A863FDB0FC93F920A0640DB0F4940D3
:10355000368D274010B52DED028B044682B094EDD8
:10356000008A9FED2D0A28EE000AB5EE400AF1EE22
:1035700010FA8DED000AACBFF6EE000AFEEE000A6E
:1035800030EE200A8DED000A002100A8FFF76FFE43
:103590009DED000AB5EE400AF1EE10FA17D0DFED0E
:1035A0001F0A20EE200ADFED1E0A00EE608ADFED22
:1035B0001D0A00EE608ADFED1C0A00EE608ADFED76
:1035C0001B0A00EE608ADFED1A0A00EE608A84EDC5
:1035D000008ADFED180A9DED000AB4EE600AF1EEF4
:1035E00010FA06D4DFED140AB4EE600AF1EE10FA18
:1035F00005DBDFED120A00F031F88DED000A9DEDDC
:10360000000A02B0BDEEC00A10EE100ABDEC028B3B
:1036100000F0030010BD000083F9223F0000803855
:103620000000C94600A0FD400020A23A000034334B
:103630000030C22E000000CF0100004F0000004FFC
:1036400004490968002900D10349034A801A411836
:1036500008007047247B00200000002010EE100AB4
:1036600010EE901AA4464FF0FF034FEA410103EA1F
:10367000D0540A0E1CBF94EA030F92EA030F55D0F0
:10368000B1EB400F2ED24FEAC11141F0004100F0E2
:1036900000434FEA002040F000404FEA90008908C4
:1036A00064EB0204401A38BF01EB400018BF54F12C
:1036B000000407D0D1EB400038BF081818BFB4F1A0
:1036C0000104F7D140002CD0B0FA80F100FA01F0EB
:1036D000521A0EDB43EA102000EBC25000EE100A33
:1036E0006446704708BF00F0004000EE100A6446D0
:1036F000704743EA102000EE100A02F17F024FEA01
:10370000C25100EE901AF1EE100A20F4F851E1EEE9
:10371000101A20EE200AE1EE100A10EE100A64469C
:103720007047184600EE100A6446704709421CBFF5
:1037300094EA030F92EA030F1CD04FF0984201EE77
:10374000102A60EE810AB1EB400FCBD2244208BFB1
:1037500020EE010A10EE901A03EAD152A2F11902EA
:103760004FEA012191D110EE100A03EAD054A4F1DE
:1037700019048CE74FF0807212EB400F2CBF6FF0F2
:10378000004011F1807F644618BF6FF0004000EEEA
:10379000100AFFF499AD704770B5002240F6CC01D5
:1037A000DFF8380CFFF746FDDFF8344C002210211B
:1037B00004F11000FFF73EFDDFF82C5C002068618B
:1037C000A861E861DFF8246CB063F06330642862BC
:1037D0007064B0646862A862E86201202863002017
:1037E000F06430654FF0FF306863A8630020E86341
:1037F00070652864B06530667066B066F066B06269
:10380000024628213046FFF715FD42F21070308144
:10381000708100207060306002460C212046FFF766
:1038200009FDDFF8CC0B6060DFF8B00920600120F3
:1038300020720020287268646881E860F062206667
:10384000306760663086286568657067A865E865DA
:103850006866286601202867E866A8660020E86791
:10386000A8676867062070860020B086F067B0679A
:10387000DFF8DC03A8640020E86401202882962099
:1038800068820620F0860C20A0810020F0650246A8
:10389000402104F12000FFF7CDFC0022062128463C
:1038A000BDE87040FFF7C6BC10B584B0DFF8304B00
:1038B0000C22214600A8FFF785FCFFF76DFF0C22C4
:1038C00000A92046FFF77EFC1FBD00002DE9F8434C
:1038D0002DED0A8B00242546DFF80C6B96ED170AB8
:1038E000D6ED100AC6ED170ADFF8007B97ED158AB2
:1038F00086ED108A96ED0F1AB8EE411ADFEDD41A54
:10390000C1EE818AC7ED158A716BD6F82480A8EBC9
:103910000100FA30FA22B0FBF2F2FA2303FB1200A4
:1039200080B2002800F04A814C2880F27F80326B00
:10393000012A7BD0D7F85090B9F1040F20D3F4EED0
:10394000480AF1EE10FA1BD5B4EE688AF1EE10FACF
:1039500016D59FEDC01A20EE811AB4EE681AF1EE6A
:1039600010FA0DD59FEDBC1AF4EE418AF1EE10FA73
:1039700006DB87ED158AC6ED100A86ED170A2EE1E3
:1039800097ED0E9A87ED0F9AD7ED119AC7ED129A1F
:10399000024600EE102AB8EE400AD6ED070AC0EE45
:1039A000800A96ED081A81EE001A2246BA637A64FC
:1039B0001FE0491C89B2FA2900D12146DFF81C3AE0
:1039C00003EB8103D3ED0E1A71EEE01AD3F8203425
:1039D00002EE103A32EE412AD7ED0E2A41EEA12A2C
:1039E000C7ED0E2AD7ED111A42EE021AC7ED111AD1
:1039F000521C92B28242DCDBD7ED0E0A80EE80AA26
:103A000087ED0EAAD7ED110A80EE80BA87ED11BAC4
:103A1000D6ED16AA96ED140AD6ED150A70EE60BA28
:103A2000C6ED16BA00F04EFC012803D12046F885F9
:103A30003886C3E0B9F1000F0BD1F88D052802DB01
:103A400005462046F885388E052802DB45192046B4
:103A5000388619FA85F0002824D1B6EE00CA3BEE6C
:103A6000290A20EE0C0ADFED7D0AB4EE600AF1EEC1
:103A700010FA11D43AEE090A20EE0C0ADFED780AAA
:103A8000B4EE600AF1EE10FA06D4B3EE040AF4EED6
:103A900040BAF1EE10FA05D5F88D401CF885C6F84D
:103AA00038808BE0F88D002802D045192046F88533
:103AB00019FA85F0002814D1B7EE000AF4EE408A16
:103AC000F1EE10FA7AD49FED670AF4EE408AF1EE37
:103AD00010FA03DB388E401C38866FE020463886AB
:103AE00003E0388E451920463886284680B200F01B
:103AF00081FC012808D187ED158AC7ED119AC6ED22
:103B000016AA87ED0E9A59E09FED570AF4EE408A07
:103B1000F1EE10FA02DBDFF8EC0B78652046F88551
:103B2000B9F1000F08D1786DB86587ED10AAC7ED1F
:103B30001DBA00F067FB36E0B6EE00CA00F062FB8B
:103B4000012816D197ED150AF0EE000A20EE200AA2
:103B500087ED150A6AEE0C0AC7ED0E0A2BEE0C1A59
:103B600087ED111AC7ED0F0A87ED121A86ED100ABC
:103B70006D1C97ED150AD6ED100A30EE200A20EEE6
:103B80000C0A87ED160A97ED0E0AD7ED0F0A30EEF4
:103B9000200A20EE0C0A87ED100A3AEEAB0A20EE5E
:103BA0000C0A87ED1D0A97ED160A284680B200F030
:103BB0005DF800F019F80446C6F83880C6F834807D
:103BC0000020F063F0613062306302461021DFF8BC
:103BD000380BFFF72FFB1E48B0640020F06420462E
:103BE000BDEC0A8BBDE8F28338B50025DFF8FC4751
:103BF0000120E06700F09EFC2060206D618E88420D
:103C000014D3E06CE060208DA080608DE080E06DDA
:103C10006061206EA061606EE061A06E2062E06E67
:103C200060620120A0672846E0670125284632BD72
:103C3000DFF8B807C168C164002101654160816295
:103C4000C1694166416AC1660021C16770470000D1
:103C500000007A446666E63F0100404000001643DB
:103C60000000A042666616400100A0402DE9F84F12
:103C70002DED048B82B0044600239E461846DFF8E3
:103C80006C572E6D06F10F0101F00F01F21D02F0CD
:103C900007020092DFF8487707EB810282ED080AFD
:103CA000002C18D0024614E0A1F1010CACEB020C80
:103CB0000CF1100C4FEAEC080CEB18784FEA2818BE
:103CC000BCEB081C03D407EB8C0C8CED080A521CCF
:103CD00012B2A242E8DB102E02D2314609B200E055
:103CE0000F219FED9D8ADFED9C0A9FED9C1A0246F5
:103CF0001BE007EB810CDCED081AF5EE401AF1EE43
:103D000010FA10DD38EE218AF4EE610AF1EE10FAB5
:103D100001D5F0EE610AF4EE411AF1EE10FA01D588
:103D2000B0EE611A521C491E09B20029E1D512B247
:103D3000114603290BDB78EE600A70EEC10A891E7A
:103D400001EE101AB8EEC11A80EE818A07E001294F
:103D500005DB00EE902AF8EEE00A88EE208AB5EE48
:103D6000408AF1EE10FA01D0002A01D1B0EE408A6B
:103D700085ED178A9FED7A0AB4EE408AF1EE10FACB
:103D800002D5B0EE408A08E09FED760AB4EE408A94
:103D9000F1EE10FA01DBB1EE028AB0EE040AB4EEE5
:103DA000408AF1EE10FA08D495ED1C0AF0EE080AEC
:103DB000B4EE600AF1EE10FA02D50321298501E084
:103DC00004212985D5F84C8008F0070ADFF80C9605
:103DD0000AEB090C298D8CF86418002C0BD0A8F183
:103DE000010202F007024A4408F0070BCB449BF89B
:103DF00064B882F864B808220EE0BBF1040F00D169
:103E0000401CAAF1010A0FFA8AFABAF1000F01D593
:103E10000AF1080A521E12B2012A16DB0FFA8AFAB8
:103E20000AEB090B9BF964B8BBF1030F02D10EF149
:103E3000010E03E0BBF1040F00D15B1C062AE0DB9E
:103E4000BBF1030FD9D1401EDBE79BB21FFA8EFEF8
:103E5000734507D39E4502D2042068850DE000B269
:103E6000002802D50320688507E0012802DB042032
:103E7000688502E09CF96408688549B2B0EE480A9A
:103E8000384600F01BF9DFED8C0AB4EE600AF1EE63
:103E900010FA01D5B0EE600A85ED180A204600F14F
:103EA000010A00EE90AAF8EEE08AD5ED190A48EE74
:103EB000800AC5ED190A9FEDC99A20EE080A20EE86
:103EC000090A009909EB810101F6080181ED000A58
:103ED000002C16D0002212E00099491E891A0831E0
:103EE0008B1001EB5373DB10B1EBC30105D409EB6D
:103EF000810101F6080181ED000A521C12B28242D2
:103F0000EADB082E02D2304600B203E0072001E0CF
:103F1000401E00B20028FBD585ED1A0A698D49B212
:103F2000384600F043F968EE090AB7EE001AC1EE10
:103F3000200A20EE800AD5ED1B0A48EE800AC5ED66
:103F40001B0A0AEB0800E8640AEB0600286502B0C9
:103F5000BDEC048BBDE8F18F000000000000C842FA
:103F60006666A63F0100904049B2032944D1DFEDC7
:103F70009C0AB4EE600AF1EE10FA01DBB0EE600AC2
:103F80009FED981ADFED980A40EE010A90ED011AB4
:103F90009FED960AB4EE401AF1EE10FA43DADFED27
:103FA000941AB4EE611AF1EE10FA74DBB4EE401A12
:103FB000F1EE10FA6FD59FED8F0A31EE000ADFEDBA
:103FC0008E1A60EE211A9FED8D0A9FED8D2A01EE6B
:103FD000002A22EE200A20EE210A9FEDB22ADFED10
:103FE000B22A41EE022A62EEA00AB7EE001A31EEC2
:103FF000611A00EE810A56E0DFEDAC0A60EE200A9D
:1040000060EE800A9FEDAA1A40EE410A9FEDA90AD0
:1040100070EE800A90ED011A9FED740AB4EE401A1A
:10402000F1EE10FA0ADB90ED010A9FED741ADFED54
:10403000741A40EE011A21EEA00A34E0DFED6C1A8A
:10404000B4EE611AF1EE10FA25DBB4EE401AF1EE8F
:1040500010FA20D59FED670A31EE000ADFED661AEF
:1040600060EE211A9FED650A9FED652A01EE002A98
:1040700022EE200A20EE210A9FED8A2ADFED8A2A0D
:1040800041EE022A62EEA00AB7EE001A31EE611A82
:1040900000EE810A07E090ED010A20EE800ADFEDD4
:1040A000860A20EE200A007A022803D1DFEDC40A36
:1040B00020EE200A70470000CDCC4C3E10B52DED0F
:1040C000028BB0EE408A0C46DFED7C8A49B2FFF7E6
:1040D0004BFF64B2042C31D1DFED790AB4EE608A73
:1040E000F1EE10FA16DBB1EE021AB4EE418AF1EEEF
:1040F00010FA0FD5DFEDB30A78EE200AB1EE041AFC
:1041000060EE810AFCEEE00A10EE900AC01D08EE97
:10411000900A3DE0B4EE608AF1EE10FA03D5072074
:1041200008EE900A34E0F1EE020AB4EE608AF1EE95
:1041300010FA2DDB122008EE900A29E0F7EE080AAB
:10414000B4EE608AF1EE10FA11DBDFED9F0AB4EEF7
:10415000608AF1EE10FA0AD5FFEE080A78EE200A1E
:10416000B1EE041A60EE810AFCEEE08A10E0F7EE90
:10417000080AB4EE608AF1EE10FA09D4DFED920A73
:10418000B4EE608AF1EE10FA02DB062008EE900A27
:10419000DFF86C0D18EE901A00EB8100D0ED000AEC
:1041A00020EE200ABDEC028B10BD0000F0EE0C0AE0
:1041B00049B2042904D19FED851A40EE010A03E0BB
:1041C0009FED831A40EE010A9FEDD80A20EE800A87
:1041D000D0ED000A20EE200A704700000000704277
:1041E0009A9919406ADEF13D8638163F00002A434D
:1041F00000001643000016C3CDCC4C3D4260E53AAA
:104200006666263F0020794991ED150AF7EE040A0B
:10421000B4EE600AF1EE10FA43DA8A8D042A40DA2D
:10422000D1ED160A9FED6B1A60EE810AB4EE600ABA
:10423000F1EE10FA03D5022A01DB012011E06849F2
:1042400091ED070ADFED640AB4EE600AF1EE10FAB0
:1042500007DBDFED640AB4EE600AF1EE10FA00D578
:10426000012001281DD1604991ED120AD1ED130AF8
:1042700070EEC00A9FEDAE1AF4EE410AF1EE10FAAC
:1042800007DBF7EE080AB4EE600AF1EE10FA00D58B
:104290000020DFEDB50AB4EE600AF1EE10FA00D5A9
:1042A0000020704752491D3BB81E053F2575C23E90
:1042B0007593E83F24975340C1C0C03B0000000005
:1042C000666606400021494A538D032B1BDA92EDA6
:1042D000150ADFEDA60AB4EE600AF1EE10FA12DB61
:1042E00092ED0E0AF2EE040AB4EE600AF1EE10FA54
:1042F00009D592ED110ADFED9E0AB4EE600AF1EEE7
:1043000010FA00D5012192ED110AF6EE000A92EDA5
:10431000121A30EE011A21EE201AF3EE0E1AB4EE44
:10432000611AF1EE10FA1CD492ED0E1AD2ED0F1AAA
:1043300071EE211A61EEA01AB2EE042AF4EE421ACE
:10434000F1EE10FA0DD4F3EE041AB4EE610AF1EEB8
:1043500010FA06D4B1EE040AB4EE401AF1EE10FAE7
:1043600000D5012192ED150A9FED821AB4EE410AA3
:10437000F1EE10FA22DB1A4A92ED060A92ED071AC4
:1043800080EE010A9FEDA61AB4EE410AF1EE10FA92
:1043900014DB00EE100AB8EE400A20EE200AD2ED3F
:1043A000040AF4EE400AF1EE10FA07D5D2ED050A40
:1043B000F4EE400AF1EE10FA00D5012108467047EC
:1043C0003333733F666606C09A993940CDCC4C3E74
:1043D000CDCCCC3D3333333F010020428C4600200E
:1043E000B41C00200000C84288770020341C002044
:1043F00000002F430021DFF8142C136D13FA80F016
:10440000022816D392ED150ADFED860AB4EE600A93
:10441000F1EE10FA0DDB92ED120AD2ED110A80EEE8
:10442000200ADFED810AB4EE600AF1EE10FA00DB3B
:104430000121022818D39FEDAB0AD2ED120A92EDAA
:10444000111AC0EE810AF4EE400AF1EE10FA0BDB0D
:10445000D2ED0F0A92ED0E1AC0EE810AF4EE400A78
:10446000F1EE10FA00DB012100280FD092ED1D0AB9
:10447000DFED9D0A20EE200ADFF8980BD0ED160A3A
:10448000F4EE400AF1EE10FA00D5012192ED150A82
:10449000DFED960AB4EE600AF1EE10FA08DA92ED5A
:1044A000160ADFED930AB4EE600AF1EE10FA18DB9B
:1044B00092ED110ADFED8F0AB4EE600AF1EE10FA08
:1044C0000BD492ED0E0ADFED8C0AB4EE600AF1EE29
:1044D00010FA02D4908D022803DB508D032800DBF4
:1044E000012192ED100ADFED830AB4EE600AF1EECD
:1044F00010FA08D492ED1C0AF1EE040AB4EE600A38
:10450000F1EE10FA10D5DFF80C0B026E406E801839
:1045100000EE100ABAEEEF0ADFED780AB4EE600A98
:10452000F1EE10FA00DB0121084670470AD7A33BE1
:104530000100C03F0020DFF8D41ACA6C12F10A0F44
:104540000FD29FED6F0AD1ED190AF4EE400AF1EE99
:1045500010FA06DAD1ED1B0AF4EE400AF1EE10FA79
:1045600000DB01207047000085EB113F0100004097
:10457000000020420100404010B401460020DFF856
:10458000942ADFF8943AD3F8C04800EE104AD1EDEF
:10459000000AB4EE600AF1EE10FA08D11478641C37
:1045A0001470E4B2FE2C04DB3224147001E00446E3
:1045B000147003F50C6393ED010AD1ED010AB4EE1A
:1045C000600AF1EE10FA08D15478641C5470E4B219
:1045D000FE2C04DB3224547001E00446547093ED49
:1045E000020AD1ED020AB4EE600AF1EE10FA08D127
:1045F0009178491C9170C9B2FE2904DB3221917077
:1046000001E0014691701178322905DA517832299A
:1046100002DA9178322900DB012010BC70470000DB
:104620003433333F010060400100A04001460020C8
:1046300091ED000AB5EE400AF1EE10FA01DCB1EEA0
:10464000400ADFF8D029DFED310AB4EE600AF1EE5E
:1046500010FA08DBD3785B1CD370DBB2FE2B04DBD3
:104660003223D37001E00346D37091ED010AB5EE19
:10467000400AF1EE10FA01DCB1EE400AB4EE600A35
:10468000F1EE10FA08DB13795B1C1371DBB2FE2B21
:1046900004DB3223137101E00346137191ED020A2A
:1046A000B5EE400AF1EE10FA01DCB1EE400AB4EECC
:1046B000600AF1EE10FA08DB5179491C5171C9B258
:1046C000FE2904DB3221517101E001465171D1789C
:1046D000322905DA1179322902DA5179322900DBDF
:1046E00001207047010070419A99993E0100904065
:1046F000010080400000C8430000164301005C42F6
:104700008096184B0000A040C41C002035336B413C
:104710002DE9F24F82B00446DFF8F058E888ADF892
:104720000200A888ADF80000002637462046FFF7B3
:1047300023FF01902046FFF779FF8246DFF8D488F7
:104740003046C8F85000C8F85400D8F86800DFF8C0
:10475000C898D9F8C01800EE101AD4ED000A30EE4F
:10476000C01A01EE900AF8EEE11A21EE211AB5EE18
:10477000401AF1EE10FA1BD598ED1D1A70EE411A91
:10478000F5EE401AF1EE10FA01DC71EE401A9FEDE1
:104790006D1AF4EE411AF1EE10FA04DBD8F860104D
:1047A000491CC8F8601088ED1D0A4042C8F868002E
:1047B00009F50C6090ED010AD8F86C1094ED011A1F
:1047C00031EE401A01EE901AF8EEE11A21EE211AAC
:1047D000B5EE401AF1EE10FA1BD598ED1E1A70EEE8
:1047E000411AF5EE401AF1EE10FA01DC71EE401AB2
:1047F0009FED541AF4EE411AF1EE10FA04DBD8F8EA
:104800006020521CC8F8602088ED1E0A4942C8F892
:104810006C1090ED020AD8F8700094ED021A31EE97
:10482000401A01EE900AF8EEE11A21EE211AB5EED7
:10483000401AF1EE10FA1BD598ED1F1A70EE411ACE
:10484000F5EE401AF1EE10FA01DC71EE401A9FED20
:104850003D1AF4EE411AF1EE10FA04DBD8F86010BC
:10486000491CC8F8601088ED1F0A4042C8F8700063
:1048700098F80800052809D10120C8F83000304612
:1048800088F80800A8F80A00A8F80C00D8F83C003E
:1048900002990818C8F83C00D8F82400D8F8341059
:1048A000884202D10120C8F83000D8F8280000EB77
:1048B000400109EB810B0BF66C00C0ED000A61684A
:1048C0004160A16881600299204600F071F9019869
:1048D000012802D0BAF1010F36D19FEDB40ADBF8FE
:1048E0006C0800EE900A60EEA00ADBF8700801EE9A
:1048F000100A21EE011ADBF8740801EE900A61EE4D
:10490000A11A98F80000322805DA98F80300322836
:1049100001DA30EE800A98F80100322805DA98F8BA
:104920000400322801DA30EE010A98F80200322839
:1049300005DA98F80500322801DA30EE210A00F095
:1049400075FB13E0CECC4C3E0BF66C00D0ED020AAA
:1049500090ED011ADBF86C0800EE100A20EE000A58
:1049600001EE010A00EEA00A00F060FBD8F82C006E
:10497000002810D1304604E009EB810181ED000AE6
:10498000401C80B201460729F6DBF1EE0C0A60EE0E
:10499000200AC8ED050AD8F8280009EB8000D0ED00
:1049A000000A70EE600A98ED051A70EE810AC8EDF3
:1049B000050AD8F8280009EB800080ED000AD8F835
:1049C000240009EB8000C0ED0E0A98ED070A30EED6
:1049D000200A88ED070AD8F8281009EB810191ED2B
:1049E000070A30EEC00A00F2204282ED000AC1ED53
:1049F000070A98ED080AD0F8201400EE901A30EE5D
:104A0000200A88ED080A09F50C6194EC030A81EC90
:104A1000030AD8F84410491CC8F8441098F8082034
:104A2000012A01D0032A3AD102292BD26A8D042A05
:104A300028DA296D002965D198ED060ADFEDBF0A55
:104A4000B4EE600AF1EE10FA08D5D0F8201401EEA9
:104A5000101AB4EE601AF1EE10FA0FDAF9EE0C0A41
:104A6000B4EE600AF1EE10FA4CDBD0F8200400EE50
:104A7000100AB4EE600AF1EE10FA43D50120C8F82E
:104A800030003FE027290AD3B8F80A20002A03D0D3
:104A900011FA82F14B2902D30121C8F83010D0F865
:104AA000200400EE900A98ED060A00F049F998F803
:104AB0000800012826D1B8F80A00002822D0B8F84A
:104AC0000C1000291ED0032211FA80F03D2802DBD1
:104AD0000120C8F83000688D042800DB0222A88D70
:104AE000824202D20120C8F83000FEF7EFFE0646EF
:104AF000D8F86000C8F864003846C8F86000A8F824
:104B00000C00A885D8F82400D8F83810401AFA30DC
:104B1000FA242146B0FBF1F104FB1100B8F81210A1
:104B2000884201D100F0FBF9D8F82400D8F83810F9
:104B3000401AFA302146B0FBF1F104FB1100642861
:104B400001D100F016FABDF80200E988884204D1CC
:104B5000BDF80000A988884200D00127D8F82400B9
:104B600009EB8001D1F82014C8F81810401CC8F8CF
:104B70002400FA2802D10020C8F82400D8F8280020
:104B8000401CC8F82800072802D10020C8F82800D7
:104B9000D8F82C00401CC8F82C0046EA0700401E3C
:104BA0008041C043C00FBDE8FE8F00000000000040
:104BB00030B4DFF8643490ED000AD3F8C02800EE7A
:104BC000902A30EE600A03F50C62D0ED010A92EDF6
:104BD000011A70EEC10A90ED021AD2ED021A31EEFE
:104BE000611AB5EE400AF1EE10FA02DDF0EE401A5D
:104BF00001E0F1EE401AF5EE400AF1EE10FA02DDA6
:104C0000B0EE602A01E0B1EE602AB5EE401AF1EE96
:104C100010FA02DDF0EE412A01E0F1EE412A71EED8
:104C2000821A71EEA21AB5EE400AF1EE10FA01DC1A
:104C3000B1EE400ADFF8E40390ED042A32EE000AF8
:104C400080ED040AF5EE400AF1EE10FA01DCF1EE17
:104C5000600A90ED050A30EE200A80ED050AB5EEF7
:104C6000401AF1EE10FA01DCB1EE411A90ED060A9D
:104C700030EE010A80ED060A90ED070A30EE210AB7
:104C800080ED070ADFF88C23D46A002C12D10024AF
:104C900006E003EB850505F62805C5ED001A641C42
:104CA000A4B225460F2DF4DBB2EE0E0A21EE800AE7
:104CB00080ED180AD48903EB8403D3F8285800EE5A
:104CC000105A31EEC00AD0ED180A30EE200A80EDFD
:104CD000180A03F62803C3ED001AF2EE0E0A80EE5E
:104CE000200ADFF8283383ED1C0AD2ED120AB4EE55
:104CF000600AF1EE10FA01D582ED120AD2ED130A24
:104D0000F4EE400AF1EE10FA01D582ED130ADFED60
:104D1000AB0AB4EE600AF1EE10FA03D5436EC9187F
:104D2000416601E000214166611CD18189B20F29F1
:104D300001D10021D181406E30BC70470100E040BC
:104D40009FED9F1AB148418D042901DBB0EE001A96
:104D5000B5EE400AF1EE10FA07DBF5EE400AF1EE8F
:104D600010FA02D5818D491C8185AA48017A002953
:104D700005D002295CD02BD3032972D0ACE0F1EE30
:104D80000C1A31EE211AB4EE401AF1EE10FA0BDBD8
:104D9000B4EE601AF1EE10FA06D5416C1029C0F09D
:104DA0008B800021416487E0416A9B4A02EB8101CC
:104DB000D1F8201401EE901A994991ED010AF4EE10
:104DC000401AF1EE10FA40F18780C1ED011A83E03C
:104DD000416A914A02EB8101D1F8201401EE901A48
:104DE0008F4991ED002AB4EE612AF1EE10FA01D557
:104DF000C1ED001AF7EE001AB4EE610AF1EE10FAF6
:104E00006ADBB7EE000AF4EE400AF1EE10FA63D561
:104E1000416C418100214164B9EE0C0A30EE410A37
:104E2000F4EE400AF1EE10FA10D40221017253E0C0
:104E3000F9EE0C1A31EEC11AB4EE410AF1EE10FA95
:104E40004ADBF4EE410AF1EE10FA45D50321017276
:104E50007149426A01EB8201D1F82014704A516015
:104E60003AE0416A6C4A02EB8101D1F8201401EE6C
:104E7000901A6B4991ED012AF4EE421AF1EE10FA04
:104E800001D5C1ED011ADFED621AB4EE610AF1EE4F
:104E900010FA21D5F4EE610AF1EE10FA1CDB416C38
:104EA000818100214164B1EE0C0A31EE000AB4EEBA
:104EB000600AF1EE10FA0ED50121017258490A6814
:104EC00002654A684265544A436A02EB8302D2F89B
:104ED00020240A6000E00172007A7047002803D0A5
:104EE0004A492822FEF76EB9704710B5494C002098
:104EF000E06200F03EF800F012F80520207210BDCC
:104F0000801D0020002806D0444942684A6002689B
:104F10000A60007A087270474048406E704710B5CA
:104F20003A4C0020206520626061A0802085E085E9
:104F30002086A065E065024640213A48FEF77AF9EE
:104F4000E06F012801D1FEF773FEA08E002808D083
:104F5000E18E814201D2608600E061860020A08659
:104F6000A067A06F012801D1E08E60860020A067B5
:104F700010BD10B5254C0020206260616085E08086
:104F8000024608212848FEF755F90020E0852086D2
:104F9000E06F012801D1FEF74BFEA06F012801D17F
:104FA000E08E608610BD19490A6D4B8E9A4203D27D
:104FB000488600208867704788867047EC51383EE5
:104FC0000000000038B50446124D14480F49012C6A
:104FD00006D10622CA860C22828196226A8205E0C8
:104FE0000722CA860F22828164226A822A8AA2420A
:104FF00009D04A8E082A03DAC88EFFF7D4FF02E0F0
:105000008089FFF7D0FF2C8231BD0000341C0020C6
:10501000FEFF7FBF887700208C460020B41C002054
:10502000CC7A0020D41C0020F04E002081B08DED01
:10503000000A0098401000F1FE500090DDED000ADB
:10504000C0EE200A9DED001A70EE810ACDED000A37
:10505000B5EE001ADDED001A80EE210A00EE810A9D
:1050600001B070477CB506460C4615460020ADF8E9
:1050700006008DF804000120009001AB3246722139
:10508000082001F0C6FC002801D1002076BD8DF873
:1050900006609DF80400A04328438DF804009DF8A5
:1050A00004008DF8070002230DF10602722108208A
:1050B00001F053FC002801D1002076BD012076BD0F
:1050C00038B50020ADF8000082208DF80000DFF830
:1050D0008C5D00AC28796070022300AA7221082040
:1050E00001F03BFC002801D1002032BD8E208DF85C
:1050F000000028786070022300AA7221082001F0C5
:105100002CFC002801D1002032BD8F208DF800003A
:1051100068786070022300AA7221082001F01DFC4B
:10512000002801D1002032BD80221146AB20FFF7BC
:1051300099FF80208DF8000007206070022300AAEC
:105140007221082001F009FC002801D1002032BDA5
:10515000DD208DF8000020206070022300AA72215B
:10516000082001F0FAFB002801D1002032BD012007
:1051700032BD10B5DFF8404D8B202070902060705C
:105180000420A0703020E07038210FF2140001F0EC
:1051900090FE38202071002060711120A07110BD98
:1051A000233E7054696D65203D2025640A0000008F
:1051B00030B583B00020044601900A2001F0E8FCDD
:1051C000FFF7D7FF00E0641C032C14D2DFF88C0C2F
:1051D0002118097E8DF806102018007F8DF8070031
:1051E00002230DF106027221082001F0B6FB00280F
:1051F000E9D100203EBD012000900DF10503E6221B
:105200007221082001F005FC002801D100203EBDDC
:105210000120009001ABE7227221082001F0F9FB88
:10522000002801D100203EBD9DF804209DF8051006
:105230000FF2AC0001F03DFEDFF8200C41788A0946
:1052400001F01F010078830900F03F0001249DF860
:10525000055004FA03F36B43401C584304FA02F26E
:105260005043491C48439DF80410002904D0DFF83E
:10527000501D90FBF1F003E04FF44C6190FBF1F016
:105280003230012803DB00218DF8041003E0404296
:1052900021468DF80410C0218DF806100DF106048A
:1052A000607002230DF106027221082001F055FB07
:1052B000002801D100203EBDC1208DF806009DF8D8
:1052C0000400607002230DF106027221082001F033
:1052D00044FB002801D100203EBD01203EBD00005E
:1052E000233E205452494D2025642025642000008F
:1052F00010B5DFF8C44BE37CA27C217B0FF22800C1
:1053000001F0D7FD207BA17C0843E17C08434FF4EA
:10531000805103D0002001F047FC02E0002001F0A2
:1053200045FC012010BD0000233E506F77657220C0
:1053300050726F782564204D6F6265616D25642021
:1053400052656D636F6E25640000000038B5002261
:10535000ADF80020DFF8604B228C002902D010430A
:10536000208402E022EA00002084208C002805D05E
:1053700002284BD01FD3032848D01AE0DD208DF837
:10538000000000AD00206870022300AA72210520F1
:1053900001F0E3FA00284DD080208DF800000120B4
:1053A0006870022300AA7221052001F0D6FA0028B5
:1053B00040D0012032BD81208DF8000000ADA079E1
:1053C0006870022300AA7221052001F0C6FA0028A5
:1053D00030D068786072DD208DF8000000206870A1
:1053E000022300AA7221052001F0B7FA002821D07B
:1053F00080208DF8000003206870022300AA72212B
:10540000052001F0AAFA0028D3D113E081208DF8FD
:10541000000000ADA0796870022300AA7221052067
:1054200001F09BFA002805D068786072FFF748FE0B
:105430000028BED1002032BD1CB5044600208DF8E6
:105440000400ADF806000120009001AB9322722108
:10545000082001F0DEFA002801D1002016BD9320BB
:105460008DF806009DF8040020438DF80700022304
:105470000DF106027221082001F06FFA002801D117
:10548000002016BD012016BD30B583B00FF2A40078
:1054900001F00FFD0020ADF804000546DFF80C4DCB
:1054A0006078002802D128463EBD6D1C032D11D224
:1054B000281900798DF804002819007A8DF8050064
:1054C000022301AA7221082001F047FA0028ECD13A
:1054D00000203EBDDFF8E0590120009005F11103E6
:1054E00091227221082001F094FA002801D10020B5
:1054F0003EBD01200090234692227221082001F037
:1055000088FA002801D100203EBD2278697C0FF284
:10551000340001F0CEFC01F074FF02F0A3FD8C21F9
:1055200080F8611002F09EFD5A2180F8621001207F
:105530003EBD0000233E50726F78692070726F622A
:1055400065000000233E50726F7820636869702008
:105550007265762030782578206465765F696420EE
:10556000307825780000000038B5DFF8F048617C1D
:105570000FF2D00001F09DFC0020ADF80000A07CEF
:10558000002807D0012020750FF2CC0001F091FC1B
:10559000012032BDDFF8040D416F497A006A407A7C
:1055A0004018012808DB207D002805D10FF2C80033
:1055B00001F07FFC012032BD8C208DF8000000AD91
:1055C000E0786870022300AA7221082001F0C5F972
:1055D000002801D1002032BD01202073FFF788FE92
:1055E0000120607588208DF80000FF20687002237C
:1055F00000AA7221082001F0B0F9002801D1002092
:1056000032BD8A208DF8000000206870022300AAB5
:105610007221082001F0A1F9002801D1002032BD3B
:1056200001210220FFF792FE002801D1002032BDA7
:105630002020FFF701FF002801D1002032BD01200A
:1056400032BD0000233E50726F78206F70656E206F
:105650003078257800000000233E616C7265647923
:10566000206D6F6265616D206F6E20696E207072B3
:105670006F78206F70656E00233E20736B697070C9
:1056800065642070726F20616C726561647920704E
:10569000726F7869206F6E001CB50FF2C00001F0C8
:1056A00008FC00208DF80400DFF8B047207D0128B9
:1056B00007D10FF2B80001F0FCFB0020207501209B
:1056C00016BDDFF8EC0C016A002906D108210FF2A3
:1056D000B80001F0EEFB002016BD406F002806D197
:1056E0001D210FF2A40001F0E4FB002016BD407A5A
:1056F00000281DD0487A00281AD001210020FFF789
:1057000025FE002801D1002016BD0120009001AB2C
:1057100080227221082001F07CF9002801D10020AC
:1057200016BD9DF804100FF2780001F0C2FB0BE0EB
:105730000020207301460220FFF708FE002801D157
:10574000002016BDFFF7D4FD2020FFF775FE0028CE
:1057500001D1002016BD012016BD0000233E50726D
:105760006F7820636C6F736500000000233E7072D9
:105770006F78206261636B757020696E2070726F44
:105780007820636C6F736500233E73656E736F7270
:105790002028256429202A206973206E756C6C00EE
:1057A000233E2626656E61626C6520307825780080
:1057B000012070471CB504460020ADF8040002200B
:1057C000009001ABC0227221052001F022F90028CF
:1057D00001D1002016BD0120009001AB9C22722156
:1057E000082001F016F9002801D1002016BD9DF80F
:1057F00004002070012016BD30B583B000A8002140
:105800000A4606C002F02EFC044601F00EF890F89D
:105810001801012803D194F86200FF2402E000205F
:1058200094F8614088218DF8001000AD6870022363
:1058300000AA7221082001F090F8002805D10FF687
:10584000883001F036FB00203EBD8A208DF8000034
:105850006C70022300AA7221082001F07EF8002853
:1058600005D10FF6743001F024FB00203EBD0FF689
:10587000783001F01EFB3EBD2DE9FC41044602F0EC
:10588000F1FB054600F0D1FF06460020ADF804000C
:105890000120009001AB9C227221082001F0B9F890
:1058A000002801D100207AE09DF8047039460FF6F7
:1058B000503001F0FEFA9DF804006070DFF8F48AC1
:1058C000002088F80B0098F8150001281FD195F8E2
:1058D0006100B8420ADA01202070207886F81801A9
:1058E00039460FF6283001F0E4FA09E00020207074
:1058F000207886F8180139460FF6303001F0D9FAD1
:10590000012088F80B00002088F8150034E096F894
:105910001801002811D195F8610087420DDB0120A4
:105920002070207886F81801012088F80B0039468D
:105930000FF6143001F0BDFA1EE096F818010128A8
:1059400012D105F161004078B8420DDB00202070D3
:10595000207886F81801012088F80B0039460FF6E8
:10596000003001F0A6FA07E039460FF60C3001F0DE
:10597000A0FA002088F80B00FFF73EFFFB20FFF79E
:105980005BFD002801D1002009E005F161004278AB
:1059900095F861100FF6F82001F08BFA0120BDE8B0
:1059A000F681F0B583B004460D460020ADF8040042
:1059B000DFF8006AB073307202F054FB0746012032
:1059C000009001AB93227221082001F022F80028F8
:1059D00017D0012000900DF10503DC227221082070
:1059E00001F017F800280CD09DF805209DF8041050
:1059F0000FF6AC2001F05DFAFB20FFF71DFD00283B
:105A000001D10020FEBD2078082821D16078FF2830
:105A10001ED12946601CFFF7CDFE94F9012097F8AE
:105A20006100824207DB0120207021780FF6A4205C
:105A300001F03FFA0AE097F86200904206DB00208E
:105A4000207021780FF68C2001F033FA0120FEBD82
:105A5000002030749DF80400800615D50120B07335
:105A600029462046FFF708FF00280DD0307B00288C
:105A70000AD0F07A002807D00FF66C2001F019FA4E
:105A80000020F07201203074307CFEBD70B50546F8
:105A900002F0E8FA0446287884F8610004F161060F
:105AA0006878707094F86100002802D0707800283F
:105AB00008D10FF63C2001F0FCF98C2084F861003D
:105AC0005A207070727894F861100FF62C2001F053
:105AD000F0F9012070BD1CB504460020ADF80400AB
