:10000000000C0020016C0308559400086994000856
:100010007D94000891940008A59400080000000059
:10002000000000000000000000000000B99400087B
:10003000CD94000800000000915A000837760108AE
:10004000616D0308656D0308696D0308D1A400089C
:100050006D6D0308E5A600085D9C0008399E000848
:10006000539F000841A00008716D0308756D0308D7
:10007000796D03087D6D0308816D0308856D0308A4
:1000800029A1000845A20008896D03088D6D0308A9
:10009000916D0308956D0308996D0308A1A30008ED
:1000A0009D6D0308A16D0308A56D0308A96D0308E4
:1000B000AD6D0308B16D0308B56D0308B96D030894
:1000C000BD6D0308C16D0308C56D0308E594000804
:1000D000C96D0308CD6D0308D16D0308D56D030804
:1000E00015A30008F9A50008D96D0308DD6D030804
:1000F000E16D0308E56D0308E96D0308ED6D030884
:10010000F16D0308F56D0308F96D0308FD6D030833
:10011000016E0308056E0308096E03080D6E0308DF
:10012000116E0308156E0308196E03081D6E03088F
:10013000216E0308256E0308296E03082D6E03083F
:10014000316E0308356E0308396E03083D6E0308EF
:10015000416E0308456E0308496E03084D6E03089F
:10016000516E0308556E0308596E03085D6E03084F
:10017000616E0308656E0308696E03086D6E0308FF
:10018000716E0308756E0308DFF81C0D0078704768
:100190002DE9F04397B002F013FE0446DFF80C0D92
:1001A000856BDFF80C6D376813E098F81910D8F8F4
:1001B0001000D8F804208018D7F8A820526990477A
:1001C000002802D0384602F02DFF384600F057F8DC
:1001D0003F68B7423CD097F908000728F8D00B28B1
:1001E00007DB182805D00E2803D00F2801D01028CF
:1001F000EED10628ECD007F10808D8F860000028F6
:1002000004D5D4F880100818C8F860004FF0FF310A
:100210003846D7F8AC20926990478146B9F1010F72
:1002200005D198F86400D7F8A81009698847B9F192
:10023000020FCAD197F908000128B6D1687A0028C0
:10024000B3D0A87F0128B0D1384602F0EBFEBCE75E
:10025000D4E91C01002901D100280CD00A208DF816
:10026000020002208DF80000D4F88000ADF858009C
:1002700000A803F04FFD012017B0BDE8F0832DE981
:10028000F0418EB0044601A8342103F0A1FE002104
:100290002046D4F8AC2092699047022846D104F158
:1002A0000C050120A87494F89F0000283ED0DFF8C8
:1002B000046C4CF250303168471A00200090204600
:1002C00000F092F80090012204F1080101A803F067
:1002D00082FE6A7DE868E16841180DF1050003F0CF
:1002E0007AFE042200A9687D01ABC018401C03F00F
:1002F00072FEDFF8C48B30684044697D491D8F422F
:100300000CD23A4601A903F066FE687D401DC21B6F
:1003100001A83918404603F05EFE04E0A97D4A1C9E
:1003200001A903F058FE204600F0EEF80121204616
:10033000D4F8AC2092699047022802D1204602F0FE
:1003400083FF0EB0BDE8F08130B585B004460D46A0
:10035000CA208DF800002888ADF801000220ADF811
:100360000300BDF80100001D03F03CFECDF80900BC
:1003700002220DF1030103F02EFE02222946DDF8D0
:100380000900801C03F027FE2A882146DDF80900B9
:10039000001D03F020FE0020288000A9DFF81C0BC0
:1003A00003F048FE05B030BD42F23411081A32287D
:1003B00001DA012070470020704780B503F075FE18
:1003C000407B002804D002F007FDDFF8F41A086033
:1003D00001BD80B502F000FDDFF8E81A086001BD3C
:1003E000DFF8E00A0068704710B582B000F10C0336
:1003F000D96A89680091042200A95C7DDB68C06825
:100400001818201803F0E7FD009816BD30B41488C2
:10041000651C1580052565541488651C158063547A
:1004200013885C1C1480007A585430BC704732B575
:1004300015461C4621884A1C228037224A552188AD
:100440004A1C2280007A4855022200A920884019BF
:1004500003F0C1FD2088801C208031BD2DE9F041D2
:10046000054616461F4605F10808069CA4B298F8F2
:100470001A0004FB00F2D8F8040009183888801923
:1004800003F0A9FD388898F81A10614311FA80F03A
:1004900038803888FFF788FF002803D03946304677
:1004A000FFF752FF95F9080016280AD1D8F8100076
:1004B000D8F80410415C0FF21000BDE8F04103F0E1
:1004C00078BEBDE8F08100002323205368616B658E
:1004D0002025640030B400F110039B7C914203D1CD
:1004E000006990FBF3F00DE00C46154603D2281B83
:1004F00090FBF3F006E00069001B90FBF3F095FB26
:10050000F3F1081830BC7047F8B5044603F0CDFD90
:1005100004F110018A7C134694F89F50002D1BD0E3
:100520005B1CDFF8904925684CF25036771B9F42E0
:1005300005D2DFF894399A185219226001E05A194D
:1005400022602268B24201D100222260807B002812
:100550000CD100208873F1BD886818188860226962
:10056000904201D10020886000208873F1BD70B5F1
:1005700082B004460D461E4692B289B2FFF7AAFF2A
:1005800080B20090069B324629462046FFF766FF60
:1005900073BDF8B5044615461E462269002D00D1EC
:1005A0001546069F0097FFF7E2FF2069854206DAAD
:1005B000009733462A4600212046FFF7D8FFF1BDB9
:1005C0002DE9F04184B004460F469046A169606968
:1005D000002817D500250A4692B289B22046FFF7B7
:1005E00079FF064643463A46314689B22046FFF730
:1005F0001EFFA269CDF800803B4611462046FFF75A
:10060000C8FF36E0814218DA01250A4692B2014657
:1006100089B22046FFF75EFF064643463A4631461A
:1006200089B22046FFF703FFCDF800803B46A26960
:1006300061692046FFF7ADFF1BE00225884201D12A
:10064000012607E00A4692B2014689B22046FFF72A
:1006500041FF064643463A46314689B22046FFF7F7
:10066000E6FECDF800803B46A26961692046FFF7AF
:100670007EFFA06B80680290A06901906069009085
:100680002B46B6B2324694F908100FF20C0003F074
:1006900090FDBDE8FF8100005061636B203D256443
:1006A00020256420256420256420256420256400FD
:1006B000DFF800080168DFF8140802688A4201D2F6
:1006C000881A03E04CF25030801A0818914205D184
:1006D000DFF8FC170978002900D100207047F8B531
:1006E00004460E46174604F10805A86D012811DAE4
:1006F000A87D012832D13B46324601212046FFF732
:1007000096FE012000903B46324629692046FFF7BD
:10071000A5FE23E094F89F00002804D0217A012050
:1007200000F0B0F820E0A868A97E884216D02A69B7
:10073000E968914206D092B289B22046FFF7CAFE1C
:10074000022806D2E8682969884207D1E86D0128A5
:1007500004DA3A4631462046FFF732FF01233A4693
:1007600031462046FFF752FE0020E8602861AB6D5D
:10077000EA6D94F908100FF20C0003F01AFDA86D51
:10078000E865F1BD666C75736820256420256420DA
:1007900025640000DFF81807016806E091F89F2043
:1007A000002A01D00A6E4A6609688142F6D1704774
:1007B00010B5DFF80007026842F21070B2FBF0F1EA
:1007C000DFF8100750F82100831A1F2B08D2DFF83A
:1007D000080740F821200FF2580003F0EAFC12E06D
:1007E000101A00F51C5010301F280CD201290ADB0A
:1007F000DFF8E40600EB810040F8042C491E0FF2FC
:10080000440003F0D6FCDFF8C846207800280DD15C
:10081000FFF74EFF4AF6C871884207D301202070C7
:100820000FF23400BDE8104003F0C3BC10BD00005F
:1008300042696720496E646578203D2025642C2537
:100840006400000042696720496E64657832203D8B
:100850002025642C25640000426967206275666665
:1008600065722069732066756C6C0000DFF84406C1
:10087000006842F21071B0FBF1F0401C052800D175
:10088000002070472DE9F04182B0DFF82C56DFF8E8
:100890002446002829D00020ADF8000020684CF242
:1008A0005036371AC8228DF800208DF801104019F3
:1008B000022F0ED23A4600A903F08DFBC7F10208C1
:1008C000424600A83918284603F085FBC4F800808A
:1008D00006E0022200A903F07EFB2068801C206055
:1008E0002068B04201D100202060FFF7E1FE0246FF
:1008F000DFF8D86530684119022001F058F9FFF798
:10090000D7FE2368326801460FF2140003F051FC51
:10091000DFF8C8053168016020683060BDE8F38108
:1009200048494649206261746368204C656E203DE9
:100930002025642C2025642C20256400DFF8740514
:100940000168DFF8880501600FF2040003F031BC94
:10095000486966692052657365742025640000004B
:100960000020DFF84C150A6805E092F89F30002B54
:1009700000D0401C12688A42F7D1C0B2704710B54F
:10098000DFF84C45207800280FD0FFF76FFFDFF825
:10099000481551F82020DFF834150A600021217035
:1009A00001460FF26C0003F004FCFFF781FE002803
:1009B00003D000210846FFF765FFDFF8F404016863
:1009C00008E091F89F20002A03D001F160020B6E2D
:1009D00053600968814211D001F29F025378002BC5
:1009E000F7D09378002BECD0002393701A4681F84F
:1009F0009F200A6601F160025360EAE7FFF7CAFE32
:100A000014220021DFF8D004BDE8104004F0B6B88D
:100A1000484946492057616B65203D2025642C20BC
:100A2000256400002DE9F04182B004460D461646CB
:100A300003F03BFB04F10807D7F85C8002F0C0F933
:100A4000D0F88000A8EB0000F865B87D00284AD0F7
:100A500094F89F00012809D1FFF7AAFE0020B8757D
:100A6000F86D01283FDAB86DF8653CE0B87E396969
:100A7000FA68531A834205D0002A30D1BA68511A55
:100A800081422CD194F90820397E0FF2600003F0E6
:100A900090FB397E00291FD094F908200FF26400E2
:100AA00003F087FB3869B97E421892B2F96889B2BF
:100AB0002046FFF70FFD33462A46014689B22046FD
:100AC000FFF7B5FC00962B463869B97E4218F968E5
:100AD0002046FFF75EFD02E04FF0FF30F860204651
:100AE000BDE8F64110E5BDE8F38100007375737051
:100AF000656E64206669666F2066756C6C2025647F
:100B00002025640073757370656E64206669666F76
:100B10002066756C6C20322025642025640000005E
:100B20002DE9F04104460D46164603F0BEFA04F1E5
:100B30000807D7F85C8002F043F9D0F88000A8EBF2
:100B40000000F86594F89F00002809D0F86D01288E
:100B500057DAFFF71FFE00210846BDE8F04191E695
:100B6000F86810F1010F0DD1B87D002802D02046A1
:100B7000FFF7CAFC324629462046FFF721FD3869B7
:100B8000F8603EE0F86D012834DAB86DF865386B2E
:100B9000D0F80C8094F908308268B96D0FF26800C3
:100BA00003F007FBB868B97E90FBF1F0B96D91FBDB
:100BB000F8F1814202DB4FF0FF30F860B87D002889
:100BC0000AD02046FFF7A0FC324629462046FFF710
:100BD000F7FC3869F86014E0386E002811D420461C
:100BE000FFF702FC324629462046FFF7E9FC386948
:100BF000F86006E0B87D002803D02046BDE8F0414B
:100C000082E4BDE8F08100006669666F2066756C5D
:100C10006C3320256420256420256400F8B5044643
:100C20000D46164603F041FA074602F0C9F8B87BB4
:100C3000002805D0324629462046BDE8F840F1E6B6
:100C4000B87B002805D1324629462046BDE8F84049
:100C500066E7F1BDF8B505460E46174603F025FADE
:100C600005F10804A17D00295BD095F90810807A70
:100C7000002837D0072905D00D2903D01A2901D023
:100C80001B291AD13B46324601212846FFF7CFFBEC
:100C9000012000903B46324621692846FFF7DEFBE3
:100CA000627895F908100FF27C0003F082FA28466A
:100CB000FFF72AFC2069E060F1BD05F28A00817D22
:100CC000002909D0018B226BD2685143A165E165EF
:100CD0000121C1754175F1BD2846FFF715FC20695A
:100CE000E060F1BD092909D195F88A10012905D1E3
:100CF0000FF24000BDE8F44003F05BBA3B463246D9
:100D000001212846FFF793FB012000903B46324625
:100D100021692846FFF7A2FB2846FFF7F5FB20696B
:100D2000E060F1BD41502053757320256420256497
:100D300000000000233E6C75785F736174202564A9
:100D40000000000070B504460D461646A07F00283E
:100D500006D094F89F00002802D12046FFF744FBFC
:100D6000206E012832462946204602DBBDE870404D
:100D700054E7BDE870406DE7F8B504460D464B48B2
:100D8000466896F88B0001281DD1002086F88B005C
:100D90002888411C2980082101550020ADF8000059
:100DA00007460EE006EB8700806FADF800000222D8
:100DB00000A92888001903F00EF92888801C2880D3
:100DC0007F1C032FEEDBF1BD38B504460D4603F062
:100DD0006CF9C17B01290CD10021C1732888411C09
:100DE0002980452101550FF20C00BDE8324003F087
:100DF000E0B931BD4779722046697273742043614E
:100E00006C000000F8B504460D46FFF7B5FF294613
:100E10002046FFF7D9FF264E376805E02A462146CF
:100E20003846FFF78FFF3F68B742F7D1F1BD2DE994
:100E3000F04104460D461D4EF76907F10C0898F87D
:100E40001510D8F80C00FA688018D7F8A820526955
:100E5000904700280ED097F8A400012802D1012065
:100E600088F81200787A002804D02A4621463846AD
:100E7000FFF768FFB66906F10C07797DF868F2683C
:100E80008018D6F8A82052699047002809D0012080
:100E9000B874707A002804D02A4621463046FFF7FD
:100EA00051FF0120BDE8F081BCF101209CE301204D
:100EB0002C5C0020344800200C6800207C3D012080
:100EC00044F1012048F10120B13CFFFF30480020EF
:100ED00008480020BC3A01205C2B01203848002043
:100EE0000288D21C02800A80704780B50B889B1A4A
:100EF000ADF80030BDF80030002B09D010180121EA
:100F000000F8031C022200A9801E03F064F801BD52
:100F10000888C01E088001BD2DE9F04FADF68C2D6C
:100F200004460D4601F04CFF064603F0BEF880462D
:100F300010A840F6482103F04BF800208DF802007D
:100F400006A8282103F044F801A8142103F040F872
:100F50000020ADF800000746D6E91C01002902D1A7
:100F6000002800F0838598F9090004F0D4FA0028DD
:100F700000F07C8500A92846FFF7B2FFB8461CE0C8
:100F8000D6E91C01424604F04BFD00F0010011F0CF
:100F9000000101D100280ED0C8EB0810DFF8BC1BFF
:100FA00001EB800292F90300012804D10DF1020146
:100FB00010A8526B904708F10108B8F1410FDFDB30
:100FC000BA461BE029884A1C2A8080780855288860
:100FD000FFF7EAF900280DD0BDF800202946204689
:100FE000FFF783FF29462046FFF7AEF900A9284600
:100FF000FFF776FF0AF1010A4FFA8AFA9DF802001C
:10100000824580F22B852988481C288040F24910AF
:1010100010FB0AF010AA825C0A5529884A1C2A8013
:1010200010AA8618707808552988481C2880701CDA
:1010300042780A55417803292AD0092900F09D8178
:101040000C2900F078811A2900F094821B2900F005
:10105000A7811C2900F0BE821D2900F0B1811E2944
:1010600000F0A982262900F0E1822C2900F00D83EE
:101070002F2900F0EA82302900F06183312900F045
:101080003584342900F089833B2900F0908499E766
:101090007178032904D129884A1C2A8082780A554C
:1010A00029884A1C2A80C2780A55C178C0290FD1E4
:1010B00006F22708B8F82E20D8F830102888001932
:1010C00002F089FF2888B8F82E10081828807EE7DB
:1010D0000846E0284AD106F20506002035E056F819
:1010E00020100A0222F0FF12090A01F0FF11114339
:1010F00046F820104FEA314146F8201006EB8001F7
:101100004A68130223F0FF13120A02F0FF121A4377
:101110004A604FEA32424A608A68130223F0FF13A2
:10112000120A02F0FF121A438A604FEA32428A60C2
:10113000CA68130223F0FF13120A02F0FF121A43C7
:10114000CA604FEA3242CA60001D1428C7DB502132
:101150000FF6201003F02DF8502231462888001990
:1011600002F039FF28885030288030E7791C0006CB
:1011700047D401A8321D52783A54C9B2B2790A5400
:10118000491CC9B200220A544A1C06F20601D2B216
:101190004B781354521CF389D2B21F0A1754521CB5
:1011A000D2B21354521C06F20E03D2B29F781754D7
:1011B000521CD2B2DB781354521CD2B2B37C1354FB
:1011C000521CD2B2F37C1354521CD2B28B781354FB
:1011D000521CD2B2C9781154511CC9B2B27A0A5405
:1011E000491CC9B2F27A0A544F1CFFB23A4601A90F
:1011F0002888001902F0EFFE288850FA87F028802E
:10120000E5E6D6F8052006A8130C3B54C9B2130A2C
:101210000B54491CC9B20A54491CD6F80920C9B25A
:10122000130C0B54491CC9B2130A0B54491CC9B204
:101230000A54491CD6F80D20C9B2130C0B54491C92
:10124000C9B2130A0B54491CC9B20A54491CD6F836
:101250001120C9B2130C0B54491CC9B2130A0B5408
:10126000491CC9B20A54491CD6F82720C9B2130C2C
:101270000B54491CC9B2130A0B54491CC9B20A5475
:10128000491C06F22708C9B298F804200A54491CE0
:10129000C9B298F805200A54491CB8F80620C9B20A
:1012A000130A0B54491CC9B20A54491CC9B298F814
:1012B00008200A54491CD6F81520C9B2130C0B5447
:1012C000491CC9B2130A0B54491CC9B20A54491C1F
:1012D000D6F81920C9B2130C0B54491CC9B2130A11
:1012E0000B54491CC9B20A54491CD6F81D20C9B276
:1012F000130C0B54491CC9B2130A0B54491CC9B234
:101300000A54491CD6F82120C9B2130C0B54491CAD
:10131000C9B2130A0B54491CC9B20A544F1CFFB27C
:101320003A4606A92888001902F055FE288850FA86
:1013300087F028804BE6F11CB1F90300C0F30722C7
:1013400042EA0020A1F80300B1F90700C0F3072228
:1013500042EA0020A1F80700B1F90500C0F3072216
:1013600042EA0020A1F8050009222888001902F0AD
:1013700032FE28880930288029E629880B467278B1
:10138000032A08D10222F11C181902F024FE288831
:10139000801C28801BE6491C29808078185516E699
:1013A00029884A1C2A8080780855707805287FF49F
:1013B0000EAE2888411C2980311D4978015506E66A
:1013C00006F103087078012840F0C4802888411C89
:1013D000298098F8041001554FF00009A1E0C9EBED
:1013E000491000EB080BDBF81800010221F0FF1197
:1013F000000A00F0FF100843CBF818004FEA304015
:10140000CBF8180004220BF118012888001902F00B
:10141000E2FD2888001D2880DBF80800010221F089
:10142000FF11001200F0FF100843CBF80800C0F3D2
:101430000F4141EA0040CBF8080004220BF10801FB
:101440002888001902F0C7FD2888001D2880DBF8D5
:101450000C00010221F0FF11001200F0FF10084300
:10146000CBF80C00C0F30F4141EA0040CBF80C0070
:1014700004220BF10C012888001902F0ACFD288829
:10148000001D2880DBF81000010221F0FF1100127E
:1014900000F0FF100843CBF81000C0F30F4141EA01
:1014A0000040CBF8100004220BF11001288800192D
:1014B00002F091FD2888001D2880DBF81C00010245
:1014C00021F0FF11000A00F0FF100843CBF81C00C8
:1014D0004FEA3040CBF81C0004220BF11C01288895
:1014E000001902F078FD2888001D2880BBF816003E
:1014F000010A41EA0020ABF8160002220BF11601A6
:101500002888001902F067FD2888801C2880411C6B
:10151000298080B2DBF82010015509F101095FFA3A
:1015200089F998F804008145FFF659AFB6F84321D0
:10153000D6F845112888001902F04DFD2888B6F824
:10154000431108182880B6F843110FF2385002F002
:1015500030FE3CE505287FF43AAD2888411C2980FF
:1015600098F8021001552888411C298098F803102A
:1015700001552CE5F11C7078032804D12888421C01
:101580002A80B27A0255D1F80100020222F0FF123D
:10159000000A00F0FF101043C1F801004FEA30408C
:1015A000C1F8010007222888001902F014FD2888DC
:1015B000C01D28800BE5F11C0888020A42EA0020C1
:1015C000088002222888001902F005FD2888801C66
:1015D0002880FCE4F11C7278012A7FF4F8AC807852
:1015E000012815D12888421C2A8009780155B28823
:1015F000D6F806102888001902F0EDFC2888B1887A
:1016000008182880B1880FF2904002F0D2FDDEE485
:1016100002287FF4DCAC2888421C2A800A78025514
:101620002888421C2A80C9790155D0E4F11C088819
:10163000020A42EA0020088002222888001902F0EB
:10164000CAFC2888801C2880C1E4F01C29884A1C18
:101650002A8001220A5529884A1C2A8005220A5517
:1016600029884A1C2A80C1220A5529884A1C2A80B6
:1016700042790A5529884A1C2A8042780A552988C5
:101680004A1C2A8080780855A1E4F61C29880B465C
:101690003078020727D5481C2880307818552888CC
:1016A000411C2980317A01552888411C2980717A92
:1016B0000155D6F80A00010221F0FF11000A00F0DE
:1016C000FF100843C6F80A004FEA3040C6F80A0087
:1016D000042206F10A012888001902F07CFC2888FF
:1016E000001D288073E440071ED5481C28803078F0
:1016F00018552888411C29807178015570680102AD
:1017000021F0FF11000A00F0FF10084370604FEA5B
:10171000304070600422311D2888001902F05BFC03
:101720002888001D288052E47288D6F80E101819F7
:1017300002F051FC288871880818288047E4F61CBC
:101740003068010221F0FF11001200F0FF10084381
:101750003060011441EA004030600422314628889C
:10176000001902F038FC2888001D288070680102EA
:1017700021F0FF11001200F0FF1008437060011407
:1017800041EA004070600422311D2888001902F0EF
:1017900022FC2888001D288019E4F61C306801020C
:1017A00021F0FF11001200F0FF1008433060011417
:1017B00041EA00403060042231462888001902F0D6
:1017C0000AFC2888001D28807068010221F0FF11A2
:1017D000001200F0FF1008437060011441EA00405D
:1017E00070600422311D2888001902F0F4FB28885B
:1017F000001D2880B068010221F0FF11001200F0E6
:10180000FF100843B060011441EA0040B0600422B8
:1018100006F108012888001902F0DDFB2888001D68
:101820002880F2683369F06831691B0243EA126369
:10183000120222F0FF1223F0FF13000A40EA0160B7
:10184000090A00F0FF1001F0FF0110431943F06096
:101850003161D6F80C80D6F81090F06831694FEA03
:10186000094949EA1849DFF83027134602EA0842D5
:1018700009EA03039046000C40EA01404FF6FF726C
:1018800010404246104353EA1141F0603161F26862
:101890003369F06831691346084600211943F06046
:1018A0003161F0683169082206F10C0128880019BD
:1018B00002F091FB2888083028807069010221F02D
:1018C000FF11001200F0FF1008437061011441EA9B
:1018D00000407061042206F114012888001902F00A
:1018E0007AFB2888001D2880FFF771BBF61C306842
:1018F000010221F0FF11001200F0FF1008433060D8
:10190000C0F30F4141EA004030600422314628888C
:10191000001902F060FB2888001D28807068010211
:1019200021F0FF11001200F0FF1008437060C0F3B7
:101930000F4141EA004070600422311D28880019DF
:1019400002F049FB2888001D2880B068010221F0C0
:10195000FF11001200F0FF100843B060C0F30F4108
:1019600041EA0040B060042206F10801288800190D
:1019700002F031FB2888001D2880F068010221F068
:10198000FF11001200F0FF100843F060C0F30F4198
:1019900041EA0040F060042206F10C012888001999
:1019A00002F019FB2888001D2880FFF710BBF61CE9
:1019B0002888411C298031780155D6F801000102A0
:1019C00021F0FF11001200F0FF100843C6F80100DB
:1019D000C0F30F4141EA0040C6F801000422711C27
:1019E0002888001902F0F7FA2888001D2880D6F808
:1019F0000500010221F0FF11001200F0FF10084362
:101A0000C6F80500C0F30F4141EA0040C6F80500E2
:101A10000422711D2888001902F0DDFA2888001DB3
:101A20002880D6F80900010221F0FF11001200F011
:101A3000FF100843C6F80900C0F30F4141EA004017
:101A4000C6F80900042206F109012888001902F0ED
:101A5000C2FA2888001D2880FFF7B9BABDF8002017
:101A600029462046FFF741FA03F083FD0DF68C2D41
:101A7000BDE8F08F50442053462053656E742564B2
:101A8000000000004F4A483A204154424420736904
:101A90007A653A20256400004F4A483A2041504474
:101AA000522073697A653A20256400002DE9F041DF
:101AB00005460E4602F0F9FA0746DFF8E0442078C2
:101AC000401C20706078F021084202D0992003F079
:101AD000CDFF04F038F86078401C607097F81880EB
:101AE000B8F1000F27D03088404480B2FEF75CFC8C
:101AF000002803D031462846FEF726FC3088411CDA
:101B00003180032141553088411C318000F8058027
:101B1000424607F119013088401902F05CFA30881A
:101B2000404430804FF4FA72002107F1190003F0AD
:101B300025F8002038766078F021084202D09920FC
:101B400003F094FF6078401E6070C0B2002801D19D
:101B500003F0F3FFBDE8F04104F01FBA2480012038
:101B600038B504460D4602F0A0FA817A002909D161
:101B7000417B002906D129884A1C2A8006220A5561
:101B80000121417331BD38B504460D46288800282F
:101B90000CD02046FFF78AFF29462046FFF7E0FFDA
:101BA00029462046BDE83440FEF7CEBB31BD14B512
:101BB00085B0049101A90022134614461CC10A21D4
:101BC000ADF8001004218DF804108DF805000A46C8
:101BD00005A90DF1060002F0FEF9042204A90DF199
:101BE0000A0002F0F8F90598002803D000A901A81E
:101BF000FEF7AAFB06B010BD80B502F056FA4FF40E
:101C0000967102F0B7FC07208DF802000120ADF8B4
:101C1000000000A90DF10200FEF796FB01BD00B522
:101C200097B000A85C2102F0D3F90020ADF858006D
:101C30000DF101000B21417000218170C170084637
:101C40008DF800003F208DF8010000A802F062F836
:101C50000FF2080002F0ADFA17B000BD53746172C4
:101C6000742046697273742063616C0000B597B08C
:101C700000A85C2102F0ACF90020ADF858000DF18D
:101C800001000B21417000218170C17001208DF88D
:101C900000003F208DF8010000A802F03BF80FF291
:101CA0000C0002F086FA17B000BD0000456E6420FB
:101CB00046697273742063616C0000002DE9F04383
:101CC00083B005460F46904602F0EFF981460026A4
:101CD000D5F80900041D28780146012900F08B8001
:101CE0000F293AD0352946D036293BD039294BD057
:101CF000402952D0802900F0CB80812900F0D28089
:101D0000822900F0CF80852900F0CC80862900F060
:101D1000C980882900F0C6808A2900F0CB808B29F1
:101D200000F0E6808C2900F0F2808D2900F0FE8022
:101D3000DD2900F00881DF2900F01C81F02931D075
:101D4000F42942D0F6294BD0F82900F08A80F929ED
:101D500056D0FF2900F0EF80A1E099F8160020701E
:101D600001209DE004F099FE15220146204602F074
:101D700032F9012094E0012006F01FFE304606F003
:101D800021FE012020708BE00FF22C2002F011FACE
:101D900007F009F92070012082E0204606F090F853
:101DA00001207DE004227E49204602F014F908F06B
:101DB0003FF8002804D109F037F9012008F034F881
:101DC00001200AF0BBF801206AE0484602F097FBC8
:101DD000042209F11001204602F0FDF801205FE025
:101DE0000322214630466F4B9B68D3F8A8301B6A0C
:101DF0009847012054E020460AF058FA01204FE0AD
:101E0000B5F80300C008D5F805204FF4FA6111FBBE
:101E10000021654E65480068801982421BD106F595
:101E200043405030814201D3614A5118471AB5F8F6
:101E3000012097420BDA3A46204602F0CCF8B5F87A
:101E40000100C21B3146381902F0C5F890E0204667
:101E500002F0C1F88CE0B5F80120204602F0BBF892
:101E600086E03046ADF8040001206979012900D1EF
:101E7000032009F010FB09F049FBADF8040009F05C
:101E80005CFB022201A9204602F0A5F8012007E030
:101E9000D5F8050020702146304601F07EFA304624
:101EA000BDE8FE8331462170214600F07F0001F03D
:101EB00074FAF4E7012020703A4845683746287FD5
:101EC000002801D13046EBE7687A002804D1D5F824
:101ED000A8004068804707462046D5F8A810C96981
:101EE0008847002FDBD0D5F8A80080688047D6E768
:101EF0000120B5F80310C1F3C101091D884040F06D
:101F0000020020702146012001F047FAC7E799F846
:101F10000000207099F80300607099F80500A07027
:101F200099F80600E07001202071B9E720460AF018
:101F3000D1F90646B3E704F10802211D20460AF054
:101F40009DF80120ACE76879164951F82050687A6D
:101F500000280BD0424639462846FEF7C0FB1549FB
:101F600008200AF079FA0120207001E03046207044
:101F7000012095E768790B4951F82050286995F8B8
:101F8000221090FBF1F0401E0090042200A9204690
:101F900002F021F8012083E70000FFFFCC39012087
:101FA000403B01209CE301200C68002038480020C1
:101FB000B03CFFFFE4740120233E49525F52455379
:101FC000554C5400F0B5B5B0064602F06EF8054623
:101FD00000F0F6FED6F809100C1D317800220192AF
:101FE0004FF0FF32189217460A46312A00F06381FB
:101FF000322A00F06A81332A00F07681342A00F018
:102000007D81372A73D0382A00F03481432A00F0CA
:102010008386442A00F08586A12A00F08B81A22ABB
:1020200000F0BB81A42A00F0C681A52A7BD0A62A95
:1020300000F07F80B12A00F03084B22A00F00886D8
:10204000B82A00F0D381C12A00F0F481CD2A00F033
:102050009780CE2A00F0AC80D02A2FD0D12A27D06A
:10206000D22A30D0D32A34D0D42A39D0D62A4AD052
:10207000D72A48D0D82A4ED0D92A4CD0EC2A71D0B1
:10208000F12A5CD0F22A00F0AC80F52A00F0C7807B
:10209000F72A00F0DC80FA2A00F02886FB2A00F0FC
:1020A0002886FD2A00F0C780FE2A00F02C86DEE09C
:1020B0000021284602F06BFA0120D9E0002009F047
:1020C0003DFF0120D4E00121284602F060FA012002
:1020D000CEE00020A872A873FEF751FC0120C7E0F3
:1020E0000120A872002068730120A873C0E00022BC
:1020F00021461046DFF8343C1B68D3F8A8301B6A31
:1021000098470120B4E0D62901D1012000E0002049
:10211000E8720120ACE0D92901D1012000E00020C3
:1021200028730120A4E0D6F809000AF01AFA012069
:102130009EE0D6F809000AF049FB012098E0002152
:102140000CE00A180B5D82F88430022905D10A5D83
:1021500080F887200A5D80F88820491C0329F0DB7D
:10216000012085E0237840F63D02DFF8C41BDFF84C
:10217000C40B02F01EF8207806F004FA012077E084
:10218000002511E0DFF8A40B466806EB8506022265
:1021900004EB450106F1780001F01DFFB16FDFF897
:1021A000980B02F006F86D1C032DEBDB01205FE0BD
:1021B000002512E0DFF8740B066806EB45060222E4
:1021C00004EB450106F1700001F005FFB6F970104F
:1021D000DFF8680B01F0EDFF6D1C032DEADB012039
:1021E00046E0297C090601D4012041E0217862788B
:1021F00012EB0121A0F88A10A178E27812EB0121FC
:10220000A0F88C1004212046DFF8202BD269D2F8E8
:10221000A82092699047002829D0012028E00322B5
:1022200021460120DFF8043B9B68D3F8A8301B6AE5
:10223000984701201CE01B2221460720DFF8EC3ADA
:102240009B68D3F8A8301B6A9847012010E0DFF89C
:10225000DC0A8669D6F8A80080688047002806D086
:10226000012221460520D6F8A8301B6A9847002095
:1022700035B0F0BD06F049FD002808D1DFF8C00AEE
:1022800001F097FF002007F002F80020F0E7B6F910
:102290000110204606F06DFD002808D1DFF8A40AE1
:1022A00001F087FF002006F0F2FF0020E0E70120A8
:1022B00006F0EDFFDBE706F08AFB012801D10120E3
:1022C000D6E7204606F000FBD1E706F080FB0128A8
:1022D00001D10120CCE7204606F023FB207800281E
:1022E000C5D006F051FBC2E706F071FB012801D111
:1022F0000120BDE7207806F04FFBB8E706F067FB4A
:10230000012801D10120B3E7DFF83C0A01F051FFB9
:10231000002006F052FB012006F030FA04F063FDC5
:10232000012006F04FFB207806F055FB06F090FAEE
:1023300001209DE794F900500422611C01A801F0DE
:102340004AFEB6F80100062806DB0422611D18A823
:1023500001F041FE94F909702846DFF8D0190428ED
:1023600002D10A690023937251F8206096F908009F
:10237000072809D196F8A410012905D1DFF8CC0966
:1023800001F017FF012073E70097189B00220199C5
:10239000284601F09FF8207069E794F90050042264
:1023A000611C01A801F017FE00231A460199284676
:1023B00001F0FCF85CE794F900500422611C01A8CC
:1023C00001F009FEB6F80100062806DB0422611DB3
:1023D00018A801F000FE94F909700097189B0022DC
:1023E0000199284601F04BF9207040E7207801461A
:1023F000032906D01A2912D02C2910D03A290ED040
:1024000011E060780DF109025070012805D1A07823
:102410008DF80B00204601F01DFC012028E7204626
:1024200001F018FCF9E794F9011040B20020C04611
:10243000C0B21DE720780146491E51D00D390DD09C
:10244000C91E55D0491E032921D9091F00F0A680B5
:10245000491E00F0EB8019393AD006E20E208DF8C3
:10246000080060780DF109025070A1788DF80B100A
:10247000E2780DF10B035A700023ADF80D3052B223
:1024800049B240B202F0D4F801F0E2FBEDE18DF880
:1024900008000146122903D10DF10900627842704B
:1024A000132902D160788DF80B00142903D10DF1A6
:1024B0000B0062784270152903D10DF10900617893
:1024C000417062782178DFF8880801F072FECCE173
:1024D00030208DF808000DF1090061784170C4E1E9
:1024E00001208DF808000DF10B0061784170BCE10E
:1024F0000DF1090061784170A0788DF80B000DF1A5
:102500000B00E178417020798DF80D00002802D091
:1025100001281FD030E06079A179090401EB006047
:10252000E17900EB0120217A4018CDF80E000DF181
:102530000E06607AA17A11EB0020B080E07A217B50
:1025400011EB0020F080607BA17B11EB0020ADF847
:10255000160011E06079A17911EB0020ADF80E00B2
:102560000DF10E06E079217A11EB00207080607A7F
:10257000A17A11EB0020B08019A80DF10A010E22FA
:102580000AF0FAFA19A80FC802F077F902F0DCF99C
:10259000012840F06A8101F0A5FB66E16078A1782E
:1025A000090401EB0060E17800EB0120217940187B
:1025B000CDF80A006079A179090401EB0060E179A6
:1025C00000EB0120217A4018CDF80E00607AA17A44
:1025D000090401EB0060E17A00EB0120217B401847
:1025E0000DF10E014860607BADF816000DF117008B
:1025F000A17B4170E17B8170217CC170617C0171A4
:10260000A07CE17C11EB002000B20146ADF81C106B
:1026100007A9227D00EB0220627D80184880A07D02
:1026200008710DF10A0002F0B1F91EE160788DF831
:1026300009001D283ED10DF10E06A1787171A17817
:1026400001290DD1E178227912EB0121ADF80A10B0
:1026500089B20A460146DFF8FC0601F0AAFD04E152
:1026600002290BD1E078217911EB0021ADF80C1093
:1026700089B2DFF8E40601F09CFDF6E003290AD1F7
:10268000E078217911EB0021F18089B2DFF8CC06E6
:1026900001F08FFDE9E0042940F0E780E07821793E
:1026A00011EB0021ADF8161089B2DFF8B40601F085
:1026B00080FDDAE0032828D1A1780DF15A05697070
:1026C000DFF8A00601F075FD6878012816D100201A
:1026D000142880F2CA8004EB8001CA780B791B04AD
:1026E00003EB02624B7902EB03228979511802AAAB
:1026F00002EB8002C2F80210401CE9E7022840F019
:10270000B480E0788DF85A00AFE01C2827D1A0787B
:102710008DF80D00A078012808D1E1780DF10902AB
:102720005170DFF8440601F044FD9EE0022807D115
:10273000E1788DF80B10DFF8340601F03AFD94E0F3
:10274000032800F09280052840F08F80E1780DF199
:102750000B035970DFF8180601F02BFD85E02C28DB
:1027600030D10DF10E00A1788171A078012803D13C
:10277000E0788DF80E0078E0022806D1E078217923
:1027800011EB0020ADF815006FE0032806D1E078CA
:10279000217911EB0020ADF8170066E0042807D17D
:1027A000E078217911EB00200DF1170148805CE001
:1027B00005285AD1E078217911EB00200DF117019D
:1027C000888052E0302820D1A0788DF80B00A078C6
:1027D000012809D1E078022802D10AF054FE44E031
:1027E0000DF10901487040E002283ED140F6DD229B
:1027F000DFF83C15DFF87C0501F0DBFCB6F80110D2
:10280000E01C0AF044FE012032E534282DD1A078E6
:1028100001282AD10DF10A00E1782279120402EB95
:102820000161627901EB0221A279891800EE101A88
:10283000B8EEC00ADFEDA60A80EE200A10EE101AEC
:102840000160016800EE101A10EE100A0AF04CFF49
:1028500002460B46DFF8200501F0ABFC0DF10A0043
:10286000016800EE101A0AF073FF06208DF874005C
:1028700020788DF875000DF1770002A955220AF035
:102880007BF90DF175000B2141700020ADF8CC00F3
:102890001DA801F03FFAC0B2EAE4207801464129C0
:1028A00005DBDFF8D80401F084FC0020E0E4C1EB94
:1028B0000112DFF8CC1401EB8201897E012940F07E
:1028C0009381014603292ED006296BD0092931D0E6
:1028D0000C294BD00D2957D0192900F097801A29BF
:1028E0006ED01B2900F0A7801C2900F0E3801D2971
:1028F00000F0B9801E2900F0ED80262900F0F88054
:10290000272900F003812C2900F028812D2900F0CF
:102910003E812F2900F05781302900F0468134296B
:1029200000F04A815BE10322611C0DF10A0001F015
:1029300052FB59E10722611C0DF10A0001F04BFB2B
:10294000BDF80A00010A41EA0020ADF80A00BDF80E
:102950000C00010A41EA0020ADF80C00BDF80E00A1
:10296000010A41EA0020ADF80E003DE10322611C9E
:102970000DF10A0001F02FFBBDF80B00010A41EA3E
:102980000020ADF80B002FE10322611C0DF10A00BD
:1029900001F021FBBDF80B00010A41EA0020ADF86F
:1029A0000B0021E10122611C0DF10A0001F013FB73
:1029B0000DF109004178DFF8CC0301F0FAFB13E1D7
:1029C0000B22611C0DF10A0001F005FBDDF80B0084
:1029D000010221F0FF11000A00F0FF100843CDF8BA
:1029E0000B004FEA3040CDF80B000DF10E06708859
:1029F000010A41EA00207080002396F9062096F92A
:102A0000051096F9040001F013FEEDE00622611CAA
:102A10000DF10A0001F0DFFABDF80A00010A41EAEF
:102A20000020ADF80A00BDF80E00010A41EA0020BE
:102A3000ADF80E00D8E00422611C0DF10A0001F08F
:102A4000CAFABDF80A00010A41EA0020ADF80A00FE
:102A5000BDF80C00010A41EA0020ADF80C00CA489C
:102A600001F0A7FBC0E00922611C0DF10A0001F092
:102A7000B2FABDF80A00010A41EA0020ADF80A00E6
:102A8000BDF80C00010A41EA0020ADF80C00BDF8C9
:102A90000E00010A41EA0020ADF80E000DF10E060D
:102AA000002396F9042096F9031096F9020001F02C
:102AB000BFFD99E00DF1090061784170A0788DF8B3
:102AC0000B00A2786178B14801F073FB8CE000BF85
:102AD00000401C460322611C0DF10A0001F07BFA44
:102AE000BDF80B00010A41EA0020ADF80B007BE0C5
:102AF0000522611C0DF10A0001F06DFABDF80B0012
:102B0000010A41EA0020ADF80B006DE00A22611CC9
:102B10000DF10A0001F05FFABDF90A00C0F30721C8
:102B200041EA0020ADF80A00BDF90C00C0F307210E
:102B300041EA0020ADF80C00BDF90E00C0F30721FA
:102B400041EA0020ADF80E000DF10E06B6F90200C4
:102B5000C0F3072141EA0020708045E00822611C93
:102B60000DF10A0001F037FABDF80C00010A41EA44
:102B70000020ADF80C000DF10E06002396F903209D
:102B800096F9021096F9010001F052FD2CE00222A4
:102B9000611C0DF10A0001F01EFABDF80A00010ADD
:102BA00041EA0020ADF80A001EE00222611C0DF18E
:102BB0000A0001F010FA17E00422611C0DF10A006E
:102BC00001F009FA10E00DF10900E1784170207977
:102BD0008DF80B000DF10B006179417004E08DF868
:102BE000080060788DF8090020780146052908D191
:102BF000674801210170687A002810D10846FFF764
:102C000037BB18290BD18DF8080060788DF80900C2
:102C10000DF10900A1784170E0788DF80B000020DB
:102C20008DF8740020788DF875000DF1770002A9F9
:102C3000552209F0A1FF0DF175000B214170002014
:102C4000ADF8CC001DA801F065F8C0B2FFF710BBCD
:102C500020780146412906DB0FF2381001F0A9FA6D
:102C60000020FFF705BB052905D149480021017067
:102C70000120FFF7FDBA1A291CD10822611C0DF1B1
:102C80000A0001F0A8F9DDF80B00010221F0FF11A4
:102C9000000A00F0FF100843CDF80B004FEA304067
:102CA000CDF80B000DF10E067088010A41EA0020F4
:102CB000708005E02C2903D10DF109006178417085
:102CC00001208DF8740020788DF875000DF17700E3
:102CD00002A9552209F050FF0DF175000B2141703A
:102CE0001DA801F017F8C0B2FFF7C2BA0120FFF724
:102CF000BFBA2078002803D10FF2B800C046C04602
:102D00000120FFF7B5BA04F10802211D204609F0A1
:102D100075F90120FFF7ACBAFEF781FF0120FFF73C
:102D2000A7BAFEF7A3FF0120FFF7A2BA9CE3012098
:102D30006855030880550308AC550308B8550308C7
:102D4000C4550308D4550308E4550308F455030893
:102D50000856030818560308285603083456030873
:102D6000405603084C56030860560308745603087F
:102D7000885603089C560308D8560308E8560308EB
:102D80002480012004570308105703081C57030828
:102D9000BCF101204C6962726172792072616E67C8
:102DA00065206973206F7665722C2052656D6F7691
:102DB0006500000051505F52455155455354000085
:102DC0000048704778E1012080B5FFF7F9FFDFF890
:102DD000841C4860012002BD80B509F0CFF9DFF8FE
:102DE000781CD1E90023801A02BD2DE9F84304467E
:102DF000002005460646DFF8641C496804F1080710
:102E00003A697B6802EB030894F90820002A15D17F
:102E1000B8F90000B8F90250B8F90460B7F86810C2
:102E2000411AA8F80010B7F86A10691AA8F8021039
:102E3000B7F86C10711AA8F8041035E004F1840991
:102E4000012A1ED1B8F80010A4F88410B8F80210B6
:102E5000A9F80210B8F80410A9F80410B4F8841006
:102E60003A6F891AA8F80010B9F802107A6F891A17
:102E7000A8F80210B9F80410BA6F891AA8F804105B
:102E800012E0B4F88420A8F80020B9F80220A8F8CD
:102E90000220B9F80420A8F804208A6F3A67CA6FA4
:102EA0007A67D1F88010B96794F90810002951D1D8
:102EB000B8F90010C913B1EBE03F14D0B7F96810AE
:102EC000C913B1EBE03F0ED00FF6A83001F071F955
:102ED000B8F90000012802DBDFF8840B01E047F6B7
:102EE000FF70A8F80000B8F90210C913B1EBE53F74
:102EF00014D0B7F96A10C913B1EBE53F0ED00FF645
:102F0000803001F056F9B8F90200012802DBDFF841
:102F1000500B01E047F6FF70A8F80200B8F9041062
:102F2000C913B1EBE63F70D0B7F96C10C913B1EB20
:102F3000E63F6AD00FF6543001F03BF9B8F90400CF
:102F4000012802DBDFF8180B01E047F6FF70A8F854
:102F500004005AE0012958D1B4F98400B8F90010EE
:102F6000C913B1EBE03F14D0B7F97010C913B1EB3E
:102F7000E03F0ED00FF6FC2001F01BF9B8F900007D
:102F8000012802DBDFF8D80A01E047F6FF70A8F855
:102F9000000004F18409B9F90200B8F90210C9135C
:102FA000B1EBE03F14D0B7F97410C913B1EBE03FB7
:102FB0000ED00FF6CC2001F0FCF8B8F90200012881
:102FC00002DBDFF89C0A01E047F6FF70A8F8020078
:102FD000B9F90400B8F90410C913B1EBE03F14D0FB
:102FE000B7F97810C913B1EBE03F0ED00FF69C2073
:102FF00001F0DFF8B8F90400012802DBDFF8600A0D
:1030000001E047F6FF70A8F8040094F908000028D2
:1030100004D1002000E0401C0328FCDBBDE8F18364
:10302000000000002DE9F0470746B869F96800EB99
:10303000010800252E462C46A24697F90890B9F1C2
:10304000050F03D3B9F10E0F40F0C880B9F1010F9D
:1030500002D0B9F10E0F02D13846FFF7C6FE97F93C
:103060000800002806D1B7F97050B7F97260B7F9B7
:10307000744007E0012801D00E2803D1BD6FFE6F18
:10308000D7F880404846012804D9C01E02D00B382A
:1030900040F09E80B9F1000F01D14FF6FF7ADFF8C2
:1030A000B4094068B9F10E0F03D0484490F8840089
:1030B00001E090F88500401E06286AD8DFE800F09D
:1030C00004101F2A3A465600B8F90200B8F800105A
:1030D000AAEB0101B8F904203346AAEB050560E02C
:1030E000B8F80000AAEB0000B8F80210AAEB010142
:1030F000B8F90420AAEB0503AAEB060551E0B8F8DD
:103100000200AAEB0000B8F90010B8F90420AAEBFD
:10311000060346E0B8F80000AAEB0000B8F9021078
:10312000B8F80420AAEB0202AAEB05033546AAEB85
:10313000040436E0B8F90200B8F90010B8F8042029
:10314000AAEB02023346AAEB04042AE0B8F9000015
:10315000B8F80210AAEB0101B8F80420AAEB0202A9
:103160002B46AAEB0605AAEB04041AE0B8F8020005
:10317000AAEB0000B8F80010AAEB0101B8F804208F
:10318000AAEB0202AAEB0603AAEB0505AAEB0404CC
:1031900007E0B8F90000B8F90210B8F904202B468E
:1031A0003546B9F1010F04D1002600E0761C032E4C
:1031B000FCDBA8F80000A8F80210A8F80420B9F178
:1031C0000E0F05D1A8F80630A8F80850A8F80A4054
:1031D000B9F1000F02D13846FFF707FE0120BDE824
:1031E000F087000070B404680D6816685B1E062B3B
:1031F00027D8DFE803F004080D11161B2000056036
:10320000604208601DE0624202606842086018E0A7
:103210006A4202600C6014E061420160704210601A
:103220000FE005600C60704210600AE068420860C0
:103230007042106005E06B420360604208607042BB
:10324000106070BC7047000070B582B08169C268C0
:103250008A1890F9081008460A2800F29880DFE8DA
:1032600000F0062A74969650969696818F00B2F9D1
:103270000240B2F90450DFF8DC0741689FEDC90A4B
:10328000B2F9000000EE900AF8EEE00A60EE800A63
:10329000C1ED000A00EE904AF8EEE00A60EE800A06
:1032A000C1ED010A00EE905AF8EEE00A20EE800A25
:1032B00081ED020A6FE0B2F90060B2F90240B2F9A2
:1032C000045000F0F2FE90ED840ADFF888074068B1
:1032D00000EE906AF8EEE00A60EE800AC0ED030AA4
:1032E00000EE904AF8EEE00A60EE800AC0ED040AB3
:1032F00000EE905AF8EEE00A20EE800A80ED050A12
:1033000049E00020009010680090DFF8480741680D
:103310009DED000AB8EEC00ADFEDA30A20EE200AF8
:1033200081ED0C0A91ED0C0AB5EE400AF1EE10FAAF
:1033300031D090ED020AD1ED0C0A30EE200A80ED7A
:10334000020A0188491C018025E0DFF8080741686E
:103350001088A1F85A0001F25A00518841809188E2
:10336000818018E0DFF8EC06416801F25A0011880C
:10337000C1805188018191884181D18881810AE091
:10338000DFF8D0064068118880F8681003E00FF27B
:10339000087000F00EFF012076BD70B50D46DFF815
:1033A000BC1651F820400026207F002801D130466D
:1033B00070BD607A002804D0D4F8A80080688047E7
:1033C00006462846D4F8A810C96988470546002E45
:1033D00003D0D4F8A80040688047284670BD01207B
:1033E0007047F8B51C4692FBF1F300F29F0600F11E
:1033F00008057778012F17D190F908700C2F10D09D
:10340000502B02DAB2F57A7F08DB012780F89F7033
:10341000B0F8A2709F4204DA3B4602E0002780F831
:103420009F700027B77006E0AE68AF7E96FBF7F698
:103430009E4200DA3346002A18D490F908000C287E
:1034400004D003FB01F0A865E86501E0AA65EA6520
:10345000286E002802D5EB6D181AE865E86DDFF8D4
:10346000F4355B68D3F880301818E865009413468B
:103470000A46E96D0FF22C6000F09BFE002C02D48E
:10348000A00700D52C76F1BD002101664161816164
:1034900090F90810112901D0002181777047042884
:1034A00017D101F10C008A7A012A09D0072242754E
:1034B0000B228275DFF8AC25CA600B214160704792
:1034C0001522427519228275DFF89C25CA601921E0
:1034D000416070472DE9F243044615461E461D2CF7
:1034E00028D22746DFF8740550F8278098F81C008A
:1034F00000281FD000A800F029F99DF92090B9F10B
:10350000000F09D45FEAC97006D54B4632460099D0
:103510004046FFF764FF43E0214600A800F02DF984
:1035200041462046FFF7BBFF2146284600F043F9FD
:10353000002801D1002033E0002D12D198F80900B5
:10354000012808D139460FF2785000F032FE494682
:103550004046FFF799FF4B46324600994046FFF739
:1035600040FF01232A460099204600F07CF900F034
:10357000D9F9002C06D198F80900012802D1009849
:103580000AF0F0FB072F0AD1002D08D1012088F89E
:10359000A40098F80900022801DB04F0CDFC01200A
:1035A000BDE8F28360F69C3A0AD7233C2DE9F2434A
:1035B000044615461E461D2C0BD22746DFF89C04F8
:1035C00050F82780FDF7CCF9814698F81C000028B8
:1035D00001D1002051E000A800F0B8F821462846AB
:1035E00000F016F9002D2BD1FDF762F8002816D057
:1035F00098F89F00002812D0FDF75AF84B46024673
:1036000039460FF2C44000F0D4FDB9F1010F02D1E8
:10361000FDF794F903E000210846FDF733F998F827
:103620000900002803D131464046FFF72DFF002056
:10363000C8F8600088F89F0008F19F0000218170A1
:1036400000232A460099204600F00DF900F06AF99F
:10365000002C09D198F80900012805D10BF09AF93E
:10366000012801D10AF09FFB072F05D1002D03D1BE
:1036700008F19F00002141710120BDE8F2832DE98E
:10368000F24F044615461E461D2C27D22746DFF86A
:10369000CC0350F82780FDF763F9814608F1140A3E
:1036A0009AF80800002819D000A800F04FF89DF9FA
:1036B00028B0BBF1000F09D45FEACB7006D55B469A
:1036C000324600994046FFF78AFE3DE005EB450093
:1036D00008EB8000806B8068002801D5002033E073
:1036E000DAF84C00002806D1012E04DB0020C8F8CF
:1036F0001400CAF80400002D1AD1FCF7D9FF0028E5
:1037000016D098F89F00012812D1FCF7D1FF02468D
:1037100039460FF2C43000F04CFDB9F1010F02D16F
:10372000FDF70CF904E02146C9B20020FDF7AAF824
:103730005B46324600994046FFF753FE2A46009901
:10374000204600F0BAF80120BDE8F28F0168C829D0
:1037500002D1B42101607047422902D13C210160AD
:1037600070478A1F042A02D20A21016070470B3970
:10377000092901D214210160704710B50C46B74ADF
:1037800052F824200F2C05D0102C03D01A2C01D075
:103790001B2C0FD1C9B2D2F8A820926990470F2CE8
:1037A00001D0102C06D121460FF24030BDE8104068
:1037B00000F0FFBC10BDF8B504460225A74850F83C
:1037C0002160707A00281ED106F1A807214649B26F
:1037D00030467A681268904700280ED0D6F8A800C4
:1037E00040688047002804D129464D1EC9B20029EF
:1037F000F4D1002801D10020F2BD214649B2304663
:103800007A6852689047707A401C70720120F2BD4D
:10381000F8B50446914850F821500226687A0128EC
:103820001AD105F1A807214649B228467A6892685C
:10383000904700280AD0D5F8A80080688047002863
:1038400004D13046461EC0B20028F4D1214649B208
:1038500028467A68D2689047687A002801D0401ECE
:1038600068720120F2BD18B404467C4850F8240068
:103870000C2C17D0112C15D00D2C13D0192C11D0C5
:103880001A2C0FD01B2C0DD000F13804646F012BC3
:1038900052B203D1236901B010BC1847636901B06B
:1038A00010BC1847806B012B02D11421C16002E0CB
:1038B0004FF0FF31C16011BC7047F8B50C4615469A
:1038C000664951F820600C282BD0112829D00D28EA
:1038D00027D01A2825D01B2823D0192821D005EB62
:1038E000450006EB8007B86B8068844219D0012C34
:1038F00017DB0FF2042000F05CFC2A4652B2B86BD2
:1039000081683046D6F8AC305B6998472A4652B297
:1039100021463046D6F8AC301B699847BDE8F140E7
:1039200000E0F1BD70B56FF0004634464F480168C5
:1039300004E08A68A24200DA144609688142F8D19C
:103940004B4D2878401C28706878F021084202D03E
:10395000992002F08BF802F0F6F86878401C687045
:10396000B44200D100243B4E7068C467D0F8802078
:1039700021468A4212D0002901D0002A0BD1C0F87A
:1039800080100FF2841000F014FC7068D0F88000F2
:1039900000F0EBFB02E001200BF044F86878F02126
:1039A000084202D0992002F061F86878401E6870E1
:1039B000C0B2002801D102F0C0F802F0EEFA0120F6
:1039C00070BD38B505462A4C2078401C20706078C0
:1039D000F021084202D0992002F048F802F0B3F832
:1039E0006078401C607029460FF2301000F0E1FB57
:1039F00018484068C0F880501C48016805E08A6893
:103A0000B2FBF5F26A43CA6009688142F7D1607877
:103A1000F021084202D0992002F028F86078401E78
:103A20006070C0B2002801D102F087F8BDE83140D3
:103A300002F0B3BA0D490A6808E01369012B01DAF4
:103A4000D368136113691B1A136112688A42F4D197
:103A50007047000078EF012080F001209CE30120F6
:103A60000080FFFF745F002044EE01202448002006
:103A7000CC39012058206973206F766572000000F0
:103A800059206973206F7665720000005A206973AF
:103A9000206F766572000000554353542825642931
:103AA0004E53000062617463682072617465203D4A
:103AB0002025642025642025642025640000000062
:103AC0004164642025640000534D2025642C256446
:103AD0002C202564000000006368616E6765207219
:103AE0006174652025642C25640000004F44522039
:103AF00025642C20256400006368616E6765207270
:103B00006174653200000000675F707453682D3E79
:103B10006354696D6572203D202564006374696D8E
:103B20006572203D2025640077487047F8B50C4643
:103B30001646012500282BD1C6EB0610724901EB71
:103B40008007386AE040C00708D523463A6A314604
:103B50000FF2843000F02DFB0220F2BD4FF0FF3059
:103B6000009003462A4679682046FFF7B3FC0028F8
:103B70000CD023463A6A31460FF26C3000F019FB44
:103B8000386A2946A140084338622CE00220F2BD81
:103B9000012828D1C6EB06105B4901EB8007386A83
:103BA000E040C00708D423463A6A31460FF2483055
:103BB00000F0FFFA032516E04FF0FF332A4679683C
:103BC0002046FFF7F3FC002807D023463A6A314627
:103BD0000FF2343000F0EDFA00E00325386A0121DD
:103BE000A140884338622846F2BD01F09ABD02B573
:103BF00098B00021ADF858108DF801100DF10101B9
:103C00000A224A7000228A70CA7005218DF80010BD
:103C10008DF80100042218A90DF1030000F0DBF972
:103C20000020ADF8580000A800F074F819B000BDED
:103C300010B40022884201D3421A06E00B1A334C1A
:103C4000A34202D3324A1018421A104610BC7047E1
:103C50000BF051BC38B5447885780078032824D01F
:103C60001A2804D02C282CD03A2833D031BD012C6E
:103C70000CD101200DF011FA012322461A210FF276
:103C8000982001B0BDE8304000F093BA022C28D152
:103C900002200DF002FA022322461A210FF28C2094
:103CA00001B0BDE8304000F084BA012C19D128469B
:103CB0000BF03EFC29460FF28820BDE8344000F0AE
:103CC00078BA012C0DD129460FF28020BDE834408E
:103CD00000F06FBA012C04D10120BDE832400DF094
:103CE000A7BE31BD0DF0D4BE0022412809D2C0EBE1
:103CF0000013054800EB8300006AC840C00700D5E8
:103D0000012210467047000024800120A1780F0591
:103D1000005C260530B595B00446012594F90000F5
:103D2000062800F2C480DFE800F0042649657BBA6B
:103D3000BE00E11C82B06846552208F01DFF0CBC95
:103D400094F9021094F9010001F0E7F8022809D172
:103D5000607801F0DCFA002561780FF2F81000F0CD
:103D600028FAAAE0032840F0A88061780FF2EC104E
:103D700000F01FFAA1E060781A280BD1E01C01F0D6
:103D80009BFDA37AD4F8062061790FF2D81000F0D9
:103D900010FA04E02C2802D1E01C01F08DFD94F90A
:103DA000021094F9010001F0C7F9032840F0858062
:103DB00061780FF2C81000F0FCF97EE0B4F85810FA
:103DC00000A801F0BEFA9DF9040002280AD100986B
:103DD00000B201F09CFA002500990FF2A81000F043
:103DE000E8F96AE0032868D100990FF2A01000F00A
:103DF000E0F962E00EF0E3F8022809D1607801F002
:103E000086FA002561780FF28C1000F0D2F954E0A8
:103E1000032852D161780FF2841000F0CAF94CE007
:103E2000607805280CD128460EF0A7F9022814D096
:103E3000032842D161780FF2741000F0BAF93CE027
:103E4000022804D10EF0A9FA0228F1D105E01728C2
:103E50000DD10EF0D3FB0228EAD1607801F057FAB9
:103E6000002561780FF23C1000F0A3F925E02F281F
:103E700023D10EF02BFD022809D1607801F047FA1A
:103E8000002561780FF22C1000F093F915E003285B
:103E900013D161780FF2241000F08BF90DE0204669
:103EA00001F0B4FA09E0204601F06BFC05E061780E
:103EB0000FF2101000F07DF90025284615B030BD36
:103EC000012070470FB4022004B0704701207047F2
:103ED0000020704770470000534D41432025642067
:103EE0002564202564000000534D412025642025D1
:103EF0006420256400000000534D524320256420B7
:103F00002564202564000000534D5220256420259F
:103F100064202564000000004154205249204E6F67
:103F200072202D25642025642025640041542052F0
:103F30004920426174202D256420256420256400D9
:103F400050442055542D256400000000534C4D2052
:103F500025640000414C4F4620256400414C4346F7
:103F6000202564004F4A4820454C20307825782091
:103F7000307825782030782578000000524C434670
:103F800020256400504C4F4620256400504C434689
:103F90002025640050414F4620256400504143468F
:103FA0002025640050504F46202564005050434661
:103FB0002025640050534F4620256400505343464B
:103FC000202564004558204C4D454C2025640000B8
:103FD00000220EF017BD10B50400200008F0CCFD43
:103FE000200010BD10B5040010480078002805D14D
:103FF0000F480EF046FD0D48012101700C480EF0EF
:1040000076FD20000FF046FC040009480EF0A3FDE9
:10401000200010BD10B5040005480EF068FD20001A
:104020000FF092FD02480EF096FD10BDC7F1012081
:1040300044EF012038B504000D0014480078401CFE
:104040001249087012480078002802D0A12001F01F
:104050000DFD01F061FF607E662802D0822001F034
:1040600005FD01F070FD05E0382120000FF0FAFF9A
:1040700001F069FDE06821698842F5D0290020003F
:1040800010F012F801F089FF31BD00BFCC390120DA
:10409000C5F1012010B5DFF8F0494FF40672002198
:1040A000204600F06BFD204610BDDFF8DC097047AC
:1040B00010B5FFF7EFFF044600231A4611460846E5
:1040C00000F0B6FAC046C04606F0C5FC0A212046FC
:1040D00000F058F807F0F6F806F024FC204600F04F
:1040E00042FA204600F018F8DFF8A009006806F050
:1040F0006AFE204600F0ACF900F041FB00F0FDF94B
:1041000000206072A072E0722073012060730020B2
:10411000E075A073012010BD10B50446DFF87009EA
:1041200006F0B3FD0120607110BD10B5044606F025
:10413000C8FE0120A07110BD38B50446012507F066
:1041400034F8012804D12846E0700020A0700AE06D
:10415000022804D10020E0702846A07003E000206F
:10416000E070A0700546284632BD80B507F0F8F92A
:10417000012002BD10B50446E07907F03FFB0121A4
:10418000217010BD70B504460025E679E171FFF796
:10419000F1FF002807D02046FFF7BEFF2046FFF7BB
:1041A000C4FF012503E0E6712046FFF7E3FF284640
:1041B00070BD0EB470B5C1B0054600A84FF4807153
:1041C000FFF706FFFFF771FF044645AB2A464FF4A1
:1041D000807100A80FF0D0FF00A80FF0EBFF451C86
:1041E00000A82818002100F8011CDFF8A868307822
:1041F000401C30707078F021084202D0992001F004
:1042000035FC01F0A0FC7078401C7070207E2818EE
:10421000B0F5FA7F10DA207E002803D0207E001946
:104220000A2101762A4600A9207E00191930FFF7DD
:10423000D2FE207E281820767078F021084202D025
:10424000992001F013FC7078401E7070C0B20028F5
:1042500001D101F072FC01F0A0FE41B070BC5DF82C
:1042600010FBDFF8EC07DFF828180160704710B585
:104270000446FFF71AFF0069E040C0070ED5DFF8DB
:1042800018482068401C20601E2807DB0FF6180025
:10429000FFF78FFF07F02CFB0020206010BDDFF838
:1042A000F8070021016070472DE9F84305460E46E6
:1042B00017464FF00208DFF8DC476078F02108422B
:1042C00002D0992001F0D2FB01F03DFC6078401C47
:1042D00060709DF80000401E8DF8000017F8019BEB
:1042E0002846FFF7BEFF00AB4A463946304607F086
:1042F00039FB002812D06078F021084202D09920C2
:1043000001F0B4FB6078401E6070C0B2002801D19B
:1043100001F013FCFFF7C3FF01201FE05FFA88F8EC
:10432000424629460FF29470FFF743FF4046A0F142
:1043300001080028D7D16078F021084202D09920E6
:1043400001F094FB6078401E6070C0B2002801D17B
:1043500001F0F3FB2846FFF78AFF0020BDE8F28357
:104360002DE9F04704460D4616461F46DFF8E8865D
:10437000089888F80000DFF81C9799F80100F021F0
:10438000084202D0992001F071FB01F0DCFB99F8A2
:104390000100401C89F801002046FFF762FF4FF042
:1043A000020A434632463946284607F08FFB00286A
:1043B00015D099F80100F021084202D0992001F0AF
:1043C00055FB99F80100401E89F80100C0B2002891
:1043D00001D101F0B2FBFFF762FF012022E05FFA9A
:1043E0008AFA524621460FF2E060FFF7E2FE50469D
:1043F000A0F1010A0028D4D199F80100F021084267
:1044000002D0992001F032FB99F80100401E89F892
:104410000100C0B2002801D101F08FFB2046FFF758
:1044200026FF0020BDE8F08780B51146029A1846A5
:1044300006F0A8FC012002BD80B510465A1E92B2BB
:104440000178401C06F07EFC012002BD0000000047
:1044500010B52DED028B82B00446DFF80006C4F8DB
:1044600010020120009001AB7522D0210020FFF73F
:10447000DBFF9DF80400702808D1002084F80E02AC
:104480000FF26860FFF795FE012032E001200090F6
:1044900001AB8F221B210020FFF7C6FF9DF80430DF
:1044A00040F219220FF22C610FF24860FFF781FEF3
:1044B0009DF804109FEDB68A692909D1022084F87D
:1044C0000E0284ED848ACFA0FFF773FE012010E076
:1044D0000FF23860FFF76DFE002084F80E02022014
:1044E00084F80E0284ED848A0FF23C60FFF761FECF
:1044F000012002B0BDEC028B10BD10F07FBCF8B5FE
:10450000044602270025DFF84C650DE039464F1EB2
:10451000C9B200290AD1002804D120690121A9408B
:104520008843206102276D1C1D2D11DA56F82500E5
:10453000D0F8A800006880470128E7D1216901224E
:10454000AA401143216156F8251001220A77E2E7BB
:104550002069032803D0022801D0012802D140F4A9
:1045600080502061F1BD07F0F7BB07F05CBC07F09D
:1045700007BC0000DFF81C05026A036A00BF00BF29
:1045800000BF00BF00BF9B1A8B42F6DB7047417231
:1045900030B597B0FBF7F8FD0446FFF786FD0546FA
:1045A00000A85C21FFF714FD0020ADF858008DF83D
:1045B00001000DF101000A21417000218170C170DC
:1045C000697A00290DD0002C18D000218DF8001038
:1045D00005218DF801100B21417000A8FFF79AFB0F
:1045E0000CE0002C0AD001218DF8001005218DF877
:1045F00001100B21417000A8FFF78CFB17B030BDF4
:1046000007F030BC07F038BC02210120F8E7022196
:104610000120F7E701210846F2E701210846F1E70A
:1046200007F034BC10B50446FFF73FFD447510BDDC
:104630002DE9F04782B00C4615462F4626468046A7
:104640004FF47A714FF03C0C4FF4616918FB09F29A
:1046500016FB0C22BA1801FB0232DFF804E49EF9C3
:1046600000A01AFB09F99EF901A01AFB0C9C9EF907
:1046700002904CFA89FCBEF9039001FB0C919EF864
:1046800008C0BCF1000F22D144EA000129431943BC
:1046900002D001218EF808108EF80000B8F1000F4A
:1046A00004D59EF8000018308EF800008EF8014006
:1046B0008EF80250AEF8033000933B4632469EF926
:1046C00000100FF2A440FFF774FDBDE8F38791429C
:1046D0000DD3A1EB020CACF2D17CDFF8C093CC453A
:1046E000DAD30FF2604002B0BDE8F04761E5D3D203
:1046F000A2EB010CACF2D179DFF8A0A3D145CBD36A
:1047000063460FF2504002B0BDE8F04751E510B5E6
:1047100004002FD0FBF764FED149CA68002A00D0FC
:10472000841AB1F80320A218A1F8032012B2B2F53E
:104730007A7F06DBA2F57A72A1F803208A78521CF0
:104740008A7091F902203C2A04DB3C3A8A704A784C
:10475000521C4A7091F901203C2A04DB3C3A4A7011
:104760000A78521C0A7091F90020182A01DB0022F5
:104770000A70C86010BDBA49052208F0FDB9B948F1
:104780000021017041701E22B74800F0F7B9000007
:104790007922A03A3FB400210120B24A1278002ABF
:1047A0000CD12CE05C68019DAC4224D11B89BDF882
:1047B0000840A3421FD10020491CC9B291421EDA11
:1047C000C1EBC103A84C04EB43039DF80340DD7823
:1047D000A54213D1002CE5D09C88BDF80450AC4212
:1047E00009D1DC88BDF80650AC4204D11B89BDF864
:1047F0000840A342DFD000F00100DDE7012004B053
:1048000030BC704753544D007FB40020014626E071
:10481000C0EBC0025400944D66193C224FF4616312
:10482000645D757812FB05F513FB0454B5786419C3
:104830009DF800509DF8016012FB06F213FB052263
:104840009DF8023052FA83F2A24201D2874B9A18A5
:10485000121BB2F5966F00D9491C401CC0B2814AA8
:1048600013789842D4DBC9B28B4202D20020107078
:1048700001E0581A10707FBC70472DE9FF419DF888
:104880000340022C5EDA00A80FC8FFF783FF01285F
:1048900058D100A80FC8FFF7B7FF9DF802509DF848
:1048A0000160714FDFF8BC8198F80000032825D122
:1048B0003C214FF461603A787B7811FB03F310FBE5
:1048C0000232BB78D2189DF8003011FB06F110FBC4
:1048D000031050FA85F0904201D264490818811AF9
:1048E000B1F5966F02D94FF4966000E0801AA8F8EF
:1048F0000200FFF744FF012088F8010098F800004B
:10490000C0EBC00149009DF80020CA55C9194E707E
:104910008D70CC70BDF80820002C09D1019B4B6034
:104920000A81BDF80A204A81BDF80C208A8106E080
:10493000BDF804308B80BDF80630CB800A81401C66
:1049400088F80000BDE8FF814649487800224A7097
:10495000704725220021524800F010B91CB500A86C
:10496000FFF709FF4E4C25220021204600F006F9F2
:104970009DF80000A07604F21A009DF80110417025
:104980009DF802108170FF21817213BD70B52DED6D
:10499000028B04462068002805D16068002802D1F7
:1049A000A068002849D0A089B0F57A7F45DA304D5B
:1049B000A06810F04FFB2F4A2F4B10F063FB2861CB
:1049C00069619FED2E8B206810F044FB53EC182B8F
:1049D00010F058FB28606960606810F03BFB53ECF6
:1049E000182B10F04FFBA860E960A089288305F11F
:1049F0001806A07BB070E07BF070207C3071607C8A
:104A00007071608A00EE100AB8EE400A10EE100ACB
:104A100008F06AFE1B4A234B10F034FB10F004FC34
:104A2000C5F81E00A08A7081A07D307310F0EDFEE5
:104A3000BDEC028BBDE870408BE710F0E4FEBDECEE
:104A4000028BBDE8704089E70949252208F094B837
:104A5000143B01209CE301209AF1012058A08B3ADD
:104A600088EF012000F1012088EC01208051010035
:104A70000CED0120FCA9F1D24D62503F8DEDB5A0A7
:104A8000F7C6B03E3BDF4F8D18CA0120383B0120EE
:104A900000540040CC39012004F101205F4C260570
:104AA00034ED0120976EA23F233E496E6974696C14
:104AB00061697A652049324300000000495745206A
:104AC00025642025640000004952452025642025E6
:104AD0006400000053485F48415F436865636B367C
:104AE0004178697353656E736F720000496E766525
:104AF0006E000000257328256429203A207265671E
:104B0000203D205B3078253032785D0057484F419A
:104B10004D49206661696C203A207265675B307888
:104B2000253032785D000000556E6B6E6F776E2019
:104B300036617869732073656E736F72212121214C
:104B40000000000041542D536574545331202564F6
:104B50002025640041542D5365745453322025643C
:104B6000202564202564000041542D536574542091
:104B700025643A25643A25642E25640010B50400A6
:104B800010000A000100200011F0A2F9200010BD61
:104B900038B5DFF8984BFEF713F9E06211F0CCF965
:104BA000FEF7C2FF2063002515E04FF0FF31C1760C
:104BB000DFF87C1B4162DFF87C1B8162DFF8782B19
:104BC000C262DFF8782B0263DFF8742B42638163E3
:104BD000806B80476D1C412D80F29D81216BC5EB60
:104BE0000510800000224254401842700122C27613
:104BF000002282764FF0FF32426000228270026211
:104C0000C2702A46921E3E2ACFD8DFE812F04B002F
:104C10004000450153005A00650093003F003F00EB
:104C20003F003F003F003F009C00A5003F003F00C9
:104C30003F003F00AD003F00B6003F004A01C70003
:104C40003F00F90004013F00D300DB00EC00F4005A
:104C5000E4003F003F003F003F003F003F003F00B7
:104C60003F00100125013F00310175008B003C0120
:104C700055017F003F00BF003F003F003F007B0128
:104C80006D00660173016B015D011D018DE7DFF8A9
:104C90003C2CC1F8EC20012281F8CE207C313C2252
:104CA000CA6395E701F17C02DFF8243C53631422C8
:104CB000CA678DE7EC31DFF81C2C8A6714224A643E
:104CC00086E701F5B672DFF8103C53630123937554
:104CD0003C22C1F86C217BE701F5B672DFF8FC1BC2
:104CE00011673C21D16373E701F69C51DFF8F02B8B
:104CF0000A673C22CA636BE701F63C31DFF8E42B1C
:104D0000CA6301228A773C228A6061E7DFF8D82BE8
:104D1000C1F8682C012281F84A2C01F6BC31B4227A
:104D20008A6755E701F63C31DFF8C02B8A67B42269
:104D30004A644DE7DFF8B82BC1F8182201F5B671C7
:104D400014228A6744E701F56272DFF8A83B5363D7
:104D5000B422C1F888233BE701F56271DFF8982B94
:104D60000A673C22CA6333E701F59E62DFF88C3B99
:104D700053633C22C1F8F0242AE7DFF8842BC1F802
:104D80009C2501F59E6114228A6721E701F668419E
:104D9000DFF8702B8A673C224A6419E701F214613C
:104DA000DFF8642BCA630722CA7701228A773C2284
:104DB0008A600DE701F20471DFF8502B8A67142234
:104DC0004A6405E701F28472DFF8443B536314221E
:104DD000C1F88427FCE601F63001DFF8382BCA63FE
:104DE00014228A60F4E601F28471DFF82C2B0A6742
:104DF0001422CA63ECE6DFF8242BC1F83028E7E67A
:104E000001F29462DFF8183B536301239375142277
:104E1000C1F89426DCE6DFF80C2BC1F80427012248
:104E200081F8E62601F294613C22CA63D0E601F6DD
:104E30005422DFF8F43A53630323D37501239375A7
:104E40003C22C1F8542AC3E601F6C861DFF8DC2A27
:104E50000A671422CA63BBE6DFF8D42AC1F8C42A61
:104E6000012281F8A62A01F654213C22CA63AFE64A
:104E7000DFF8C02AC1F83C2B012281F81E2B142236
:104E8000C1F8082BA4E601F6BC32DFF8AC3A536354
:104E90001422C1F8BC2B9BE6EC31DFF8A02ACA63D0
:104EA00096E6DFF89C2AC1F81426012281F8F6253F
:104EB0003C22C1F8E0258BE601F6BC31DFF8842AFC
:104EC0000A671422CA6383E601F6C862DFF8783AFB
:104ED00053631422C1F8C82E7AE6DFF8702AC1F8AD
:104EE000482E75E601F64861DFF8642A8A673C229D
:104EF0004A646DE601F64861DFF8582ACA633C222D
:104F00008A6065E601F69C52DFF84C3A536314223E
:104F1000C1F89C2D5CE6012032BD0CB42DE9F043B4
:104F200093B006460F46012435461A2D42D02C2D4B
:104F300040D0C5EB05104FEA8008DFF8F0970B2F43
:104F400018D1D9F8300040444178002912D090F9A6
:104F50001B20012A0EDB91420CDB304600F098F951
:104F60000446D9F830004044002141700FF6F81093
:104F7000FFF71FF9D9F8300018F8001000294FD1B9
:104F800008EB00014A78002A4AD1002208F80020E4
:104F9000104648701AA983B06846582207F0FCFDF5
:104FA0000EBC304600F084F8022834D0032837D1F4
:104FB000032435E00B2F15D1C5EB05104FEA80080F
:104FC000DFF86897D9F83000404490F91B20012A97
:104FD00008DB4078904205DB0FF69410FFF7E9F804
:104FE000022060E01A2D04D13846C0B20BF038F828
:104FF00005E02C2D03D13846C0B211F03FF81AA9B4
:1050000083B06846582207F0C7FD0EBC304600F05A
:105010004FF8022801D1022045E0032800D10324E3
:105020000A2F0DD1DFF80497D9F83000C5EB051130
:105030004FEA810818F80010491C08F8001017E022
:105040000B2F15D1DFF8E496032D07D1D9F83000E6
:1050500090F8B500002801D10AF095F9C5EB0510CC
:105060004FEA8008D9F8300040444178491C41702B
:10507000DFF8B896D9F83000D9F82C10C5EB051236
:105080004FEA8208D1E91C23CDE90223C96E0091C1
:1050900008EB00014B7818F8002029460FF6DC00D9
:1050A000FFF787F8204613B0BDE8F0035DF80CFB6E
:1050B0000EB42DE9F04193B005460124C0EB001178
:1050C0008F00DFF86866D6F830801A2801D02C28C7
:1050D00008D117F80800002809D107EB080040782C
:1050E000002804D107EB080000218170016219A992
:1050F00084B06846582207F04FFD0FBC47447F6AD2
:10510000B847022801D1022011E0032801D103246D
:105110000CE0D6F82C80D8E91C67204600212A46EE
:1051200012F05AF830433943C8E91C01204613B045
:10513000BDE8F0015DF810FB2DE9F04385B00446B1
:105140000D4601262746C7EB07104FEA8008DFF817
:10515000DC95D9F830001A2F4ED02C2F4CD040447B
:10516000417802290BDB90F91B20012A07DB13464B
:10517000994204DB42700FF61800FFF71AF8D9F8CD
:10518000300018F80010002904D108EB0002527812
:10519000002A65D02A460A2A09D1002903D0491ECF
:1051A00008F8001017E0002108F8001013E00B2A9F
:1051B00011D108EB00014A78002A02D0521E4A7031
:1051C00001E000224A70032F05D190F8B5000028B5
:1051D00001D10AF0E7F8D9F8300018F800100029DA
:1051E0003ED14044407800283AD1204600F050F8A3
:1051F000032835D1032633E018F80010002904D124
:1052000008EB00025278002A2AD02A460A2A09D13D
:10521000002903D0491E08F800100EE0002108F80C
:1052200000100AE00B2A08D140444178002902D03E
:10523000491E417001E0002141701A2F04D1284617
:10524000C0B20AF00DFF05E02C2F03D12846C0B2F2
:1052500010F014FF204600F01BF8032800D10326AD
:10526000D9F83000D9F82C10D1E91C23CDE902235C
:10527000C96E009108EB00014B7818F80020394600
:105280000FF21470FEF795FF304605B0BDE8F083CD
:105290002DE9F04107460126B846C8EB0810850005
:1052A000DFF88844206B2818806A8047032800D1E3
:1052B0000326B8F12C0F07D1206B295C00290AD1F5
:1052C00028184078002806D1384640B200F07BF913
:1052D000032800D10326206B295C002914D128184B
:1052E0004178002910D1002181700162D4F82C800E
:1052F000D8E91C4501203A4611F06EFF24EA00006F
:1053000025EA0101C8E91C013046BDE8F08138B545
:105310000446C4EB04108000DFF81054296B00220F
:1053200042544018114641702046FFF7B1FFE86A29
:10533000D0E91C2321460FF27460FEF73AFF0120EA
:1053400032BD2DE9F041B6B004460E46B6B201209A
:105350008DF86400DFF8D4531AA8E96A6C2207F0CC
:105360001BFC17951AA984B068466C2207F014FC40
:105370000FBC00F0E7F900270BE0032803D11897D2
:1053800003208DF86400286B4044002181707F1C4D
:105390007FB2412F2ADAEA6AD2E91C013A4600F0CC
:1053A0003FFB00F0010011F0000101D10028EED018
:1053B000C7EB07104FEA8008286B4044416800297A
:1053C000E5D48278521C8270D2B2724389B28A428A
:1053D000DDDBC06A80470228CFD1189702208DF804
:1053E0006400DDE91801C4E9000103E0DDE918010A
:1053F000C4E9000136B0BDE8F0810021401F42F24F
:105400000C72904200D20121084670472DE9F0430A
:1054100083B00446002001900422E11C01A8FEF79D
:10542000DAFD6178C14E376B3C2515FB0170406891
:10543000019A904204D10FF28450FEF7BAFE68E060
:105440001046FFF7DAFF002809D16178019B15FBB0
:10545000017042680FF27050FEF7ABFE59E0DFF8C2
:10546000FC743868D0F8008025E090F908906078E6
:10547000316B15FB0010006A20FA09F0C00717D540
:105480004FF0FF3000900346012201994846FEF795
:1054900021F840B200280BD1617801980090306B60
:1054A00015FB010043684A460FF23050FEF781FEBB
:1054B0004046D0F80080B842D7D13868D0F8008094
:1054C0001FE090F90890086A20FA09F0C00715D586
:1054D0004FF0FF33012249684846FEF767F840B2B3
:1054E00000280BD1617801980090306B15FB01000A
:1054F00043684A460FF2FC40FEF75BFE4046D0F898
:1055000000806178326B15FB0121B842D9D1019836
:105510004860BDE8F7832DE9F8438146002425461D
:10552000824F21E0C5EB05108600386B06EB0008C2
:10553000002088F80300FA6AD2E91C012A4600F02C
:105540006FFA00F0010011F0000101D100280AD02B
:105550004846D8F830108847002804D0386B3018F7
:105560000121C1700C466D1C412DDBDB2046BDE8DE
:10557000F2836E48C16AD1E91C23002B01D1002AB5
:105580000DD0002107E0C2EB0213026B02EB830295
:105590000023D370491C49B20A46412AF3DB704705
:1055A00000B502466148C36AD3E91C0100F038FA2D
:1055B00000F0010011F0000101D1002801D001200C
:1055C00000BD084600BD2DE9F04781460124C9EB26
:1055D00009108500554E306B2818006A002828D025
:1055E000DE4F3868D0F8008003E003244046D0F84E
:1055F0000080B8421DD090F908A0306B2818016ACD
:10560000012202FA0AF2114021FA0AF149B20129F3
:10561000ECD14FF0FF33012241685046FDF7C6FF41
:105620000028E2D0524649460FF2E030FEF7C1FDB5
:10563000DCE72046BDE8F08710B598B004465A2252
:10564000002100A8FFF79AFA0020ADF858008DF865
:1056500001000DF101000A21417000218170C1702B
:105660000846ADF85800600745D50520FFF798FFBC
:10567000002808D004208DF8000005208DF80100D6
:1056800000A8FEF747FB0220FFF78AFF002808D09A
:1056900004208DF8000002208DF8010000A8FEF71C
:1056A00039FB1720FFF77CFF002808D004208DF875
:1056B000000017208DF8010000A8FEF72BFB2F201B
:1056C000FFF76EFF002808D004208DF800002F207F
:1056D0008DF8010000A8FEF71DFB0320FFF760FF17
:1056E000002808D004208DF8000003208DF8010068
:1056F00000A8FEF70FFBE00611D50820FFF750FFCA
:1057000000280CD003208DF8000008208DF801003F
:1057100000A8FEF7FFFA0FF20030FEF74AFD18B0BE
:1057200010BD02492C2207F037BA000024EC0120FA
:10573000C53E0008C13E0008CD3E0008D13E00082D
:10574000D53E00080FB41B98009901600199416093
:10575000029981600399C1600499016105994161D1
:10576000BDF85A100183BDF85C104183BDF85E108E
:1057700081830C990162139941621499816204B08A
:1057800070474178122904D1401C0179002009F0AA
:10579000BBBE132904D1401C4179012009F0B4BEDD
:1057A000142904D1401C8179022009F0ADBE1529CD
:1057B00003D1401C007909F0CBBE302904D1401C34
:1057C00090F904000DF0E6B8012904D1401C90F9CD
:1057D00006000DF0CBB817296DD1411CCA78032AF9
:1057E0000AD01B2A14D01C2A33D01D2A1BD02C2AE5
:1057F0003FD0302A59D0704790F85610012902D175
:10580000401D0AF0AFBA022955D1401D0AF0AABACC
:10581000087A012802D188880CF038B902284AD1C8
:10582000C8880CF031B94A7B012A02D188880FF070
:10583000D0BF022A02D1C8880FF0BFBF042A03D10B
:10584000B0F811000FF0C7BF032A34D1C8890FF098
:10585000CEBFC879012802D1087911F06BBD0228AA
:1058600002D1487911F06DBD052824D1887911F055
:1058700060BD8A7B012A02D1087A11F0D3B9022ACD
:1058800002D1008A11F0BAB9032A02D1408A11F07C
:10589000BFB9042A03D11230408811F0DAB9052AC1
:1058A00009D11230808811F0C6B94879012802D197
:1058B000087911F06BBD7047294908607047284886
:1058C00000687047274908707047000053ED0008D2
:1058D000692301081D21010821520308BB1C03088C
:1058E000732B03085D740108B7D900088B4C0308BB
:1058F0000D1F0108896203080769030897660308FA
:10590000CD2501084D6B03082B0E0108EDE30108BE
:10591000C55903087DAF010851230308252F03084B
:10592000F172010859570108376B01084D5B0308F4
:10593000EB630308992801085334030871C2000877
:105940004F65030851FD0208D56103083DE90008D1
:10595000D15F0308495E0308D31901082C5C0020BD
:1059600008F101209BF10120414C20455800000026
:10597000414C2045582D415400000000414C256405
:1059800020256420256420256420256C6C7500008A
:10599000524C204558000000524C256420256420BC
:1059A000256420256420256C6C7500005445524DFB
:1059B00020256420256C6C75000000004558204CA3
:1059C0004D435231202564004558204C4D435232FE
:1059D0002025642025642025640000004558204CC3
:1059E0004D435233202564202564202564202564FE
:1059F000000000004558204C4D43523420256420BF
:105A0000256420256420256400000000534D524188
:105A10002025642025640000485720534D41000094
:105A2000D2B2203A22BF21FA02F000217047203280
:105A3000D141D04048409140D1404840704710B4D7
:105A400050F8041B81B102681218001D50F8043B85
:105A5000DC0744BFA9F10104E31852F8044B43F8F2
:105A6000044B091FF9D1EBE710BC704700B585B0B6
:105A700002460FF2140100A811F09EFD00A8C046D6
:105A8000C04605B000BD00004F4525640000000081
:105A900030488168002904BF08B008E0EFF30982AC
:105AA000A2F12802036882E8F84F83685A6000F088
:105AB0001BF9816859B14A6892E8F84F036002F116
:105AC000280282F3098813F47F4F36D070472248AA
:105AD00022490968401A80F308884FF08071C1613B
